{
  "abi": [
    {
      "anonymous": false,
      "inputs": [
        {
          "indexed": true,
          "internalType": "address",
          "name": "seller",
          "type": "address"
        },
        {
          "indexed": false,
          "internalType": "address",
          "name": "tokenAddress",
          "type": "address"
        }
      ],
      "name": "DepositedNFT",
      "type": "event"
    },
    {
      "anonymous": false,
      "inputs": [
        {
          "indexed": true,
          "internalType": "address",
          "name": "buyer",
          "type": "address"
        },
        {
          "indexed": false,
          "internalType": "uint256",
          "name": "amount",
          "type": "uint256"
        }
      ],
      "name": "DepositedToken",
      "type": "event"
    },
    {
      "anonymous": false,
      "inputs": [
        {
          "indexed": false,
          "internalType": "address",
          "name": "",
          "type": "address"
        },
        {
          "indexed": false,
          "internalType": "uint256",
          "name": "",
          "type": "uint256"
        }
      ],
      "name": "ReceivedNFT",
      "type": "event"
    },
    {
      "inputs": [
        {
          "internalType": "address",
          "name": "from",
          "type": "address"
        },
        {
          "internalType": "uint256",
          "name": "_tokenId",
          "type": "uint256"
        }
      ],
      "name": "depositNFT",
      "outputs": [
        {
          "internalType": "bool",
          "name": "",
          "type": "bool"
        }
      ],
      "stateMutability": "nonpayable",
      "type": "function"
    },
    {
      "inputs": [
        {
          "internalType": "address",
          "name": "from",
          "type": "address"
        },
        {
          "internalType": "uint256",
          "name": "_tokenId",
          "type": "uint256"
        },
        {
          "internalType": "uint256",
          "name": "amount",
          "type": "uint256"
        }
      ],
      "name": "depositToken",
      "outputs": [
        {
          "internalType": "bool",
          "name": "",
          "type": "bool"
        }
      ],
      "stateMutability": "nonpayable",
      "type": "function"
    },
    {
      "inputs": [
        {
          "internalType": "uint256",
          "name": "",
          "type": "uint256"
        }
      ],
      "name": "escrowOrderById",
      "outputs": [
        {
          "internalType": "address payable",
          "name": "buyer",
          "type": "address"
        },
        {
          "internalType": "address payable",
          "name": "seller",
          "type": "address"
        },
        {
          "internalType": "uint256",
          "name": "value",
          "type": "uint256"
        },
        {
          "internalType": "enum EscrowRegistry.EscrowOrderState",
          "name": "status",
          "type": "uint8"
        }
      ],
      "stateMutability": "view",
      "type": "function"
    },
    {
      "inputs": [
        {
          "internalType": "uint256",
          "name": "_tokenId",
          "type": "uint256"
        }
      ],
      "name": "getEscrowOrderById",
      "outputs": [
        {
          "components": [
            {
              "internalType": "address payable",
              "name": "buyer",
              "type": "address"
            },
            {
              "internalType": "address payable",
              "name": "seller",
              "type": "address"
            },
            {
              "internalType": "uint256",
              "name": "value",
              "type": "uint256"
            },
            {
              "internalType": "enum EscrowRegistry.EscrowOrderState",
              "name": "status",
              "type": "uint8"
            }
          ],
          "internalType": "struct EscrowRegistry.EscrowOrder",
          "name": "",
          "type": "tuple"
        }
      ],
      "stateMutability": "view",
      "type": "function"
    },
    {
      "inputs": [
        {
          "internalType": "uint256",
          "name": "_tokenId",
          "type": "uint256"
        },
        {
          "internalType": "bytes32",
          "name": "_secret",
          "type": "bytes32"
        }
      ],
      "name": "releaseOrder",
      "outputs": [
        {
          "internalType": "uint256",
          "name": "",
          "type": "uint256"
        }
      ],
      "stateMutability": "nonpayable",
      "type": "function"
    },
    {
      "inputs": [
        {
          "internalType": "address",
          "name": "_amho",
          "type": "address"
        },
        {
          "internalType": "address",
          "name": "_token",
          "type": "address"
        }
      ],
      "name": "setTokenAddresses",
      "outputs": [],
      "stateMutability": "nonpayable",
      "type": "function"
    },
    {
      "stateMutability": "payable",
      "type": "receive"
    }
  ],
  "bytecode": {
    "object": "0x608060405234801561001057600080fd5b50610b1f806100206000396000f3fe6080604052600436106100595760003560e01c806307dde5271461009d5780631c93b397146100d057806364b02059146100fd57806399c6d2de146101615780639b5b9b1814610191578063a89c8c5e146101b157600080fd5b3661009857604080513381523460208201527fd9250f54e22692b605c77401e4a961c2ccbbe3d8b8b111e0ee251804a62593d2910160405180910390a1005b600080fd5b3480156100a957600080fd5b506100bd6100b83660046108ec565b610209565b6040519081526020015b60405180910390f35b3480156100dc57600080fd5b506100f06100eb36600461090e565b61047b565b6040516100c7919061095f565b34801561010957600080fd5b5061015161011836600461090e565b600260208190526000918252604090912080546001820154928201546003909201546001600160a01b0391821693909116919060ff1684565b6040516100c794939291906109a3565b34801561016d57600080fd5b5061018161017c3660046109f0565b61051c565b60405190151581526020016100c7565b34801561019d57600080fd5b506101816101ac366004610a25565b61073e565b3480156101bd57600080fd5b506102076101cc366004610a51565b600080546001600160a01b039384166001600160a01b0319909116179055600180546001600160a81b0319169190921617600160a01b179055565b005b60008054604051638d17664d60e01b815260048101859052849184916001600160a01b039091169084908290638d17664d90602401602060405180830381865afa15801561025b573d6000803e3d6000fd5b505050506040513d601f19601f8201168201806040525081019061027f9190610a8a565b90508281146102c45760405162461bcd60e51b815260206004820152600c60248201526b155b985d5d1a1bdc9a5e995960a21b60448201526064015b60405180910390fd5b6000878152600260208181526040808420815160808101835281546001600160a01b0390811682526001830154169381019390935292830154908201526003820154909190606083019060ff16600581111561032257610322610927565b600581111561033357610333610927565b9052508051602082015160408084015160005491516323b872dd60e01b81523060048201526001600160a01b038086166024830152604482018f9052959650939492939092909116906323b872dd90606401600060405180830381600087803b15801561039f57600080fd5b505af11580156103b3573d6000803e3d6000fd5b505060015460405163a9059cbb60e01b81526001600160a01b03868116600483015260248201869052909116925063a9059cbb91506044016020604051808303816000875af115801561040a573d6000803e3d6000fd5b505050506040513d601f19601f8201168201806040525081019061042e9190610aa3565b5050506000898152600260208190526040822080546001600160a01b03199081168255600182018054909116905590810191909155600301805460ff191690555096979650505050505050565b6104a36040805160808101825260008082526020820181905291810182905290606082015290565b600082815260026020818152604092839020835160808101855281546001600160a01b0390811682526001830154169281019290925291820154928101929092526003810154606083019060ff16600581111561050257610502610927565b600581111561051357610513610927565b90525092915050565b600154600090600160a01b900460ff1661056c5760405162461bcd60e51b81526020600482015260116024820152701059191c995cdcd95cc81b9bdd081cd95d607a1b60448201526064016102bb565b600080546040516331a9108f60e11b8152600481018690526001600160a01b0390911691908290636352211e90602401602060405180830381865afa1580156105b9573d6000803e3d6000fd5b505050506040513d601f19601f820116820180604052508101906105dd9190610acc565b604080516080810182526001600160a01b03898116825283811660208084019182528385018a815260016060860181815260008e815260029485905297909720865181549087166001600160a01b0319918216178255945181830180549190971695169490941790945551908201559251600384018054959650929490929160ff199091169083600581111561067557610675610927565b0217905550506001546040516323b872dd60e01b81526001600160a01b0389811660048301523060248301526044820188905260009350909116906323b872dd906064016020604051808303816000875af11580156106d8573d6000803e3d6000fd5b505050506040513d601f19601f820116820180604052508101906106fc9190610aa3565b60405186815290915033907f0a3641841709764e7fddb9e250125a825976f5b18478824f0895a64677e905619060200160405180910390a29695505050505050565b600154600090600160a01b900460ff1661078e5760405162461bcd60e51b81526020600482015260116024820152701059191c995cdcd95cc81b9bdd081cd95d607a1b60448201526064016102bb565b600080546040516331a9108f60e11b8152600481018590526001600160a01b0390911690636352211e90602401602060405180830381865afa1580156107d8573d6000803e3d6000fd5b505050506040513d601f19601f820116820180604052508101906107fc9190610acc565b6000848152600260205260408082206001810180546001600160a01b038a81166001600160a01b0319909216821790925560038301805460ff19169055935492516323b872dd60e01b81526004810194909452306024850152604484018890529394509216906323b872dd90606401600060405180830381600087803b15801561088557600080fd5b505af1158015610899573d6000803e3d6000fd5b50506000546040516001600160a01b03918216815290851692507f08576d74ed25b3223d685b9f85e0fd9833ba0a9de166869267d5a891301085a8915060200160405180910390a2506001949350505050565b600080604083850312156108ff57600080fd5b50508035926020909101359150565b60006020828403121561092057600080fd5b5035919050565b634e487b7160e01b600052602160045260246000fd5b6006811061095b57634e487b7160e01b600052602160045260246000fd5b9052565b81516001600160a01b0390811682526020808401519091169082015260408083015190820152606080830151608083019161099c9084018261093d565b5092915050565b6001600160a01b0385811682528416602082015260408101839052608081016109cf606083018461093d565b95945050505050565b6001600160a01b03811681146109ed57600080fd5b50565b600080600060608486031215610a0557600080fd5b8335610a10816109d8565b95602085013595506040909401359392505050565b60008060408385031215610a3857600080fd5b8235610a43816109d8565b946020939093013593505050565b60008060408385031215610a6457600080fd5b8235610a6f816109d8565b91506020830135610a7f816109d8565b809150509250929050565b600060208284031215610a9c57600080fd5b5051919050565b600060208284031215610ab557600080fd5b81518015158114610ac557600080fd5b9392505050565b600060208284031215610ade57600080fd5b8151610ac5816109d856fea26469706673582212200374b3136c70884de799ec93b4ffa30dd68cb1671924d74f6069fe22a3944b6264736f6c634300080f0033",
    "linkReferences": {}
  },
  "methodIdentifiers": {
    "depositNFT(address,uint256)": "9b5b9b18",
    "depositToken(address,uint256,uint256)": "99c6d2de",
    "escrowOrderById(uint256)": "64b02059",
    "getEscrowOrderById(uint256)": "1c93b397",
    "releaseOrder(uint256,bytes32)": "07dde527",
    "setTokenAddresses(address,address)": "a89c8c5e"
  },
  "id": 1
}