{
  "abi": [
    {
      "anonymous": false,
      "inputs": [
        {
          "indexed": true,
          "internalType": "address",
          "name": "seller",
          "type": "address"
        },
        {
          "indexed": false,
          "internalType": "address",
          "name": "tokenAddress",
          "type": "address"
        }
      ],
      "name": "DepositedNFT",
      "type": "event"
    },
    {
      "anonymous": false,
      "inputs": [
        {
          "indexed": true,
          "internalType": "address",
          "name": "buyer",
          "type": "address"
        },
        {
          "indexed": false,
          "internalType": "uint256",
          "name": "amount",
          "type": "uint256"
        }
      ],
      "name": "DepositedToken",
      "type": "event"
    },
    {
      "anonymous": false,
      "inputs": [
        {
          "indexed": false,
          "internalType": "address",
          "name": "",
          "type": "address"
        },
        {
          "indexed": false,
          "internalType": "uint256",
          "name": "",
          "type": "uint256"
        }
      ],
      "name": "ReceivedNFT",
      "type": "event"
    },
    {
      "inputs": [
        {
          "internalType": "address",
          "name": "from",
          "type": "address"
        },
        {
          "internalType": "uint256",
          "name": "_tokenId",
          "type": "uint256"
        }
      ],
      "name": "depositNFT",
      "outputs": [
        {
          "internalType": "bool",
          "name": "",
          "type": "bool"
        }
      ],
      "stateMutability": "nonpayable",
      "type": "function"
    },
    {
      "inputs": [
        {
          "internalType": "address",
          "name": "_tokenAddress",
          "type": "address"
        },
        {
          "internalType": "address",
          "name": "from",
          "type": "address"
        },
        {
          "internalType": "uint256",
          "name": "_tokenId",
          "type": "uint256"
        },
        {
          "internalType": "uint256",
          "name": "amount",
          "type": "uint256"
        }
      ],
      "name": "depositToken",
      "outputs": [
        {
          "internalType": "bool",
          "name": "",
          "type": "bool"
        }
      ],
      "stateMutability": "nonpayable",
      "type": "function"
    },
    {
      "inputs": [
        {
          "internalType": "uint256",
          "name": "",
          "type": "uint256"
        }
      ],
      "name": "escrowOrderById",
      "outputs": [
        {
          "internalType": "address payable",
          "name": "buyer",
          "type": "address"
        },
        {
          "internalType": "address payable",
          "name": "seller",
          "type": "address"
        },
        {
          "internalType": "uint256",
          "name": "value",
          "type": "uint256"
        },
        {
          "internalType": "enum EscrowRegistry.EscrowOrderState",
          "name": "status",
          "type": "uint8"
        }
      ],
      "stateMutability": "view",
      "type": "function"
    },
    {
      "inputs": [
        {
          "internalType": "uint256",
          "name": "_tokenId",
          "type": "uint256"
        }
      ],
      "name": "getEscrowOrderById",
      "outputs": [
        {
          "components": [
            {
              "internalType": "address payable",
              "name": "buyer",
              "type": "address"
            },
            {
              "internalType": "address payable",
              "name": "seller",
              "type": "address"
            },
            {
              "internalType": "uint256",
              "name": "value",
              "type": "uint256"
            },
            {
              "internalType": "enum EscrowRegistry.EscrowOrderState",
              "name": "status",
              "type": "uint8"
            }
          ],
          "internalType": "struct EscrowRegistry.EscrowOrder",
          "name": "",
          "type": "tuple"
        }
      ],
      "stateMutability": "view",
      "type": "function"
    },
    {
      "inputs": [],
      "name": "getTokenAddress",
      "outputs": [
        {
          "internalType": "address",
          "name": "",
          "type": "address"
        }
      ],
      "stateMutability": "view",
      "type": "function"
    },
    {
      "inputs": [
        {
          "internalType": "uint256",
          "name": "_tokenId",
          "type": "uint256"
        },
        {
          "internalType": "bytes32",
          "name": "_secret",
          "type": "bytes32"
        }
      ],
      "name": "releaseOrder",
      "outputs": [
        {
          "internalType": "uint256",
          "name": "",
          "type": "uint256"
        }
      ],
      "stateMutability": "nonpayable",
      "type": "function"
    },
    {
      "inputs": [
        {
          "internalType": "address",
          "name": "_amho",
          "type": "address"
        },
        {
          "internalType": "address",
          "name": "_token",
          "type": "address"
        }
      ],
      "name": "setTokenAddresses",
      "outputs": [],
      "stateMutability": "nonpayable",
      "type": "function"
    },
    {
      "stateMutability": "payable",
      "type": "receive"
    }
  ],
  "bytecode": {
    "object": "0x608060405234801561001057600080fd5b50610b74806100206000396000f3fe6080604052600436106100745760003560e01c80633b796d791161004e5780633b796d791461014057806364b02059146101705780639b5b9b18146101d4578063a89c8c5e146101f457600080fd5b806307dde527146100b857806310fe9ae8146100eb5780631c93b3971461011357600080fd5b366100b357604080513381523460208201527fd9250f54e22692b605c77401e4a961c2ccbbe3d8b8b111e0ee251804a62593d2910160405180910390a1005b600080fd5b3480156100c457600080fd5b506100d86100d3366004610930565b61024c565b6040519081526020015b60405180910390f35b3480156100f757600080fd5b506001546040516001600160a01b0390911681526020016100e2565b34801561011f57600080fd5b5061013361012e366004610952565b6104be565b6040516100e291906109a3565b34801561014c57600080fd5b5061016061015b3660046109ff565b61055f565b60405190151581526020016100e2565b34801561017c57600080fd5b506101c461018b366004610952565b600260208190526000918252604090912080546001820154928201546003909201546001600160a01b0391821693909116919060ff1684565b6040516100e29493929190610a45565b3480156101e057600080fd5b506101606101ef366004610a7a565b610782565b34801561020057600080fd5b5061024a61020f366004610aa6565b600080546001600160a01b039384166001600160a01b0319909116179055600180546001600160a81b0319169190921617600160a01b179055565b005b60008054604051638d17664d60e01b815260048101859052849184916001600160a01b039091169084908290638d17664d90602401602060405180830381865afa15801561029e573d6000803e3d6000fd5b505050506040513d601f19601f820116820180604052508101906102c29190610adf565b90508281146103075760405162461bcd60e51b815260206004820152600c60248201526b155b985d5d1a1bdc9a5e995960a21b60448201526064015b60405180910390fd5b6000878152600260208181526040808420815160808101835281546001600160a01b0390811682526001830154169381019390935292830154908201526003820154909190606083019060ff1660058111156103655761036561096b565b60058111156103765761037661096b565b9052508051602082015160408084015160005491516323b872dd60e01b81523060048201526001600160a01b038086166024830152604482018f9052959650939492939092909116906323b872dd90606401600060405180830381600087803b1580156103e257600080fd5b505af11580156103f6573d6000803e3d6000fd5b505060015460405163a9059cbb60e01b81526001600160a01b03868116600483015260248201869052909116925063a9059cbb91506044016020604051808303816000875af115801561044d573d6000803e3d6000fd5b505050506040513d601f19601f820116820180604052508101906104719190610af8565b5050506000898152600260208190526040822080546001600160a01b03199081168255600182018054909116905590810191909155600301805460ff191690555096979650505050505050565b6104e66040805160808101825260008082526020820181905291810182905290606082015290565b600082815260026020818152604092839020835160808101855281546001600160a01b0390811682526001830154169281019290925291820154928101929092526003810154606083019060ff1660058111156105455761054561096b565b60058111156105565761055661096b565b90525092915050565b600154600090600160a01b900460ff166105af5760405162461bcd60e51b81526020600482015260116024820152701059191c995cdcd95cc81b9bdd081cd95d607a1b60448201526064016102fe565b600080546040516331a9108f60e11b8152600481018690526001600160a01b0390911691908290636352211e90602401602060405180830381865afa1580156105fc573d6000803e3d6000fd5b505050506040513d601f19601f820116820180604052508101906106209190610b21565b604080516080810182526001600160a01b03898116825283811660208084019182528385018a815260016060860181815260008e815260029485905297909720865181549087166001600160a01b0319918216178255945181830180549190971695169490941790945551908201559251600384018054959650929490929160ff19909116908360058111156106b8576106b861096b565b0217905550506001546040516323b872dd60e01b81526001600160a01b0389811660048301523060248301526044820188905260009350909116906323b872dd906064016020604051808303816000875af115801561071b573d6000803e3d6000fd5b505050506040513d601f19601f8201168201806040525081019061073f9190610af8565b60405186815290915033907f0a3641841709764e7fddb9e250125a825976f5b18478824f0895a64677e905619060200160405180910390a2979650505050505050565b600154600090600160a01b900460ff166107d25760405162461bcd60e51b81526020600482015260116024820152701059191c995cdcd95cc81b9bdd081cd95d607a1b60448201526064016102fe565b600080546040516331a9108f60e11b8152600481018590526001600160a01b0390911690636352211e90602401602060405180830381865afa15801561081c573d6000803e3d6000fd5b505050506040513d601f19601f820116820180604052508101906108409190610b21565b6000848152600260205260408082206001810180546001600160a01b038a81166001600160a01b0319909216821790925560038301805460ff19169055935492516323b872dd60e01b81526004810194909452306024850152604484018890529394509216906323b872dd90606401600060405180830381600087803b1580156108c957600080fd5b505af11580156108dd573d6000803e3d6000fd5b50506000546040516001600160a01b03918216815290851692507f08576d74ed25b3223d685b9f85e0fd9833ba0a9de166869267d5a891301085a8915060200160405180910390a2506001949350505050565b6000806040838503121561094357600080fd5b50508035926020909101359150565b60006020828403121561096457600080fd5b5035919050565b634e487b7160e01b600052602160045260246000fd5b6006811061099f57634e487b7160e01b600052602160045260246000fd5b9052565b81516001600160a01b039081168252602080840151909116908201526040808301519082015260608083015160808301916109e090840182610981565b5092915050565b6001600160a01b03811681146109fc57600080fd5b50565b60008060008060808587031215610a1557600080fd5b8435610a20816109e7565b93506020850135610a30816109e7565b93969395505050506040820135916060013590565b6001600160a01b038581168252841660208201526040810183905260808101610a716060830184610981565b95945050505050565b60008060408385031215610a8d57600080fd5b8235610a98816109e7565b946020939093013593505050565b60008060408385031215610ab957600080fd5b8235610ac4816109e7565b91506020830135610ad4816109e7565b809150509250929050565b600060208284031215610af157600080fd5b5051919050565b600060208284031215610b0a57600080fd5b81518015158114610b1a57600080fd5b9392505050565b600060208284031215610b3357600080fd5b8151610b1a816109e756fea2646970667358221220a9de729e96023d767008ddb4c6c1b1a9aae18e4fc4e5327ae44c1fe27cf723e664736f6c634300080f0033",
    "linkReferences": {}
  },
  "methodIdentifiers": {
    "depositNFT(address,uint256)": "9b5b9b18",
    "depositToken(address,address,uint256,uint256)": "3b796d79",
    "escrowOrderById(uint256)": "64b02059",
    "getEscrowOrderById(uint256)": "1c93b397",
    "getTokenAddress()": "10fe9ae8",
    "releaseOrder(uint256,bytes32)": "07dde527",
    "setTokenAddresses(address,address)": "a89c8c5e"
  },
  "id": 1
}