{
  "abi": [
    {
      "inputs": [],
      "name": "ERC712_VERSION",
      "outputs": [
        {
          "internalType": "string",
          "name": "",
          "type": "string"
        }
      ],
      "stateMutability": "view",
      "type": "function"
    },
    {
      "inputs": [],
      "name": "getChainId",
      "outputs": [
        {
          "internalType": "uint256",
          "name": "",
          "type": "uint256"
        }
      ],
      "stateMutability": "view",
      "type": "function"
    },
    {
      "inputs": [],
      "name": "getDomainSeperator",
      "outputs": [
        {
          "internalType": "bytes32",
          "name": "",
          "type": "bytes32"
        }
      ],
      "stateMutability": "view",
      "type": "function"
    }
  ],
  "bytecode": {
    "object": "0x60806040526000805460ff1916905534801561001a57600080fd5b506101128061002a6000396000f3fe6080604052348015600f57600080fd5b5060043610603c5760003560e01c80630f7e597014604157806320379ee51460745780633408e470146085575b600080fd5b6060604051806040016040528060018152602001603160f81b81525081565b604051606b9190608a565b60405180910390f35b6001545b604051908152602001606b565b466078565b600060208083528351808285015260005b8181101560b557858101830151858201604001528201609b565b8181111560c6576000604083870101525b50601f01601f191692909201604001939250505056fea264697066735822122093792a096d6b2df79f09cd172e0634071a4050ee920d69c497a7bb8c039a177564736f6c634300080d0033",
    "linkReferences": {}
  },
  "methodIdentifiers": {
    "ERC712_VERSION()": "0f7e5970",
    "getChainId()": "3408e470",
    "getDomainSeperator()": "20379ee5"
  },
  "id": 5
}