{
  "abi": [
    {
      "anonymous": false,
      "inputs": [
        {
          "indexed": true,
          "internalType": "address",
          "name": "implementation",
          "type": "address"
        }
      ],
      "name": "Upgraded",
      "type": "event"
    },
    {
      "inputs": [],
      "name": "beacon",
      "outputs": [
        {
          "internalType": "contract UpgradeableBeacon",
          "name": "",
          "type": "address"
        }
      ],
      "stateMutability": "view",
      "type": "function"
    },
    {
      "inputs": [],
      "name": "beaconAddress",
      "outputs": [
        {
          "internalType": "address",
          "name": "",
          "type": "address"
        }
      ],
      "stateMutability": "view",
      "type": "function"
    },
    {
      "inputs": [],
      "name": "beaconProxy",
      "outputs": [
        {
          "internalType": "contract UpgradeableBeaconProxy",
          "name": "",
          "type": "address"
        }
      ],
      "stateMutability": "view",
      "type": "function"
    },
    {
      "inputs": [
        {
          "internalType": "address",
          "name": "implementation",
          "type": "address"
        },
        {
          "internalType": "address",
          "name": "admin",
          "type": "address"
        },
        {
          "internalType": "bytes",
          "name": "data",
          "type": "bytes"
        }
      ],
      "name": "deploy",
      "outputs": [
        {
          "internalType": "address",
          "name": "",
          "type": "address"
        }
      ],
      "stateMutability": "nonpayable",
      "type": "function"
    },
    {
      "inputs": [
        {
          "internalType": "address",
          "name": "implementation",
          "type": "address"
        }
      ],
      "name": "deploy",
      "outputs": [
        {
          "internalType": "address",
          "name": "",
          "type": "address"
        }
      ],
      "stateMutability": "nonpayable",
      "type": "function"
    },
    {
      "inputs": [
        {
          "internalType": "address",
          "name": "implementation",
          "type": "address"
        },
        {
          "internalType": "address",
          "name": "admin",
          "type": "address"
        }
      ],
      "name": "deploy",
      "outputs": [
        {
          "internalType": "address",
          "name": "",
          "type": "address"
        }
      ],
      "stateMutability": "nonpayable",
      "type": "function"
    },
    {
      "inputs": [
        {
          "internalType": "address",
          "name": "implementation",
          "type": "address"
        },
        {
          "internalType": "bytes",
          "name": "data",
          "type": "bytes"
        }
      ],
      "name": "deploy",
      "outputs": [
        {
          "internalType": "address",
          "name": "",
          "type": "address"
        }
      ],
      "stateMutability": "nonpayable",
      "type": "function"
    },
    {
      "inputs": [
        {
          "internalType": "address",
          "name": "impl",
          "type": "address"
        }
      ],
      "name": "deployBeacon",
      "outputs": [
        {
          "internalType": "address",
          "name": "",
          "type": "address"
        }
      ],
      "stateMutability": "nonpayable",
      "type": "function"
    },
    {
      "inputs": [
        {
          "internalType": "address",
          "name": "_beacon",
          "type": "address"
        },
        {
          "internalType": "bytes",
          "name": "data",
          "type": "bytes"
        }
      ],
      "name": "deployBeaconProxy",
      "outputs": [
        {
          "internalType": "address",
          "name": "",
          "type": "address"
        }
      ],
      "stateMutability": "nonpayable",
      "type": "function"
    },
    {
      "inputs": [
        {
          "internalType": "address",
          "name": "implementation",
          "type": "address"
        },
        {
          "internalType": "bytes",
          "name": "data",
          "type": "bytes"
        }
      ],
      "name": "deployErc1967Proxy",
      "outputs": [
        {
          "internalType": "address",
          "name": "",
          "type": "address"
        }
      ],
      "stateMutability": "nonpayable",
      "type": "function"
    },
    {
      "inputs": [
        {
          "internalType": "address",
          "name": "implementation",
          "type": "address"
        },
        {
          "internalType": "address",
          "name": "admin",
          "type": "address"
        },
        {
          "internalType": "bytes",
          "name": "data",
          "type": "bytes"
        }
      ],
      "name": "deployUupsProxy",
      "outputs": [
        {
          "internalType": "address",
          "name": "",
          "type": "address"
        }
      ],
      "stateMutability": "nonpayable",
      "type": "function"
    },
    {
      "inputs": [],
      "name": "erc1967",
      "outputs": [
        {
          "internalType": "contract ERC1967Proxy",
          "name": "",
          "type": "address"
        }
      ],
      "stateMutability": "view",
      "type": "function"
    },
    {
      "inputs": [
        {
          "internalType": "address",
          "name": "addr",
          "type": "address"
        }
      ],
      "name": "isContract",
      "outputs": [
        {
          "internalType": "bool",
          "name": "",
          "type": "bool"
        }
      ],
      "stateMutability": "view",
      "type": "function"
    },
    {
      "inputs": [],
      "name": "proxyAddress",
      "outputs": [
        {
          "internalType": "address",
          "name": "",
          "type": "address"
        }
      ],
      "stateMutability": "view",
      "type": "function"
    },
    {
      "inputs": [],
      "name": "proxyType",
      "outputs": [
        {
          "internalType": "enum DeployProxy.ProxyType",
          "name": "",
          "type": "uint8"
        }
      ],
      "stateMutability": "view",
      "type": "function"
    },
    {
      "inputs": [
        {
          "internalType": "enum DeployProxy.ProxyType",
          "name": "proxy",
          "type": "uint8"
        },
        {
          "internalType": "address",
          "name": "newImplementation",
          "type": "address"
        },
        {
          "internalType": "bytes",
          "name": "data",
          "type": "bytes"
        },
        {
          "internalType": "address",
          "name": "admin",
          "type": "address"
        },
        {
          "internalType": "address",
          "name": "owner",
          "type": "address"
        }
      ],
      "name": "upgrade",
      "outputs": [],
      "stateMutability": "nonpayable",
      "type": "function"
    },
    {
      "inputs": [
        {
          "internalType": "address",
          "name": "newImplementation",
          "type": "address"
        },
        {
          "internalType": "address",
          "name": "admin",
          "type": "address"
        },
        {
          "internalType": "address",
          "name": "owner",
          "type": "address"
        }
      ],
      "name": "upgrade",
      "outputs": [],
      "stateMutability": "nonpayable",
      "type": "function"
    },
    {
      "inputs": [
        {
          "internalType": "address",
          "name": "newBeacon",
          "type": "address"
        },
        {
          "internalType": "bytes",
          "name": "data",
          "type": "bytes"
        },
        {
          "internalType": "bool",
          "name": "forceCall",
          "type": "bool"
        }
      ],
      "name": "upgradeBeacon",
      "outputs": [],
      "stateMutability": "nonpayable",
      "type": "function"
    },
    {
      "inputs": [],
      "name": "uups",
      "outputs": [
        {
          "internalType": "contract TransparentUpgradeableProxy",
          "name": "",
          "type": "address"
        }
      ],
      "stateMutability": "view",
      "type": "function"
    }
  ],
  "bytecode": {
    "object": "0x608060405234801561001057600080fd5b50613db7806100206000396000f3fe60806040523480156200001157600080fd5b5060043610620001395760003560e01c80634c96a38911620000bb578063a887a3cd116200007a578063a887a3cd14620002af578063d26643c214620002c3578063e97fac0514620002da578063eb27215714620002f1578063f000999e146200030557600080fd5b80634c96a3891462000242578063545e7c61146200025957806359659e9014620002705780635f9fb52c14620002845780637e2ec6d0146200029b57600080fd5b806327be6312116200010857806327be631214620001c75780632c3ab39814620001de5780632db5b86f14620001f75780634548bcb0146200020e5780634555d5c9146200022557600080fd5b80630fbab1fd146200013e5780631627905514620001725780631f6c36f9146200019a57806323f5c02d14620001ae575b600080fd5b620001556200014f366004620011f3565b6200031c565b6040516001600160a01b0390911681526020015b60405180910390f35b620001896200018336600462001247565b3b151590565b604051901515815260200162000169565b60025462000155906001600160a01b031681565b600054620001559061010090046001600160a01b031681565b62000155620001d836600462001247565b6200043f565b620001f5620001ef36600462001265565b6200054e565b005b6200015562000208366004620012f6565b620007c4565b620001556200021f366004620011f3565b62000884565b600054620002339060ff1681565b60405162000169919062001372565b620001556200025336600462001247565b6200095d565b620001556200026a3660046200139b565b62000a38565b60045462000155906001600160a01b031681565b620001f562000295366004620013d3565b62000aeb565b60015462000155906001600160a01b031681565b60035462000155906001600160a01b031681565b62000155620002d4366004620012f6565b62000b5a565b62000155620002eb366004620011f3565b62000c7a565b60055462000155906001600160a01b031681565b620001f56200031636600462001441565b62000d56565b600082826040516200032e90620010f8565b6200033b929190620014db565b604051809103906000f08015801562000358573d6000803e3d6000fd5b50600280546001600160a01b0319166001600160a01b0392831690811790915560008054610100600160a81b0319166101009283021790819055604080516318caf8e360e31b81529290910490921660048201526024810191909152600d60448201526c455243313936372050726f787960981b6064820152737109709ecfa91a80626ff3989d68f67f5b1dd12d9063c657c718906084015b600060405180830381600087803b1580156200040c57600080fd5b505af115801562000421573d6000803e3d6000fd5b505060005461010090046001600160a01b0316925050505b92915050565b600081604051620004509062001106565b6001600160a01b039091168152602001604051809103906000f0801580156200047d573d6000803e3d6000fd5b50600480546001600160a01b03199081166001600160a01b039390931692831782556001805490911683179055604080516318caf8e360e31b815291820192909252602481019190915260126044820152712ab833b930b232b0b13632902132b0b1b7b760711b6064820152737109709ecfa91a80626ff3989d68f67f5b1dd12d9063c657c71890608401600060405180830381600087803b1580156200052357600080fd5b505af115801562000538573d6000803e3d6000fd5b50506001546001600160a01b0316949350505050565b60405163248e63e160e11b815260016004820152600060248201819052604482018190526064820152737109709ecfa91a80626ff3989d68f67f5b1dd12d9063491cc7c290608401600060405180830381600087803b158015620005b157600080fd5b505af1158015620005c6573d6000803e3d6000fd5b50506040516001600160a01b03871692507fbc7cd75a20ee27fd9adebab32041f755214dbc6bffa90cc0225b39da2e5c2d3b9150600090a2813b15620006e55760405163ca669fa760e01b81526001600160a01b0382166004820152737109709ecfa91a80626ff3989d68f67f5b1dd12d9063ca669fa790602401600060405180830381600087803b1580156200065c57600080fd5b505af115801562000671573d6000803e3d6000fd5b5050600354604051639623609d60e01b81526001600160a01b038087169450639623609d9350620006ab9216908890889060040162001509565b600060405180830381600087803b158015620006c657600080fd5b505af1158015620006db573d6000803e3d6000fd5b50505050620007bd565b60405163ca669fa760e01b81526001600160a01b0383166004820152737109709ecfa91a80626ff3989d68f67f5b1dd12d9063ca669fa790602401600060405180830381600087803b1580156200073b57600080fd5b505af115801562000750573d6000803e3d6000fd5b505060035460405163278f794360e11b81526001600160a01b039091169250634f1ef2869150620007889087908790600401620014db565b600060405180830381600087803b158015620007a357600080fd5b505af1158015620007b8573d6000803e3d6000fd5b505050505b5050505050565b6000600360005460ff166003811115620007e257620007e26200135c565b036200080b5760405162461bcd60e51b8152600401620008029062001540565b60405180910390fd5b6000805460ff1660038111156200082657620008266200135c565b0362000841576200083984848462000b5a565b90506200087d565b600260005460ff1660038111156200085d576200085d6200135c565b036200087d5760405162461bcd60e51b8152600401620008029062001540565b9392505050565b60008282604051620008969062001114565b620008a3929190620014db565b604051809103906000f080158015620008c0573d6000803e3d6000fd5b50600580546001600160a01b0319166001600160a01b0392831690811790915560008054610100600160a81b0319166101009283021790819055604080516318caf8e360e31b81529290910490921660048201526024810191909152600c60448201526b426561636f6e2050726f787960a01b6064820152737109709ecfa91a80626ff3989d68f67f5b1dd12d9063c657c71890608401620003f1565b6000600360005460ff1660038111156200097b576200097b6200135c565b036200099b5760405162461bcd60e51b8152600401620008029062001591565b6000805460ff166003811115620009b657620009b66200135c565b03620009d65760405162461bcd60e51b81526004016200080290620015db565b600160005460ff166003811115620009f257620009f26200135c565b0362000a065760606200087d838262000884565b600260005460ff16600381111562000a225762000a226200135c565b0362000a335762000439826200043f565b919050565b6000600360005460ff16600381111562000a565762000a566200135c565b0362000a765760405162461bcd60e51b8152600401620008029062001540565b6000805460ff16600381111562000a915762000a916200135c565b0362000aaf57606062000aa684848362000b5a565b91505062000439565b600260005460ff16600381111562000acb5762000acb6200135c565b03620004395760405162461bcd60e51b8152600401620008029062001540565b600554604051635aabcad560e01b81526001600160a01b0390911690635aabcad59062000b219086908690869060040162001620565b600060405180830381600087803b15801562000b3c57600080fd5b505af115801562000b51573d6000803e3d6000fd5b50505050505050565b600083838360405162000b6d9062001122565b62000b7b9392919062001509565b604051809103906000f08015801562000b98573d6000803e3d6000fd5b50600380546001600160a01b0319166001600160a01b0392831690811790915560008054610100600160a81b0319166101009283021790819055604080516318caf8e360e31b81529290910490921660048201526024810191909152600a604482015269555550532050726f787960b01b6064820152737109709ecfa91a80626ff3989d68f67f5b1dd12d9063c657c71890608401600060405180830381600087803b15801562000c4857600080fd5b505af115801562000c5d573d6000803e3d6000fd5b505060005461010090046001600160a01b03169695505050505050565b6000600360005460ff16600381111562000c985762000c986200135c565b0362000cb85760405162461bcd60e51b8152600401620008029062001591565b6000805460ff16600381111562000cd35762000cd36200135c565b0362000cf35760405162461bcd60e51b81526004016200080290620015db565b600160005460ff16600381111562000d0f5762000d0f6200135c565b0362000d295762000d21838362000884565b905062000439565b600260005460ff16600381111562000d455762000d456200135c565b03620004395762000d21836200043f565b60405163248e63e160e11b815260016004820152600060248201819052604482018190526064820152737109709ecfa91a80626ff3989d68f67f5b1dd12d9063491cc7c290608401600060405180830381600087803b15801562000db957600080fd5b505af115801562000dce573d6000803e3d6000fd5b50506040516001600160a01b03861692507fbc7cd75a20ee27fd9adebab32041f755214dbc6bffa90cc0225b39da2e5c2d3b9150600090a2813b1562000ecd5760405163ca669fa760e01b81526001600160a01b0382166004820152737109709ecfa91a80626ff3989d68f67f5b1dd12d9063ca669fa790602401600060405180830381600087803b15801562000e6457600080fd5b505af115801562000e79573d6000803e3d6000fd5b505060035460405163266a23b160e21b81526001600160a01b039182166004820152868216602482015290851692506399a88ec49150604401600060405180830381600087803b15801562000b3c57600080fd5b6000805460ff16600381111562000ee85762000ee86200135c565b0362000f905760405163ca669fa760e01b81526001600160a01b0383166004820152737109709ecfa91a80626ff3989d68f67f5b1dd12d9063ca669fa790602401600060405180830381600087803b15801562000f4457600080fd5b505af115801562000f59573d6000803e3d6000fd5b5050600354604051631b2ce7f360e11b81526001600160a01b0387811660048301529091169250633659cfe6915060240162000b21565b600260005460ff16600381111562000fac5762000fac6200135c565b03620010565760405163ca669fa760e01b81526001600160a01b0383166004820152737109709ecfa91a80626ff3989d68f67f5b1dd12d9063ca669fa790602401600060405180830381600087803b1580156200100857600080fd5b505af11580156200101d573d6000803e3d6000fd5b505060048054604051631b2ce7f360e11b81526001600160a01b038881169382019390935291169250633659cfe6915060240162000b21565b600360005460ff1660038111156200107257620010726200135c565b03620010f35760405162461bcd60e51b815260206004820152604360248201527f5472616e73706172656e7420455243313936372070726f7869657320646f206e60448201527f6f742068617665207570677261646561626c6520696d706c656d656e746174696064820152626f6e7360e81b608482015260a40162000802565b505050565b610721806200165983390190565b6104e48062001d7a83390190565b610cdf806200225e83390190565b610e458062002f3d83390190565b80356001600160a01b038116811462000a3357600080fd5b634e487b7160e01b600052604160045260246000fd5b600082601f8301126200117057600080fd5b813567ffffffffffffffff808211156200118e576200118e62001148565b604051601f8301601f19908116603f01168101908282118183101715620011b957620011b962001148565b81604052838152866020858801011115620011d357600080fd5b836020870160208301376000602085830101528094505050505092915050565b600080604083850312156200120757600080fd5b620012128362001130565b9150602083013567ffffffffffffffff8111156200122f57600080fd5b6200123d858286016200115e565b9150509250929050565b6000602082840312156200125a57600080fd5b6200087d8262001130565b600080600080600060a086880312156200127e57600080fd5b8535600481106200128e57600080fd5b94506200129e6020870162001130565b9350604086013567ffffffffffffffff811115620012bb57600080fd5b620012c9888289016200115e565b935050620012da6060870162001130565b9150620012ea6080870162001130565b90509295509295909350565b6000806000606084860312156200130c57600080fd5b620013178462001130565b9250620013276020850162001130565b9150604084013567ffffffffffffffff8111156200134457600080fd5b62001352868287016200115e565b9150509250925092565b634e487b7160e01b600052602160045260246000fd5b60208101600483106200139557634e487b7160e01b600052602160045260246000fd5b91905290565b60008060408385031215620013af57600080fd5b620013ba8362001130565b9150620013ca6020840162001130565b90509250929050565b600080600060608486031215620013e957600080fd5b620013f48462001130565b9250602084013567ffffffffffffffff8111156200141157600080fd5b6200141f868287016200115e565b925050604084013580151581146200143657600080fd5b809150509250925092565b6000806000606084860312156200145757600080fd5b620014628462001130565b9250620014726020850162001130565b9150620014826040850162001130565b90509250925092565b6000815180845260005b81811015620014b35760208185018101518683018201520162001495565b81811115620014c6576000602083870101525b50601f01601f19169290920160200192915050565b6001600160a01b038316815260406020820181905260009062001501908301846200148b565b949350505050565b6001600160a01b0384811682528316602082015260606040820181905260009062001537908301846200148b565b95945050505050565b60208082526031908201527f70726f787920696d706c656d656e746174696f6e20646f6573277420696e636c6040820152707564652061646d696e206164647265737360781b606082015260800190565b6020808252602a908201527f5472616e73706172656e742070726f78792072657475726e7320612073696e676040820152696c65206164647265737360b01b606082015260800190565b60208082526025908201527f555550532070726f78696573207265717569726520616e2061646d696e206164604082015264647265737360d81b606082015260800190565b6001600160a01b038416815260606020820181905260009062001646908301856200148b565b9050821515604083015294935050505056fe608060405260405161072138038061072183398101604081905261002291610314565b61002e82826000610035565b5050610431565b61003e8361006b565b60008251118061004b5750805b156100665761006483836100ab60201b6100291760201c565b505b505050565b610074816100d7565b6040516001600160a01b038216907fbc7cd75a20ee27fd9adebab32041f755214dbc6bffa90cc0225b39da2e5c2d3b90600090a250565b60606100d083836040518060600160405280602781526020016106fa602791396101a9565b9392505050565b6100ea8161028760201b6100551760201c565b6101515760405162461bcd60e51b815260206004820152602d60248201527f455243313936373a206e657720696d706c656d656e746174696f6e206973206e60448201526c1bdd08184818dbdb9d1c9858dd609a1b60648201526084015b60405180910390fd5b806101887f360894a13ba1a3210667c828492db98dca3e2076cc3735a920a3ca505d382bbc60001b61029660201b6100641760201c565b80546001600160a01b0319166001600160a01b039290921691909117905550565b60606001600160a01b0384163b6102115760405162461bcd60e51b815260206004820152602660248201527f416464726573733a2064656c65676174652063616c6c20746f206e6f6e2d636f6044820152651b9d1c9858dd60d21b6064820152608401610148565b600080856001600160a01b03168560405161022c91906103e2565b600060405180830381855af49150503d8060008114610267576040519150601f19603f3d011682016040523d82523d6000602084013e61026c565b606091505b50909250905061027d828286610299565b9695505050505050565b6001600160a01b03163b151590565b90565b606083156102a85750816100d0565b8251156102b85782518084602001fd5b8160405162461bcd60e51b815260040161014891906103fe565b634e487b7160e01b600052604160045260246000fd5b60005b838110156103035781810151838201526020016102eb565b838111156100645750506000910152565b6000806040838503121561032757600080fd5b82516001600160a01b038116811461033e57600080fd5b60208401519092506001600160401b038082111561035b57600080fd5b818501915085601f83011261036f57600080fd5b815181811115610381576103816102d2565b604051601f8201601f19908116603f011681019083821181831017156103a9576103a96102d2565b816040528281528860208487010111156103c257600080fd5b6103d38360208301602088016102e8565b80955050505050509250929050565b600082516103f48184602087016102e8565b9190910192915050565b602081526000825180602084015261041d8160408501602087016102e8565b601f01601f19169190910160400192915050565b6102ba806104406000396000f3fe60806040523661001357610011610017565b005b6100115b610027610022610067565b61009f565b565b606061004e838360405180606001604052806027815260200161025e602791396100c3565b9392505050565b6001600160a01b03163b151590565b90565b600061009a7f360894a13ba1a3210667c828492db98dca3e2076cc3735a920a3ca505d382bbc546001600160a01b031690565b905090565b3660008037600080366000845af43d6000803e8080156100be573d6000f35b3d6000fd5b60606001600160a01b0384163b6101305760405162461bcd60e51b815260206004820152602660248201527f416464726573733a2064656c65676174652063616c6c20746f206e6f6e2d636f6044820152651b9d1c9858dd60d21b60648201526084015b60405180910390fd5b600080856001600160a01b03168560405161014b919061020e565b600060405180830381855af49150503d8060008114610186576040519150601f19603f3d011682016040523d82523d6000602084013e61018b565b606091505b509150915061019b8282866101a5565b9695505050505050565b606083156101b457508161004e565b8251156101c45782518084602001fd5b8160405162461bcd60e51b8152600401610127919061022a565b60005b838110156101f95781810151838201526020016101e1565b83811115610208576000848401525b50505050565b600082516102208184602087016101de565b9190910192915050565b60208152600082518060208401526102498160408501602087016101de565b601f01601f1916919091016040019291505056fe416464726573733a206c6f772d6c6576656c2064656c65676174652063616c6c206661696c6564a2646970667358221220a84fac0c1072d84edc1e7b0baadf6f6dabc35c52aef93bd36c91af8168071aed64736f6c634300080f0033416464726573733a206c6f772d6c6576656c2064656c65676174652063616c6c206661696c6564608060405234801561001057600080fd5b506040516104e43803806104e483398101604081905261002f91610151565b61003833610047565b61004181610097565b50610181565b600080546001600160a01b038381166001600160a01b0319831681178455604051919092169283917f8be0079c531659141344cd1fd0a4f28419497f9722a3daafe3b4186f6b6457e09190a35050565b6100aa8161014260201b6101a01760201c565b6101205760405162461bcd60e51b815260206004820152603360248201527f5570677261646561626c65426561636f6e3a20696d706c656d656e746174696f60448201527f6e206973206e6f74206120636f6e747261637400000000000000000000000000606482015260840160405180910390fd5b600180546001600160a01b0319166001600160a01b0392909216919091179055565b6001600160a01b03163b151590565b60006020828403121561016357600080fd5b81516001600160a01b038116811461017a57600080fd5b9392505050565b610354806101906000396000f3fe608060405234801561001057600080fd5b50600436106100575760003560e01c80633659cfe61461005c5780635c60da1b14610071578063715018a61461009a5780638da5cb5b146100a2578063f2fde38b146100b3575b600080fd5b61006f61006a3660046102ee565b6100c6565b005b6001546001600160a01b03165b6040516001600160a01b03909116815260200160405180910390f35b61006f61010e565b6000546001600160a01b031661007e565b61006f6100c13660046102ee565b610122565b6100ce6101af565b6100d781610209565b6040516001600160a01b038216907fbc7cd75a20ee27fd9adebab32041f755214dbc6bffa90cc0225b39da2e5c2d3b90600090a250565b6101166101af565b610120600061029e565b565b61012a6101af565b6001600160a01b0381166101945760405162461bcd60e51b815260206004820152602660248201527f4f776e61626c653a206e6577206f776e657220697320746865207a65726f206160448201526564647265737360d01b60648201526084015b60405180910390fd5b61019d8161029e565b50565b6001600160a01b03163b151590565b6000546001600160a01b031633146101205760405162461bcd60e51b815260206004820181905260248201527f4f776e61626c653a2063616c6c6572206973206e6f7420746865206f776e6572604482015260640161018b565b6001600160a01b0381163b61027c5760405162461bcd60e51b815260206004820152603360248201527f5570677261646561626c65426561636f6e3a20696d706c656d656e746174696f6044820152721b881a5cc81b9bdd08184818dbdb9d1c9858dd606a1b606482015260840161018b565b600180546001600160a01b0319166001600160a01b0392909216919091179055565b600080546001600160a01b038381166001600160a01b0319831681178455604051919092169283917f8be0079c531659141344cd1fd0a4f28419497f9722a3daafe3b4186f6b6457e09190a35050565b60006020828403121561030057600080fd5b81356001600160a01b038116811461031757600080fd5b939250505056fea264697066735822122014fff1e4110ee6b8e03bb3b3788f7d3331263072038d740fe87e5375038cf25e64736f6c634300080f003360806040523480156200001157600080fd5b5060405162000cdf38038062000cdf83398101604081905262000034916200049c565b818162000044828260006200004e565b50505050620005db565b620000598362000123565b6040516001600160a01b038416907f1cf3b03a6cf19fa2baba4df148e9dcabedea7f8a5c07840e207e5c089be95d3e90600090a26000825111806200009b5750805b156200011e576200011c836001600160a01b0316635c60da1b6040518163ffffffff1660e01b8152600401602060405180830381865afa158015620000e4573d6000803e3d6000fd5b505050506040513d601f19601f820116820180604052508101906200010a91906200056a565b83620002d560201b6200007b1760201c565b505b505050565b62000139816200030460201b620000a71760201c565b620001995760405162461bcd60e51b815260206004820152602560248201527f455243313936373a206e657720626561636f6e206973206e6f74206120636f6e6044820152641d1c9858dd60da1b60648201526084015b60405180910390fd5b62000213816001600160a01b0316635c60da1b6040518163ffffffff1660e01b8152600401602060405180830381865afa158015620001dc573d6000803e3d6000fd5b505050506040513d601f19601f820116820180604052508101906200020291906200056a565b6200030460201b620000a71760201c565b6200027a5760405162461bcd60e51b815260206004820152603060248201527f455243313936373a20626561636f6e20696d706c656d656e746174696f6e206960448201526f1cc81b9bdd08184818dbdb9d1c9858dd60821b606482015260840162000190565b80620002b47fa3f0ad74e5423aebfd80d3ef4346578335a9a72aeaee59ff6cb3582b35133d5060001b6200031360201b620000b61760201c565b80546001600160a01b0319166001600160a01b039290921691909117905550565b6060620002fd838360405180606001604052806027815260200162000cb86027913962000316565b9392505050565b6001600160a01b03163b151590565b90565b60606001600160a01b0384163b620003805760405162461bcd60e51b815260206004820152602660248201527f416464726573733a2064656c65676174652063616c6c20746f206e6f6e2d636f6044820152651b9d1c9858dd60d21b606482015260840162000190565b600080856001600160a01b0316856040516200039d919062000588565b600060405180830381855af49150503d8060008114620003da576040519150601f19603f3d011682016040523d82523d6000602084013e620003df565b606091505b509092509050620003f2828286620003fc565b9695505050505050565b606083156200040d575081620002fd565b8251156200041e5782518084602001fd5b8160405162461bcd60e51b8152600401620001909190620005a6565b80516001600160a01b03811681146200045257600080fd5b919050565b634e487b7160e01b600052604160045260246000fd5b60005b838110156200048a57818101518382015260200162000470565b838111156200011c5750506000910152565b60008060408385031215620004b057600080fd5b620004bb836200043a565b60208401519092506001600160401b0380821115620004d957600080fd5b818501915085601f830112620004ee57600080fd5b81518181111562000503576200050362000457565b604051601f8201601f19908116603f011681019083821181831017156200052e576200052e62000457565b816040528281528860208487010111156200054857600080fd5b6200055b8360208301602088016200046d565b80955050505050509250929050565b6000602082840312156200057d57600080fd5b620002fd826200043a565b600082516200059c8184602087016200046d565b9190910192915050565b6020815260008251806020840152620005c78160408501602087016200046d565b601f01601f19169190910160400192915050565b6106cd80620005eb6000396000f3fe6080604052600436106100225760003560e01c80635aabcad51461003957610031565b366100315761002f610059565b005b61002f610059565b34801561004557600080fd5b5061002f610054366004610504565b61006b565b6100696100646100b9565b610152565b565b610076838383610176565b505050565b60606100a0838360405180606001604052806027815260200161067160279139610236565b9392505050565b6001600160a01b03163b151590565b90565b60006100ec7fa3f0ad74e5423aebfd80d3ef4346578335a9a72aeaee59ff6cb3582b35133d50546001600160a01b031690565b6001600160a01b0316635c60da1b6040518163ffffffff1660e01b8152600401602060405180830381865afa158015610129573d6000803e3d6000fd5b505050506040513d601f19601f8201168201806040525081019061014d91906105d8565b905090565b3660008037600080366000845af43d6000803e808015610171573d6000f35b3d6000fd5b61017f83610318565b6040516001600160a01b038416907f1cf3b03a6cf19fa2baba4df148e9dcabedea7f8a5c07840e207e5c089be95d3e90600090a26000825111806101c05750805b1561007657610230836001600160a01b0316635c60da1b6040518163ffffffff1660e01b8152600401602060405180830381865afa158015610206573d6000803e3d6000fd5b505050506040513d601f19601f8201168201806040525081019061022a91906105d8565b8361007b565b50505050565b60606001600160a01b0384163b6102a35760405162461bcd60e51b815260206004820152602660248201527f416464726573733a2064656c65676174652063616c6c20746f206e6f6e2d636f6044820152651b9d1c9858dd60d21b60648201526084015b60405180910390fd5b600080856001600160a01b0316856040516102be9190610621565b600060405180830381855af49150503d80600081146102f9576040519150601f19603f3d011682016040523d82523d6000602084013e6102fe565b606091505b509150915061030e828286610488565b9695505050505050565b6001600160a01b0381163b61037d5760405162461bcd60e51b815260206004820152602560248201527f455243313936373a206e657720626561636f6e206973206e6f74206120636f6e6044820152641d1c9858dd60da1b606482015260840161029a565b6103e2816001600160a01b0316635c60da1b6040518163ffffffff1660e01b8152600401602060405180830381865afa1580156103be573d6000803e3d6000fd5b505050506040513d601f19601f820116820180604052508101906100a791906105d8565b6104475760405162461bcd60e51b815260206004820152603060248201527f455243313936373a20626561636f6e20696d706c656d656e746174696f6e206960448201526f1cc81b9bdd08184818dbdb9d1c9858dd60821b606482015260840161029a565b7fa3f0ad74e5423aebfd80d3ef4346578335a9a72aeaee59ff6cb3582b35133d5080546001600160a01b0319166001600160a01b0392909216919091179055565b606083156104975750816100a0565b8251156104a75782518084602001fd5b8160405162461bcd60e51b815260040161029a919061063d565b6001600160a01b03811681146104d657600080fd5b50565b634e487b7160e01b600052604160045260246000fd5b803580151581146104ff57600080fd5b919050565b60008060006060848603121561051957600080fd5b8335610524816104c1565b9250602084013567ffffffffffffffff8082111561054157600080fd5b818601915086601f83011261055557600080fd5b813581811115610567576105676104d9565b604051601f8201601f19908116603f0116810190838211818310171561058f5761058f6104d9565b816040528281528960208487010111156105a857600080fd5b8260208601602083013760006020848301015280965050505050506105cf604085016104ef565b90509250925092565b6000602082840312156105ea57600080fd5b81516100a0816104c1565b60005b838110156106105781810151838201526020016105f8565b838111156102305750506000910152565b600082516106338184602087016105f5565b9190910192915050565b602081526000825180602084015261065c8160408501602087016105f5565b601f01601f1916919091016040019291505056fe416464726573733a206c6f772d6c6576656c2064656c65676174652063616c6c206661696c6564a264697066735822122089c344e7716510cbfba550f82c600052176897a84c042df540467c81a58a6a9c64736f6c634300080f0033416464726573733a206c6f772d6c6576656c2064656c65676174652063616c6c206661696c6564608060405260405162000e4538038062000e45833981016040819052620000269162000490565b828162000036828260006200004d565b50620000449050826200008a565b505050620005c3565b6200005883620000e5565b600082511180620000665750805b1562000085576200008383836200012760201b6200022e1760201c565b505b505050565b7f7e644d79422f17c01e4894b5f4f588d331ebfa28653d42ae832dc59e38c9798f620000b562000156565b604080516001600160a01b03928316815291841660208301520160405180910390a1620000e2816200018f565b50565b620000f08162000244565b6040516001600160a01b038216907fbc7cd75a20ee27fd9adebab32041f755214dbc6bffa90cc0225b39da2e5c2d3b90600090a250565b60606200014f838360405180606001604052806027815260200162000e1e60279139620002f8565b9392505050565b60006200018060008051602062000dfe83398151915260001b620003de60201b620001ea1760201c565b546001600160a01b0316919050565b6001600160a01b038116620001fa5760405162461bcd60e51b815260206004820152602660248201527f455243313936373a206e65772061646d696e20697320746865207a65726f206160448201526564647265737360d01b60648201526084015b60405180910390fd5b806200022360008051602062000dfe83398151915260001b620003de60201b620001ea1760201c565b80546001600160a01b0319166001600160a01b039290921691909117905550565b6200025a81620003e160201b6200025a1760201c565b620002be5760405162461bcd60e51b815260206004820152602d60248201527f455243313936373a206e657720696d706c656d656e746174696f6e206973206e60448201526c1bdd08184818dbdb9d1c9858dd609a1b6064820152608401620001f1565b80620002237f360894a13ba1a3210667c828492db98dca3e2076cc3735a920a3ca505d382bbc60001b620003de60201b620001ea1760201c565b60606001600160a01b0384163b620003625760405162461bcd60e51b815260206004820152602660248201527f416464726573733a2064656c65676174652063616c6c20746f206e6f6e2d636f6044820152651b9d1c9858dd60d21b6064820152608401620001f1565b600080856001600160a01b0316856040516200037f919062000570565b600060405180830381855af49150503d8060008114620003bc576040519150601f19603f3d011682016040523d82523d6000602084013e620003c1565b606091505b509092509050620003d4828286620003f0565b9695505050505050565b90565b6001600160a01b03163b151590565b60608315620004015750816200014f565b825115620004125782518084602001fd5b8160405162461bcd60e51b8152600401620001f191906200058e565b80516001600160a01b03811681146200044657600080fd5b919050565b634e487b7160e01b600052604160045260246000fd5b60005b838110156200047e57818101518382015260200162000464565b83811115620000835750506000910152565b600080600060608486031215620004a657600080fd5b620004b1846200042e565b9250620004c1602085016200042e565b60408501519092506001600160401b0380821115620004df57600080fd5b818601915086601f830112620004f457600080fd5b8151818111156200050957620005096200044b565b604051601f8201601f19908116603f011681019083821181831017156200053457620005346200044b565b816040528281528960208487010111156200054e57600080fd5b6200056183602083016020880162000461565b80955050505050509250925092565b600082516200058481846020870162000461565b9190910192915050565b6020815260008251806020840152620005af81604085016020870162000461565b601f01601f19169190910160400192915050565b61082b80620005d36000396000f3fe60806040526004361061004e5760003560e01c80633659cfe6146100655780634f1ef286146100855780635c60da1b146100985780638f283970146100c9578063f851a440146100e95761005d565b3661005d5761005b6100fe565b005b61005b6100fe565b34801561007157600080fd5b5061005b6100803660046106b5565b610118565b61005b6100933660046106d0565b610155565b3480156100a457600080fd5b506100ad6101bc565b6040516001600160a01b03909116815260200160405180910390f35b3480156100d557600080fd5b5061005b6100e43660046106b5565b6101ed565b3480156100f557600080fd5b506100ad61020d565b610106610269565b6101166101116102fe565b610308565b565b61012061032c565b6001600160a01b0316330361014d5761014a8160405180602001604052806000815250600061035f565b50565b61014a6100fe565b61015d61032c565b6001600160a01b031633036101b4576101af8383838080601f0160208091040260200160405190810160405280939291908181526020018383808284376000920191909152506001925061035f915050565b505050565b6101af6100fe565b60006101c661032c565b6001600160a01b031633036101e2576101dd6102fe565b905090565b6101ea6100fe565b90565b6101f561032c565b6001600160a01b0316330361014d5761014a8161038a565b600061021761032c565b6001600160a01b031633036101e2576101dd61032c565b606061025383836040518060600160405280602781526020016107cf602791396103de565b9392505050565b6001600160a01b03163b151590565b61027161032c565b6001600160a01b031633036101165760405162461bcd60e51b815260206004820152604260248201527f5472616e73706172656e745570677261646561626c6550726f78793a2061646d60448201527f696e2063616e6e6f742066616c6c6261636b20746f2070726f78792074617267606482015261195d60f21b608482015260a4015b60405180910390fd5b60006101dd6104bb565b3660008037600080366000845af43d6000803e808015610327573d6000f35b3d6000fd5b60007fb53127684a568b3173ae13b9f8a6016e243e63b6e8ee1178d6a717850b5d61035b546001600160a01b0316919050565b610368836104e3565b6000825111806103755750805b156101af57610384838361022e565b50505050565b7f7e644d79422f17c01e4894b5f4f588d331ebfa28653d42ae832dc59e38c9798f6103b361032c565b604080516001600160a01b03928316815291841660208301520160405180910390a161014a81610523565b60606001600160a01b0384163b6104465760405162461bcd60e51b815260206004820152602660248201527f416464726573733a2064656c65676174652063616c6c20746f206e6f6e2d636f6044820152651b9d1c9858dd60d21b60648201526084016102f5565b600080856001600160a01b031685604051610461919061077f565b600060405180830381855af49150503d806000811461049c576040519150601f19603f3d011682016040523d82523d6000602084013e6104a1565b606091505b50915091506104b18282866105cc565b9695505050505050565b60007f360894a13ba1a3210667c828492db98dca3e2076cc3735a920a3ca505d382bbc610350565b6104ec81610605565b6040516001600160a01b038216907fbc7cd75a20ee27fd9adebab32041f755214dbc6bffa90cc0225b39da2e5c2d3b90600090a250565b6001600160a01b0381166105885760405162461bcd60e51b815260206004820152602660248201527f455243313936373a206e65772061646d696e20697320746865207a65726f206160448201526564647265737360d01b60648201526084016102f5565b807fb53127684a568b3173ae13b9f8a6016e243e63b6e8ee1178d6a717850b5d61035b80546001600160a01b0319166001600160a01b039290921691909117905550565b606083156105db575081610253565b8251156105eb5782518084602001fd5b8160405162461bcd60e51b81526004016102f5919061079b565b6001600160a01b0381163b6106725760405162461bcd60e51b815260206004820152602d60248201527f455243313936373a206e657720696d706c656d656e746174696f6e206973206e60448201526c1bdd08184818dbdb9d1c9858dd609a1b60648201526084016102f5565b807f360894a13ba1a3210667c828492db98dca3e2076cc3735a920a3ca505d382bbc6105ab565b80356001600160a01b03811681146106b057600080fd5b919050565b6000602082840312156106c757600080fd5b61025382610699565b6000806000604084860312156106e557600080fd5b6106ee84610699565b9250602084013567ffffffffffffffff8082111561070b57600080fd5b818601915086601f83011261071f57600080fd5b81358181111561072e57600080fd5b87602082850101111561074057600080fd5b6020830194508093505050509250925092565b60005b8381101561076e578181015183820152602001610756565b838111156103845750506000910152565b60008251610791818460208701610753565b9190910192915050565b60208152600082518060208401526107ba816040850160208701610753565b601f01601f1916919091016040019291505056fe416464726573733a206c6f772d6c6576656c2064656c65676174652063616c6c206661696c6564a2646970667358221220a6fbb80150f607ee3e25aab528226e0c46f23285b103f1077d92ff6c19bb46d864736f6c634300080f0033b53127684a568b3173ae13b9f8a6016e243e63b6e8ee1178d6a717850b5d6103416464726573733a206c6f772d6c6576656c2064656c65676174652063616c6c206661696c6564a2646970667358221220b8d7f4c75f1a9382acba7391675ee34631989533fe27c13eb3ec79a85f039df564736f6c634300080f0033",
    "linkReferences": {}
  },
  "methodIdentifiers": {
    "beacon()": "59659e90",
    "beaconAddress()": "7e2ec6d0",
    "beaconProxy()": "eb272157",
    "deploy(address)": "4c96a389",
    "deploy(address,address)": "545e7c61",
    "deploy(address,address,bytes)": "2db5b86f",
    "deploy(address,bytes)": "e97fac05",
    "deployBeacon(address)": "27be6312",
    "deployBeaconProxy(address,bytes)": "4548bcb0",
    "deployErc1967Proxy(address,bytes)": "0fbab1fd",
    "deployUupsProxy(address,address,bytes)": "d26643c2",
    "erc1967()": "1f6c36f9",
    "isContract(address)": "16279055",
    "proxyAddress()": "23f5c02d",
    "proxyType()": "4555d5c9",
    "upgrade(address,address,address)": "f000999e",
    "upgrade(uint8,address,bytes,address,address)": "2c3ab398",
    "upgradeBeacon(address,bytes,bool)": "5f9fb52c",
    "uups()": "a887a3cd"
  },
  "id": 10
}