{
  "abi": [
    {
      "inputs": [
        {
          "internalType": "string",
          "name": "_name",
          "type": "string"
        },
        {
          "internalType": "string",
          "name": "_symbol",
          "type": "string"
        },
        {
          "internalType": "address",
          "name": "_royaltySplitRecipient",
          "type": "address"
        },
        {
          "internalType": "uint128",
          "name": "_royaltySplitBps",
          "type": "uint128"
        },
        {
          "internalType": "address payable",
          "name": "_escrowContractAddress",
          "type": "address"
        }
      ],
      "stateMutability": "nonpayable",
      "type": "constructor"
    },
    {
      "inputs": [],
      "name": "ApprovalCallerNotOwnerNorApproved",
      "type": "error"
    },
    {
      "inputs": [],
      "name": "ApprovalQueryForNonexistentToken",
      "type": "error"
    },
    {
      "inputs": [],
      "name": "ApprovalToCurrentOwner",
      "type": "error"
    },
    {
      "inputs": [],
      "name": "ApproveToCaller",
      "type": "error"
    },
    {
      "inputs": [],
      "name": "BalanceQueryForZeroAddress",
      "type": "error"
    },
    {
      "inputs": [],
      "name": "MintToZeroAddress",
      "type": "error"
    },
    {
      "inputs": [],
      "name": "MintZeroQuantity",
      "type": "error"
    },
    {
      "inputs": [],
      "name": "OwnerQueryForNonexistentToken",
      "type": "error"
    },
    {
      "inputs": [],
      "name": "TransferCallerNotOwnerNorApproved",
      "type": "error"
    },
    {
      "inputs": [],
      "name": "TransferFromIncorrectOwner",
      "type": "error"
    },
    {
      "inputs": [],
      "name": "TransferToNonERC721ReceiverImplementer",
      "type": "error"
    },
    {
      "inputs": [],
      "name": "TransferToZeroAddress",
      "type": "error"
    },
    {
      "inputs": [],
      "name": "URIQueryForNonexistentToken",
      "type": "error"
    },
    {
      "anonymous": false,
      "inputs": [
        {
          "indexed": true,
          "internalType": "address",
          "name": "owner",
          "type": "address"
        },
        {
          "indexed": true,
          "internalType": "address",
          "name": "approved",
          "type": "address"
        },
        {
          "indexed": true,
          "internalType": "uint256",
          "name": "tokenId",
          "type": "uint256"
        }
      ],
      "name": "Approval",
      "type": "event"
    },
    {
      "anonymous": false,
      "inputs": [
        {
          "indexed": true,
          "internalType": "address",
          "name": "owner",
          "type": "address"
        },
        {
          "indexed": true,
          "internalType": "address",
          "name": "operator",
          "type": "address"
        },
        {
          "indexed": false,
          "internalType": "bool",
          "name": "approved",
          "type": "bool"
        }
      ],
      "name": "ApprovalForAll",
      "type": "event"
    },
    {
      "anonymous": false,
      "inputs": [
        {
          "indexed": false,
          "internalType": "string",
          "name": "prevURI",
          "type": "string"
        },
        {
          "indexed": false,
          "internalType": "string",
          "name": "newURI",
          "type": "string"
        }
      ],
      "name": "ContractURIUpdated",
      "type": "event"
    },
    {
      "anonymous": false,
      "inputs": [
        {
          "indexed": true,
          "internalType": "address",
          "name": "newRoyaltyRecipient",
          "type": "address"
        },
        {
          "indexed": false,
          "internalType": "uint256",
          "name": "newRoyaltyBps",
          "type": "uint256"
        }
      ],
      "name": "DefaultRoyalty",
      "type": "event"
    },
    {
      "anonymous": false,
      "inputs": [
        {
          "indexed": true,
          "internalType": "address",
          "name": "prevOwner",
          "type": "address"
        },
        {
          "indexed": true,
          "internalType": "address",
          "name": "newOwner",
          "type": "address"
        }
      ],
      "name": "OwnerUpdated",
      "type": "event"
    },
    {
      "anonymous": false,
      "inputs": [
        {
          "indexed": true,
          "internalType": "uint256",
          "name": "tokenId",
          "type": "uint256"
        },
        {
          "indexed": true,
          "internalType": "address",
          "name": "royaltyRecipient",
          "type": "address"
        },
        {
          "indexed": false,
          "internalType": "uint256",
          "name": "royaltyBps",
          "type": "uint256"
        }
      ],
      "name": "RoyaltyForToken",
      "type": "event"
    },
    {
      "anonymous": false,
      "inputs": [
        {
          "indexed": true,
          "internalType": "address",
          "name": "from",
          "type": "address"
        },
        {
          "indexed": true,
          "internalType": "address",
          "name": "to",
          "type": "address"
        },
        {
          "indexed": true,
          "internalType": "uint256",
          "name": "tokenId",
          "type": "uint256"
        }
      ],
      "name": "Transfer",
      "type": "event"
    },
    {
      "inputs": [
        {
          "internalType": "uint256",
          "name": "_tokenId",
          "type": "uint256"
        },
        {
          "internalType": "bytes32",
          "name": "_secret",
          "type": "bytes32"
        }
      ],
      "name": "_depositNftToEscrow",
      "outputs": [],
      "stateMutability": "nonpayable",
      "type": "function"
    },
    {
      "inputs": [
        {
          "internalType": "uint256",
          "name": "_tokenId",
          "type": "uint256"
        },
        {
          "internalType": "uint256",
          "name": "_amount",
          "type": "uint256"
        }
      ],
      "name": "_depositTokenToEscrow",
      "outputs": [],
      "stateMutability": "nonpayable",
      "type": "function"
    },
    {
      "inputs": [
        {
          "internalType": "uint256",
          "name": "_tokenId",
          "type": "uint256"
        },
        {
          "internalType": "bytes32",
          "name": "_secret",
          "type": "bytes32"
        }
      ],
      "name": "_releaseOrderToEscrow",
      "outputs": [
        {
          "internalType": "uint256",
          "name": "",
          "type": "uint256"
        }
      ],
      "stateMutability": "nonpayable",
      "type": "function"
    },
    {
      "inputs": [
        {
          "internalType": "address",
          "name": "to",
          "type": "address"
        },
        {
          "internalType": "uint256",
          "name": "tokenId",
          "type": "uint256"
        }
      ],
      "name": "approve",
      "outputs": [],
      "stateMutability": "nonpayable",
      "type": "function"
    },
    {
      "inputs": [
        {
          "internalType": "address",
          "name": "owner",
          "type": "address"
        }
      ],
      "name": "balanceOf",
      "outputs": [
        {
          "internalType": "uint256",
          "name": "",
          "type": "uint256"
        }
      ],
      "stateMutability": "view",
      "type": "function"
    },
    {
      "inputs": [
        {
          "internalType": "address",
          "name": "_to",
          "type": "address"
        },
        {
          "internalType": "uint256",
          "name": "_quantity",
          "type": "uint256"
        },
        {
          "internalType": "string",
          "name": "_baseURI",
          "type": "string"
        },
        {
          "internalType": "bytes",
          "name": "_data",
          "type": "bytes"
        }
      ],
      "name": "batchMintTo",
      "outputs": [],
      "stateMutability": "nonpayable",
      "type": "function"
    },
    {
      "inputs": [
        {
          "internalType": "uint256",
          "name": "_tokenId",
          "type": "uint256"
        }
      ],
      "name": "burn",
      "outputs": [],
      "stateMutability": "nonpayable",
      "type": "function"
    },
    {
      "inputs": [],
      "name": "contractURI",
      "outputs": [
        {
          "internalType": "string",
          "name": "",
          "type": "string"
        }
      ],
      "stateMutability": "view",
      "type": "function"
    },
    {
      "inputs": [
        {
          "internalType": "uint256",
          "name": "_tokenId",
          "type": "uint256"
        },
        {
          "internalType": "bytes32",
          "name": "_secret",
          "type": "bytes32"
        }
      ],
      "name": "depositNftToEscrow",
      "outputs": [],
      "stateMutability": "nonpayable",
      "type": "function"
    },
    {
      "inputs": [
        {
          "internalType": "uint256",
          "name": "_tokenId",
          "type": "uint256"
        },
        {
          "internalType": "uint256",
          "name": "_amount",
          "type": "uint256"
        }
      ],
      "name": "depositTokenToEscrow",
      "outputs": [],
      "stateMutability": "nonpayable",
      "type": "function"
    },
    {
      "inputs": [],
      "name": "fetchOnSale",
      "outputs": [
        {
          "components": [
            {
              "internalType": "enum AmhoNFT.ItemState",
              "name": "itemState",
              "type": "uint8"
            },
            {
              "internalType": "uint256",
              "name": "tokenId",
              "type": "uint256"
            },
            {
              "internalType": "uint256",
              "name": "price",
              "type": "uint256"
            },
            {
              "internalType": "address",
              "name": "currentOwner",
              "type": "address"
            },
            {
              "internalType": "address",
              "name": "nextOwner",
              "type": "address"
            },
            {
              "internalType": "bytes32",
              "name": "secret",
              "type": "bytes32"
            }
          ],
          "internalType": "struct AmhoNFT.NFTState[]",
          "name": "",
          "type": "tuple[]"
        }
      ],
      "stateMutability": "view",
      "type": "function"
    },
    {
      "inputs": [],
      "name": "fetchOwned",
      "outputs": [
        {
          "components": [
            {
              "internalType": "enum AmhoNFT.ItemState",
              "name": "itemState",
              "type": "uint8"
            },
            {
              "internalType": "uint256",
              "name": "tokenId",
              "type": "uint256"
            },
            {
              "internalType": "uint256",
              "name": "price",
              "type": "uint256"
            },
            {
              "internalType": "address",
              "name": "currentOwner",
              "type": "address"
            },
            {
              "internalType": "address",
              "name": "nextOwner",
              "type": "address"
            },
            {
              "internalType": "bytes32",
              "name": "secret",
              "type": "bytes32"
            }
          ],
          "internalType": "struct AmhoNFT.NFTState[]",
          "name": "",
          "type": "tuple[]"
        }
      ],
      "stateMutability": "view",
      "type": "function"
    },
    {
      "inputs": [],
      "name": "fetchPendingInitOrders",
      "outputs": [
        {
          "components": [
            {
              "internalType": "enum AmhoNFT.ItemState",
              "name": "itemState",
              "type": "uint8"
            },
            {
              "internalType": "uint256",
              "name": "tokenId",
              "type": "uint256"
            },
            {
              "internalType": "uint256",
              "name": "price",
              "type": "uint256"
            },
            {
              "internalType": "address",
              "name": "currentOwner",
              "type": "address"
            },
            {
              "internalType": "address",
              "name": "nextOwner",
              "type": "address"
            },
            {
              "internalType": "bytes32",
              "name": "secret",
              "type": "bytes32"
            }
          ],
          "internalType": "struct AmhoNFT.NFTState[]",
          "name": "",
          "type": "tuple[]"
        }
      ],
      "stateMutability": "view",
      "type": "function"
    },
    {
      "inputs": [],
      "name": "fetchPendingTether",
      "outputs": [
        {
          "components": [
            {
              "internalType": "enum AmhoNFT.ItemState",
              "name": "itemState",
              "type": "uint8"
            },
            {
              "internalType": "uint256",
              "name": "tokenId",
              "type": "uint256"
            },
            {
              "internalType": "uint256",
              "name": "price",
              "type": "uint256"
            },
            {
              "internalType": "address",
              "name": "currentOwner",
              "type": "address"
            },
            {
              "internalType": "address",
              "name": "nextOwner",
              "type": "address"
            },
            {
              "internalType": "bytes32",
              "name": "secret",
              "type": "bytes32"
            }
          ],
          "internalType": "struct AmhoNFT.NFTState[]",
          "name": "",
          "type": "tuple[]"
        }
      ],
      "stateMutability": "view",
      "type": "function"
    },
    {
      "inputs": [
        {
          "internalType": "uint256",
          "name": "tokenId",
          "type": "uint256"
        }
      ],
      "name": "getApproved",
      "outputs": [
        {
          "internalType": "address",
          "name": "",
          "type": "address"
        }
      ],
      "stateMutability": "view",
      "type": "function"
    },
    {
      "inputs": [],
      "name": "getBaseURICount",
      "outputs": [
        {
          "internalType": "uint256",
          "name": "",
          "type": "uint256"
        }
      ],
      "stateMutability": "view",
      "type": "function"
    },
    {
      "inputs": [
        {
          "internalType": "uint256",
          "name": "_index",
          "type": "uint256"
        }
      ],
      "name": "getBatchIdAtIndex",
      "outputs": [
        {
          "internalType": "uint256",
          "name": "",
          "type": "uint256"
        }
      ],
      "stateMutability": "view",
      "type": "function"
    },
    {
      "inputs": [
        {
          "internalType": "uint256",
          "name": "_tokenId",
          "type": "uint256"
        }
      ],
      "name": "getCurrentOwner",
      "outputs": [
        {
          "internalType": "address",
          "name": "",
          "type": "address"
        }
      ],
      "stateMutability": "view",
      "type": "function"
    },
    {
      "inputs": [],
      "name": "getCurrentTokenId",
      "outputs": [
        {
          "internalType": "uint256",
          "name": "",
          "type": "uint256"
        }
      ],
      "stateMutability": "view",
      "type": "function"
    },
    {
      "inputs": [],
      "name": "getDefaultRoyaltyInfo",
      "outputs": [
        {
          "internalType": "address",
          "name": "",
          "type": "address"
        },
        {
          "internalType": "uint16",
          "name": "",
          "type": "uint16"
        }
      ],
      "stateMutability": "view",
      "type": "function"
    },
    {
      "inputs": [
        {
          "internalType": "uint256",
          "name": "_tokenId",
          "type": "uint256"
        }
      ],
      "name": "getNFTState",
      "outputs": [
        {
          "components": [
            {
              "internalType": "enum AmhoNFT.ItemState",
              "name": "itemState",
              "type": "uint8"
            },
            {
              "internalType": "uint256",
              "name": "tokenId",
              "type": "uint256"
            },
            {
              "internalType": "uint256",
              "name": "price",
              "type": "uint256"
            },
            {
              "internalType": "address",
              "name": "currentOwner",
              "type": "address"
            },
            {
              "internalType": "address",
              "name": "nextOwner",
              "type": "address"
            },
            {
              "internalType": "bytes32",
              "name": "secret",
              "type": "bytes32"
            }
          ],
          "internalType": "struct AmhoNFT.NFTState",
          "name": "",
          "type": "tuple"
        }
      ],
      "stateMutability": "view",
      "type": "function"
    },
    {
      "inputs": [
        {
          "internalType": "uint256",
          "name": "_tokenId",
          "type": "uint256"
        }
      ],
      "name": "getNextOwner",
      "outputs": [
        {
          "internalType": "address",
          "name": "",
          "type": "address"
        }
      ],
      "stateMutability": "view",
      "type": "function"
    },
    {
      "inputs": [
        {
          "internalType": "uint256",
          "name": "_tokenId",
          "type": "uint256"
        }
      ],
      "name": "getPrice",
      "outputs": [
        {
          "internalType": "uint256",
          "name": "",
          "type": "uint256"
        }
      ],
      "stateMutability": "view",
      "type": "function"
    },
    {
      "inputs": [
        {
          "internalType": "uint256",
          "name": "_tokenId",
          "type": "uint256"
        }
      ],
      "name": "getRoyaltyInfoForToken",
      "outputs": [
        {
          "internalType": "address",
          "name": "",
          "type": "address"
        },
        {
          "internalType": "uint16",
          "name": "",
          "type": "uint16"
        }
      ],
      "stateMutability": "view",
      "type": "function"
    },
    {
      "inputs": [
        {
          "internalType": "uint256",
          "name": "_tokenId",
          "type": "uint256"
        }
      ],
      "name": "getSecret",
      "outputs": [
        {
          "internalType": "bytes32",
          "name": "",
          "type": "bytes32"
        }
      ],
      "stateMutability": "view",
      "type": "function"
    },
    {
      "inputs": [
        {
          "internalType": "address",
          "name": "owner",
          "type": "address"
        },
        {
          "internalType": "address",
          "name": "operator",
          "type": "address"
        }
      ],
      "name": "isApprovedForAll",
      "outputs": [
        {
          "internalType": "bool",
          "name": "",
          "type": "bool"
        }
      ],
      "stateMutability": "view",
      "type": "function"
    },
    {
      "inputs": [
        {
          "internalType": "address",
          "name": "_operator",
          "type": "address"
        },
        {
          "internalType": "uint256",
          "name": "_tokenId",
          "type": "uint256"
        }
      ],
      "name": "isApprovedOrOwner",
      "outputs": [
        {
          "internalType": "bool",
          "name": "isApprovedOrOwnerOf",
          "type": "bool"
        }
      ],
      "stateMutability": "view",
      "type": "function"
    },
    {
      "inputs": [
        {
          "internalType": "address",
          "name": "_to",
          "type": "address"
        },
        {
          "internalType": "string",
          "name": "_tokenURI",
          "type": "string"
        }
      ],
      "name": "mintTo",
      "outputs": [],
      "stateMutability": "nonpayable",
      "type": "function"
    },
    {
      "inputs": [
        {
          "internalType": "bytes32",
          "name": "secret",
          "type": "bytes32"
        },
        {
          "internalType": "string",
          "name": "tokenURI",
          "type": "string"
        },
        {
          "internalType": "uint256",
          "name": "_price",
          "type": "uint256"
        }
      ],
      "name": "mintToken",
      "outputs": [
        {
          "internalType": "uint256",
          "name": "",
          "type": "uint256"
        }
      ],
      "stateMutability": "payable",
      "type": "function"
    },
    {
      "inputs": [
        {
          "internalType": "bytes[]",
          "name": "data",
          "type": "bytes[]"
        }
      ],
      "name": "multicall",
      "outputs": [
        {
          "internalType": "bytes[]",
          "name": "results",
          "type": "bytes[]"
        }
      ],
      "stateMutability": "nonpayable",
      "type": "function"
    },
    {
      "inputs": [],
      "name": "name",
      "outputs": [
        {
          "internalType": "string",
          "name": "",
          "type": "string"
        }
      ],
      "stateMutability": "view",
      "type": "function"
    },
    {
      "inputs": [],
      "name": "nextTokenIdToMint",
      "outputs": [
        {
          "internalType": "uint256",
          "name": "",
          "type": "uint256"
        }
      ],
      "stateMutability": "view",
      "type": "function"
    },
    {
      "inputs": [],
      "name": "owner",
      "outputs": [
        {
          "internalType": "address",
          "name": "",
          "type": "address"
        }
      ],
      "stateMutability": "view",
      "type": "function"
    },
    {
      "inputs": [
        {
          "internalType": "uint256",
          "name": "tokenId",
          "type": "uint256"
        }
      ],
      "name": "ownerOf",
      "outputs": [
        {
          "internalType": "address",
          "name": "",
          "type": "address"
        }
      ],
      "stateMutability": "view",
      "type": "function"
    },
    {
      "inputs": [
        {
          "internalType": "uint256",
          "name": "_tokenId",
          "type": "uint256"
        },
        {
          "internalType": "bytes32",
          "name": "_secret",
          "type": "bytes32"
        }
      ],
      "name": "releaseOrderToEscrow",
      "outputs": [
        {
          "internalType": "uint256",
          "name": "",
          "type": "uint256"
        }
      ],
      "stateMutability": "nonpayable",
      "type": "function"
    },
    {
      "inputs": [
        {
          "internalType": "uint256",
          "name": "tokenId",
          "type": "uint256"
        },
        {
          "internalType": "uint256",
          "name": "salePrice",
          "type": "uint256"
        }
      ],
      "name": "royaltyInfo",
      "outputs": [
        {
          "internalType": "address",
          "name": "receiver",
          "type": "address"
        },
        {
          "internalType": "uint256",
          "name": "royaltyAmount",
          "type": "uint256"
        }
      ],
      "stateMutability": "view",
      "type": "function"
    },
    {
      "inputs": [
        {
          "internalType": "address",
          "name": "from",
          "type": "address"
        },
        {
          "internalType": "address",
          "name": "to",
          "type": "address"
        },
        {
          "internalType": "uint256",
          "name": "tokenId",
          "type": "uint256"
        }
      ],
      "name": "safeTransferFrom",
      "outputs": [],
      "stateMutability": "nonpayable",
      "type": "function"
    },
    {
      "inputs": [
        {
          "internalType": "address",
          "name": "from",
          "type": "address"
        },
        {
          "internalType": "address",
          "name": "to",
          "type": "address"
        },
        {
          "internalType": "uint256",
          "name": "tokenId",
          "type": "uint256"
        },
        {
          "internalType": "bytes",
          "name": "_data",
          "type": "bytes"
        }
      ],
      "name": "safeTransferFrom",
      "outputs": [],
      "stateMutability": "nonpayable",
      "type": "function"
    },
    {
      "inputs": [
        {
          "internalType": "address",
          "name": "operator",
          "type": "address"
        },
        {
          "internalType": "bool",
          "name": "approved",
          "type": "bool"
        }
      ],
      "name": "setApprovalForAll",
      "outputs": [],
      "stateMutability": "nonpayable",
      "type": "function"
    },
    {
      "inputs": [
        {
          "internalType": "string",
          "name": "_uri",
          "type": "string"
        }
      ],
      "name": "setContractURI",
      "outputs": [],
      "stateMutability": "nonpayable",
      "type": "function"
    },
    {
      "inputs": [
        {
          "internalType": "address",
          "name": "_royaltyRecipient",
          "type": "address"
        },
        {
          "internalType": "uint256",
          "name": "_royaltyBps",
          "type": "uint256"
        }
      ],
      "name": "setDefaultRoyaltyInfo",
      "outputs": [],
      "stateMutability": "nonpayable",
      "type": "function"
    },
    {
      "inputs": [
        {
          "internalType": "address",
          "name": "_newOwner",
          "type": "address"
        }
      ],
      "name": "setOwner",
      "outputs": [],
      "stateMutability": "nonpayable",
      "type": "function"
    },
    {
      "inputs": [
        {
          "internalType": "uint256",
          "name": "_tokenId",
          "type": "uint256"
        },
        {
          "internalType": "address",
          "name": "_recipient",
          "type": "address"
        },
        {
          "internalType": "uint256",
          "name": "_bps",
          "type": "uint256"
        }
      ],
      "name": "setRoyaltyInfoForToken",
      "outputs": [],
      "stateMutability": "nonpayable",
      "type": "function"
    },
    {
      "inputs": [
        {
          "internalType": "bytes4",
          "name": "interfaceId",
          "type": "bytes4"
        }
      ],
      "name": "supportsInterface",
      "outputs": [
        {
          "internalType": "bool",
          "name": "",
          "type": "bool"
        }
      ],
      "stateMutability": "view",
      "type": "function"
    },
    {
      "inputs": [],
      "name": "symbol",
      "outputs": [
        {
          "internalType": "string",
          "name": "",
          "type": "string"
        }
      ],
      "stateMutability": "view",
      "type": "function"
    },
    {
      "inputs": [
        {
          "internalType": "uint256",
          "name": "_tokenId",
          "type": "uint256"
        }
      ],
      "name": "tokenURI",
      "outputs": [
        {
          "internalType": "string",
          "name": "",
          "type": "string"
        }
      ],
      "stateMutability": "view",
      "type": "function"
    },
    {
      "inputs": [],
      "name": "totalSupply",
      "outputs": [
        {
          "internalType": "uint256",
          "name": "",
          "type": "uint256"
        }
      ],
      "stateMutability": "view",
      "type": "function"
    },
    {
      "inputs": [
        {
          "internalType": "address",
          "name": "from",
          "type": "address"
        },
        {
          "internalType": "address",
          "name": "to",
          "type": "address"
        },
        {
          "internalType": "uint256",
          "name": "tokenId",
          "type": "uint256"
        }
      ],
      "name": "transferFrom",
      "outputs": [],
      "stateMutability": "nonpayable",
      "type": "function"
    }
  ],
  "bytecode": {
    "object": "0x60806040526000600f553480156200001657600080fd5b5060405162003e2338038062003e238339810160408190526200003991620002a0565b84848484838360026200004d8382620003e6565b5060036200005c8282620003e6565b505060008055506200006e33620000bd565b62000083826001600160801b0383166200010f565b5050601080546001600160a01b039094166001600160a01b03199485168117909155601180549094161790925550620004b2945050505050565b600980546001600160a01b038381166001600160a01b0319831681179093556040519116919082907f8292fce18fa69edf4db7b94ea2e58241df0ae57f97e0a6c9b29067028bf92d7690600090a35050565b612710811115620001585760405162461bcd60e51b815260206004820152600f60248201526e45786365656473206d61782062707360881b604482015260640160405180910390fd5b600a80546001600160a01b0384166001600160b01b03199091168117600160a01b61ffff851602179091556040518281527f90d7ec04bcb8978719414f82e52e4cb651db41d0e6f8cea6118c2191e6183adb9060200160405180910390a25050565b634e487b7160e01b600052604160045260246000fd5b600082601f830112620001e257600080fd5b81516001600160401b0380821115620001ff57620001ff620001ba565b604051601f8301601f19908116603f011681019082821181831017156200022a576200022a620001ba565b816040528381526020925086838588010111156200024757600080fd5b600091505b838210156200026b57858201830151818301840152908201906200024c565b838211156200027d5760008385830101525b9695505050505050565b6001600160a01b03811681146200029d57600080fd5b50565b600080600080600060a08688031215620002b957600080fd5b85516001600160401b0380821115620002d157600080fd5b620002df89838a01620001d0565b96506020880151915080821115620002f657600080fd5b506200030588828901620001d0565b9450506040860151620003188162000287565b60608701519093506001600160801b03811681146200033657600080fd5b6080870151909250620003498162000287565b809150509295509295909350565b600181811c908216806200036c57607f821691505b6020821081036200038d57634e487b7160e01b600052602260045260246000fd5b50919050565b601f821115620003e157600081815260208120601f850160051c81016020861015620003bc5750805b601f850160051c820191505b81811015620003dd57828155600101620003c8565b5050505b505050565b81516001600160401b03811115620004025762000402620001ba565b6200041a8162000413845462000357565b8462000393565b602080601f831160018114620004525760008415620004395750858301515b600019600386901b1c1916600185901b178555620003dd565b600085815260208120601f198616915b82811015620004835788860151825594840194600190910190840162000462565b5085821015620004a25787850151600019600388901b60f8161c191681555b5050505050600190811b01905550565b61396180620004c26000396000f3fe6080604052600436106102925760003560e01c80636352211e1161015a578063a22cb465116100c1578063c87b56dd1161007a578063c87b56dd14610854578063e757223014610874578063e8a3d48514610894578063e985e9c5146108a9578063f15c3894146108f2578063fd6086cb1461091257600080fd5b8063a22cb4651461077c578063ac9650d81461079c578063b24f2d39146107c9578063b88d4fde146107f4578063c37977ff14610814578063c79de86e1461083457600080fd5b80638d17664d116101135780638d17664d146106d45780638da5cb5b146106f45780638f8143c014610712578063938e3d7b1461072757806395d89b41146107475780639bcf7a151461075c57600080fd5b80636352211e1461061157806363b45e2d146106315780636db248501461064657806370a082311461065b578063754a81d91461067b5780637ace341b1461069b57600080fd5b806329734a4f116101fe57806342966c68116101b757806342966c6814610538578063430c2081146105585780634cc157df1461057857806356189236146105ba5780635b6ee8e5146105cf578063600dd5ea146105f157600080fd5b806329734a4f146104715780632a55205a146104845780632cb7c907146104c357806339066889146104e35780633b1475a71461050357806342842e0e1461051857600080fd5b806318160ddd1161025057806318160ddd146103885780631b2ab868146103ab5780631e77607d146103e45780631ece83b01461040457806323b872dd146104315780632419f51b1461045157600080fd5b806275a3171461029757806301ffc9a7146102b957806306fdde03146102ee578063081812fc14610310578063095ea7b31461034857806313af403514610368575b600080fd5b3480156102a357600080fd5b506102b76102b2366004613014565b610927565b005b3480156102c557600080fd5b506102d96102d4366004613077565b6109c2565b60405190151581526020015b60405180910390f35b3480156102fa57600080fd5b50610303610a2f565b6040516102e591906130ec565b34801561031c57600080fd5b5061033061032b3660046130ff565b610ac1565b6040516001600160a01b0390911681526020016102e5565b34801561035457600080fd5b506102b7610363366004613118565b610b05565b34801561037457600080fd5b506102b7610383366004613142565b610b8b565b34801561039457600080fd5b50600154600054035b6040519081526020016102e5565b3480156103b757600080fd5b506103306103c63660046130ff565b6000908152601260205260409020600401546001600160a01b031690565b3480156103f057600080fd5b506102b76103ff36600461315d565b610bbb565b34801561041057600080fd5b5061042461041f3660046130ff565b610bc5565b6040516102e591906131fb565b34801561043d57600080fd5b506102b761044c366004613209565b610c57565b34801561045d57600080fd5b5061039d61046c3660046130ff565b610c62565b61039d61047f366004613245565b610cd0565b34801561049057600080fd5b506104a461049f36600461315d565b610dda565b604080516001600160a01b0390931683526020830191909152016102e5565b3480156104cf57600080fd5b506102b76104de36600461315d565b610e17565b3480156104ef57600080fd5b506102b76104fe36600461315d565b610e21565b34801561050f57600080fd5b5060005461039d565b34801561052457600080fd5b506102b7610533366004613209565b610f7f565b34801561054457600080fd5b506102b76105533660046130ff565b610f9a565b34801561056457600080fd5b506102d9610573366004613118565b610fa5565b34801561058457600080fd5b506105986105933660046130ff565b611024565b604080516001600160a01b03909316835261ffff9091166020830152016102e5565b3480156105c657600080fd5b50600f5461039d565b3480156105db57600080fd5b506105e461108f565b6040516102e59190613294565b3480156105fd57600080fd5b506102b761060c366004613118565b611252565b34801561061d57600080fd5b5061033061062c3660046130ff565b611280565b34801561063d57600080fd5b50600c5461039d565b34801561065257600080fd5b506105e4611292565b34801561066757600080fd5b5061039d610676366004613142565b611442565b34801561068757600080fd5b506102b76106963660046132e2565b611490565b3480156106a757600080fd5b506103306106b63660046130ff565b6000908152601260205260409020600301546001600160a01b031690565b3480156106e057600080fd5b5061039d6106ef3660046130ff565b611504565b34801561070057600080fd5b506009546001600160a01b0316610330565b34801561071e57600080fd5b506105e461151b565b34801561073357600080fd5b506102b761074236600461335f565b6116f8565b34801561075357600080fd5b50610303611725565b34801561076857600080fd5b506102b7610777366004613393565b611734565b34801561078857600080fd5b506102b76107973660046133c6565b611763565b3480156107a857600080fd5b506107bc6107b73660046133fd565b6117f8565b6040516102e59190613471565b3480156107d557600080fd5b50600a546001600160a01b03811690600160a01b900461ffff16610598565b34801561080057600080fd5b506102b761080f3660046134d3565b6118ec565b34801561082057600080fd5b5061039d61082f36600461315d565b611930565b34801561084057600080fd5b506102b761084f36600461315d565b611a03565b34801561086057600080fd5b5061030361086f3660046130ff565b611bbc565b34801561088057600080fd5b5061039d61088f3660046130ff565b611caa565b3480156108a057600080fd5b50610303611cbf565b3480156108b557600080fd5b506102d96108c436600461352e565b6001600160a01b03918216600090815260076020908152604080832093909416825291909152205460ff1690565b3480156108fe57600080fd5b5061039d61090d36600461315d565b611d4d565b34801561091e57600080fd5b506105e4611d59565b61092f611f59565b61097a5760405162461bcd60e51b81526020600482015260176024820152762737ba1030baba3437b934bd32b2103a379036b4b73a1760491b60448201526064015b60405180910390fd5b80600e600061098860005490565b815260200190815260200160002090816109a291906135e9565b506109be82600160405180602001604052806000815250611f86565b5050565b60006301ffc9a760e01b6001600160e01b0319831614806109f357506380ac58cd60e01b6001600160e01b03198316145b80610a0e5750635b5e139f60e01b6001600160e01b03198316145b80610a2957506001600160e01b0319821663152a902d60e11b145b92915050565b606060028054610a3e90613561565b80601f0160208091040260200160405190810160405280929190818152602001828054610a6a90613561565b8015610ab75780601f10610a8c57610100808354040283529160200191610ab7565b820191906000526020600020905b815481529060010190602001808311610a9a57829003601f168201915b5050505050905090565b6000610acc8261211b565b610ae9576040516333d1c03960e21b815260040160405180910390fd5b506000908152600660205260409020546001600160a01b031690565b6000610b1082611280565b9050806001600160a01b0316836001600160a01b031603610b445760405163250fdee360e21b815260040160405180910390fd5b336001600160a01b03821614610b7b57610b5e81336108c4565b610b7b576040516367d9dca160e11b815260040160405180910390fd5b610b86838383612146565b505050565b610b93611f59565b610baf5760405162461bcd60e51b8152600401610971906136a8565b610bb8816121a2565b50565b6109be8282610e21565b610bcd612f1f565b60008281526012602052604090819020815160c081019092528054829060ff166004811115610bfe57610bfe61317f565b6004811115610c0f57610c0f61317f565b8152600182015460208201526002820154604082015260038201546001600160a01b039081166060830152600483015416608082015260059091015460a09091015292915050565b610b868383836121f4565b6000610c6d600c5490565b8210610cab5760405162461bcd60e51b815260206004820152600d60248201526c092dcecc2d8d2c840d2dcc8caf609b1b6044820152606401610971565b600c8281548110610cbe57610cbe6136d0565b90600052602060002001549050919050565b600f5460105460009190610cee906001600160a01b03166001611763565b610cf833826123cf565b6040805160c081018252600080825260208083018590528284018790523360608401526080830182905260a08301899052848252601290529190912081518154829060ff19166001836004811115610d5257610d5261317f565b021790555060208201516001808301919091556040830151600283015560608301516003830180546001600160a01b039283166001600160a01b031991821617909155608085015160048501805491909316911617905560a090920151600590910155600f8054600090610dc79084906136fc565b9182905550600f555090505b9392505050565b600080600080610de986611024565b90945084925061ffff169050612710610e028287613714565b610e0c9190613749565b925050509250929050565b6109be8282611a03565b81816000610e2e83611caa565b9050818114610e765760405162461bcd60e51b815260206004820152601460248201527315dc9bdb99c81d985b1d59481dd85cc81cd95b9d60621b6044820152606401610971565b601154604051634ce3696f60e11b815233600482015260248101879052604481018690526001600160a01b03909116906399c6d2de906064016020604051808303816000875af1158015610ece573d6000803e3d6000fd5b505050506040513d601f19601f82011682018060405250810190610ef2919061375d565b610f4c5760405162461bcd60e51b815260206004820152602560248201527f546f6b656e732077657265206e6f742061626c6520746f206265206465706f7360448201526434ba32b21760d91b6064820152608401610971565b5050506000918252506012602052604090206004810180546001600160a01b03191633179055805460ff19166001179055565b610b86838383604051806020016040528060008152506118ec565b610bb88160016124e1565b600080610fb183611280565b9050806001600160a01b0316846001600160a01b03161480610ff857506001600160a01b0380821660009081526007602090815260408083209388168352929052205460ff165b8061101c5750836001600160a01b031661101184610ac1565b6001600160a01b0316145b949350505050565b6000818152600b60209081526040808320815180830190925280546001600160a01b03168083526001909101549282019290925282911561106b5780516020820151611085565b600a546001600160a01b03811690600160a01b900461ffff165b9250925050915091565b600f54606090600080805b838110156110ea5760008181526012602052604081205460ff1660048111156110c5576110c561317f565b036110d857826110d48161377a565b9350505b806110e28161377a565b91505061109a565b506000826001600160401b0381111561110557611105612f72565b60405190808252806020026020018201604052801561113e57816020015b61112b612f1f565b8152602001906001900390816111235790505b50905060005b838110156112495760008181526012602052604081205460ff16600481111561116f5761116f61317f565b03611237576000818152601260205260408082206001015480835291819020815160c0810190925280549091908290829060ff1660048111156111b4576111b461317f565b60048111156111c5576111c561317f565b8152600182015460208201526002820154604082015260038201546001600160a01b039081166060830152600483015416608082015260059091015460a090910152845185908790811061121b5761121b6136d0565b602002602001018190525084806112319061377a565b95505050505b806112418161377a565b915050611144565b50949350505050565b61125a611f59565b6112765760405162461bcd60e51b8152600401610971906136a8565b6109be8282612694565b600061128b8261273a565b5192915050565b600f54606090600080805b838110156112e857600081815260126020526040902060030154336001600160a01b03909116036112d657826112d28161377a565b9350505b806112e08161377a565b91505061129d565b506000826001600160401b0381111561130357611303612f72565b60405190808252806020026020018201604052801561133c57816020015b611329612f1f565b8152602001906001900390816113215790505b50905060005b8381101561124957600081815260126020526040902060030154336001600160a01b0390911603611430576000818152601260205260408082206001015480835291819020815160c0810190925280549091908290829060ff1660048111156113ad576113ad61317f565b60048111156113be576113be61317f565b8152600182015460208201526002820154604082015260038201546001600160a01b039081166060830152600483015416608082015260059091015460a0909101528451859087908110611414576114146136d0565b6020026020010181905250848061142a9061377a565b95505050505b8061143a8161377a565b915050611342565b60006001600160a01b03821661146b576040516323d3ad8160e21b815260040160405180910390fd5b506001600160a01b03166000908152600560205260409020546001600160401b031690565b611498611f59565b6114de5760405162461bcd60e51b81526020600482015260176024820152762737ba1030baba3437b934bd32b2103a379036b4b73a1760491b6044820152606401610971565b6114f16114ea60005490565b8484612854565b50506114fe848483611f86565b50505050565b60008061151083610bc5565b60a001519392505050565b600f54606090600080805b838110156115c157600160008281526012602052604090205460ff1660048111156115535761155361317f565b14801561159c57506000818152601260205260409020600301546001600160a01b031633148061159c57506000818152601260205260409020600401546001600160a01b031633145b156115af57826115ab8161377a565b9350505b806115b98161377a565b915050611526565b506000826001600160401b038111156115dc576115dc612f72565b60405190808252806020026020018201604052801561161557816020015b611602612f1f565b8152602001906001900390816115fa5790505b50905060005b83811015611249576000818152601260205260408082206001015480835291819020815160c0810190925280549091908290829060ff1660048111156116635761166361317f565b60048111156116745761167461317f565b8152600182015460208201526002820154604082015260038201546001600160a01b039081166060830152600483015416608082015260059091015460a09091015284518590879081106116ca576116ca6136d0565b602002602001018190525084806116e09061377a565b955050505080806116f09061377a565b91505061161b565b611700611f59565b61171c5760405162461bcd60e51b8152600401610971906136a8565b610bb8816128b8565b606060038054610a3e90613561565b61173c611f59565b6117585760405162461bcd60e51b8152600401610971906136a8565b610b86838383612994565b336001600160a01b0383160361178c5760405163b06307db60e01b815260040160405180910390fd5b3360008181526007602090815260408083206001600160a01b03871680855290835292819020805460ff191686151590811790915590519081529192917f17307eab39ab6107e8899845ad3d59bd9653f200f220920489ca2b5937696c31910160405180910390a35050565b6060816001600160401b0381111561181257611812612f72565b60405190808252806020026020018201604052801561184557816020015b60608152602001906001900390816118305790505b50905060005b828110156118e5576118b530858584818110611869576118696136d0565b905060200281019061187b9190613793565b8080601f016020809104026020016040519081016040528093929190818152602001838380828437600092019190915250612a5d92505050565b8282815181106118c7576118c76136d0565b602002602001018190525080806118dd9061377a565b91505061184b565b5092915050565b6118f78484846121f4565b6001600160a01b0383163b156114fe5761191384848484612a82565b6114fe576040516368d2bf6b60e11b815260040160405180910390fd5b6000828152601260205260408120600401546001600160a01b0316331461195657600080fd5b600083815260126020526040808220805460ff191660039081178255810180546001600160a01b0319163317905560115491516307dde52760e01b815260048101879052602481018690529092916001600160a01b0316906307dde527906044016020604051808303816000875af11580156119d6573d6000803e3d6000fd5b505050506040513d601f19601f820116820180604052508101906119fa91906137e0565b95945050505050565b60115460405163136b736360e31b8152336004820152602481018490526001600160a01b0390911690639b5b9b18906044016020604051808303816000875af1158015611a54573d6000803e3d6000fd5b505050506040513d601f19601f82011682018060405250810190611a78919061375d565b611ace5760405162461bcd60e51b815260206004820152602160248201527f4e465420776173206e6f742061626c6520746f206265206465706f73697465646044820152601760f91b6064820152608401610971565b6000828152601260205260409020600301546001600160a01b03163314611b275760405162461bcd60e51b815260206004820152600d60248201526c2737ba103a34329037bbb732b960991b6044820152606401610971565b6000828152601260205260409020600501548114611b765760405162461bcd60e51b815260206004820152600c60248201526b155b985d5d1a1bdc9a5e995960a21b6044820152606401610971565b600082815260126020526040902060038101546001600160a01b03163314611bad576003810180546001600160a01b031916331790555b805460ff191660021790555050565b6000818152600e6020526040812080546060929190611bda90613561565b80601f0160208091040260200160405190810160405280929190818152602001828054611c0690613561565b8015611c535780601f10611c2857610100808354040283529160200191611c53565b820191906000526020600020905b815481529060010190602001808311611c3657829003601f168201915b50505050509050600081511115611c6a5792915050565b6000611c7584612b6d565b905080611c8185612d09565b604051602001611c929291906137f9565b60405160208183030381529060405292505050919050565b6000611cb582610bc5565b6040015192915050565b60088054611ccc90613561565b80601f0160208091040260200160405190810160405280929190818152602001828054611cf890613561565b8015611d455780601f10611d1a57610100808354040283529160200191611d45565b820191906000526020600020905b815481529060010190602001808311611d2857829003601f168201915b505050505081565b60006118e58383611930565b600f54606090600080805b83811015611dff57600260008281526012602052604090205460ff166004811115611d9157611d9161317f565b148015611db757506000818152601260205260409020600401546001600160a01b031633145b80611dda57506000818152601260205260409020600401546001600160a01b0316155b15611ded5782611de98161377a565b9350505b80611df78161377a565b915050611d64565b506000826001600160401b03811115611e1a57611e1a612f72565b604051908082528060200260200182016040528015611e5357816020015b611e40612f1f565b815260200190600190039081611e385790505b50905060005b8381101561124957600081815260126020526040902060040154336001600160a01b0390911603611f47576000818152601260205260408082206001015480835291819020815160c0810190925280549091908290829060ff166004811115611ec457611ec461317f565b6004811115611ed557611ed561317f565b8152600182015460208201526002820154604082015260038201546001600160a01b039081166060830152600483015416608082015260059091015460a0909101528451859087908110611f2b57611f2b6136d0565b60200260200101819052508480611f419061377a565b95505050505b80611f518161377a565b915050611e59565b6000611f6d6009546001600160a01b031690565b6001600160a01b0316336001600160a01b031614905090565b6000546001600160a01b038416611faf57604051622e076360e81b815260040160405180910390fd5b82600003611fd05760405163b562e8dd60e01b815260040160405180910390fd5b6001600160a01b038416600081815260056020908152604080832080546001600160801b031981166001600160401b038083168b018116918217600160401b67ffffffffffffffff1990941690921783900481168b01811690920217909155858452600490925290912080546001600160e01b0319168317600160a01b42909316929092029190911790558190818501903b156120d8575b60405182906001600160a01b0388169060009060008051602061390c833981519152908290a46120a16000878480600101955087612a82565b6120be576040516368d2bf6b60e11b815260040160405180910390fd5b8082106120685782600054146120d357600080fd5b61210b565b5b6040516001830192906001600160a01b0388169060009060008051602061390c833981519152908290a48082106120d9575b5060009081556114fe9085838684565b6000805482108015610a29575050600090815260046020526040902054600160e01b900460ff161590565b60008281526006602052604080822080546001600160a01b0319166001600160a01b0387811691821790925591518593918516917f8c5be1e5ebec7d5bd14f71427d1e84f3dd0314c0f7b2291e5b200ac8c7c3b92591a4505050565b600980546001600160a01b038381166001600160a01b0319831681179093556040519116919082907f8292fce18fa69edf4db7b94ea2e58241df0ae57f97e0a6c9b29067028bf92d7690600090a35050565b60006121ff8261273a565b9050836001600160a01b031681600001516001600160a01b0316146122365760405162a1148160e81b815260040160405180910390fd5b6000336001600160a01b0386161480612254575061225485336108c4565b8061226f57503361226484610ac1565b6001600160a01b0316145b90508061228f57604051632ce44b5f60e11b815260040160405180910390fd5b6001600160a01b0384166122b657604051633a954ecd60e21b815260040160405180910390fd5b6122c260008487612146565b6001600160a01b038581166000908152600560209081526040808320805467ffffffffffffffff198082166001600160401b0392831660001901831617909255898616808652838620805493841693831660019081018416949094179055898652600490945282852080546001600160e01b031916909417600160a01b4290921691909102178355870180845292208054919390911661239657600054821461239657805460208601516001600160401b0316600160a01b026001600160e01b03199091166001600160a01b038a16171781555b50505082846001600160a01b0316866001600160a01b031660008051602061390c83398151915260405160405180910390a45050505050565b6000546001600160a01b0383166123f857604051622e076360e81b815260040160405180910390fd5b816000036124195760405163b562e8dd60e01b815260040160405180910390fd5b6001600160a01b038316600081815260056020908152604080832080546001600160801b031981166001600160401b038083168a018116918217600160401b67ffffffffffffffff1990941690921783900481168a01811690920217909155858452600490925290912080546001600160e01b031916909217600160a01b4290921691909102179055808083015b6040516001830192906001600160a01b0387169060009060008051602061390c833981519152908290a48082106124a75750600055505050565b60006124ec8361273a565b80519091508215612552576000336001600160a01b0383161480612515575061251582336108c4565b8061253057503361252586610ac1565b6001600160a01b0316145b90508061255057604051632ce44b5f60e11b815260040160405180910390fd5b505b61255e60008583612146565b6001600160a01b0380821660008181526005602090815260408083208054600160801b6000196001600160401b0380841691909101811667ffffffffffffffff198416811783900482166001908101831690930277ffffffffffffffff0000000000000000ffffffffffffffff19909416179290921783558b86526004909452828520805460ff60e01b1942909316600160a01b026001600160e01b03199091169097179690961716600160e01b17855591890180845292208054919490911661265c57600054821461265c57805460208701516001600160401b0316600160a01b026001600160e01b03199091166001600160a01b038716171781555b5050604051869250600091506001600160a01b0384169060008051602061390c833981519152908390a4505060018054810190555050565b6127108111156126d85760405162461bcd60e51b815260206004820152600f60248201526e45786365656473206d61782062707360881b6044820152606401610971565b600a80546001600160a01b0384166001600160b01b03199091168117600160a01b61ffff851602179091556040518281527f90d7ec04bcb8978719414f82e52e4cb651db41d0e6f8cea6118c2191e6183adb9060200160405180910390a25050565b60408051606081018252600080825260208201819052918101919091528160005481101561283b57600081815260046020908152604091829020825160608101845290546001600160a01b0381168252600160a01b81046001600160401b031692820192909252600160e01b90910460ff161515918101829052906128395780516001600160a01b0316156127d0579392505050565b5060001901600081815260046020908152604091829020825160608101845290546001600160a01b038116808352600160a01b82046001600160401b031693830193909352600160e01b900460ff1615159281019290925215612834579392505050565b6127d0565b505b604051636f96cda160e11b815260040160405180910390fd5b60008061286184866136fc565b600c8054600181019091557fdf6966c971051c3d54ec59162606531493a51404a002842f56009d7e5cf4a8c7018190556000818152600d602052604090209092508291506128af84826135e9565b50935093915050565b6000600880546128c790613561565b80601f01602080910402602001604051908101604052809291908181526020018280546128f390613561565b80156129405780601f1061291557610100808354040283529160200191612940565b820191906000526020600020905b81548152906001019060200180831161292357829003601f168201915b50505050509050816008908161295691906135e9565b507fc9c7c3fe08b88b4df9d4d47ef47d2c43d55c025a0ba88ca442580ed9e7348a168183604051612988929190613828565b60405180910390a15050565b6127108111156129d85760405162461bcd60e51b815260206004820152600f60248201526e45786365656473206d61782062707360881b6044820152606401610971565b6040805180820182526001600160a01b0384811680835260208084018681526000898152600b8352869020945185546001600160a01b031916941693909317845591516001909301929092559151838152909185917f7365cf4122f072a3365c20d54eff9b38d73c096c28e1892ec8f5b0e403a0f12d910160405180910390a3505050565b6060610dd383836040518060600160405280602781526020016138e560279139612e09565b604051630a85bd0160e11b81526000906001600160a01b0385169063150b7a0290612ab790339089908890889060040161384d565b6020604051808303816000875af1925050508015612af2575060408051601f3d908101601f19168201909252612aef91810190613880565b60015b612b50573d808015612b20576040519150601f19603f3d011682016040523d82523d6000602084013e612b25565b606091505b508051600003612b48576040516368d2bf6b60e11b815260040160405180910390fd5b805181602001fd5b6001600160e01b031916630a85bd0160e11b149050949350505050565b60606000612b7a600c5490565b90506000600c805480602002602001604051908101604052809291908181526020018280548015612bca57602002820191906000526020600020905b815481526020019060010190808311612bb6575b5050505050905060005b82811015612cce57818181518110612bee57612bee6136d0565b6020026020010151851015612cbc57600d6000838381518110612c1357612c136136d0565b602002602001015181526020019081526020016000208054612c3490613561565b80601f0160208091040260200160405190810160405280929190818152602001828054612c6090613561565b8015612cad5780601f10612c8257610100808354040283529160200191612cad565b820191906000526020600020905b815481529060010190602001808311612c9057829003601f168201915b50505050509350505050919050565b612cc76001826136fc565b9050612bd4565b5060405162461bcd60e51b815260206004820152600f60248201526e125b9d985b1a59081d1bdad95b9259608a1b6044820152606401610971565b606081600003612d305750506040805180820190915260018152600360fc1b602082015290565b8160005b8115612d5a5780612d448161377a565b9150612d539050600a83613749565b9150612d34565b6000816001600160401b03811115612d7457612d74612f72565b6040519080825280601f01601f191660200182016040528015612d9e576020820181803683370190505b5090505b841561101c57612db360018361389d565b9150612dc0600a866138b4565b612dcb9060306136fc565b60f81b818381518110612de057612de06136d0565b60200101906001600160f81b031916908160001a905350612e02600a86613749565b9450612da2565b60606001600160a01b0384163b612e715760405162461bcd60e51b815260206004820152602660248201527f416464726573733a2064656c65676174652063616c6c20746f206e6f6e2d636f6044820152651b9d1c9858dd60d21b6064820152608401610971565b600080856001600160a01b031685604051612e8c91906138c8565b600060405180830381855af49150503d8060008114612ec7576040519150601f19603f3d011682016040523d82523d6000602084013e612ecc565b606091505b5091509150612edc828286612ee6565b9695505050505050565b60608315612ef5575081610dd3565b825115612f055782518084602001fd5b8160405162461bcd60e51b815260040161097191906130ec565b6040805160c08101909152806000815260006020820181905260408201819052606082018190526080820181905260a09091015290565b80356001600160a01b0381168114612f6d57600080fd5b919050565b634e487b7160e01b600052604160045260246000fd5b600082601f830112612f9957600080fd5b81356001600160401b0380821115612fb357612fb3612f72565b604051601f8301601f19908116603f01168101908282118183101715612fdb57612fdb612f72565b81604052838152866020858801011115612ff457600080fd5b836020870160208301376000602085830101528094505050505092915050565b6000806040838503121561302757600080fd5b61303083612f56565b915060208301356001600160401b0381111561304b57600080fd5b61305785828601612f88565b9150509250929050565b6001600160e01b031981168114610bb857600080fd5b60006020828403121561308957600080fd5b8135610dd381613061565b60005b838110156130af578181015183820152602001613097565b838111156114fe5750506000910152565b600081518084526130d8816020860160208601613094565b601f01601f19169290920160200192915050565b602081526000610dd360208301846130c0565b60006020828403121561311157600080fd5b5035919050565b6000806040838503121561312b57600080fd5b61313483612f56565b946020939093013593505050565b60006020828403121561315457600080fd5b610dd382612f56565b6000806040838503121561317057600080fd5b50508035926020909101359150565b634e487b7160e01b600052602160045260246000fd5b8051600581106131b557634e487b7160e01b600052602160045260246000fd5b825260208181015190830152604080820151908301526060808201516001600160a01b03908116918401919091526080808301519091169083015260a090810151910152565b60c08101610a298284613195565b60008060006060848603121561321e57600080fd5b61322784612f56565b925061323560208501612f56565b9150604084013590509250925092565b60008060006060848603121561325a57600080fd5b8335925060208401356001600160401b0381111561327757600080fd5b61328386828701612f88565b925050604084013590509250925092565b6020808252825182820181905260009190848201906040850190845b818110156132d6576132c3838551613195565b9284019260c092909201916001016132b0565b50909695505050505050565b600080600080608085870312156132f857600080fd5b61330185612f56565b93506020850135925060408501356001600160401b038082111561332457600080fd5b61333088838901612f88565b9350606087013591508082111561334657600080fd5b5061335387828801612f88565b91505092959194509250565b60006020828403121561337157600080fd5b81356001600160401b0381111561338757600080fd5b61101c84828501612f88565b6000806000606084860312156133a857600080fd5b8335925061323560208501612f56565b8015158114610bb857600080fd5b600080604083850312156133d957600080fd5b6133e283612f56565b915060208301356133f2816133b8565b809150509250929050565b6000806020838503121561341057600080fd5b82356001600160401b038082111561342757600080fd5b818501915085601f83011261343b57600080fd5b81358181111561344a57600080fd5b8660208260051b850101111561345f57600080fd5b60209290920196919550909350505050565b6000602080830181845280855180835260408601915060408160051b870101925083870160005b828110156134c657603f198886030184526134b48583516130c0565b94509285019290850190600101613498565b5092979650505050505050565b600080600080608085870312156134e957600080fd5b6134f285612f56565b935061350060208601612f56565b92506040850135915060608501356001600160401b0381111561352257600080fd5b61335387828801612f88565b6000806040838503121561354157600080fd5b61354a83612f56565b915061355860208401612f56565b90509250929050565b600181811c9082168061357557607f821691505b60208210810361359557634e487b7160e01b600052602260045260246000fd5b50919050565b601f821115610b8657600081815260208120601f850160051c810160208610156135c25750805b601f850160051c820191505b818110156135e1578281556001016135ce565b505050505050565b81516001600160401b0381111561360257613602612f72565b613616816136108454613561565b8461359b565b602080601f83116001811461364b57600084156136335750858301515b600019600386901b1c1916600185901b1785556135e1565b600085815260208120601f198616915b8281101561367a5788860151825594840194600190910190840161365b565b50858210156136985787850151600019600388901b60f8161c191681555b5050505050600190811b01905550565b6020808252600e908201526d139bdd08185d5d1a1bdc9a5e995960921b604082015260600190565b634e487b7160e01b600052603260045260246000fd5b634e487b7160e01b600052601160045260246000fd5b6000821982111561370f5761370f6136e6565b500190565b600081600019048311821515161561372e5761372e6136e6565b500290565b634e487b7160e01b600052601260045260246000fd5b60008261375857613758613733565b500490565b60006020828403121561376f57600080fd5b8151610dd3816133b8565b60006001820161378c5761378c6136e6565b5060010190565b6000808335601e198436030181126137aa57600080fd5b8301803591506001600160401b038211156137c457600080fd5b6020019150368190038213156137d957600080fd5b9250929050565b6000602082840312156137f257600080fd5b5051919050565b6000835161380b818460208801613094565b83519083019061381f818360208801613094565b01949350505050565b60408152600061383b60408301856130c0565b82810360208401526119fa81856130c0565b6001600160a01b0385811682528416602082015260408101839052608060608201819052600090612edc908301846130c0565b60006020828403121561389257600080fd5b8151610dd381613061565b6000828210156138af576138af6136e6565b500390565b6000826138c3576138c3613733565b500690565b600082516138da818460208701613094565b919091019291505056fe416464726573733a206c6f772d6c6576656c2064656c65676174652063616c6c206661696c6564ddf252ad1be2c89b69c2b068fc378daa952ba7f163c4a11628f55a4df523b3efa264697066735822122045bbba94582b9431f4ed42634b6ab8c2cdd55cae968d896d8710bdc2c55b167564736f6c634300080f0033",
    "linkReferences": {}
  },
  "methodIdentifiers": {
    "_depositNftToEscrow(uint256,bytes32)": "c79de86e",
    "_depositTokenToEscrow(uint256,uint256)": "39066889",
    "_releaseOrderToEscrow(uint256,bytes32)": "c37977ff",
    "approve(address,uint256)": "095ea7b3",
    "balanceOf(address)": "70a08231",
    "batchMintTo(address,uint256,string,bytes)": "754a81d9",
    "burn(uint256)": "42966c68",
    "contractURI()": "e8a3d485",
    "depositNftToEscrow(uint256,bytes32)": "2cb7c907",
    "depositTokenToEscrow(uint256,uint256)": "1e77607d",
    "fetchOnSale()": "5b6ee8e5",
    "fetchOwned()": "6db24850",
    "fetchPendingInitOrders()": "8f8143c0",
    "fetchPendingTether()": "fd6086cb",
    "getApproved(uint256)": "081812fc",
    "getBaseURICount()": "63b45e2d",
    "getBatchIdAtIndex(uint256)": "2419f51b",
    "getCurrentOwner(uint256)": "7ace341b",
    "getCurrentTokenId()": "56189236",
    "getDefaultRoyaltyInfo()": "b24f2d39",
    "getNFTState(uint256)": "1ece83b0",
    "getNextOwner(uint256)": "1b2ab868",
    "getPrice(uint256)": "e7572230",
    "getRoyaltyInfoForToken(uint256)": "4cc157df",
    "getSecret(uint256)": "8d17664d",
    "isApprovedForAll(address,address)": "e985e9c5",
    "isApprovedOrOwner(address,uint256)": "430c2081",
    "mintTo(address,string)": "0075a317",
    "mintToken(bytes32,string,uint256)": "29734a4f",
    "multicall(bytes[])": "ac9650d8",
    "name()": "06fdde03",
    "nextTokenIdToMint()": "3b1475a7",
    "owner()": "8da5cb5b",
    "ownerOf(uint256)": "6352211e",
    "releaseOrderToEscrow(uint256,bytes32)": "f15c3894",
    "royaltyInfo(uint256,uint256)": "2a55205a",
    "safeTransferFrom(address,address,uint256)": "42842e0e",
    "safeTransferFrom(address,address,uint256,bytes)": "b88d4fde",
    "setApprovalForAll(address,bool)": "a22cb465",
    "setContractURI(string)": "938e3d7b",
    "setDefaultRoyaltyInfo(address,uint256)": "600dd5ea",
    "setOwner(address)": "13af4035",
    "setRoyaltyInfoForToken(uint256,address,uint256)": "9bcf7a15",
    "supportsInterface(bytes4)": "01ffc9a7",
    "symbol()": "95d89b41",
    "tokenURI(uint256)": "c87b56dd",
    "totalSupply()": "18160ddd",
    "transferFrom(address,address,uint256)": "23b872dd"
  },
  "id": 0
}