{
  "abi": [
    {
      "inputs": [
        {
          "internalType": "string",
          "name": "_name",
          "type": "string"
        },
        {
          "internalType": "string",
          "name": "_symbol",
          "type": "string"
        },
        {
          "internalType": "address",
          "name": "_royaltySplitRecipient",
          "type": "address"
        },
        {
          "internalType": "uint128",
          "name": "_royaltySplitBps",
          "type": "uint128"
        },
        {
          "internalType": "address payable",
          "name": "_escrowContractAddress",
          "type": "address"
        }
      ],
      "stateMutability": "nonpayable",
      "type": "constructor"
    },
    {
      "inputs": [],
      "name": "ApprovalCallerNotOwnerNorApproved",
      "type": "error"
    },
    {
      "inputs": [],
      "name": "ApprovalQueryForNonexistentToken",
      "type": "error"
    },
    {
      "inputs": [],
      "name": "ApprovalToCurrentOwner",
      "type": "error"
    },
    {
      "inputs": [],
      "name": "ApproveToCaller",
      "type": "error"
    },
    {
      "inputs": [],
      "name": "BalanceQueryForZeroAddress",
      "type": "error"
    },
    {
      "inputs": [],
      "name": "MintToZeroAddress",
      "type": "error"
    },
    {
      "inputs": [],
      "name": "MintZeroQuantity",
      "type": "error"
    },
    {
      "inputs": [],
      "name": "OwnerQueryForNonexistentToken",
      "type": "error"
    },
    {
      "inputs": [],
      "name": "TransferCallerNotOwnerNorApproved",
      "type": "error"
    },
    {
      "inputs": [],
      "name": "TransferFromIncorrectOwner",
      "type": "error"
    },
    {
      "inputs": [],
      "name": "TransferToNonERC721ReceiverImplementer",
      "type": "error"
    },
    {
      "inputs": [],
      "name": "TransferToZeroAddress",
      "type": "error"
    },
    {
      "inputs": [],
      "name": "URIQueryForNonexistentToken",
      "type": "error"
    },
    {
      "anonymous": false,
      "inputs": [
        {
          "indexed": true,
          "internalType": "address",
          "name": "owner",
          "type": "address"
        },
        {
          "indexed": true,
          "internalType": "address",
          "name": "approved",
          "type": "address"
        },
        {
          "indexed": true,
          "internalType": "uint256",
          "name": "tokenId",
          "type": "uint256"
        }
      ],
      "name": "Approval",
      "type": "event"
    },
    {
      "anonymous": false,
      "inputs": [
        {
          "indexed": true,
          "internalType": "address",
          "name": "owner",
          "type": "address"
        },
        {
          "indexed": true,
          "internalType": "address",
          "name": "operator",
          "type": "address"
        },
        {
          "indexed": false,
          "internalType": "bool",
          "name": "approved",
          "type": "bool"
        }
      ],
      "name": "ApprovalForAll",
      "type": "event"
    },
    {
      "anonymous": false,
      "inputs": [
        {
          "indexed": false,
          "internalType": "string",
          "name": "prevURI",
          "type": "string"
        },
        {
          "indexed": false,
          "internalType": "string",
          "name": "newURI",
          "type": "string"
        }
      ],
      "name": "ContractURIUpdated",
      "type": "event"
    },
    {
      "anonymous": false,
      "inputs": [
        {
          "indexed": true,
          "internalType": "address",
          "name": "newRoyaltyRecipient",
          "type": "address"
        },
        {
          "indexed": false,
          "internalType": "uint256",
          "name": "newRoyaltyBps",
          "type": "uint256"
        }
      ],
      "name": "DefaultRoyalty",
      "type": "event"
    },
    {
      "anonymous": false,
      "inputs": [
        {
          "indexed": true,
          "internalType": "address",
          "name": "prevOwner",
          "type": "address"
        },
        {
          "indexed": true,
          "internalType": "address",
          "name": "newOwner",
          "type": "address"
        }
      ],
      "name": "OwnerUpdated",
      "type": "event"
    },
    {
      "anonymous": false,
      "inputs": [
        {
          "indexed": true,
          "internalType": "uint256",
          "name": "tokenId",
          "type": "uint256"
        },
        {
          "indexed": true,
          "internalType": "address",
          "name": "royaltyRecipient",
          "type": "address"
        },
        {
          "indexed": false,
          "internalType": "uint256",
          "name": "royaltyBps",
          "type": "uint256"
        }
      ],
      "name": "RoyaltyForToken",
      "type": "event"
    },
    {
      "anonymous": false,
      "inputs": [
        {
          "indexed": true,
          "internalType": "address",
          "name": "from",
          "type": "address"
        },
        {
          "indexed": true,
          "internalType": "address",
          "name": "to",
          "type": "address"
        },
        {
          "indexed": true,
          "internalType": "uint256",
          "name": "tokenId",
          "type": "uint256"
        }
      ],
      "name": "Transfer",
      "type": "event"
    },
    {
      "inputs": [
        {
          "internalType": "uint256",
          "name": "_tokenId",
          "type": "uint256"
        },
        {
          "internalType": "bytes32",
          "name": "_secret",
          "type": "bytes32"
        }
      ],
      "name": "_depositNftToEscrow",
      "outputs": [],
      "stateMutability": "nonpayable",
      "type": "function"
    },
    {
      "inputs": [
        {
          "internalType": "uint256",
          "name": "_tokenId",
          "type": "uint256"
        },
        {
          "internalType": "uint256",
          "name": "_amount",
          "type": "uint256"
        }
      ],
      "name": "_depositTokenToEscrow",
      "outputs": [],
      "stateMutability": "nonpayable",
      "type": "function"
    },
    {
      "inputs": [
        {
          "internalType": "uint256",
          "name": "_tokenId",
          "type": "uint256"
        },
        {
          "internalType": "bytes32",
          "name": "_secret",
          "type": "bytes32"
        }
      ],
      "name": "_releaseOrderToEscrow",
      "outputs": [
        {
          "internalType": "uint256",
          "name": "",
          "type": "uint256"
        }
      ],
      "stateMutability": "nonpayable",
      "type": "function"
    },
    {
      "inputs": [
        {
          "internalType": "address",
          "name": "to",
          "type": "address"
        },
        {
          "internalType": "uint256",
          "name": "tokenId",
          "type": "uint256"
        }
      ],
      "name": "approve",
      "outputs": [],
      "stateMutability": "nonpayable",
      "type": "function"
    },
    {
      "inputs": [
        {
          "internalType": "address",
          "name": "owner",
          "type": "address"
        }
      ],
      "name": "balanceOf",
      "outputs": [
        {
          "internalType": "uint256",
          "name": "",
          "type": "uint256"
        }
      ],
      "stateMutability": "view",
      "type": "function"
    },
    {
      "inputs": [
        {
          "internalType": "address",
          "name": "_to",
          "type": "address"
        },
        {
          "internalType": "uint256",
          "name": "_quantity",
          "type": "uint256"
        },
        {
          "internalType": "string",
          "name": "_baseURI",
          "type": "string"
        },
        {
          "internalType": "bytes",
          "name": "_data",
          "type": "bytes"
        }
      ],
      "name": "batchMintTo",
      "outputs": [],
      "stateMutability": "nonpayable",
      "type": "function"
    },
    {
      "inputs": [
        {
          "internalType": "uint256",
          "name": "_tokenId",
          "type": "uint256"
        }
      ],
      "name": "burn",
      "outputs": [],
      "stateMutability": "nonpayable",
      "type": "function"
    },
    {
      "inputs": [],
      "name": "contractURI",
      "outputs": [
        {
          "internalType": "string",
          "name": "",
          "type": "string"
        }
      ],
      "stateMutability": "view",
      "type": "function"
    },
    {
      "inputs": [
        {
          "internalType": "uint256",
          "name": "_tokenId",
          "type": "uint256"
        },
        {
          "internalType": "bytes32",
          "name": "_secret",
          "type": "bytes32"
        }
      ],
      "name": "depositNftToEscrow",
      "outputs": [],
      "stateMutability": "nonpayable",
      "type": "function"
    },
    {
      "inputs": [
        {
          "internalType": "uint256",
          "name": "_tokenId",
          "type": "uint256"
        },
        {
          "internalType": "uint256",
          "name": "_amount",
          "type": "uint256"
        }
      ],
      "name": "depositTokenToEscrow",
      "outputs": [],
      "stateMutability": "nonpayable",
      "type": "function"
    },
    {
      "inputs": [],
      "name": "fetchOnSale",
      "outputs": [
        {
          "components": [
            {
              "internalType": "enum AmhoNFT.ItemState",
              "name": "itemState",
              "type": "uint8"
            },
            {
              "internalType": "uint256",
              "name": "tokenId",
              "type": "uint256"
            },
            {
              "internalType": "uint256",
              "name": "price",
              "type": "uint256"
            },
            {
              "internalType": "address",
              "name": "currentOwner",
              "type": "address"
            },
            {
              "internalType": "address",
              "name": "nextOwner",
              "type": "address"
            },
            {
              "internalType": "bytes32",
              "name": "secret",
              "type": "bytes32"
            }
          ],
          "internalType": "struct AmhoNFT.NFTState[]",
          "name": "",
          "type": "tuple[]"
        }
      ],
      "stateMutability": "view",
      "type": "function"
    },
    {
      "inputs": [],
      "name": "fetchOwned",
      "outputs": [
        {
          "components": [
            {
              "internalType": "enum AmhoNFT.ItemState",
              "name": "itemState",
              "type": "uint8"
            },
            {
              "internalType": "uint256",
              "name": "tokenId",
              "type": "uint256"
            },
            {
              "internalType": "uint256",
              "name": "price",
              "type": "uint256"
            },
            {
              "internalType": "address",
              "name": "currentOwner",
              "type": "address"
            },
            {
              "internalType": "address",
              "name": "nextOwner",
              "type": "address"
            },
            {
              "internalType": "bytes32",
              "name": "secret",
              "type": "bytes32"
            }
          ],
          "internalType": "struct AmhoNFT.NFTState[]",
          "name": "",
          "type": "tuple[]"
        }
      ],
      "stateMutability": "view",
      "type": "function"
    },
    {
      "inputs": [],
      "name": "fetchPendingInitOrders",
      "outputs": [
        {
          "components": [
            {
              "internalType": "enum AmhoNFT.ItemState",
              "name": "itemState",
              "type": "uint8"
            },
            {
              "internalType": "uint256",
              "name": "tokenId",
              "type": "uint256"
            },
            {
              "internalType": "uint256",
              "name": "price",
              "type": "uint256"
            },
            {
              "internalType": "address",
              "name": "currentOwner",
              "type": "address"
            },
            {
              "internalType": "address",
              "name": "nextOwner",
              "type": "address"
            },
            {
              "internalType": "bytes32",
              "name": "secret",
              "type": "bytes32"
            }
          ],
          "internalType": "struct AmhoNFT.NFTState[]",
          "name": "",
          "type": "tuple[]"
        }
      ],
      "stateMutability": "view",
      "type": "function"
    },
    {
      "inputs": [],
      "name": "fetchPendingTether",
      "outputs": [
        {
          "components": [
            {
              "internalType": "enum AmhoNFT.ItemState",
              "name": "itemState",
              "type": "uint8"
            },
            {
              "internalType": "uint256",
              "name": "tokenId",
              "type": "uint256"
            },
            {
              "internalType": "uint256",
              "name": "price",
              "type": "uint256"
            },
            {
              "internalType": "address",
              "name": "currentOwner",
              "type": "address"
            },
            {
              "internalType": "address",
              "name": "nextOwner",
              "type": "address"
            },
            {
              "internalType": "bytes32",
              "name": "secret",
              "type": "bytes32"
            }
          ],
          "internalType": "struct AmhoNFT.NFTState[]",
          "name": "",
          "type": "tuple[]"
        }
      ],
      "stateMutability": "view",
      "type": "function"
    },
    {
      "inputs": [
        {
          "internalType": "uint256",
          "name": "tokenId",
          "type": "uint256"
        }
      ],
      "name": "getApproved",
      "outputs": [
        {
          "internalType": "address",
          "name": "",
          "type": "address"
        }
      ],
      "stateMutability": "view",
      "type": "function"
    },
    {
      "inputs": [],
      "name": "getBaseURICount",
      "outputs": [
        {
          "internalType": "uint256",
          "name": "",
          "type": "uint256"
        }
      ],
      "stateMutability": "view",
      "type": "function"
    },
    {
      "inputs": [
        {
          "internalType": "uint256",
          "name": "_index",
          "type": "uint256"
        }
      ],
      "name": "getBatchIdAtIndex",
      "outputs": [
        {
          "internalType": "uint256",
          "name": "",
          "type": "uint256"
        }
      ],
      "stateMutability": "view",
      "type": "function"
    },
    {
      "inputs": [
        {
          "internalType": "uint256",
          "name": "_tokenId",
          "type": "uint256"
        }
      ],
      "name": "getCurrentOwner",
      "outputs": [
        {
          "internalType": "address",
          "name": "",
          "type": "address"
        }
      ],
      "stateMutability": "view",
      "type": "function"
    },
    {
      "inputs": [],
      "name": "getCurrentTokenId",
      "outputs": [
        {
          "internalType": "uint256",
          "name": "",
          "type": "uint256"
        }
      ],
      "stateMutability": "view",
      "type": "function"
    },
    {
      "inputs": [],
      "name": "getDefaultRoyaltyInfo",
      "outputs": [
        {
          "internalType": "address",
          "name": "",
          "type": "address"
        },
        {
          "internalType": "uint16",
          "name": "",
          "type": "uint16"
        }
      ],
      "stateMutability": "view",
      "type": "function"
    },
    {
      "inputs": [
        {
          "internalType": "uint256",
          "name": "_tokenId",
          "type": "uint256"
        }
      ],
      "name": "getNFTState",
      "outputs": [
        {
          "components": [
            {
              "internalType": "enum AmhoNFT.ItemState",
              "name": "itemState",
              "type": "uint8"
            },
            {
              "internalType": "uint256",
              "name": "tokenId",
              "type": "uint256"
            },
            {
              "internalType": "uint256",
              "name": "price",
              "type": "uint256"
            },
            {
              "internalType": "address",
              "name": "currentOwner",
              "type": "address"
            },
            {
              "internalType": "address",
              "name": "nextOwner",
              "type": "address"
            },
            {
              "internalType": "bytes32",
              "name": "secret",
              "type": "bytes32"
            }
          ],
          "internalType": "struct AmhoNFT.NFTState",
          "name": "",
          "type": "tuple"
        }
      ],
      "stateMutability": "view",
      "type": "function"
    },
    {
      "inputs": [
        {
          "internalType": "uint256",
          "name": "_tokenId",
          "type": "uint256"
        }
      ],
      "name": "getNextOwner",
      "outputs": [
        {
          "internalType": "address",
          "name": "",
          "type": "address"
        }
      ],
      "stateMutability": "view",
      "type": "function"
    },
    {
      "inputs": [
        {
          "internalType": "uint256",
          "name": "_tokenId",
          "type": "uint256"
        }
      ],
      "name": "getPrice",
      "outputs": [
        {
          "internalType": "uint256",
          "name": "",
          "type": "uint256"
        }
      ],
      "stateMutability": "view",
      "type": "function"
    },
    {
      "inputs": [
        {
          "internalType": "uint256",
          "name": "_tokenId",
          "type": "uint256"
        }
      ],
      "name": "getRoyaltyInfoForToken",
      "outputs": [
        {
          "internalType": "address",
          "name": "",
          "type": "address"
        },
        {
          "internalType": "uint16",
          "name": "",
          "type": "uint16"
        }
      ],
      "stateMutability": "view",
      "type": "function"
    },
    {
      "inputs": [
        {
          "internalType": "uint256",
          "name": "_tokenId",
          "type": "uint256"
        }
      ],
      "name": "getSecret",
      "outputs": [
        {
          "internalType": "bytes32",
          "name": "",
          "type": "bytes32"
        }
      ],
      "stateMutability": "view",
      "type": "function"
    },
    {
      "inputs": [
        {
          "internalType": "address",
          "name": "owner",
          "type": "address"
        },
        {
          "internalType": "address",
          "name": "operator",
          "type": "address"
        }
      ],
      "name": "isApprovedForAll",
      "outputs": [
        {
          "internalType": "bool",
          "name": "",
          "type": "bool"
        }
      ],
      "stateMutability": "view",
      "type": "function"
    },
    {
      "inputs": [
        {
          "internalType": "address",
          "name": "_operator",
          "type": "address"
        },
        {
          "internalType": "uint256",
          "name": "_tokenId",
          "type": "uint256"
        }
      ],
      "name": "isApprovedOrOwner",
      "outputs": [
        {
          "internalType": "bool",
          "name": "isApprovedOrOwnerOf",
          "type": "bool"
        }
      ],
      "stateMutability": "view",
      "type": "function"
    },
    {
      "inputs": [
        {
          "internalType": "address",
          "name": "_to",
          "type": "address"
        },
        {
          "internalType": "string",
          "name": "_tokenURI",
          "type": "string"
        }
      ],
      "name": "mintTo",
      "outputs": [],
      "stateMutability": "nonpayable",
      "type": "function"
    },
    {
      "inputs": [
        {
          "internalType": "bytes32",
          "name": "secret",
          "type": "bytes32"
        },
        {
          "internalType": "string",
          "name": "tokenURI",
          "type": "string"
        },
        {
          "internalType": "uint256",
          "name": "_price",
          "type": "uint256"
        }
      ],
      "name": "mintToken",
      "outputs": [
        {
          "internalType": "uint256",
          "name": "",
          "type": "uint256"
        }
      ],
      "stateMutability": "payable",
      "type": "function"
    },
    {
      "inputs": [
        {
          "internalType": "bytes[]",
          "name": "data",
          "type": "bytes[]"
        }
      ],
      "name": "multicall",
      "outputs": [
        {
          "internalType": "bytes[]",
          "name": "results",
          "type": "bytes[]"
        }
      ],
      "stateMutability": "nonpayable",
      "type": "function"
    },
    {
      "inputs": [],
      "name": "name",
      "outputs": [
        {
          "internalType": "string",
          "name": "",
          "type": "string"
        }
      ],
      "stateMutability": "view",
      "type": "function"
    },
    {
      "inputs": [],
      "name": "nextTokenIdToMint",
      "outputs": [
        {
          "internalType": "uint256",
          "name": "",
          "type": "uint256"
        }
      ],
      "stateMutability": "view",
      "type": "function"
    },
    {
      "inputs": [],
      "name": "owner",
      "outputs": [
        {
          "internalType": "address",
          "name": "",
          "type": "address"
        }
      ],
      "stateMutability": "view",
      "type": "function"
    },
    {
      "inputs": [
        {
          "internalType": "uint256",
          "name": "tokenId",
          "type": "uint256"
        }
      ],
      "name": "ownerOf",
      "outputs": [
        {
          "internalType": "address",
          "name": "",
          "type": "address"
        }
      ],
      "stateMutability": "view",
      "type": "function"
    },
    {
      "inputs": [
        {
          "internalType": "uint256",
          "name": "_tokenId",
          "type": "uint256"
        },
        {
          "internalType": "bytes32",
          "name": "_secret",
          "type": "bytes32"
        }
      ],
      "name": "releaseOrderToEscrow",
      "outputs": [
        {
          "internalType": "uint256",
          "name": "",
          "type": "uint256"
        }
      ],
      "stateMutability": "nonpayable",
      "type": "function"
    },
    {
      "inputs": [
        {
          "internalType": "uint256",
          "name": "tokenId",
          "type": "uint256"
        },
        {
          "internalType": "uint256",
          "name": "salePrice",
          "type": "uint256"
        }
      ],
      "name": "royaltyInfo",
      "outputs": [
        {
          "internalType": "address",
          "name": "receiver",
          "type": "address"
        },
        {
          "internalType": "uint256",
          "name": "royaltyAmount",
          "type": "uint256"
        }
      ],
      "stateMutability": "view",
      "type": "function"
    },
    {
      "inputs": [
        {
          "internalType": "address",
          "name": "from",
          "type": "address"
        },
        {
          "internalType": "address",
          "name": "to",
          "type": "address"
        },
        {
          "internalType": "uint256",
          "name": "tokenId",
          "type": "uint256"
        }
      ],
      "name": "safeTransferFrom",
      "outputs": [],
      "stateMutability": "nonpayable",
      "type": "function"
    },
    {
      "inputs": [
        {
          "internalType": "address",
          "name": "from",
          "type": "address"
        },
        {
          "internalType": "address",
          "name": "to",
          "type": "address"
        },
        {
          "internalType": "uint256",
          "name": "tokenId",
          "type": "uint256"
        },
        {
          "internalType": "bytes",
          "name": "_data",
          "type": "bytes"
        }
      ],
      "name": "safeTransferFrom",
      "outputs": [],
      "stateMutability": "nonpayable",
      "type": "function"
    },
    {
      "inputs": [
        {
          "internalType": "address",
          "name": "operator",
          "type": "address"
        },
        {
          "internalType": "bool",
          "name": "approved",
          "type": "bool"
        }
      ],
      "name": "setApprovalForAll",
      "outputs": [],
      "stateMutability": "nonpayable",
      "type": "function"
    },
    {
      "inputs": [
        {
          "internalType": "string",
          "name": "_uri",
          "type": "string"
        }
      ],
      "name": "setContractURI",
      "outputs": [],
      "stateMutability": "nonpayable",
      "type": "function"
    },
    {
      "inputs": [
        {
          "internalType": "address",
          "name": "_royaltyRecipient",
          "type": "address"
        },
        {
          "internalType": "uint256",
          "name": "_royaltyBps",
          "type": "uint256"
        }
      ],
      "name": "setDefaultRoyaltyInfo",
      "outputs": [],
      "stateMutability": "nonpayable",
      "type": "function"
    },
    {
      "inputs": [
        {
          "internalType": "address",
          "name": "_newOwner",
          "type": "address"
        }
      ],
      "name": "setOwner",
      "outputs": [],
      "stateMutability": "nonpayable",
      "type": "function"
    },
    {
      "inputs": [
        {
          "internalType": "uint256",
          "name": "_tokenId",
          "type": "uint256"
        },
        {
          "internalType": "address",
          "name": "_recipient",
          "type": "address"
        },
        {
          "internalType": "uint256",
          "name": "_bps",
          "type": "uint256"
        }
      ],
      "name": "setRoyaltyInfoForToken",
      "outputs": [],
      "stateMutability": "nonpayable",
      "type": "function"
    },
    {
      "inputs": [
        {
          "internalType": "bytes4",
          "name": "interfaceId",
          "type": "bytes4"
        }
      ],
      "name": "supportsInterface",
      "outputs": [
        {
          "internalType": "bool",
          "name": "",
          "type": "bool"
        }
      ],
      "stateMutability": "view",
      "type": "function"
    },
    {
      "inputs": [],
      "name": "symbol",
      "outputs": [
        {
          "internalType": "string",
          "name": "",
          "type": "string"
        }
      ],
      "stateMutability": "view",
      "type": "function"
    },
    {
      "inputs": [
        {
          "internalType": "uint256",
          "name": "_tokenId",
          "type": "uint256"
        }
      ],
      "name": "tokenURI",
      "outputs": [
        {
          "internalType": "string",
          "name": "",
          "type": "string"
        }
      ],
      "stateMutability": "view",
      "type": "function"
    },
    {
      "inputs": [],
      "name": "totalSupply",
      "outputs": [
        {
          "internalType": "uint256",
          "name": "",
          "type": "uint256"
        }
      ],
      "stateMutability": "view",
      "type": "function"
    },
    {
      "inputs": [
        {
          "internalType": "address",
          "name": "from",
          "type": "address"
        },
        {
          "internalType": "address",
          "name": "to",
          "type": "address"
        },
        {
          "internalType": "uint256",
          "name": "tokenId",
          "type": "uint256"
        }
      ],
      "name": "transferFrom",
      "outputs": [],
      "stateMutability": "nonpayable",
      "type": "function"
    }
  ],
  "bytecode": {
    "object": "0x60806040526000600f553480156200001657600080fd5b5060405162003d1f38038062003d1f8339810160408190526200003991620002a0565b84848484838360026200004d8382620003e6565b5060036200005c8282620003e6565b505060008055506200006e33620000bd565b62000083826001600160801b0383166200010f565b5050601080546001600160a01b039094166001600160a01b03199485168117909155601180549094161790925550620004b2945050505050565b600980546001600160a01b038381166001600160a01b0319831681179093556040519116919082907f8292fce18fa69edf4db7b94ea2e58241df0ae57f97e0a6c9b29067028bf92d7690600090a35050565b612710811115620001585760405162461bcd60e51b815260206004820152600f60248201526e45786365656473206d61782062707360881b604482015260640160405180910390fd5b600a80546001600160a01b0384166001600160b01b03199091168117600160a01b61ffff851602179091556040518281527f90d7ec04bcb8978719414f82e52e4cb651db41d0e6f8cea6118c2191e6183adb9060200160405180910390a25050565b634e487b7160e01b600052604160045260246000fd5b600082601f830112620001e257600080fd5b81516001600160401b0380821115620001ff57620001ff620001ba565b604051601f8301601f19908116603f011681019082821181831017156200022a576200022a620001ba565b816040528381526020925086838588010111156200024757600080fd5b600091505b838210156200026b57858201830151818301840152908201906200024c565b838211156200027d5760008385830101525b9695505050505050565b6001600160a01b03811681146200029d57600080fd5b50565b600080600080600060a08688031215620002b957600080fd5b85516001600160401b0380821115620002d157600080fd5b620002df89838a01620001d0565b96506020880151915080821115620002f657600080fd5b506200030588828901620001d0565b9450506040860151620003188162000287565b60608701519093506001600160801b03811681146200033657600080fd5b6080870151909250620003498162000287565b809150509295509295909350565b600181811c908216806200036c57607f821691505b6020821081036200038d57634e487b7160e01b600052602260045260246000fd5b50919050565b601f821115620003e157600081815260208120601f850160051c81016020861015620003bc5750805b601f850160051c820191505b81811015620003dd57828155600101620003c8565b5050505b505050565b81516001600160401b03811115620004025762000402620001ba565b6200041a8162000413845462000357565b8462000393565b602080601f831160018114620004525760008415620004395750858301515b600019600386901b1c1916600185901b178555620003dd565b600085815260208120601f198616915b82811015620004835788860151825594840194600190910190840162000462565b5085821015620004a25787850151600019600388901b60f8161c191681555b5050505050600190811b01905550565b61385d80620004c26000396000f3fe6080604052600436106102925760003560e01c80636352211e1161015a578063a22cb465116100c1578063c87b56dd1161007a578063c87b56dd14610854578063e757223014610874578063e8a3d48514610894578063e985e9c5146108a9578063f15c3894146108f2578063fd6086cb1461091257600080fd5b8063a22cb4651461077c578063ac9650d81461079c578063b24f2d39146107c9578063b88d4fde146107f4578063c37977ff14610814578063c79de86e1461083457600080fd5b80638d17664d116101135780638d17664d146106d45780638da5cb5b146106f45780638f8143c014610712578063938e3d7b1461072757806395d89b41146107475780639bcf7a151461075c57600080fd5b80636352211e1461061157806363b45e2d146106315780636db248501461064657806370a082311461065b578063754a81d91461067b5780637ace341b1461069b57600080fd5b806329734a4f116101fe57806342966c68116101b757806342966c6814610538578063430c2081146105585780634cc157df1461057857806356189236146105ba5780635b6ee8e5146105cf578063600dd5ea146105f157600080fd5b806329734a4f146104715780632a55205a146104845780632cb7c907146104c357806339066889146104e35780633b1475a71461050357806342842e0e1461051857600080fd5b806318160ddd1161025057806318160ddd146103885780631b2ab868146103ab5780631e77607d146103e45780631ece83b01461040457806323b872dd146104315780632419f51b1461045157600080fd5b806275a3171461029757806301ffc9a7146102b957806306fdde03146102ee578063081812fc14610310578063095ea7b31461034857806313af403514610368575b600080fd5b3480156102a357600080fd5b506102b76102b2366004612f10565b610927565b005b3480156102c557600080fd5b506102d96102d4366004612f73565b6109c2565b60405190151581526020015b60405180910390f35b3480156102fa57600080fd5b50610303610a2f565b6040516102e59190612fe8565b34801561031c57600080fd5b5061033061032b366004612ffb565b610ac1565b6040516001600160a01b0390911681526020016102e5565b34801561035457600080fd5b506102b7610363366004613014565b610b05565b34801561037457600080fd5b506102b761038336600461303e565b610b8b565b34801561039457600080fd5b50600154600054035b6040519081526020016102e5565b3480156103b757600080fd5b506103306103c6366004612ffb565b6000908152601260205260409020600401546001600160a01b031690565b3480156103f057600080fd5b506102b76103ff366004613059565b610bbb565b34801561041057600080fd5b5061042461041f366004612ffb565b610bc5565b6040516102e591906130f7565b34801561043d57600080fd5b506102b761044c366004613105565b610c57565b34801561045d57600080fd5b5061039d61046c366004612ffb565b610c62565b61039d61047f366004613141565b610cd0565b34801561049057600080fd5b506104a461049f366004613059565b610dda565b604080516001600160a01b0390931683526020830191909152016102e5565b3480156104cf57600080fd5b506102b76104de366004613059565b610e17565b3480156104ef57600080fd5b506102b76104fe366004613059565b610e21565b34801561050f57600080fd5b5060005461039d565b34801561052457600080fd5b506102b7610533366004613105565b610f7f565b34801561054457600080fd5b506102b7610553366004612ffb565b610f9a565b34801561056457600080fd5b506102d9610573366004613014565b610fa5565b34801561058457600080fd5b50610598610593366004612ffb565b611024565b604080516001600160a01b03909316835261ffff9091166020830152016102e5565b3480156105c657600080fd5b50600f5461039d565b3480156105db57600080fd5b506105e461108f565b6040516102e59190613190565b3480156105fd57600080fd5b506102b761060c366004613014565b611252565b34801561061d57600080fd5b5061033061062c366004612ffb565b611280565b34801561063d57600080fd5b50600c5461039d565b34801561065257600080fd5b506105e4611292565b34801561066757600080fd5b5061039d61067636600461303e565b611442565b34801561068757600080fd5b506102b76106963660046131de565b611490565b3480156106a757600080fd5b506103306106b6366004612ffb565b6000908152601260205260409020600301546001600160a01b031690565b3480156106e057600080fd5b5061039d6106ef366004612ffb565b611504565b34801561070057600080fd5b506009546001600160a01b0316610330565b34801561071e57600080fd5b506105e461151b565b34801561073357600080fd5b506102b761074236600461325b565b6116f8565b34801561075357600080fd5b50610303611725565b34801561076857600080fd5b506102b761077736600461328f565b611734565b34801561078857600080fd5b506102b76107973660046132c2565b611763565b3480156107a857600080fd5b506107bc6107b73660046132f9565b6117f8565b6040516102e5919061336d565b3480156107d557600080fd5b50600a546001600160a01b03811690600160a01b900461ffff16610598565b34801561080057600080fd5b506102b761080f3660046133cf565b6118ec565b34801561082057600080fd5b5061039d61082f366004613059565b611930565b34801561084057600080fd5b506102b761084f366004613059565b611a03565b34801561086057600080fd5b5061030361086f366004612ffb565b611bbc565b34801561088057600080fd5b5061039d61088f366004612ffb565b611caa565b3480156108a057600080fd5b50610303611cbf565b3480156108b557600080fd5b506102d96108c436600461342a565b6001600160a01b03918216600090815260076020908152604080832093909416825291909152205460ff1690565b3480156108fe57600080fd5b5061039d61090d366004613059565b611d4d565b34801561091e57600080fd5b506105e4611d59565b61092f611f59565b61097a5760405162461bcd60e51b81526020600482015260176024820152762737ba1030baba3437b934bd32b2103a379036b4b73a1760491b60448201526064015b60405180910390fd5b80600e600061098860005490565b815260200190815260200160002090816109a291906134e5565b506109be82600160405180602001604052806000815250611f86565b5050565b60006301ffc9a760e01b6001600160e01b0319831614806109f357506380ac58cd60e01b6001600160e01b03198316145b80610a0e5750635b5e139f60e01b6001600160e01b03198316145b80610a2957506001600160e01b0319821663152a902d60e11b145b92915050565b606060028054610a3e9061345d565b80601f0160208091040260200160405190810160405280929190818152602001828054610a6a9061345d565b8015610ab75780601f10610a8c57610100808354040283529160200191610ab7565b820191906000526020600020905b815481529060010190602001808311610a9a57829003601f168201915b5050505050905090565b6000610acc82612129565b610ae9576040516333d1c03960e21b815260040160405180910390fd5b506000908152600660205260409020546001600160a01b031690565b6000610b1082611280565b9050806001600160a01b0316836001600160a01b031603610b445760405163250fdee360e21b815260040160405180910390fd5b336001600160a01b03821614610b7b57610b5e81336108c4565b610b7b576040516367d9dca160e11b815260040160405180910390fd5b610b86838383612154565b505050565b610b93611f59565b610baf5760405162461bcd60e51b8152600401610971906135a4565b610bb8816121b0565b50565b6109be8282610e21565b610bcd612e1b565b60008281526012602052604090819020815160c081019092528054829060ff166004811115610bfe57610bfe61307b565b6004811115610c0f57610c0f61307b565b8152600182015460208201526002820154604082015260038201546001600160a01b039081166060830152600483015416608082015260059091015460a09091015292915050565b610b86838383612202565b6000610c6d600c5490565b8210610cab5760405162461bcd60e51b815260206004820152600d60248201526c092dcecc2d8d2c840d2dcc8caf609b1b6044820152606401610971565b600c8281548110610cbe57610cbe6135cc565b90600052602060002001549050919050565b600f5460105460009190610cee906001600160a01b03166001611763565b610cf83385610927565b6040805160c081018252600080825260208083018590528284018790523360608401526080830182905260a08301899052848252601290529190912081518154829060ff19166001836004811115610d5257610d5261307b565b021790555060208201516001808301919091556040830151600283015560608301516003830180546001600160a01b039283166001600160a01b031991821617909155608085015160048501805491909316911617905560a090920151600590910155600f8054600090610dc79084906135f8565b9182905550600f555090505b9392505050565b600080600080610de986611024565b90945084925061ffff169050612710610e028287613610565b610e0c9190613645565b925050509250929050565b6109be8282611a03565b81816000610e2e83611caa565b9050818114610e765760405162461bcd60e51b815260206004820152601460248201527315dc9bdb99c81d985b1d59481dd85cc81cd95b9d60621b6044820152606401610971565b601154604051634ce3696f60e11b815233600482015260248101879052604481018690526001600160a01b03909116906399c6d2de906064016020604051808303816000875af1158015610ece573d6000803e3d6000fd5b505050506040513d601f19601f82011682018060405250810190610ef29190613659565b610f4c5760405162461bcd60e51b815260206004820152602560248201527f546f6b656e732077657265206e6f742061626c6520746f206265206465706f7360448201526434ba32b21760d91b6064820152608401610971565b5050506000918252506012602052604090206004810180546001600160a01b03191633179055805460ff19166001179055565b610b86838383604051806020016040528060008152506118ec565b610bb88160016123dd565b600080610fb183611280565b9050806001600160a01b0316846001600160a01b03161480610ff857506001600160a01b0380821660009081526007602090815260408083209388168352929052205460ff165b8061101c5750836001600160a01b031661101184610ac1565b6001600160a01b0316145b949350505050565b6000818152600b60209081526040808320815180830190925280546001600160a01b03168083526001909101549282019290925282911561106b5780516020820151611085565b600a546001600160a01b03811690600160a01b900461ffff165b9250925050915091565b600f54606090600080805b838110156110ea5760008181526012602052604081205460ff1660048111156110c5576110c561307b565b036110d857826110d481613676565b9350505b806110e281613676565b91505061109a565b506000826001600160401b0381111561110557611105612e6e565b60405190808252806020026020018201604052801561113e57816020015b61112b612e1b565b8152602001906001900390816111235790505b50905060005b838110156112495760008181526012602052604081205460ff16600481111561116f5761116f61307b565b03611237576000818152601260205260408082206001015480835291819020815160c0810190925280549091908290829060ff1660048111156111b4576111b461307b565b60048111156111c5576111c561307b565b8152600182015460208201526002820154604082015260038201546001600160a01b039081166060830152600483015416608082015260059091015460a090910152845185908790811061121b5761121b6135cc565b6020026020010181905250848061123190613676565b95505050505b8061124181613676565b915050611144565b50949350505050565b61125a611f59565b6112765760405162461bcd60e51b8152600401610971906135a4565b6109be8282612590565b600061128b82612636565b5192915050565b600f54606090600080805b838110156112e857600081815260126020526040902060030154336001600160a01b03909116036112d657826112d281613676565b9350505b806112e081613676565b91505061129d565b506000826001600160401b0381111561130357611303612e6e565b60405190808252806020026020018201604052801561133c57816020015b611329612e1b565b8152602001906001900390816113215790505b50905060005b8381101561124957600081815260126020526040902060030154336001600160a01b0390911603611430576000818152601260205260408082206001015480835291819020815160c0810190925280549091908290829060ff1660048111156113ad576113ad61307b565b60048111156113be576113be61307b565b8152600182015460208201526002820154604082015260038201546001600160a01b039081166060830152600483015416608082015260059091015460a0909101528451859087908110611414576114146135cc565b6020026020010181905250848061142a90613676565b95505050505b8061143a81613676565b915050611342565b60006001600160a01b03821661146b576040516323d3ad8160e21b815260040160405180910390fd5b506001600160a01b03166000908152600560205260409020546001600160401b031690565b611498611f59565b6114de5760405162461bcd60e51b81526020600482015260176024820152762737ba1030baba3437b934bd32b2103a379036b4b73a1760491b6044820152606401610971565b6114f16114ea60005490565b8484612750565b50506114fe848483611f86565b50505050565b60008061151083610bc5565b60a001519392505050565b600f54606090600080805b838110156115c157600160008281526012602052604090205460ff1660048111156115535761155361307b565b14801561159c57506000818152601260205260409020600301546001600160a01b031633148061159c57506000818152601260205260409020600401546001600160a01b031633145b156115af57826115ab81613676565b9350505b806115b981613676565b915050611526565b506000826001600160401b038111156115dc576115dc612e6e565b60405190808252806020026020018201604052801561161557816020015b611602612e1b565b8152602001906001900390816115fa5790505b50905060005b83811015611249576000818152601260205260408082206001015480835291819020815160c0810190925280549091908290829060ff1660048111156116635761166361307b565b60048111156116745761167461307b565b8152600182015460208201526002820154604082015260038201546001600160a01b039081166060830152600483015416608082015260059091015460a09091015284518590879081106116ca576116ca6135cc565b602002602001018190525084806116e090613676565b955050505080806116f090613676565b91505061161b565b611700611f59565b61171c5760405162461bcd60e51b8152600401610971906135a4565b610bb8816127b4565b606060038054610a3e9061345d565b61173c611f59565b6117585760405162461bcd60e51b8152600401610971906135a4565b610b86838383612890565b336001600160a01b0383160361178c5760405163b06307db60e01b815260040160405180910390fd5b3360008181526007602090815260408083206001600160a01b03871680855290835292819020805460ff191686151590811790915590519081529192917f17307eab39ab6107e8899845ad3d59bd9653f200f220920489ca2b5937696c31910160405180910390a35050565b6060816001600160401b0381111561181257611812612e6e565b60405190808252806020026020018201604052801561184557816020015b60608152602001906001900390816118305790505b50905060005b828110156118e5576118b530858584818110611869576118696135cc565b905060200281019061187b919061368f565b8080601f01602080910402602001604051908101604052809392919081815260200183838082843760009201919091525061295992505050565b8282815181106118c7576118c76135cc565b602002602001018190525080806118dd90613676565b91505061184b565b5092915050565b6118f7848484612202565b6001600160a01b0383163b156114fe576119138484848461297e565b6114fe576040516368d2bf6b60e11b815260040160405180910390fd5b6000828152601260205260408120600401546001600160a01b0316331461195657600080fd5b600083815260126020526040808220805460ff191660039081178255810180546001600160a01b0319163317905560115491516307dde52760e01b815260048101879052602481018690529092916001600160a01b0316906307dde527906044016020604051808303816000875af11580156119d6573d6000803e3d6000fd5b505050506040513d601f19601f820116820180604052508101906119fa91906136dc565b95945050505050565b60115460405163136b736360e31b8152336004820152602481018490526001600160a01b0390911690639b5b9b18906044016020604051808303816000875af1158015611a54573d6000803e3d6000fd5b505050506040513d601f19601f82011682018060405250810190611a789190613659565b611ace5760405162461bcd60e51b815260206004820152602160248201527f4e465420776173206e6f742061626c6520746f206265206465706f73697465646044820152601760f91b6064820152608401610971565b6000828152601260205260409020600301546001600160a01b03163314611b275760405162461bcd60e51b815260206004820152600d60248201526c2737ba103a34329037bbb732b960991b6044820152606401610971565b6000828152601260205260409020600501548114611b765760405162461bcd60e51b815260206004820152600c60248201526b155b985d5d1a1bdc9a5e995960a21b6044820152606401610971565b600082815260126020526040902060038101546001600160a01b03163314611bad576003810180546001600160a01b031916331790555b805460ff191660021790555050565b6000818152600e6020526040812080546060929190611bda9061345d565b80601f0160208091040260200160405190810160405280929190818152602001828054611c069061345d565b8015611c535780601f10611c2857610100808354040283529160200191611c53565b820191906000526020600020905b815481529060010190602001808311611c3657829003601f168201915b50505050509050600081511115611c6a5792915050565b6000611c7584612a69565b905080611c8185612c05565b604051602001611c929291906136f5565b60405160208183030381529060405292505050919050565b6000611cb582610bc5565b6040015192915050565b60088054611ccc9061345d565b80601f0160208091040260200160405190810160405280929190818152602001828054611cf89061345d565b8015611d455780601f10611d1a57610100808354040283529160200191611d45565b820191906000526020600020905b815481529060010190602001808311611d2857829003601f168201915b505050505081565b60006118e58383611930565b600f54606090600080805b83811015611dff57600260008281526012602052604090205460ff166004811115611d9157611d9161307b565b148015611db757506000818152601260205260409020600401546001600160a01b031633145b80611dda57506000818152601260205260409020600401546001600160a01b0316155b15611ded5782611de981613676565b9350505b80611df781613676565b915050611d64565b506000826001600160401b03811115611e1a57611e1a612e6e565b604051908082528060200260200182016040528015611e5357816020015b611e40612e1b565b815260200190600190039081611e385790505b50905060005b8381101561124957600081815260126020526040902060040154336001600160a01b0390911603611f47576000818152601260205260408082206001015480835291819020815160c0810190925280549091908290829060ff166004811115611ec457611ec461307b565b6004811115611ed557611ed561307b565b8152600182015460208201526002820154604082015260038201546001600160a01b039081166060830152600483015416608082015260059091015460a0909101528451859087908110611f2b57611f2b6135cc565b60200260200101819052508480611f4190613676565b95505050505b80611f5181613676565b915050611e59565b6000611f6d6009546001600160a01b031690565b6001600160a01b0316336001600160a01b031614905090565b6000546001600160a01b038416611faf57604051622e076360e81b815260040160405180910390fd5b82600003611fd05760405163b562e8dd60e01b815260040160405180910390fd5b6001600160a01b038416600081815260056020908152604080832080546fffffffffffffffffffffffffffffffff1981166001600160401b038083168b0181169182176801000000000000000067ffffffffffffffff1990941690921783900481168b01811690920217909155858452600490925290912080546001600160e01b0319168317600160a01b42909316929092029190911790558190818501903b156120e6575b60405182906001600160a01b03881690600090600080516020613808833981519152908290a46120af600087848060010195508761297e565b6120cc576040516368d2bf6b60e11b815260040160405180910390fd5b8082106120765782600054146120e157600080fd5b612119565b5b6040516001830192906001600160a01b03881690600090600080516020613808833981519152908290a48082106120e7575b5060009081556114fe9085838684565b6000805482108015610a29575050600090815260046020526040902054600160e01b900460ff161590565b60008281526006602052604080822080546001600160a01b0319166001600160a01b0387811691821790925591518593918516917f8c5be1e5ebec7d5bd14f71427d1e84f3dd0314c0f7b2291e5b200ac8c7c3b92591a4505050565b600980546001600160a01b038381166001600160a01b0319831681179093556040519116919082907f8292fce18fa69edf4db7b94ea2e58241df0ae57f97e0a6c9b29067028bf92d7690600090a35050565b600061220d82612636565b9050836001600160a01b031681600001516001600160a01b0316146122445760405162a1148160e81b815260040160405180910390fd5b6000336001600160a01b0386161480612262575061226285336108c4565b8061227d57503361227284610ac1565b6001600160a01b0316145b90508061229d57604051632ce44b5f60e11b815260040160405180910390fd5b6001600160a01b0384166122c457604051633a954ecd60e21b815260040160405180910390fd5b6122d060008487612154565b6001600160a01b038581166000908152600560209081526040808320805467ffffffffffffffff198082166001600160401b0392831660001901831617909255898616808652838620805493841693831660019081018416949094179055898652600490945282852080546001600160e01b031916909417600160a01b429092169190910217835587018084529220805491939091166123a45760005482146123a457805460208601516001600160401b0316600160a01b026001600160e01b03199091166001600160a01b038a16171781555b50505082846001600160a01b0316866001600160a01b031660008051602061380883398151915260405160405180910390a45050505050565b60006123e883612636565b8051909150821561244e576000336001600160a01b0383161480612411575061241182336108c4565b8061242c57503361242186610ac1565b6001600160a01b0316145b90508061244c57604051632ce44b5f60e11b815260040160405180910390fd5b505b61245a60008583612154565b6001600160a01b0380821660008181526005602090815260408083208054600160801b6000196001600160401b0380841691909101811667ffffffffffffffff198416811783900482166001908101831690930277ffffffffffffffff0000000000000000ffffffffffffffff19909416179290921783558b86526004909452828520805460ff60e01b1942909316600160a01b026001600160e01b03199091169097179690961716600160e01b17855591890180845292208054919490911661255857600054821461255857805460208701516001600160401b0316600160a01b026001600160e01b03199091166001600160a01b038716171781555b5050604051869250600091506001600160a01b03841690600080516020613808833981519152908390a4505060018054810190555050565b6127108111156125d45760405162461bcd60e51b815260206004820152600f60248201526e45786365656473206d61782062707360881b6044820152606401610971565b600a80546001600160a01b0384166001600160b01b03199091168117600160a01b61ffff851602179091556040518281527f90d7ec04bcb8978719414f82e52e4cb651db41d0e6f8cea6118c2191e6183adb9060200160405180910390a25050565b60408051606081018252600080825260208201819052918101919091528160005481101561273757600081815260046020908152604091829020825160608101845290546001600160a01b0381168252600160a01b81046001600160401b031692820192909252600160e01b90910460ff161515918101829052906127355780516001600160a01b0316156126cc579392505050565b5060001901600081815260046020908152604091829020825160608101845290546001600160a01b038116808352600160a01b82046001600160401b031693830193909352600160e01b900460ff1615159281019290925215612730579392505050565b6126cc565b505b604051636f96cda160e11b815260040160405180910390fd5b60008061275d84866135f8565b600c8054600181019091557fdf6966c971051c3d54ec59162606531493a51404a002842f56009d7e5cf4a8c7018190556000818152600d602052604090209092508291506127ab84826134e5565b50935093915050565b6000600880546127c39061345d565b80601f01602080910402602001604051908101604052809291908181526020018280546127ef9061345d565b801561283c5780601f106128115761010080835404028352916020019161283c565b820191906000526020600020905b81548152906001019060200180831161281f57829003601f168201915b50505050509050816008908161285291906134e5565b507fc9c7c3fe08b88b4df9d4d47ef47d2c43d55c025a0ba88ca442580ed9e7348a168183604051612884929190613724565b60405180910390a15050565b6127108111156128d45760405162461bcd60e51b815260206004820152600f60248201526e45786365656473206d61782062707360881b6044820152606401610971565b6040805180820182526001600160a01b0384811680835260208084018681526000898152600b8352869020945185546001600160a01b031916941693909317845591516001909301929092559151838152909185917f7365cf4122f072a3365c20d54eff9b38d73c096c28e1892ec8f5b0e403a0f12d910160405180910390a3505050565b6060610dd383836040518060600160405280602781526020016137e160279139612d05565b604051630a85bd0160e11b81526000906001600160a01b0385169063150b7a02906129b3903390899088908890600401613749565b6020604051808303816000875af19250505080156129ee575060408051601f3d908101601f191682019092526129eb9181019061377c565b60015b612a4c573d808015612a1c576040519150601f19603f3d011682016040523d82523d6000602084013e612a21565b606091505b508051600003612a44576040516368d2bf6b60e11b815260040160405180910390fd5b805181602001fd5b6001600160e01b031916630a85bd0160e11b149050949350505050565b60606000612a76600c5490565b90506000600c805480602002602001604051908101604052809291908181526020018280548015612ac657602002820191906000526020600020905b815481526020019060010190808311612ab2575b5050505050905060005b82811015612bca57818181518110612aea57612aea6135cc565b6020026020010151851015612bb857600d6000838381518110612b0f57612b0f6135cc565b602002602001015181526020019081526020016000208054612b309061345d565b80601f0160208091040260200160405190810160405280929190818152602001828054612b5c9061345d565b8015612ba95780601f10612b7e57610100808354040283529160200191612ba9565b820191906000526020600020905b815481529060010190602001808311612b8c57829003601f168201915b50505050509350505050919050565b612bc36001826135f8565b9050612ad0565b5060405162461bcd60e51b815260206004820152600f60248201526e125b9d985b1a59081d1bdad95b9259608a1b6044820152606401610971565b606081600003612c2c5750506040805180820190915260018152600360fc1b602082015290565b8160005b8115612c565780612c4081613676565b9150612c4f9050600a83613645565b9150612c30565b6000816001600160401b03811115612c7057612c70612e6e565b6040519080825280601f01601f191660200182016040528015612c9a576020820181803683370190505b5090505b841561101c57612caf600183613799565b9150612cbc600a866137b0565b612cc79060306135f8565b60f81b818381518110612cdc57612cdc6135cc565b60200101906001600160f81b031916908160001a905350612cfe600a86613645565b9450612c9e565b60606001600160a01b0384163b612d6d5760405162461bcd60e51b815260206004820152602660248201527f416464726573733a2064656c65676174652063616c6c20746f206e6f6e2d636f6044820152651b9d1c9858dd60d21b6064820152608401610971565b600080856001600160a01b031685604051612d8891906137c4565b600060405180830381855af49150503d8060008114612dc3576040519150601f19603f3d011682016040523d82523d6000602084013e612dc8565b606091505b5091509150612dd8828286612de2565b9695505050505050565b60608315612df1575081610dd3565b825115612e015782518084602001fd5b8160405162461bcd60e51b81526004016109719190612fe8565b6040805160c08101909152806000815260006020820181905260408201819052606082018190526080820181905260a09091015290565b80356001600160a01b0381168114612e6957600080fd5b919050565b634e487b7160e01b600052604160045260246000fd5b600082601f830112612e9557600080fd5b81356001600160401b0380821115612eaf57612eaf612e6e565b604051601f8301601f19908116603f01168101908282118183101715612ed757612ed7612e6e565b81604052838152866020858801011115612ef057600080fd5b836020870160208301376000602085830101528094505050505092915050565b60008060408385031215612f2357600080fd5b612f2c83612e52565b915060208301356001600160401b03811115612f4757600080fd5b612f5385828601612e84565b9150509250929050565b6001600160e01b031981168114610bb857600080fd5b600060208284031215612f8557600080fd5b8135610dd381612f5d565b60005b83811015612fab578181015183820152602001612f93565b838111156114fe5750506000910152565b60008151808452612fd4816020860160208601612f90565b601f01601f19169290920160200192915050565b602081526000610dd36020830184612fbc565b60006020828403121561300d57600080fd5b5035919050565b6000806040838503121561302757600080fd5b61303083612e52565b946020939093013593505050565b60006020828403121561305057600080fd5b610dd382612e52565b6000806040838503121561306c57600080fd5b50508035926020909101359150565b634e487b7160e01b600052602160045260246000fd5b8051600581106130b157634e487b7160e01b600052602160045260246000fd5b825260208181015190830152604080820151908301526060808201516001600160a01b03908116918401919091526080808301519091169083015260a090810151910152565b60c08101610a298284613091565b60008060006060848603121561311a57600080fd5b61312384612e52565b925061313160208501612e52565b9150604084013590509250925092565b60008060006060848603121561315657600080fd5b8335925060208401356001600160401b0381111561317357600080fd5b61317f86828701612e84565b925050604084013590509250925092565b6020808252825182820181905260009190848201906040850190845b818110156131d2576131bf838551613091565b9284019260c092909201916001016131ac565b50909695505050505050565b600080600080608085870312156131f457600080fd5b6131fd85612e52565b93506020850135925060408501356001600160401b038082111561322057600080fd5b61322c88838901612e84565b9350606087013591508082111561324257600080fd5b5061324f87828801612e84565b91505092959194509250565b60006020828403121561326d57600080fd5b81356001600160401b0381111561328357600080fd5b61101c84828501612e84565b6000806000606084860312156132a457600080fd5b8335925061313160208501612e52565b8015158114610bb857600080fd5b600080604083850312156132d557600080fd5b6132de83612e52565b915060208301356132ee816132b4565b809150509250929050565b6000806020838503121561330c57600080fd5b82356001600160401b038082111561332357600080fd5b818501915085601f83011261333757600080fd5b81358181111561334657600080fd5b8660208260051b850101111561335b57600080fd5b60209290920196919550909350505050565b6000602080830181845280855180835260408601915060408160051b870101925083870160005b828110156133c257603f198886030184526133b0858351612fbc565b94509285019290850190600101613394565b5092979650505050505050565b600080600080608085870312156133e557600080fd5b6133ee85612e52565b93506133fc60208601612e52565b92506040850135915060608501356001600160401b0381111561341e57600080fd5b61324f87828801612e84565b6000806040838503121561343d57600080fd5b61344683612e52565b915061345460208401612e52565b90509250929050565b600181811c9082168061347157607f821691505b60208210810361349157634e487b7160e01b600052602260045260246000fd5b50919050565b601f821115610b8657600081815260208120601f850160051c810160208610156134be5750805b601f850160051c820191505b818110156134dd578281556001016134ca565b505050505050565b81516001600160401b038111156134fe576134fe612e6e565b6135128161350c845461345d565b84613497565b602080601f831160018114613547576000841561352f5750858301515b600019600386901b1c1916600185901b1785556134dd565b600085815260208120601f198616915b8281101561357657888601518255948401946001909101908401613557565b50858210156135945787850151600019600388901b60f8161c191681555b5050505050600190811b01905550565b6020808252600e908201526d139bdd08185d5d1a1bdc9a5e995960921b604082015260600190565b634e487b7160e01b600052603260045260246000fd5b634e487b7160e01b600052601160045260246000fd5b6000821982111561360b5761360b6135e2565b500190565b600081600019048311821515161561362a5761362a6135e2565b500290565b634e487b7160e01b600052601260045260246000fd5b6000826136545761365461362f565b500490565b60006020828403121561366b57600080fd5b8151610dd3816132b4565b600060018201613688576136886135e2565b5060010190565b6000808335601e198436030181126136a657600080fd5b8301803591506001600160401b038211156136c057600080fd5b6020019150368190038213156136d557600080fd5b9250929050565b6000602082840312156136ee57600080fd5b5051919050565b60008351613707818460208801612f90565b83519083019061371b818360208801612f90565b01949350505050565b6040815260006137376040830185612fbc565b82810360208401526119fa8185612fbc565b6001600160a01b0385811682528416602082015260408101839052608060608201819052600090612dd890830184612fbc565b60006020828403121561378e57600080fd5b8151610dd381612f5d565b6000828210156137ab576137ab6135e2565b500390565b6000826137bf576137bf61362f565b500690565b600082516137d6818460208701612f90565b919091019291505056fe416464726573733a206c6f772d6c6576656c2064656c65676174652063616c6c206661696c6564ddf252ad1be2c89b69c2b068fc378daa952ba7f163c4a11628f55a4df523b3efa2646970667358221220c393bcca1d578fb0a7aaa7becc7a648e0236e5a75e69b1e1d8d8873c7072d97964736f6c634300080f0033",
    "linkReferences": {}
  },
  "methodIdentifiers": {
    "_depositNftToEscrow(uint256,bytes32)": "c79de86e",
    "_depositTokenToEscrow(uint256,uint256)": "39066889",
    "_releaseOrderToEscrow(uint256,bytes32)": "c37977ff",
    "approve(address,uint256)": "095ea7b3",
    "balanceOf(address)": "70a08231",
    "batchMintTo(address,uint256,string,bytes)": "754a81d9",
    "burn(uint256)": "42966c68",
    "contractURI()": "e8a3d485",
    "depositNftToEscrow(uint256,bytes32)": "2cb7c907",
    "depositTokenToEscrow(uint256,uint256)": "1e77607d",
    "fetchOnSale()": "5b6ee8e5",
    "fetchOwned()": "6db24850",
    "fetchPendingInitOrders()": "8f8143c0",
    "fetchPendingTether()": "fd6086cb",
    "getApproved(uint256)": "081812fc",
    "getBaseURICount()": "63b45e2d",
    "getBatchIdAtIndex(uint256)": "2419f51b",
    "getCurrentOwner(uint256)": "7ace341b",
    "getCurrentTokenId()": "56189236",
    "getDefaultRoyaltyInfo()": "b24f2d39",
    "getNFTState(uint256)": "1ece83b0",
    "getNextOwner(uint256)": "1b2ab868",
    "getPrice(uint256)": "e7572230",
    "getRoyaltyInfoForToken(uint256)": "4cc157df",
    "getSecret(uint256)": "8d17664d",
    "isApprovedForAll(address,address)": "e985e9c5",
    "isApprovedOrOwner(address,uint256)": "430c2081",
    "mintTo(address,string)": "0075a317",
    "mintToken(bytes32,string,uint256)": "29734a4f",
    "multicall(bytes[])": "ac9650d8",
    "name()": "06fdde03",
    "nextTokenIdToMint()": "3b1475a7",
    "owner()": "8da5cb5b",
    "ownerOf(uint256)": "6352211e",
    "releaseOrderToEscrow(uint256,bytes32)": "f15c3894",
    "royaltyInfo(uint256,uint256)": "2a55205a",
    "safeTransferFrom(address,address,uint256)": "42842e0e",
    "safeTransferFrom(address,address,uint256,bytes)": "b88d4fde",
    "setApprovalForAll(address,bool)": "a22cb465",
    "setContractURI(string)": "938e3d7b",
    "setDefaultRoyaltyInfo(address,uint256)": "600dd5ea",
    "setOwner(address)": "13af4035",
    "setRoyaltyInfoForToken(uint256,address,uint256)": "9bcf7a15",
    "supportsInterface(bytes4)": "01ffc9a7",
    "symbol()": "95d89b41",
    "tokenURI(uint256)": "c87b56dd",
    "totalSupply()": "18160ddd",
    "transferFrom(address,address,uint256)": "23b872dd"
  },
  "id": 0
}