{
  "abi": [
    {
      "inputs": [
        {
          "internalType": "string",
          "name": "_name",
          "type": "string"
        },
        {
          "internalType": "string",
          "name": "_symbol",
          "type": "string"
        },
        {
          "internalType": "address",
          "name": "_royaltySplitRecipient",
          "type": "address"
        },
        {
          "internalType": "uint128",
          "name": "_royaltySplitBps",
          "type": "uint128"
        },
        {
          "internalType": "address payable",
          "name": "_escrowContractAddress",
          "type": "address"
        }
      ],
      "stateMutability": "nonpayable",
      "type": "constructor"
    },
    {
      "inputs": [],
      "name": "ApprovalCallerNotOwnerNorApproved",
      "type": "error"
    },
    {
      "inputs": [],
      "name": "ApprovalQueryForNonexistentToken",
      "type": "error"
    },
    {
      "inputs": [],
      "name": "ApprovalToCurrentOwner",
      "type": "error"
    },
    {
      "inputs": [],
      "name": "ApproveToCaller",
      "type": "error"
    },
    {
      "inputs": [],
      "name": "BalanceQueryForZeroAddress",
      "type": "error"
    },
    {
      "inputs": [],
      "name": "MintToZeroAddress",
      "type": "error"
    },
    {
      "inputs": [],
      "name": "MintZeroQuantity",
      "type": "error"
    },
    {
      "inputs": [],
      "name": "OwnerQueryForNonexistentToken",
      "type": "error"
    },
    {
      "inputs": [],
      "name": "TransferCallerNotOwnerNorApproved",
      "type": "error"
    },
    {
      "inputs": [],
      "name": "TransferFromIncorrectOwner",
      "type": "error"
    },
    {
      "inputs": [],
      "name": "TransferToNonERC721ReceiverImplementer",
      "type": "error"
    },
    {
      "inputs": [],
      "name": "TransferToZeroAddress",
      "type": "error"
    },
    {
      "inputs": [],
      "name": "URIQueryForNonexistentToken",
      "type": "error"
    },
    {
      "anonymous": false,
      "inputs": [
        {
          "indexed": true,
          "internalType": "address",
          "name": "owner",
          "type": "address"
        },
        {
          "indexed": true,
          "internalType": "address",
          "name": "approved",
          "type": "address"
        },
        {
          "indexed": true,
          "internalType": "uint256",
          "name": "tokenId",
          "type": "uint256"
        }
      ],
      "name": "Approval",
      "type": "event"
    },
    {
      "anonymous": false,
      "inputs": [
        {
          "indexed": true,
          "internalType": "address",
          "name": "owner",
          "type": "address"
        },
        {
          "indexed": true,
          "internalType": "address",
          "name": "operator",
          "type": "address"
        },
        {
          "indexed": false,
          "internalType": "bool",
          "name": "approved",
          "type": "bool"
        }
      ],
      "name": "ApprovalForAll",
      "type": "event"
    },
    {
      "anonymous": false,
      "inputs": [
        {
          "indexed": false,
          "internalType": "string",
          "name": "prevURI",
          "type": "string"
        },
        {
          "indexed": false,
          "internalType": "string",
          "name": "newURI",
          "type": "string"
        }
      ],
      "name": "ContractURIUpdated",
      "type": "event"
    },
    {
      "anonymous": false,
      "inputs": [
        {
          "indexed": true,
          "internalType": "address",
          "name": "newRoyaltyRecipient",
          "type": "address"
        },
        {
          "indexed": false,
          "internalType": "uint256",
          "name": "newRoyaltyBps",
          "type": "uint256"
        }
      ],
      "name": "DefaultRoyalty",
      "type": "event"
    },
    {
      "anonymous": false,
      "inputs": [
        {
          "indexed": true,
          "internalType": "address",
          "name": "prevOwner",
          "type": "address"
        },
        {
          "indexed": true,
          "internalType": "address",
          "name": "newOwner",
          "type": "address"
        }
      ],
      "name": "OwnerUpdated",
      "type": "event"
    },
    {
      "anonymous": false,
      "inputs": [
        {
          "indexed": true,
          "internalType": "uint256",
          "name": "tokenId",
          "type": "uint256"
        },
        {
          "indexed": true,
          "internalType": "address",
          "name": "royaltyRecipient",
          "type": "address"
        },
        {
          "indexed": false,
          "internalType": "uint256",
          "name": "royaltyBps",
          "type": "uint256"
        }
      ],
      "name": "RoyaltyForToken",
      "type": "event"
    },
    {
      "anonymous": false,
      "inputs": [
        {
          "indexed": true,
          "internalType": "address",
          "name": "from",
          "type": "address"
        },
        {
          "indexed": true,
          "internalType": "address",
          "name": "to",
          "type": "address"
        },
        {
          "indexed": true,
          "internalType": "uint256",
          "name": "tokenId",
          "type": "uint256"
        }
      ],
      "name": "Transfer",
      "type": "event"
    },
    {
      "inputs": [
        {
          "internalType": "uint256",
          "name": "_tokenId",
          "type": "uint256"
        },
        {
          "internalType": "bytes32",
          "name": "_secret",
          "type": "bytes32"
        }
      ],
      "name": "_depositNftToEscrow",
      "outputs": [],
      "stateMutability": "nonpayable",
      "type": "function"
    },
    {
      "inputs": [
        {
          "internalType": "uint256",
          "name": "_tokenId",
          "type": "uint256"
        },
        {
          "internalType": "uint256",
          "name": "_amount",
          "type": "uint256"
        }
      ],
      "name": "_depositTokenToEscrow",
      "outputs": [],
      "stateMutability": "nonpayable",
      "type": "function"
    },
    {
      "inputs": [
        {
          "internalType": "uint256",
          "name": "_tokenId",
          "type": "uint256"
        },
        {
          "internalType": "bytes32",
          "name": "_secret",
          "type": "bytes32"
        }
      ],
      "name": "_releaseOrderToEscrow",
      "outputs": [
        {
          "internalType": "uint256",
          "name": "",
          "type": "uint256"
        }
      ],
      "stateMutability": "nonpayable",
      "type": "function"
    },
    {
      "inputs": [
        {
          "internalType": "address",
          "name": "to",
          "type": "address"
        },
        {
          "internalType": "uint256",
          "name": "tokenId",
          "type": "uint256"
        }
      ],
      "name": "approve",
      "outputs": [],
      "stateMutability": "nonpayable",
      "type": "function"
    },
    {
      "inputs": [
        {
          "internalType": "address",
          "name": "owner",
          "type": "address"
        }
      ],
      "name": "balanceOf",
      "outputs": [
        {
          "internalType": "uint256",
          "name": "",
          "type": "uint256"
        }
      ],
      "stateMutability": "view",
      "type": "function"
    },
    {
      "inputs": [
        {
          "internalType": "address",
          "name": "_to",
          "type": "address"
        },
        {
          "internalType": "uint256",
          "name": "_quantity",
          "type": "uint256"
        },
        {
          "internalType": "string",
          "name": "_baseURI",
          "type": "string"
        },
        {
          "internalType": "bytes",
          "name": "_data",
          "type": "bytes"
        }
      ],
      "name": "batchMintTo",
      "outputs": [],
      "stateMutability": "nonpayable",
      "type": "function"
    },
    {
      "inputs": [
        {
          "internalType": "uint256",
          "name": "_tokenId",
          "type": "uint256"
        }
      ],
      "name": "burn",
      "outputs": [],
      "stateMutability": "nonpayable",
      "type": "function"
    },
    {
      "inputs": [],
      "name": "contractURI",
      "outputs": [
        {
          "internalType": "string",
          "name": "",
          "type": "string"
        }
      ],
      "stateMutability": "view",
      "type": "function"
    },
    {
      "inputs": [
        {
          "internalType": "uint256",
          "name": "_tokenId",
          "type": "uint256"
        },
        {
          "internalType": "bytes32",
          "name": "_secret",
          "type": "bytes32"
        }
      ],
      "name": "depositNftToEscrow",
      "outputs": [],
      "stateMutability": "nonpayable",
      "type": "function"
    },
    {
      "inputs": [
        {
          "internalType": "uint256",
          "name": "_tokenId",
          "type": "uint256"
        },
        {
          "internalType": "uint256",
          "name": "_amount",
          "type": "uint256"
        }
      ],
      "name": "depositTokenToEscrow",
      "outputs": [],
      "stateMutability": "nonpayable",
      "type": "function"
    },
    {
      "inputs": [],
      "name": "fetchOnSale",
      "outputs": [
        {
          "components": [
            {
              "internalType": "enum AmhoNFT.ItemState",
              "name": "itemState",
              "type": "uint8"
            },
            {
              "internalType": "uint256",
              "name": "tokenId",
              "type": "uint256"
            },
            {
              "internalType": "uint256",
              "name": "price",
              "type": "uint256"
            },
            {
              "internalType": "address",
              "name": "currentOwner",
              "type": "address"
            },
            {
              "internalType": "address",
              "name": "nextOwner",
              "type": "address"
            },
            {
              "internalType": "bytes32",
              "name": "secret",
              "type": "bytes32"
            }
          ],
          "internalType": "struct AmhoNFT.NFTState[]",
          "name": "",
          "type": "tuple[]"
        }
      ],
      "stateMutability": "view",
      "type": "function"
    },
    {
      "inputs": [],
      "name": "fetchOwned",
      "outputs": [
        {
          "components": [
            {
              "internalType": "enum AmhoNFT.ItemState",
              "name": "itemState",
              "type": "uint8"
            },
            {
              "internalType": "uint256",
              "name": "tokenId",
              "type": "uint256"
            },
            {
              "internalType": "uint256",
              "name": "price",
              "type": "uint256"
            },
            {
              "internalType": "address",
              "name": "currentOwner",
              "type": "address"
            },
            {
              "internalType": "address",
              "name": "nextOwner",
              "type": "address"
            },
            {
              "internalType": "bytes32",
              "name": "secret",
              "type": "bytes32"
            }
          ],
          "internalType": "struct AmhoNFT.NFTState[]",
          "name": "",
          "type": "tuple[]"
        }
      ],
      "stateMutability": "view",
      "type": "function"
    },
    {
      "inputs": [],
      "name": "fetchPendingInitOrders",
      "outputs": [
        {
          "components": [
            {
              "internalType": "enum AmhoNFT.ItemState",
              "name": "itemState",
              "type": "uint8"
            },
            {
              "internalType": "uint256",
              "name": "tokenId",
              "type": "uint256"
            },
            {
              "internalType": "uint256",
              "name": "price",
              "type": "uint256"
            },
            {
              "internalType": "address",
              "name": "currentOwner",
              "type": "address"
            },
            {
              "internalType": "address",
              "name": "nextOwner",
              "type": "address"
            },
            {
              "internalType": "bytes32",
              "name": "secret",
              "type": "bytes32"
            }
          ],
          "internalType": "struct AmhoNFT.NFTState[]",
          "name": "",
          "type": "tuple[]"
        }
      ],
      "stateMutability": "view",
      "type": "function"
    },
    {
      "inputs": [],
      "name": "fetchPendingTether",
      "outputs": [
        {
          "components": [
            {
              "internalType": "enum AmhoNFT.ItemState",
              "name": "itemState",
              "type": "uint8"
            },
            {
              "internalType": "uint256",
              "name": "tokenId",
              "type": "uint256"
            },
            {
              "internalType": "uint256",
              "name": "price",
              "type": "uint256"
            },
            {
              "internalType": "address",
              "name": "currentOwner",
              "type": "address"
            },
            {
              "internalType": "address",
              "name": "nextOwner",
              "type": "address"
            },
            {
              "internalType": "bytes32",
              "name": "secret",
              "type": "bytes32"
            }
          ],
          "internalType": "struct AmhoNFT.NFTState[]",
          "name": "",
          "type": "tuple[]"
        }
      ],
      "stateMutability": "view",
      "type": "function"
    },
    {
      "inputs": [
        {
          "internalType": "uint256",
          "name": "tokenId",
          "type": "uint256"
        }
      ],
      "name": "getApproved",
      "outputs": [
        {
          "internalType": "address",
          "name": "",
          "type": "address"
        }
      ],
      "stateMutability": "view",
      "type": "function"
    },
    {
      "inputs": [],
      "name": "getBaseURICount",
      "outputs": [
        {
          "internalType": "uint256",
          "name": "",
          "type": "uint256"
        }
      ],
      "stateMutability": "view",
      "type": "function"
    },
    {
      "inputs": [
        {
          "internalType": "uint256",
          "name": "_index",
          "type": "uint256"
        }
      ],
      "name": "getBatchIdAtIndex",
      "outputs": [
        {
          "internalType": "uint256",
          "name": "",
          "type": "uint256"
        }
      ],
      "stateMutability": "view",
      "type": "function"
    },
    {
      "inputs": [
        {
          "internalType": "uint256",
          "name": "_tokenId",
          "type": "uint256"
        }
      ],
      "name": "getCurrentOwner",
      "outputs": [
        {
          "internalType": "address",
          "name": "",
          "type": "address"
        }
      ],
      "stateMutability": "view",
      "type": "function"
    },
    {
      "inputs": [],
      "name": "getCurrentTokenId",
      "outputs": [
        {
          "internalType": "uint256",
          "name": "",
          "type": "uint256"
        }
      ],
      "stateMutability": "view",
      "type": "function"
    },
    {
      "inputs": [],
      "name": "getDefaultRoyaltyInfo",
      "outputs": [
        {
          "internalType": "address",
          "name": "",
          "type": "address"
        },
        {
          "internalType": "uint16",
          "name": "",
          "type": "uint16"
        }
      ],
      "stateMutability": "view",
      "type": "function"
    },
    {
      "inputs": [
        {
          "internalType": "uint256",
          "name": "_tokenId",
          "type": "uint256"
        }
      ],
      "name": "getNFTState",
      "outputs": [
        {
          "components": [
            {
              "internalType": "enum AmhoNFT.ItemState",
              "name": "itemState",
              "type": "uint8"
            },
            {
              "internalType": "uint256",
              "name": "tokenId",
              "type": "uint256"
            },
            {
              "internalType": "uint256",
              "name": "price",
              "type": "uint256"
            },
            {
              "internalType": "address",
              "name": "currentOwner",
              "type": "address"
            },
            {
              "internalType": "address",
              "name": "nextOwner",
              "type": "address"
            },
            {
              "internalType": "bytes32",
              "name": "secret",
              "type": "bytes32"
            }
          ],
          "internalType": "struct AmhoNFT.NFTState",
          "name": "",
          "type": "tuple"
        }
      ],
      "stateMutability": "view",
      "type": "function"
    },
    {
      "inputs": [
        {
          "internalType": "uint256",
          "name": "_tokenId",
          "type": "uint256"
        }
      ],
      "name": "getNextOwner",
      "outputs": [
        {
          "internalType": "address",
          "name": "",
          "type": "address"
        }
      ],
      "stateMutability": "view",
      "type": "function"
    },
    {
      "inputs": [
        {
          "internalType": "uint256",
          "name": "_tokenId",
          "type": "uint256"
        }
      ],
      "name": "getPrice",
      "outputs": [
        {
          "internalType": "uint256",
          "name": "",
          "type": "uint256"
        }
      ],
      "stateMutability": "view",
      "type": "function"
    },
    {
      "inputs": [
        {
          "internalType": "uint256",
          "name": "_tokenId",
          "type": "uint256"
        }
      ],
      "name": "getRoyaltyInfoForToken",
      "outputs": [
        {
          "internalType": "address",
          "name": "",
          "type": "address"
        },
        {
          "internalType": "uint16",
          "name": "",
          "type": "uint16"
        }
      ],
      "stateMutability": "view",
      "type": "function"
    },
    {
      "inputs": [
        {
          "internalType": "uint256",
          "name": "_tokenId",
          "type": "uint256"
        }
      ],
      "name": "getSecret",
      "outputs": [
        {
          "internalType": "bytes32",
          "name": "",
          "type": "bytes32"
        }
      ],
      "stateMutability": "view",
      "type": "function"
    },
    {
      "inputs": [
        {
          "internalType": "address",
          "name": "owner",
          "type": "address"
        },
        {
          "internalType": "address",
          "name": "operator",
          "type": "address"
        }
      ],
      "name": "isApprovedForAll",
      "outputs": [
        {
          "internalType": "bool",
          "name": "",
          "type": "bool"
        }
      ],
      "stateMutability": "view",
      "type": "function"
    },
    {
      "inputs": [
        {
          "internalType": "address",
          "name": "_operator",
          "type": "address"
        },
        {
          "internalType": "uint256",
          "name": "_tokenId",
          "type": "uint256"
        }
      ],
      "name": "isApprovedOrOwner",
      "outputs": [
        {
          "internalType": "bool",
          "name": "isApprovedOrOwnerOf",
          "type": "bool"
        }
      ],
      "stateMutability": "view",
      "type": "function"
    },
    {
      "inputs": [
        {
          "internalType": "address",
          "name": "_to",
          "type": "address"
        },
        {
          "internalType": "bytes32",
          "name": "secret",
          "type": "bytes32"
        },
        {
          "internalType": "string",
          "name": "tokenURI",
          "type": "string"
        },
        {
          "internalType": "uint256",
          "name": "_price",
          "type": "uint256"
        }
      ],
      "name": "mintNftTo",
      "outputs": [
        {
          "internalType": "uint256",
          "name": "",
          "type": "uint256"
        }
      ],
      "stateMutability": "payable",
      "type": "function"
    },
    {
      "inputs": [
        {
          "internalType": "address",
          "name": "_to",
          "type": "address"
        },
        {
          "internalType": "string",
          "name": "_tokenURI",
          "type": "string"
        }
      ],
      "name": "mintTo",
      "outputs": [],
      "stateMutability": "nonpayable",
      "type": "function"
    },
    {
      "inputs": [
        {
          "internalType": "bytes[]",
          "name": "data",
          "type": "bytes[]"
        }
      ],
      "name": "multicall",
      "outputs": [
        {
          "internalType": "bytes[]",
          "name": "results",
          "type": "bytes[]"
        }
      ],
      "stateMutability": "nonpayable",
      "type": "function"
    },
    {
      "inputs": [],
      "name": "name",
      "outputs": [
        {
          "internalType": "string",
          "name": "",
          "type": "string"
        }
      ],
      "stateMutability": "view",
      "type": "function"
    },
    {
      "inputs": [],
      "name": "nextTokenIdToMint",
      "outputs": [
        {
          "internalType": "uint256",
          "name": "",
          "type": "uint256"
        }
      ],
      "stateMutability": "view",
      "type": "function"
    },
    {
      "inputs": [],
      "name": "owner",
      "outputs": [
        {
          "internalType": "address",
          "name": "",
          "type": "address"
        }
      ],
      "stateMutability": "view",
      "type": "function"
    },
    {
      "inputs": [
        {
          "internalType": "uint256",
          "name": "tokenId",
          "type": "uint256"
        }
      ],
      "name": "ownerOf",
      "outputs": [
        {
          "internalType": "address",
          "name": "",
          "type": "address"
        }
      ],
      "stateMutability": "view",
      "type": "function"
    },
    {
      "inputs": [
        {
          "internalType": "uint256",
          "name": "_tokenId",
          "type": "uint256"
        },
        {
          "internalType": "bytes32",
          "name": "_secret",
          "type": "bytes32"
        }
      ],
      "name": "releaseOrderToEscrow",
      "outputs": [
        {
          "internalType": "uint256",
          "name": "",
          "type": "uint256"
        }
      ],
      "stateMutability": "nonpayable",
      "type": "function"
    },
    {
      "inputs": [
        {
          "internalType": "uint256",
          "name": "tokenId",
          "type": "uint256"
        },
        {
          "internalType": "uint256",
          "name": "salePrice",
          "type": "uint256"
        }
      ],
      "name": "royaltyInfo",
      "outputs": [
        {
          "internalType": "address",
          "name": "receiver",
          "type": "address"
        },
        {
          "internalType": "uint256",
          "name": "royaltyAmount",
          "type": "uint256"
        }
      ],
      "stateMutability": "view",
      "type": "function"
    },
    {
      "inputs": [
        {
          "internalType": "address",
          "name": "from",
          "type": "address"
        },
        {
          "internalType": "address",
          "name": "to",
          "type": "address"
        },
        {
          "internalType": "uint256",
          "name": "tokenId",
          "type": "uint256"
        }
      ],
      "name": "safeTransferFrom",
      "outputs": [],
      "stateMutability": "nonpayable",
      "type": "function"
    },
    {
      "inputs": [
        {
          "internalType": "address",
          "name": "from",
          "type": "address"
        },
        {
          "internalType": "address",
          "name": "to",
          "type": "address"
        },
        {
          "internalType": "uint256",
          "name": "tokenId",
          "type": "uint256"
        },
        {
          "internalType": "bytes",
          "name": "_data",
          "type": "bytes"
        }
      ],
      "name": "safeTransferFrom",
      "outputs": [],
      "stateMutability": "nonpayable",
      "type": "function"
    },
    {
      "inputs": [
        {
          "internalType": "address",
          "name": "operator",
          "type": "address"
        },
        {
          "internalType": "bool",
          "name": "approved",
          "type": "bool"
        }
      ],
      "name": "setApprovalForAll",
      "outputs": [],
      "stateMutability": "nonpayable",
      "type": "function"
    },
    {
      "inputs": [
        {
          "internalType": "string",
          "name": "_uri",
          "type": "string"
        }
      ],
      "name": "setContractURI",
      "outputs": [],
      "stateMutability": "nonpayable",
      "type": "function"
    },
    {
      "inputs": [
        {
          "internalType": "address",
          "name": "_royaltyRecipient",
          "type": "address"
        },
        {
          "internalType": "uint256",
          "name": "_royaltyBps",
          "type": "uint256"
        }
      ],
      "name": "setDefaultRoyaltyInfo",
      "outputs": [],
      "stateMutability": "nonpayable",
      "type": "function"
    },
    {
      "inputs": [
        {
          "internalType": "address",
          "name": "_newOwner",
          "type": "address"
        }
      ],
      "name": "setOwner",
      "outputs": [],
      "stateMutability": "nonpayable",
      "type": "function"
    },
    {
      "inputs": [
        {
          "internalType": "uint256",
          "name": "_tokenId",
          "type": "uint256"
        },
        {
          "internalType": "address",
          "name": "_recipient",
          "type": "address"
        },
        {
          "internalType": "uint256",
          "name": "_bps",
          "type": "uint256"
        }
      ],
      "name": "setRoyaltyInfoForToken",
      "outputs": [],
      "stateMutability": "nonpayable",
      "type": "function"
    },
    {
      "inputs": [
        {
          "internalType": "bytes4",
          "name": "interfaceId",
          "type": "bytes4"
        }
      ],
      "name": "supportsInterface",
      "outputs": [
        {
          "internalType": "bool",
          "name": "",
          "type": "bool"
        }
      ],
      "stateMutability": "view",
      "type": "function"
    },
    {
      "inputs": [],
      "name": "symbol",
      "outputs": [
        {
          "internalType": "string",
          "name": "",
          "type": "string"
        }
      ],
      "stateMutability": "view",
      "type": "function"
    },
    {
      "inputs": [
        {
          "internalType": "uint256",
          "name": "_tokenId",
          "type": "uint256"
        }
      ],
      "name": "tokenURI",
      "outputs": [
        {
          "internalType": "string",
          "name": "",
          "type": "string"
        }
      ],
      "stateMutability": "view",
      "type": "function"
    },
    {
      "inputs": [],
      "name": "totalSupply",
      "outputs": [
        {
          "internalType": "uint256",
          "name": "",
          "type": "uint256"
        }
      ],
      "stateMutability": "view",
      "type": "function"
    },
    {
      "inputs": [
        {
          "internalType": "address",
          "name": "from",
          "type": "address"
        },
        {
          "internalType": "address",
          "name": "to",
          "type": "address"
        },
        {
          "internalType": "uint256",
          "name": "tokenId",
          "type": "uint256"
        }
      ],
      "name": "transferFrom",
      "outputs": [],
      "stateMutability": "nonpayable",
      "type": "function"
    }
  ],
  "bytecode": {
    "object": "0x60806040526000600f553480156200001657600080fd5b5060405162003d7e38038062003d7e8339810160408190526200003991620002a0565b84848484838360026200004d8382620003e6565b5060036200005c8282620003e6565b505060008055506200006e33620000bd565b62000083826001600160801b0383166200010f565b5050601080546001600160a01b039094166001600160a01b03199485168117909155601180549094161790925550620004b2945050505050565b600980546001600160a01b038381166001600160a01b0319831681179093556040519116919082907f8292fce18fa69edf4db7b94ea2e58241df0ae57f97e0a6c9b29067028bf92d7690600090a35050565b612710811115620001585760405162461bcd60e51b815260206004820152600f60248201526e45786365656473206d61782062707360881b604482015260640160405180910390fd5b600a80546001600160a01b0384166001600160b01b03199091168117600160a01b61ffff851602179091556040518281527f90d7ec04bcb8978719414f82e52e4cb651db41d0e6f8cea6118c2191e6183adb9060200160405180910390a25050565b634e487b7160e01b600052604160045260246000fd5b600082601f830112620001e257600080fd5b81516001600160401b0380821115620001ff57620001ff620001ba565b604051601f8301601f19908116603f011681019082821181831017156200022a576200022a620001ba565b816040528381526020925086838588010111156200024757600080fd5b600091505b838210156200026b57858201830151818301840152908201906200024c565b838211156200027d5760008385830101525b9695505050505050565b6001600160a01b03811681146200029d57600080fd5b50565b600080600080600060a08688031215620002b957600080fd5b85516001600160401b0380821115620002d157600080fd5b620002df89838a01620001d0565b96506020880151915080821115620002f657600080fd5b506200030588828901620001d0565b9450506040860151620003188162000287565b60608701519093506001600160801b03811681146200033657600080fd5b6080870151909250620003498162000287565b809150509295509295909350565b600181811c908216806200036c57607f821691505b6020821081036200038d57634e487b7160e01b600052602260045260246000fd5b50919050565b601f821115620003e157600081815260208120601f850160051c81016020861015620003bc5750805b601f850160051c820191505b81811015620003dd57828155600101620003c8565b5050505b505050565b81516001600160401b03811115620004025762000402620001ba565b6200041a8162000413845462000357565b8462000393565b602080601f831160018114620004525760008415620004395750858301515b600019600386901b1c1916600185901b178555620003dd565b600085815260208120601f198616915b82811015620004835788860151825594840194600190910190840162000462565b5085821015620004a25787850151600019600388901b60f8161c191681555b5050505050600190811b01905550565b6138bc80620004c26000396000f3fe6080604052600436106102925760003560e01c806363b45e2d1161015a578063ac9650d8116100c1578063e75722301161007a578063e757223014610861578063e8a3d48514610881578063e985e9c514610896578063f05b3521146108df578063f15c3894146108f2578063fd6086cb1461091257600080fd5b8063ac9650d814610789578063b24f2d39146107b6578063b88d4fde146107e1578063c37977ff14610801578063c79de86e14610821578063c87b56dd1461084157600080fd5b80638da5cb5b116101135780638da5cb5b146106e15780638f8143c0146106ff578063938e3d7b1461071457806395d89b41146107345780639bcf7a1514610749578063a22cb4651461076957600080fd5b806363b45e2d1461061e5780636db248501461063357806370a0823114610648578063754a81d9146106685780637ace341b146106885780638d17664d146106c157600080fd5b80632a55205a116101fe578063430c2081116101b7578063430c2081146105455780634cc157df1461056557806356189236146105a75780635b6ee8e5146105bc578063600dd5ea146105de5780636352211e146105fe57600080fd5b80632a55205a146104715780632cb7c907146104b057806339066889146104d05780633b1475a7146104f057806342842e0e1461050557806342966c681461052557600080fd5b806318160ddd1161025057806318160ddd146103885780631b2ab868146103ab5780631e77607d146103e45780631ece83b01461040457806323b872dd146104315780632419f51b1461045157600080fd5b806275a3171461029757806301ffc9a7146102b957806306fdde03146102ee578063081812fc14610310578063095ea7b31461034857806313af403514610368575b600080fd5b3480156102a357600080fd5b506102b76102b2366004612f60565b610927565b005b3480156102c557600080fd5b506102d96102d4366004612fc3565b6109c2565b60405190151581526020015b60405180910390f35b3480156102fa57600080fd5b50610303610a2f565b6040516102e59190613038565b34801561031c57600080fd5b5061033061032b36600461304b565b610ac1565b6040516001600160a01b0390911681526020016102e5565b34801561035457600080fd5b506102b7610363366004613064565b610b05565b34801561037457600080fd5b506102b761038336600461308e565b610b8b565b34801561039457600080fd5b50600154600054035b6040519081526020016102e5565b3480156103b757600080fd5b506103306103c636600461304b565b6000908152601260205260409020600401546001600160a01b031690565b3480156103f057600080fd5b506102b76103ff3660046130a9565b610bbb565b34801561041057600080fd5b5061042461041f36600461304b565b610bc5565b6040516102e59190613147565b34801561043d57600080fd5b506102b761044c366004613155565b610c57565b34801561045d57600080fd5b5061039d61046c36600461304b565b610c62565b34801561047d57600080fd5b5061049161048c3660046130a9565b610cd0565b604080516001600160a01b0390931683526020830191909152016102e5565b3480156104bc57600080fd5b506102b76104cb3660046130a9565b610d0d565b3480156104dc57600080fd5b506102b76104eb3660046130a9565b610ddc565b3480156104fc57600080fd5b5060005461039d565b34801561051157600080fd5b506102b7610520366004613155565b610f3a565b34801561053157600080fd5b506102b761054036600461304b565b610f55565b34801561055157600080fd5b506102d9610560366004613064565b610f60565b34801561057157600080fd5b5061058561058036600461304b565b610fdf565b604080516001600160a01b03909316835261ffff9091166020830152016102e5565b3480156105b357600080fd5b50600f5461039d565b3480156105c857600080fd5b506105d161104a565b6040516102e59190613191565b3480156105ea57600080fd5b506102b76105f9366004613064565b61120d565b34801561060a57600080fd5b5061033061061936600461304b565b61123b565b34801561062a57600080fd5b50600c5461039d565b34801561063f57600080fd5b506105d161124d565b34801561065457600080fd5b5061039d61066336600461308e565b6113fd565b34801561067457600080fd5b506102b76106833660046131df565b61144b565b34801561069457600080fd5b506103306106a336600461304b565b6000908152601260205260409020600301546001600160a01b031690565b3480156106cd57600080fd5b5061039d6106dc36600461304b565b6114bf565b3480156106ed57600080fd5b506009546001600160a01b0316610330565b34801561070b57600080fd5b506105d16114d6565b34801561072057600080fd5b506102b761072f36600461325c565b6116b3565b34801561074057600080fd5b506103036116e0565b34801561075557600080fd5b506102b7610764366004613290565b6116ef565b34801561077557600080fd5b506102b76107843660046132c3565b61171e565b34801561079557600080fd5b506107a96107a43660046132fa565b6117b3565b6040516102e5919061336e565b3480156107c257600080fd5b50600a546001600160a01b03811690600160a01b900461ffff16610585565b3480156107ed57600080fd5b506102b76107fc3660046133d0565b6118a7565b34801561080d57600080fd5b5061039d61081c3660046130a9565b6118eb565b34801561082d57600080fd5b506102b761083c3660046130a9565b6119be565b34801561084d57600080fd5b5061030361085c36600461304b565b611acf565b34801561086d57600080fd5b5061039d61087c36600461304b565b611bbd565b34801561088d57600080fd5b50610303611bd2565b3480156108a257600080fd5b506102d96108b136600461342b565b6001600160a01b03918216600090815260076020908152604080832093909416825291909152205460ff1690565b61039d6108ed36600461345e565b611c60565b3480156108fe57600080fd5b5061039d61090d3660046130a9565b611d9b565b34801561091e57600080fd5b506105d1611da7565b61092f611fa7565b61097a5760405162461bcd60e51b81526020600482015260176024820152762737ba1030baba3437b934bd32b2103a379036b4b73a1760491b60448201526064015b60405180910390fd5b80600e600061098860005490565b815260200190815260200160002090816109a29190613544565b506109be82600160405180602001604052806000815250611fd4565b5050565b60006301ffc9a760e01b6001600160e01b0319831614806109f357506380ac58cd60e01b6001600160e01b03198316145b80610a0e5750635b5e139f60e01b6001600160e01b03198316145b80610a2957506001600160e01b0319821663152a902d60e11b145b92915050565b606060028054610a3e906134bc565b80601f0160208091040260200160405190810160405280929190818152602001828054610a6a906134bc565b8015610ab75780601f10610a8c57610100808354040283529160200191610ab7565b820191906000526020600020905b815481529060010190602001808311610a9a57829003601f168201915b5050505050905090565b6000610acc82612177565b610ae9576040516333d1c03960e21b815260040160405180910390fd5b506000908152600660205260409020546001600160a01b031690565b6000610b108261123b565b9050806001600160a01b0316836001600160a01b031603610b445760405163250fdee360e21b815260040160405180910390fd5b336001600160a01b03821614610b7b57610b5e81336108b1565b610b7b576040516367d9dca160e11b815260040160405180910390fd5b610b868383836121a2565b505050565b610b93611fa7565b610baf5760405162461bcd60e51b815260040161097190613603565b610bb8816121fe565b50565b6109be8282610ddc565b610bcd612e6b565b60008281526012602052604090819020815160c081019092528054829060ff166004811115610bfe57610bfe6130cb565b6004811115610c0f57610c0f6130cb565b8152600182015460208201526002820154604082015260038201546001600160a01b039081166060830152600483015416608082015260059091015460a09091015292915050565b610b86838383612250565b6000610c6d600c5490565b8210610cab5760405162461bcd60e51b815260206004820152600d60248201526c092dcecc2d8d2c840d2dcc8caf609b1b6044820152606401610971565b600c8281548110610cbe57610cbe61362b565b90600052602060002001549050919050565b600080600080610cdf86610fdf565b90945084925061ffff169050612710610cf88287613657565b610d02919061368c565b925050509250929050565b60008281526012602052604090206003015482906001600160a01b03163314610d785760405162461bcd60e51b815260206004820152601b60248201527f43616c6c6572206973206e6f742063757272656e74206f776e657200000000006044820152606401610971565b600083815260126020526040902060050154839083908114610dcb5760405162461bcd60e51b815260206004820152600c60248201526b155b985d5d1a1bdc9a5e995960a21b6044820152606401610971565b610dd585856119be565b5050505050565b81816000610de983611bbd565b9050818114610e315760405162461bcd60e51b815260206004820152601460248201527315dc9bdb99c81d985b1d59481dd85cc81cd95b9d60621b6044820152606401610971565b601154604051634ce3696f60e11b815233600482015260248101879052604481018690526001600160a01b03909116906399c6d2de906064016020604051808303816000875af1158015610e89573d6000803e3d6000fd5b505050506040513d601f19601f82011682018060405250810190610ead91906136a0565b610f075760405162461bcd60e51b815260206004820152602560248201527f546f6b656e732077657265206e6f742061626c6520746f206265206465706f7360448201526434ba32b21760d91b6064820152608401610971565b5050506000918252506012602052604090206004810180546001600160a01b03191633179055805460ff19166001179055565b610b86838383604051806020016040528060008152506118a7565b610bb8816001612429565b600080610f6c8361123b565b9050806001600160a01b0316846001600160a01b03161480610fb357506001600160a01b0380821660009081526007602090815260408083209388168352929052205460ff165b80610fd75750836001600160a01b0316610fcc84610ac1565b6001600160a01b0316145b949350505050565b6000818152600b60209081526040808320815180830190925280546001600160a01b0316808352600190910154928201929092528291156110265780516020820151611040565b600a546001600160a01b03811690600160a01b900461ffff165b9250925050915091565b600f54606090600080805b838110156110a55760008181526012602052604081205460ff166004811115611080576110806130cb565b03611093578261108f816136bd565b9350505b8061109d816136bd565b915050611055565b506000826001600160401b038111156110c0576110c0612ebe565b6040519080825280602002602001820160405280156110f957816020015b6110e6612e6b565b8152602001906001900390816110de5790505b50905060005b838110156112045760008181526012602052604081205460ff16600481111561112a5761112a6130cb565b036111f2576000818152601260205260408082206001015480835291819020815160c0810190925280549091908290829060ff16600481111561116f5761116f6130cb565b6004811115611180576111806130cb565b8152600182015460208201526002820154604082015260038201546001600160a01b039081166060830152600483015416608082015260059091015460a09091015284518590879081106111d6576111d661362b565b602002602001018190525084806111ec906136bd565b95505050505b806111fc816136bd565b9150506110ff565b50949350505050565b611215611fa7565b6112315760405162461bcd60e51b815260040161097190613603565b6109be82826125dc565b600061124682612682565b5192915050565b600f54606090600080805b838110156112a357600081815260126020526040902060030154336001600160a01b0390911603611291578261128d816136bd565b9350505b8061129b816136bd565b915050611258565b506000826001600160401b038111156112be576112be612ebe565b6040519080825280602002602001820160405280156112f757816020015b6112e4612e6b565b8152602001906001900390816112dc5790505b50905060005b8381101561120457600081815260126020526040902060030154336001600160a01b03909116036113eb576000818152601260205260408082206001015480835291819020815160c0810190925280549091908290829060ff166004811115611368576113686130cb565b6004811115611379576113796130cb565b8152600182015460208201526002820154604082015260038201546001600160a01b039081166060830152600483015416608082015260059091015460a09091015284518590879081106113cf576113cf61362b565b602002602001018190525084806113e5906136bd565b95505050505b806113f5816136bd565b9150506112fd565b60006001600160a01b038216611426576040516323d3ad8160e21b815260040160405180910390fd5b506001600160a01b03166000908152600560205260409020546001600160401b031690565b611453611fa7565b6114995760405162461bcd60e51b81526020600482015260176024820152762737ba1030baba3437b934bd32b2103a379036b4b73a1760491b6044820152606401610971565b6114ac6114a560005490565b848461279c565b50506114b9848483611fd4565b50505050565b6000806114cb83610bc5565b60a001519392505050565b600f54606090600080805b8381101561157c57600160008281526012602052604090205460ff16600481111561150e5761150e6130cb565b14801561155757506000818152601260205260409020600301546001600160a01b031633148061155757506000818152601260205260409020600401546001600160a01b031633145b1561156a5782611566816136bd565b9350505b80611574816136bd565b9150506114e1565b506000826001600160401b0381111561159757611597612ebe565b6040519080825280602002602001820160405280156115d057816020015b6115bd612e6b565b8152602001906001900390816115b55790505b50905060005b83811015611204576000818152601260205260408082206001015480835291819020815160c0810190925280549091908290829060ff16600481111561161e5761161e6130cb565b600481111561162f5761162f6130cb565b8152600182015460208201526002820154604082015260038201546001600160a01b039081166060830152600483015416608082015260059091015460a09091015284518590879081106116855761168561362b565b6020026020010181905250848061169b906136bd565b955050505080806116ab906136bd565b9150506115d6565b6116bb611fa7565b6116d75760405162461bcd60e51b815260040161097190613603565b610bb881612800565b606060038054610a3e906134bc565b6116f7611fa7565b6117135760405162461bcd60e51b815260040161097190613603565b610b868383836128dc565b336001600160a01b038316036117475760405163b06307db60e01b815260040160405180910390fd5b3360008181526007602090815260408083206001600160a01b03871680855290835292819020805460ff191686151590811790915590519081529192917f17307eab39ab6107e8899845ad3d59bd9653f200f220920489ca2b5937696c31910160405180910390a35050565b6060816001600160401b038111156117cd576117cd612ebe565b60405190808252806020026020018201604052801561180057816020015b60608152602001906001900390816117eb5790505b50905060005b828110156118a057611870308585848181106118245761182461362b565b905060200281019061183691906136d6565b8080601f0160208091040260200160405190810160405280939291908181526020018383808284376000920191909152506129a592505050565b8282815181106118825761188261362b565b60200260200101819052508080611898906136bd565b915050611806565b5092915050565b6118b2848484612250565b6001600160a01b0383163b156114b9576118ce848484846129d1565b6114b9576040516368d2bf6b60e11b815260040160405180910390fd5b6000828152601260205260408120600401546001600160a01b0316331461191157600080fd5b600083815260126020526040808220805460ff191660039081178255810180546001600160a01b0319163317905560115491516307dde52760e01b815260048101879052602481018690529092916001600160a01b0316906307dde527906044016020604051808303816000875af1158015611991573d6000803e3d6000fd5b505050506040513d601f19601f820116820180604052508101906119b59190613723565b95945050505050565b60115460405163136b736360e31b8152336004820152602481018490526001600160a01b0390911690639b5b9b18906044016020604051808303816000875af1158015611a0f573d6000803e3d6000fd5b505050506040513d601f19601f82011682018060405250810190611a3391906136a0565b611a895760405162461bcd60e51b815260206004820152602160248201527f4e465420776173206e6f742061626c6520746f206265206465706f73697465646044820152601760f91b6064820152608401610971565b600082815260126020526040902060038101546001600160a01b03163314611ac0576003810180546001600160a01b031916331790555b805460ff191660021790555050565b6000818152600e6020526040812080546060929190611aed906134bc565b80601f0160208091040260200160405190810160405280929190818152602001828054611b19906134bc565b8015611b665780601f10611b3b57610100808354040283529160200191611b66565b820191906000526020600020905b815481529060010190602001808311611b4957829003601f168201915b50505050509050600081511115611b7d5792915050565b6000611b8884612ab9565b905080611b9485612c55565b604051602001611ba592919061373c565b60405160208183030381529060405292505050919050565b6000611bc882610bc5565b6040015192915050565b60088054611bdf906134bc565b80601f0160208091040260200160405190810160405280929190818152602001828054611c0b906134bc565b8015611c585780601f10611c2d57610100808354040283529160200191611c58565b820191906000526020600020905b815481529060010190602001808311611c3b57829003601f168201915b505050505081565b6009546000906001600160a01b03163314611c8d5760405162461bcd60e51b815260040161097190613603565b600f54601054611ca7906001600160a01b0316600161171e565b611cb18685610927565b6040805160c081018252600080825260208083018590528284018790526001600160a01b038a1660608401526080830182905260a08301899052848252601290529190912081518154829060ff19166001836004811115611d1457611d146130cb565b021790555060208201516001808301919091556040830151600283015560608301516003830180546001600160a01b039283166001600160a01b031991821617909155608085015160048501805491909316911617905560a090920151600590910155600f8054600090611d8990849061376b565b9182905550600f555095945050505050565b60006118a083836118eb565b600f54606090600080805b83811015611e4d57600260008281526012602052604090205460ff166004811115611ddf57611ddf6130cb565b148015611e0557506000818152601260205260409020600401546001600160a01b031633145b80611e2857506000818152601260205260409020600401546001600160a01b0316155b15611e3b5782611e37816136bd565b9350505b80611e45816136bd565b915050611db2565b506000826001600160401b03811115611e6857611e68612ebe565b604051908082528060200260200182016040528015611ea157816020015b611e8e612e6b565b815260200190600190039081611e865790505b50905060005b8381101561120457600081815260126020526040902060040154336001600160a01b0390911603611f95576000818152601260205260408082206001015480835291819020815160c0810190925280549091908290829060ff166004811115611f1257611f126130cb565b6004811115611f2357611f236130cb565b8152600182015460208201526002820154604082015260038201546001600160a01b039081166060830152600483015416608082015260059091015460a0909101528451859087908110611f7957611f7961362b565b60200260200101819052508480611f8f906136bd565b95505050505b80611f9f816136bd565b915050611ea7565b6000611fbb6009546001600160a01b031690565b6001600160a01b0316336001600160a01b031614905090565b6000546001600160a01b038416611ffd57604051622e076360e81b815260040160405180910390fd5b8260000361201e5760405163b562e8dd60e01b815260040160405180910390fd5b6001600160a01b038416600081815260056020908152604080832080546fffffffffffffffffffffffffffffffff1981166001600160401b038083168b0181169182176801000000000000000067ffffffffffffffff1990941690921783900481168b01811690920217909155858452600490925290912080546001600160e01b0319168317600160a01b42909316929092029190911790558190818501903b15612134575b60405182906001600160a01b03881690600090600080516020613867833981519152908290a46120fd60008784806001019550876129d1565b61211a576040516368d2bf6b60e11b815260040160405180910390fd5b8082106120c457826000541461212f57600080fd5b612167565b5b6040516001830192906001600160a01b03881690600090600080516020613867833981519152908290a4808210612135575b5060009081556114b99085838684565b6000805482108015610a29575050600090815260046020526040902054600160e01b900460ff161590565b60008281526006602052604080822080546001600160a01b0319166001600160a01b0387811691821790925591518593918516917f8c5be1e5ebec7d5bd14f71427d1e84f3dd0314c0f7b2291e5b200ac8c7c3b92591a4505050565b600980546001600160a01b038381166001600160a01b0319831681179093556040519116919082907f8292fce18fa69edf4db7b94ea2e58241df0ae57f97e0a6c9b29067028bf92d7690600090a35050565b600061225b82612682565b9050836001600160a01b031681600001516001600160a01b0316146122925760405162a1148160e81b815260040160405180910390fd5b6000336001600160a01b03861614806122b057506122b085336108b1565b806122cb5750336122c084610ac1565b6001600160a01b0316145b9050806122eb57604051632ce44b5f60e11b815260040160405180910390fd5b6001600160a01b03841661231257604051633a954ecd60e21b815260040160405180910390fd5b61231e600084876121a2565b6001600160a01b038581166000908152600560209081526040808320805467ffffffffffffffff198082166001600160401b0392831660001901831617909255898616808652838620805493841693831660019081018416949094179055898652600490945282852080546001600160e01b031916909417600160a01b429092169190910217835587018084529220805491939091166123f25760005482146123f257805460208601516001600160401b0316600160a01b026001600160e01b03199091166001600160a01b038a16171781555b50505082846001600160a01b0316866001600160a01b031660008051602061386783398151915260405160405180910390a4610dd5565b600061243483612682565b8051909150821561249a576000336001600160a01b038316148061245d575061245d82336108b1565b8061247857503361246d86610ac1565b6001600160a01b0316145b90508061249857604051632ce44b5f60e11b815260040160405180910390fd5b505b6124a6600085836121a2565b6001600160a01b0380821660008181526005602090815260408083208054600160801b6000196001600160401b0380841691909101811667ffffffffffffffff198416811783900482166001908101831690930277ffffffffffffffff0000000000000000ffffffffffffffff19909416179290921783558b86526004909452828520805460ff60e01b1942909316600160a01b026001600160e01b03199091169097179690961716600160e01b1785559189018084529220805491949091166125a45760005482146125a457805460208701516001600160401b0316600160a01b026001600160e01b03199091166001600160a01b038716171781555b5050604051869250600091506001600160a01b03841690600080516020613867833981519152908390a4505060018054810190555050565b6127108111156126205760405162461bcd60e51b815260206004820152600f60248201526e45786365656473206d61782062707360881b6044820152606401610971565b600a80546001600160a01b0384166001600160b01b03199091168117600160a01b61ffff851602179091556040518281527f90d7ec04bcb8978719414f82e52e4cb651db41d0e6f8cea6118c2191e6183adb9060200160405180910390a25050565b60408051606081018252600080825260208201819052918101919091528160005481101561278357600081815260046020908152604091829020825160608101845290546001600160a01b0381168252600160a01b81046001600160401b031692820192909252600160e01b90910460ff161515918101829052906127815780516001600160a01b031615612718579392505050565b5060001901600081815260046020908152604091829020825160608101845290546001600160a01b038116808352600160a01b82046001600160401b031693830193909352600160e01b900460ff161515928101929092521561277c579392505050565b612718565b505b604051636f96cda160e11b815260040160405180910390fd5b6000806127a9848661376b565b600c8054600181019091557fdf6966c971051c3d54ec59162606531493a51404a002842f56009d7e5cf4a8c7018190556000818152600d602052604090209092508291506127f78482613544565b50935093915050565b60006008805461280f906134bc565b80601f016020809104026020016040519081016040528092919081815260200182805461283b906134bc565b80156128885780601f1061285d57610100808354040283529160200191612888565b820191906000526020600020905b81548152906001019060200180831161286b57829003601f168201915b50505050509050816008908161289e9190613544565b507fc9c7c3fe08b88b4df9d4d47ef47d2c43d55c025a0ba88ca442580ed9e7348a1681836040516128d0929190613783565b60405180910390a15050565b6127108111156129205760405162461bcd60e51b815260206004820152600f60248201526e45786365656473206d61782062707360881b6044820152606401610971565b6040805180820182526001600160a01b0384811680835260208084018681526000898152600b8352869020945185546001600160a01b031916941693909317845591516001909301929092559151838152909185917f7365cf4122f072a3365c20d54eff9b38d73c096c28e1892ec8f5b0e403a0f12d910160405180910390a3505050565b60606129ca838360405180606001604052806027815260200161384060279139612d55565b9392505050565b604051630a85bd0160e11b81526000906001600160a01b0385169063150b7a0290612a069033908990889088906004016137a8565b6020604051808303816000875af1925050508015612a41575060408051601f3d908101601f19168201909252612a3e918101906137db565b60015b612a9f573d808015612a6f576040519150601f19603f3d011682016040523d82523d6000602084013e612a74565b606091505b508051600003612a97576040516368d2bf6b60e11b815260040160405180910390fd5b805181602001fd5b6001600160e01b031916630a85bd0160e11b149050610fd7565b60606000612ac6600c5490565b90506000600c805480602002602001604051908101604052809291908181526020018280548015612b1657602002820191906000526020600020905b815481526020019060010190808311612b02575b5050505050905060005b82811015612c1a57818181518110612b3a57612b3a61362b565b6020026020010151851015612c0857600d6000838381518110612b5f57612b5f61362b565b602002602001015181526020019081526020016000208054612b80906134bc565b80601f0160208091040260200160405190810160405280929190818152602001828054612bac906134bc565b8015612bf95780601f10612bce57610100808354040283529160200191612bf9565b820191906000526020600020905b815481529060010190602001808311612bdc57829003601f168201915b50505050509350505050919050565b612c1360018261376b565b9050612b20565b5060405162461bcd60e51b815260206004820152600f60248201526e125b9d985b1a59081d1bdad95b9259608a1b6044820152606401610971565b606081600003612c7c5750506040805180820190915260018152600360fc1b602082015290565b8160005b8115612ca65780612c90816136bd565b9150612c9f9050600a8361368c565b9150612c80565b6000816001600160401b03811115612cc057612cc0612ebe565b6040519080825280601f01601f191660200182016040528015612cea576020820181803683370190505b5090505b8415610fd757612cff6001836137f8565b9150612d0c600a8661380f565b612d1790603061376b565b60f81b818381518110612d2c57612d2c61362b565b60200101906001600160f81b031916908160001a905350612d4e600a8661368c565b9450612cee565b60606001600160a01b0384163b612dbd5760405162461bcd60e51b815260206004820152602660248201527f416464726573733a2064656c65676174652063616c6c20746f206e6f6e2d636f6044820152651b9d1c9858dd60d21b6064820152608401610971565b600080856001600160a01b031685604051612dd89190613823565b600060405180830381855af49150503d8060008114612e13576040519150601f19603f3d011682016040523d82523d6000602084013e612e18565b606091505b5091509150612e28828286612e32565b9695505050505050565b60608315612e415750816129ca565b825115612e515782518084602001fd5b8160405162461bcd60e51b81526004016109719190613038565b6040805160c08101909152806000815260006020820181905260408201819052606082018190526080820181905260a09091015290565b80356001600160a01b0381168114612eb957600080fd5b919050565b634e487b7160e01b600052604160045260246000fd5b600082601f830112612ee557600080fd5b81356001600160401b0380821115612eff57612eff612ebe565b604051601f8301601f19908116603f01168101908282118183101715612f2757612f27612ebe565b81604052838152866020858801011115612f4057600080fd5b836020870160208301376000602085830101528094505050505092915050565b60008060408385031215612f7357600080fd5b612f7c83612ea2565b915060208301356001600160401b03811115612f9757600080fd5b612fa385828601612ed4565b9150509250929050565b6001600160e01b031981168114610bb857600080fd5b600060208284031215612fd557600080fd5b81356129ca81612fad565b60005b83811015612ffb578181015183820152602001612fe3565b838111156114b95750506000910152565b60008151808452613024816020860160208601612fe0565b601f01601f19169290920160200192915050565b6020815260006129ca602083018461300c565b60006020828403121561305d57600080fd5b5035919050565b6000806040838503121561307757600080fd5b61308083612ea2565b946020939093013593505050565b6000602082840312156130a057600080fd5b6129ca82612ea2565b600080604083850312156130bc57600080fd5b50508035926020909101359150565b634e487b7160e01b600052602160045260246000fd5b80516005811061310157634e487b7160e01b600052602160045260246000fd5b825260208181015190830152604080820151908301526060808201516001600160a01b03908116918401919091526080808301519091169083015260a090810151910152565b60c08101610a2982846130e1565b60008060006060848603121561316a57600080fd5b61317384612ea2565b925061318160208501612ea2565b9150604084013590509250925092565b6020808252825182820181905260009190848201906040850190845b818110156131d3576131c08385516130e1565b9284019260c092909201916001016131ad565b50909695505050505050565b600080600080608085870312156131f557600080fd5b6131fe85612ea2565b93506020850135925060408501356001600160401b038082111561322157600080fd5b61322d88838901612ed4565b9350606087013591508082111561324357600080fd5b5061325087828801612ed4565b91505092959194509250565b60006020828403121561326e57600080fd5b81356001600160401b0381111561328457600080fd5b610fd784828501612ed4565b6000806000606084860312156132a557600080fd5b8335925061318160208501612ea2565b8015158114610bb857600080fd5b600080604083850312156132d657600080fd5b6132df83612ea2565b915060208301356132ef816132b5565b809150509250929050565b6000806020838503121561330d57600080fd5b82356001600160401b038082111561332457600080fd5b818501915085601f83011261333857600080fd5b81358181111561334757600080fd5b8660208260051b850101111561335c57600080fd5b60209290920196919550909350505050565b6000602080830181845280855180835260408601915060408160051b870101925083870160005b828110156133c357603f198886030184526133b185835161300c565b94509285019290850190600101613395565b5092979650505050505050565b600080600080608085870312156133e657600080fd5b6133ef85612ea2565b93506133fd60208601612ea2565b92506040850135915060608501356001600160401b0381111561341f57600080fd5b61325087828801612ed4565b6000806040838503121561343e57600080fd5b61344783612ea2565b915061345560208401612ea2565b90509250929050565b6000806000806080858703121561347457600080fd5b61347d85612ea2565b93506020850135925060408501356001600160401b0381111561349f57600080fd5b6134ab87828801612ed4565b949793965093946060013593505050565b600181811c908216806134d057607f821691505b6020821081036134f057634e487b7160e01b600052602260045260246000fd5b50919050565b601f821115610b8657600081815260208120601f850160051c8101602086101561351d5750805b601f850160051c820191505b8181101561353c57828155600101613529565b505050505050565b81516001600160401b0381111561355d5761355d612ebe565b6135718161356b84546134bc565b846134f6565b602080601f8311600181146135a6576000841561358e5750858301515b600019600386901b1c1916600185901b17855561353c565b600085815260208120601f198616915b828110156135d5578886015182559484019460019091019084016135b6565b50858210156135f35787850151600019600388901b60f8161c191681555b5050505050600190811b01905550565b6020808252600e908201526d139bdd08185d5d1a1bdc9a5e995960921b604082015260600190565b634e487b7160e01b600052603260045260246000fd5b634e487b7160e01b600052601160045260246000fd5b600081600019048311821515161561367157613671613641565b500290565b634e487b7160e01b600052601260045260246000fd5b60008261369b5761369b613676565b500490565b6000602082840312156136b257600080fd5b81516129ca816132b5565b6000600182016136cf576136cf613641565b5060010190565b6000808335601e198436030181126136ed57600080fd5b8301803591506001600160401b0382111561370757600080fd5b60200191503681900382131561371c57600080fd5b9250929050565b60006020828403121561373557600080fd5b5051919050565b6000835161374e818460208801612fe0565b835190830190613762818360208801612fe0565b01949350505050565b6000821982111561377e5761377e613641565b500190565b604081526000613796604083018561300c565b82810360208401526119b5818561300c565b6001600160a01b0385811682528416602082015260408101839052608060608201819052600090612e289083018461300c565b6000602082840312156137ed57600080fd5b81516129ca81612fad565b60008282101561380a5761380a613641565b500390565b60008261381e5761381e613676565b500690565b60008251613835818460208701612fe0565b919091019291505056fe416464726573733a206c6f772d6c6576656c2064656c65676174652063616c6c206661696c6564ddf252ad1be2c89b69c2b068fc378daa952ba7f163c4a11628f55a4df523b3efa2646970667358221220d3d0902681ad0abbb1caf051993727c536e28b1848edb29eeafc759fccc0ec7764736f6c634300080f0033",
    "linkReferences": {}
  },
  "methodIdentifiers": {
    "_depositNftToEscrow(uint256,bytes32)": "c79de86e",
    "_depositTokenToEscrow(uint256,uint256)": "39066889",
    "_releaseOrderToEscrow(uint256,bytes32)": "c37977ff",
    "approve(address,uint256)": "095ea7b3",
    "balanceOf(address)": "70a08231",
    "batchMintTo(address,uint256,string,bytes)": "754a81d9",
    "burn(uint256)": "42966c68",
    "contractURI()": "e8a3d485",
    "depositNftToEscrow(uint256,bytes32)": "2cb7c907",
    "depositTokenToEscrow(uint256,uint256)": "1e77607d",
    "fetchOnSale()": "5b6ee8e5",
    "fetchOwned()": "6db24850",
    "fetchPendingInitOrders()": "8f8143c0",
    "fetchPendingTether()": "fd6086cb",
    "getApproved(uint256)": "081812fc",
    "getBaseURICount()": "63b45e2d",
    "getBatchIdAtIndex(uint256)": "2419f51b",
    "getCurrentOwner(uint256)": "7ace341b",
    "getCurrentTokenId()": "56189236",
    "getDefaultRoyaltyInfo()": "b24f2d39",
    "getNFTState(uint256)": "1ece83b0",
    "getNextOwner(uint256)": "1b2ab868",
    "getPrice(uint256)": "e7572230",
    "getRoyaltyInfoForToken(uint256)": "4cc157df",
    "getSecret(uint256)": "8d17664d",
    "isApprovedForAll(address,address)": "e985e9c5",
    "isApprovedOrOwner(address,uint256)": "430c2081",
    "mintNftTo(address,bytes32,string,uint256)": "f05b3521",
    "mintTo(address,string)": "0075a317",
    "multicall(bytes[])": "ac9650d8",
    "name()": "06fdde03",
    "nextTokenIdToMint()": "3b1475a7",
    "owner()": "8da5cb5b",
    "ownerOf(uint256)": "6352211e",
    "releaseOrderToEscrow(uint256,bytes32)": "f15c3894",
    "royaltyInfo(uint256,uint256)": "2a55205a",
    "safeTransferFrom(address,address,uint256)": "42842e0e",
    "safeTransferFrom(address,address,uint256,bytes)": "b88d4fde",
    "setApprovalForAll(address,bool)": "a22cb465",
    "setContractURI(string)": "938e3d7b",
    "setDefaultRoyaltyInfo(address,uint256)": "600dd5ea",
    "setOwner(address)": "13af4035",
    "setRoyaltyInfoForToken(uint256,address,uint256)": "9bcf7a15",
    "supportsInterface(bytes4)": "01ffc9a7",
    "symbol()": "95d89b41",
    "tokenURI(uint256)": "c87b56dd",
    "totalSupply()": "18160ddd",
    "transferFrom(address,address,uint256)": "23b872dd"
  },
  "id": 0
}