{
  "abi": [
    {
      "inputs": [
        {
          "internalType": "string",
          "name": "_name",
          "type": "string"
        },
        {
          "internalType": "string",
          "name": "_symbol",
          "type": "string"
        },
        {
          "internalType": "address",
          "name": "_royaltySplitRecipient",
          "type": "address"
        },
        {
          "internalType": "uint128",
          "name": "_royaltySplitBps",
          "type": "uint128"
        },
        {
          "internalType": "address payable",
          "name": "_escrowContractAddress",
          "type": "address"
        }
      ],
      "stateMutability": "nonpayable",
      "type": "constructor"
    },
    {
      "inputs": [],
      "name": "ApprovalCallerNotOwnerNorApproved",
      "type": "error"
    },
    {
      "inputs": [],
      "name": "ApprovalQueryForNonexistentToken",
      "type": "error"
    },
    {
      "inputs": [],
      "name": "ApprovalToCurrentOwner",
      "type": "error"
    },
    {
      "inputs": [],
      "name": "ApproveToCaller",
      "type": "error"
    },
    {
      "inputs": [],
      "name": "BalanceQueryForZeroAddress",
      "type": "error"
    },
    {
      "inputs": [],
      "name": "MintToZeroAddress",
      "type": "error"
    },
    {
      "inputs": [],
      "name": "MintZeroQuantity",
      "type": "error"
    },
    {
      "inputs": [],
      "name": "OwnerQueryForNonexistentToken",
      "type": "error"
    },
    {
      "inputs": [],
      "name": "TransferCallerNotOwnerNorApproved",
      "type": "error"
    },
    {
      "inputs": [],
      "name": "TransferFromIncorrectOwner",
      "type": "error"
    },
    {
      "inputs": [],
      "name": "TransferToNonERC721ReceiverImplementer",
      "type": "error"
    },
    {
      "inputs": [],
      "name": "TransferToZeroAddress",
      "type": "error"
    },
    {
      "inputs": [],
      "name": "URIQueryForNonexistentToken",
      "type": "error"
    },
    {
      "anonymous": false,
      "inputs": [
        {
          "indexed": true,
          "internalType": "address",
          "name": "owner",
          "type": "address"
        },
        {
          "indexed": true,
          "internalType": "address",
          "name": "approved",
          "type": "address"
        },
        {
          "indexed": true,
          "internalType": "uint256",
          "name": "tokenId",
          "type": "uint256"
        }
      ],
      "name": "Approval",
      "type": "event"
    },
    {
      "anonymous": false,
      "inputs": [
        {
          "indexed": true,
          "internalType": "address",
          "name": "owner",
          "type": "address"
        },
        {
          "indexed": true,
          "internalType": "address",
          "name": "operator",
          "type": "address"
        },
        {
          "indexed": false,
          "internalType": "bool",
          "name": "approved",
          "type": "bool"
        }
      ],
      "name": "ApprovalForAll",
      "type": "event"
    },
    {
      "anonymous": false,
      "inputs": [
        {
          "indexed": false,
          "internalType": "string",
          "name": "prevURI",
          "type": "string"
        },
        {
          "indexed": false,
          "internalType": "string",
          "name": "newURI",
          "type": "string"
        }
      ],
      "name": "ContractURIUpdated",
      "type": "event"
    },
    {
      "anonymous": false,
      "inputs": [
        {
          "indexed": true,
          "internalType": "address",
          "name": "newRoyaltyRecipient",
          "type": "address"
        },
        {
          "indexed": false,
          "internalType": "uint256",
          "name": "newRoyaltyBps",
          "type": "uint256"
        }
      ],
      "name": "DefaultRoyalty",
      "type": "event"
    },
    {
      "anonymous": false,
      "inputs": [
        {
          "indexed": true,
          "internalType": "address",
          "name": "prevOwner",
          "type": "address"
        },
        {
          "indexed": true,
          "internalType": "address",
          "name": "newOwner",
          "type": "address"
        }
      ],
      "name": "OwnerUpdated",
      "type": "event"
    },
    {
      "anonymous": false,
      "inputs": [
        {
          "indexed": true,
          "internalType": "uint256",
          "name": "tokenId",
          "type": "uint256"
        },
        {
          "indexed": true,
          "internalType": "address",
          "name": "royaltyRecipient",
          "type": "address"
        },
        {
          "indexed": false,
          "internalType": "uint256",
          "name": "royaltyBps",
          "type": "uint256"
        }
      ],
      "name": "RoyaltyForToken",
      "type": "event"
    },
    {
      "anonymous": false,
      "inputs": [
        {
          "indexed": true,
          "internalType": "address",
          "name": "from",
          "type": "address"
        },
        {
          "indexed": true,
          "internalType": "address",
          "name": "to",
          "type": "address"
        },
        {
          "indexed": true,
          "internalType": "uint256",
          "name": "tokenId",
          "type": "uint256"
        }
      ],
      "name": "Transfer",
      "type": "event"
    },
    {
      "inputs": [
        {
          "internalType": "uint256",
          "name": "_tokenId",
          "type": "uint256"
        },
        {
          "internalType": "bytes32",
          "name": "_secret",
          "type": "bytes32"
        }
      ],
      "name": "_depositNftToEscrow",
      "outputs": [],
      "stateMutability": "nonpayable",
      "type": "function"
    },
    {
      "inputs": [
        {
          "internalType": "uint256",
          "name": "_tokenId",
          "type": "uint256"
        },
        {
          "internalType": "uint256",
          "name": "_amount",
          "type": "uint256"
        }
      ],
      "name": "_depositTokenToEscrow",
      "outputs": [],
      "stateMutability": "nonpayable",
      "type": "function"
    },
    {
      "inputs": [
        {
          "internalType": "uint256",
          "name": "_tokenId",
          "type": "uint256"
        },
        {
          "internalType": "bytes32",
          "name": "_secret",
          "type": "bytes32"
        }
      ],
      "name": "_releaseOrderToEscrow",
      "outputs": [
        {
          "internalType": "uint256",
          "name": "",
          "type": "uint256"
        }
      ],
      "stateMutability": "nonpayable",
      "type": "function"
    },
    {
      "inputs": [
        {
          "internalType": "address",
          "name": "to",
          "type": "address"
        },
        {
          "internalType": "uint256",
          "name": "tokenId",
          "type": "uint256"
        }
      ],
      "name": "approve",
      "outputs": [],
      "stateMutability": "nonpayable",
      "type": "function"
    },
    {
      "inputs": [
        {
          "internalType": "address",
          "name": "owner",
          "type": "address"
        }
      ],
      "name": "balanceOf",
      "outputs": [
        {
          "internalType": "uint256",
          "name": "",
          "type": "uint256"
        }
      ],
      "stateMutability": "view",
      "type": "function"
    },
    {
      "inputs": [
        {
          "internalType": "address",
          "name": "_to",
          "type": "address"
        },
        {
          "internalType": "uint256",
          "name": "_quantity",
          "type": "uint256"
        },
        {
          "internalType": "string",
          "name": "_baseURI",
          "type": "string"
        },
        {
          "internalType": "bytes",
          "name": "_data",
          "type": "bytes"
        }
      ],
      "name": "batchMintTo",
      "outputs": [],
      "stateMutability": "nonpayable",
      "type": "function"
    },
    {
      "inputs": [
        {
          "internalType": "uint256",
          "name": "_tokenId",
          "type": "uint256"
        }
      ],
      "name": "burn",
      "outputs": [],
      "stateMutability": "nonpayable",
      "type": "function"
    },
    {
      "inputs": [],
      "name": "contractURI",
      "outputs": [
        {
          "internalType": "string",
          "name": "",
          "type": "string"
        }
      ],
      "stateMutability": "view",
      "type": "function"
    },
    {
      "inputs": [
        {
          "internalType": "uint256",
          "name": "_tokenId",
          "type": "uint256"
        },
        {
          "internalType": "bytes32",
          "name": "_secret",
          "type": "bytes32"
        }
      ],
      "name": "depositNftToEscrow",
      "outputs": [],
      "stateMutability": "nonpayable",
      "type": "function"
    },
    {
      "inputs": [
        {
          "internalType": "uint256",
          "name": "_tokenId",
          "type": "uint256"
        },
        {
          "internalType": "uint256",
          "name": "_amount",
          "type": "uint256"
        }
      ],
      "name": "depositTokenToEscrow",
      "outputs": [],
      "stateMutability": "nonpayable",
      "type": "function"
    },
    {
      "inputs": [],
      "name": "fetchOnSale",
      "outputs": [
        {
          "components": [
            {
              "internalType": "enum AmhoNFT.ItemState",
              "name": "itemState",
              "type": "uint8"
            },
            {
              "internalType": "uint256",
              "name": "tokenId",
              "type": "uint256"
            },
            {
              "internalType": "uint256",
              "name": "price",
              "type": "uint256"
            },
            {
              "internalType": "address",
              "name": "currentOwner",
              "type": "address"
            },
            {
              "internalType": "address",
              "name": "nextOwner",
              "type": "address"
            },
            {
              "internalType": "bytes32",
              "name": "secret",
              "type": "bytes32"
            }
          ],
          "internalType": "struct AmhoNFT.NFTState[]",
          "name": "",
          "type": "tuple[]"
        }
      ],
      "stateMutability": "view",
      "type": "function"
    },
    {
      "inputs": [],
      "name": "fetchOwned",
      "outputs": [
        {
          "components": [
            {
              "internalType": "enum AmhoNFT.ItemState",
              "name": "itemState",
              "type": "uint8"
            },
            {
              "internalType": "uint256",
              "name": "tokenId",
              "type": "uint256"
            },
            {
              "internalType": "uint256",
              "name": "price",
              "type": "uint256"
            },
            {
              "internalType": "address",
              "name": "currentOwner",
              "type": "address"
            },
            {
              "internalType": "address",
              "name": "nextOwner",
              "type": "address"
            },
            {
              "internalType": "bytes32",
              "name": "secret",
              "type": "bytes32"
            }
          ],
          "internalType": "struct AmhoNFT.NFTState[]",
          "name": "",
          "type": "tuple[]"
        }
      ],
      "stateMutability": "view",
      "type": "function"
    },
    {
      "inputs": [],
      "name": "fetchPendingInitOrders",
      "outputs": [
        {
          "components": [
            {
              "internalType": "enum AmhoNFT.ItemState",
              "name": "itemState",
              "type": "uint8"
            },
            {
              "internalType": "uint256",
              "name": "tokenId",
              "type": "uint256"
            },
            {
              "internalType": "uint256",
              "name": "price",
              "type": "uint256"
            },
            {
              "internalType": "address",
              "name": "currentOwner",
              "type": "address"
            },
            {
              "internalType": "address",
              "name": "nextOwner",
              "type": "address"
            },
            {
              "internalType": "bytes32",
              "name": "secret",
              "type": "bytes32"
            }
          ],
          "internalType": "struct AmhoNFT.NFTState[]",
          "name": "",
          "type": "tuple[]"
        }
      ],
      "stateMutability": "view",
      "type": "function"
    },
    {
      "inputs": [],
      "name": "fetchPendingTether",
      "outputs": [
        {
          "components": [
            {
              "internalType": "enum AmhoNFT.ItemState",
              "name": "itemState",
              "type": "uint8"
            },
            {
              "internalType": "uint256",
              "name": "tokenId",
              "type": "uint256"
            },
            {
              "internalType": "uint256",
              "name": "price",
              "type": "uint256"
            },
            {
              "internalType": "address",
              "name": "currentOwner",
              "type": "address"
            },
            {
              "internalType": "address",
              "name": "nextOwner",
              "type": "address"
            },
            {
              "internalType": "bytes32",
              "name": "secret",
              "type": "bytes32"
            }
          ],
          "internalType": "struct AmhoNFT.NFTState[]",
          "name": "",
          "type": "tuple[]"
        }
      ],
      "stateMutability": "view",
      "type": "function"
    },
    {
      "inputs": [
        {
          "internalType": "uint256",
          "name": "tokenId",
          "type": "uint256"
        }
      ],
      "name": "getApproved",
      "outputs": [
        {
          "internalType": "address",
          "name": "",
          "type": "address"
        }
      ],
      "stateMutability": "view",
      "type": "function"
    },
    {
      "inputs": [],
      "name": "getBaseURICount",
      "outputs": [
        {
          "internalType": "uint256",
          "name": "",
          "type": "uint256"
        }
      ],
      "stateMutability": "view",
      "type": "function"
    },
    {
      "inputs": [
        {
          "internalType": "uint256",
          "name": "_index",
          "type": "uint256"
        }
      ],
      "name": "getBatchIdAtIndex",
      "outputs": [
        {
          "internalType": "uint256",
          "name": "",
          "type": "uint256"
        }
      ],
      "stateMutability": "view",
      "type": "function"
    },
    {
      "inputs": [
        {
          "internalType": "uint256",
          "name": "_tokenId",
          "type": "uint256"
        }
      ],
      "name": "getCurrentOwner",
      "outputs": [
        {
          "internalType": "address",
          "name": "",
          "type": "address"
        }
      ],
      "stateMutability": "view",
      "type": "function"
    },
    {
      "inputs": [],
      "name": "getCurrentTokenId",
      "outputs": [
        {
          "internalType": "uint256",
          "name": "",
          "type": "uint256"
        }
      ],
      "stateMutability": "view",
      "type": "function"
    },
    {
      "inputs": [],
      "name": "getDefaultRoyaltyInfo",
      "outputs": [
        {
          "internalType": "address",
          "name": "",
          "type": "address"
        },
        {
          "internalType": "uint16",
          "name": "",
          "type": "uint16"
        }
      ],
      "stateMutability": "view",
      "type": "function"
    },
    {
      "inputs": [
        {
          "internalType": "uint256",
          "name": "_tokenId",
          "type": "uint256"
        }
      ],
      "name": "getNFTState",
      "outputs": [
        {
          "components": [
            {
              "internalType": "enum AmhoNFT.ItemState",
              "name": "itemState",
              "type": "uint8"
            },
            {
              "internalType": "uint256",
              "name": "tokenId",
              "type": "uint256"
            },
            {
              "internalType": "uint256",
              "name": "price",
              "type": "uint256"
            },
            {
              "internalType": "address",
              "name": "currentOwner",
              "type": "address"
            },
            {
              "internalType": "address",
              "name": "nextOwner",
              "type": "address"
            },
            {
              "internalType": "bytes32",
              "name": "secret",
              "type": "bytes32"
            }
          ],
          "internalType": "struct AmhoNFT.NFTState",
          "name": "",
          "type": "tuple"
        }
      ],
      "stateMutability": "view",
      "type": "function"
    },
    {
      "inputs": [
        {
          "internalType": "uint256",
          "name": "_tokenId",
          "type": "uint256"
        }
      ],
      "name": "getNextOwner",
      "outputs": [
        {
          "internalType": "address",
          "name": "",
          "type": "address"
        }
      ],
      "stateMutability": "view",
      "type": "function"
    },
    {
      "inputs": [
        {
          "internalType": "uint256",
          "name": "_tokenId",
          "type": "uint256"
        }
      ],
      "name": "getPrice",
      "outputs": [
        {
          "internalType": "uint256",
          "name": "",
          "type": "uint256"
        }
      ],
      "stateMutability": "view",
      "type": "function"
    },
    {
      "inputs": [
        {
          "internalType": "uint256",
          "name": "_tokenId",
          "type": "uint256"
        }
      ],
      "name": "getRoyaltyInfoForToken",
      "outputs": [
        {
          "internalType": "address",
          "name": "",
          "type": "address"
        },
        {
          "internalType": "uint16",
          "name": "",
          "type": "uint16"
        }
      ],
      "stateMutability": "view",
      "type": "function"
    },
    {
      "inputs": [
        {
          "internalType": "uint256",
          "name": "_tokenId",
          "type": "uint256"
        }
      ],
      "name": "getSecret",
      "outputs": [
        {
          "internalType": "bytes32",
          "name": "",
          "type": "bytes32"
        }
      ],
      "stateMutability": "view",
      "type": "function"
    },
    {
      "inputs": [
        {
          "internalType": "address",
          "name": "owner",
          "type": "address"
        },
        {
          "internalType": "address",
          "name": "operator",
          "type": "address"
        }
      ],
      "name": "isApprovedForAll",
      "outputs": [
        {
          "internalType": "bool",
          "name": "",
          "type": "bool"
        }
      ],
      "stateMutability": "view",
      "type": "function"
    },
    {
      "inputs": [
        {
          "internalType": "address",
          "name": "_operator",
          "type": "address"
        },
        {
          "internalType": "uint256",
          "name": "_tokenId",
          "type": "uint256"
        }
      ],
      "name": "isApprovedOrOwner",
      "outputs": [
        {
          "internalType": "bool",
          "name": "isApprovedOrOwnerOf",
          "type": "bool"
        }
      ],
      "stateMutability": "view",
      "type": "function"
    },
    {
      "inputs": [
        {
          "internalType": "address",
          "name": "_to",
          "type": "address"
        },
        {
          "internalType": "bytes32",
          "name": "secret",
          "type": "bytes32"
        },
        {
          "internalType": "string",
          "name": "tokenURI",
          "type": "string"
        },
        {
          "internalType": "uint256",
          "name": "_price",
          "type": "uint256"
        }
      ],
      "name": "mintNftTo",
      "outputs": [
        {
          "internalType": "uint256",
          "name": "",
          "type": "uint256"
        }
      ],
      "stateMutability": "payable",
      "type": "function"
    },
    {
      "inputs": [
        {
          "internalType": "address",
          "name": "_to",
          "type": "address"
        },
        {
          "internalType": "string",
          "name": "_tokenURI",
          "type": "string"
        }
      ],
      "name": "mintTo",
      "outputs": [],
      "stateMutability": "nonpayable",
      "type": "function"
    },
    {
      "inputs": [
        {
          "internalType": "bytes[]",
          "name": "data",
          "type": "bytes[]"
        }
      ],
      "name": "multicall",
      "outputs": [
        {
          "internalType": "bytes[]",
          "name": "results",
          "type": "bytes[]"
        }
      ],
      "stateMutability": "nonpayable",
      "type": "function"
    },
    {
      "inputs": [],
      "name": "name",
      "outputs": [
        {
          "internalType": "string",
          "name": "",
          "type": "string"
        }
      ],
      "stateMutability": "view",
      "type": "function"
    },
    {
      "inputs": [],
      "name": "nextTokenIdToMint",
      "outputs": [
        {
          "internalType": "uint256",
          "name": "",
          "type": "uint256"
        }
      ],
      "stateMutability": "view",
      "type": "function"
    },
    {
      "inputs": [],
      "name": "owner",
      "outputs": [
        {
          "internalType": "address",
          "name": "",
          "type": "address"
        }
      ],
      "stateMutability": "view",
      "type": "function"
    },
    {
      "inputs": [
        {
          "internalType": "uint256",
          "name": "tokenId",
          "type": "uint256"
        }
      ],
      "name": "ownerOf",
      "outputs": [
        {
          "internalType": "address",
          "name": "",
          "type": "address"
        }
      ],
      "stateMutability": "view",
      "type": "function"
    },
    {
      "inputs": [
        {
          "internalType": "uint256",
          "name": "_tokenId",
          "type": "uint256"
        },
        {
          "internalType": "bytes32",
          "name": "_secret",
          "type": "bytes32"
        }
      ],
      "name": "releaseOrderToEscrow",
      "outputs": [
        {
          "internalType": "uint256",
          "name": "",
          "type": "uint256"
        }
      ],
      "stateMutability": "nonpayable",
      "type": "function"
    },
    {
      "inputs": [
        {
          "internalType": "uint256",
          "name": "tokenId",
          "type": "uint256"
        },
        {
          "internalType": "uint256",
          "name": "salePrice",
          "type": "uint256"
        }
      ],
      "name": "royaltyInfo",
      "outputs": [
        {
          "internalType": "address",
          "name": "receiver",
          "type": "address"
        },
        {
          "internalType": "uint256",
          "name": "royaltyAmount",
          "type": "uint256"
        }
      ],
      "stateMutability": "view",
      "type": "function"
    },
    {
      "inputs": [
        {
          "internalType": "address",
          "name": "from",
          "type": "address"
        },
        {
          "internalType": "address",
          "name": "to",
          "type": "address"
        },
        {
          "internalType": "uint256",
          "name": "tokenId",
          "type": "uint256"
        }
      ],
      "name": "safeTransferFrom",
      "outputs": [],
      "stateMutability": "nonpayable",
      "type": "function"
    },
    {
      "inputs": [
        {
          "internalType": "address",
          "name": "from",
          "type": "address"
        },
        {
          "internalType": "address",
          "name": "to",
          "type": "address"
        },
        {
          "internalType": "uint256",
          "name": "tokenId",
          "type": "uint256"
        },
        {
          "internalType": "bytes",
          "name": "_data",
          "type": "bytes"
        }
      ],
      "name": "safeTransferFrom",
      "outputs": [],
      "stateMutability": "nonpayable",
      "type": "function"
    },
    {
      "inputs": [
        {
          "internalType": "address",
          "name": "operator",
          "type": "address"
        },
        {
          "internalType": "bool",
          "name": "approved",
          "type": "bool"
        }
      ],
      "name": "setApprovalForAll",
      "outputs": [],
      "stateMutability": "nonpayable",
      "type": "function"
    },
    {
      "inputs": [
        {
          "internalType": "string",
          "name": "_uri",
          "type": "string"
        }
      ],
      "name": "setContractURI",
      "outputs": [],
      "stateMutability": "nonpayable",
      "type": "function"
    },
    {
      "inputs": [
        {
          "internalType": "address",
          "name": "_royaltyRecipient",
          "type": "address"
        },
        {
          "internalType": "uint256",
          "name": "_royaltyBps",
          "type": "uint256"
        }
      ],
      "name": "setDefaultRoyaltyInfo",
      "outputs": [],
      "stateMutability": "nonpayable",
      "type": "function"
    },
    {
      "inputs": [
        {
          "internalType": "address",
          "name": "_newOwner",
          "type": "address"
        }
      ],
      "name": "setOwner",
      "outputs": [],
      "stateMutability": "nonpayable",
      "type": "function"
    },
    {
      "inputs": [
        {
          "internalType": "uint256",
          "name": "_tokenId",
          "type": "uint256"
        },
        {
          "internalType": "address",
          "name": "_recipient",
          "type": "address"
        },
        {
          "internalType": "uint256",
          "name": "_bps",
          "type": "uint256"
        }
      ],
      "name": "setRoyaltyInfoForToken",
      "outputs": [],
      "stateMutability": "nonpayable",
      "type": "function"
    },
    {
      "inputs": [
        {
          "internalType": "bytes4",
          "name": "interfaceId",
          "type": "bytes4"
        }
      ],
      "name": "supportsInterface",
      "outputs": [
        {
          "internalType": "bool",
          "name": "",
          "type": "bool"
        }
      ],
      "stateMutability": "view",
      "type": "function"
    },
    {
      "inputs": [],
      "name": "symbol",
      "outputs": [
        {
          "internalType": "string",
          "name": "",
          "type": "string"
        }
      ],
      "stateMutability": "view",
      "type": "function"
    },
    {
      "inputs": [
        {
          "internalType": "uint256",
          "name": "_tokenId",
          "type": "uint256"
        }
      ],
      "name": "tokenURI",
      "outputs": [
        {
          "internalType": "string",
          "name": "",
          "type": "string"
        }
      ],
      "stateMutability": "view",
      "type": "function"
    },
    {
      "inputs": [],
      "name": "totalSupply",
      "outputs": [
        {
          "internalType": "uint256",
          "name": "",
          "type": "uint256"
        }
      ],
      "stateMutability": "view",
      "type": "function"
    },
    {
      "inputs": [
        {
          "internalType": "address",
          "name": "from",
          "type": "address"
        },
        {
          "internalType": "address",
          "name": "to",
          "type": "address"
        },
        {
          "internalType": "uint256",
          "name": "tokenId",
          "type": "uint256"
        }
      ],
      "name": "transferFrom",
      "outputs": [],
      "stateMutability": "nonpayable",
      "type": "function"
    }
  ],
  "bytecode": {
    "object": "0x60806040526000600f553480156200001657600080fd5b5060405162003e1f38038062003e1f8339810160408190526200003991620002a0565b84848484838360026200004d8382620003e6565b5060036200005c8282620003e6565b505060008055506200006e33620000bd565b62000083826001600160801b0383166200010f565b5050601080546001600160a01b039094166001600160a01b03199485168117909155601180549094161790925550620004b2945050505050565b600980546001600160a01b038381166001600160a01b0319831681179093556040519116919082907f8292fce18fa69edf4db7b94ea2e58241df0ae57f97e0a6c9b29067028bf92d7690600090a35050565b612710811115620001585760405162461bcd60e51b815260206004820152600f60248201526e45786365656473206d61782062707360881b604482015260640160405180910390fd5b600a80546001600160a01b0384166001600160b01b03199091168117600160a01b61ffff851602179091556040518281527f90d7ec04bcb8978719414f82e52e4cb651db41d0e6f8cea6118c2191e6183adb9060200160405180910390a25050565b634e487b7160e01b600052604160045260246000fd5b600082601f830112620001e257600080fd5b81516001600160401b0380821115620001ff57620001ff620001ba565b604051601f8301601f19908116603f011681019082821181831017156200022a576200022a620001ba565b816040528381526020925086838588010111156200024757600080fd5b600091505b838210156200026b57858201830151818301840152908201906200024c565b838211156200027d5760008385830101525b9695505050505050565b6001600160a01b03811681146200029d57600080fd5b50565b600080600080600060a08688031215620002b957600080fd5b85516001600160401b0380821115620002d157600080fd5b620002df89838a01620001d0565b96506020880151915080821115620002f657600080fd5b506200030588828901620001d0565b9450506040860151620003188162000287565b60608701519093506001600160801b03811681146200033657600080fd5b6080870151909250620003498162000287565b809150509295509295909350565b600181811c908216806200036c57607f821691505b6020821081036200038d57634e487b7160e01b600052602260045260246000fd5b50919050565b601f821115620003e157600081815260208120601f850160051c81016020861015620003bc5750805b601f850160051c820191505b81811015620003dd57828155600101620003c8565b5050505b505050565b81516001600160401b03811115620004025762000402620001ba565b6200041a8162000413845462000357565b8462000393565b602080601f831160018114620004525760008415620004395750858301515b600019600386901b1c1916600185901b178555620003dd565b600085815260208120601f198616915b82811015620004835788860151825594840194600190910190840162000462565b5085821015620004a25787850151600019600388901b60f8161c191681555b5050505050600190811b01905550565b61395d80620004c26000396000f3fe6080604052600436106102925760003560e01c806363b45e2d1161015a578063ac9650d8116100c1578063e75722301161007a578063e757223014610861578063e8a3d48514610881578063e985e9c514610896578063f05b3521146108df578063f15c3894146108f2578063fd6086cb1461091257600080fd5b8063ac9650d814610789578063b24f2d39146107b6578063b88d4fde146107e1578063c37977ff14610801578063c79de86e14610821578063c87b56dd1461084157600080fd5b80638da5cb5b116101135780638da5cb5b146106e15780638f8143c0146106ff578063938e3d7b1461071457806395d89b41146107345780639bcf7a1514610749578063a22cb4651461076957600080fd5b806363b45e2d1461061e5780636db248501461063357806370a0823114610648578063754a81d9146106685780637ace341b146106885780638d17664d146106c157600080fd5b80632a55205a116101fe578063430c2081116101b7578063430c2081146105455780634cc157df1461056557806356189236146105a75780635b6ee8e5146105bc578063600dd5ea146105de5780636352211e146105fe57600080fd5b80632a55205a146104715780632cb7c907146104b057806339066889146104d05780633b1475a7146104f057806342842e0e1461050557806342966c681461052557600080fd5b806318160ddd1161025057806318160ddd146103885780631b2ab868146103ab5780631e77607d146103e45780631ece83b01461040457806323b872dd146104315780632419f51b1461045157600080fd5b806275a3171461029757806301ffc9a7146102b957806306fdde03146102ee578063081812fc14610310578063095ea7b31461034857806313af403514610368575b600080fd5b3480156102a357600080fd5b506102b76102b2366004612fd2565b610927565b005b3480156102c557600080fd5b506102d96102d4366004613037565b6109c2565b60405190151581526020015b60405180910390f35b3480156102fa57600080fd5b50610303610a2f565b6040516102e591906130ac565b34801561031c57600080fd5b5061033061032b3660046130bf565b610ac1565b6040516001600160a01b0390911681526020016102e5565b34801561035457600080fd5b506102b76103633660046130d8565b610b05565b34801561037457600080fd5b506102b7610383366004613104565b610b8b565b34801561039457600080fd5b50600154600054035b6040519081526020016102e5565b3480156103b757600080fd5b506103306103c63660046130bf565b6000908152601260205260409020600401546001600160a01b031690565b3480156103f057600080fd5b506102b76103ff366004613121565b610bbb565b34801561041057600080fd5b5061042461041f3660046130bf565b610bc5565b6040516102e591906131bf565b34801561043d57600080fd5b506102b761044c3660046131cd565b610c57565b34801561045d57600080fd5b5061039d61046c3660046130bf565b610c62565b34801561047d57600080fd5b5061049161048c366004613121565b610cd0565b604080516001600160a01b0390931683526020830191909152016102e5565b3480156104bc57600080fd5b506102b76104cb366004613121565b610d0d565b3480156104dc57600080fd5b506102b76104eb366004613121565b610ddc565b3480156104fc57600080fd5b5060005461039d565b34801561051157600080fd5b506102b76105203660046131cd565b610fb3565b34801561053157600080fd5b506102b76105403660046130bf565b610fce565b34801561055157600080fd5b506102d96105603660046130d8565b610fd9565b34801561057157600080fd5b506105856105803660046130bf565b611058565b604080516001600160a01b03909316835261ffff9091166020830152016102e5565b3480156105b357600080fd5b50600f5461039d565b3480156105c857600080fd5b506105d16110c3565b6040516102e5919061320e565b3480156105ea57600080fd5b506102b76105f93660046130d8565b611286565b34801561060a57600080fd5b506103306106193660046130bf565b6112b4565b34801561062a57600080fd5b50600c5461039d565b34801561063f57600080fd5b506105d16112c6565b34801561065457600080fd5b5061039d610663366004613104565b611476565b34801561067457600080fd5b506102b761068336600461325c565b6114c4565b34801561069457600080fd5b506103306106a33660046130bf565b6000908152601260205260409020600301546001600160a01b031690565b3480156106cd57600080fd5b5061039d6106dc3660046130bf565b611538565b3480156106ed57600080fd5b506009546001600160a01b0316610330565b34801561070b57600080fd5b506105d161154f565b34801561072057600080fd5b506102b761072f3660046132db565b61172c565b34801561074057600080fd5b50610303611759565b34801561075557600080fd5b506102b761076436600461330f565b611768565b34801561077557600080fd5b506102b7610784366004613344565b611797565b34801561079557600080fd5b506107a96107a436600461337d565b61182c565b6040516102e591906133f1565b3480156107c257600080fd5b50600a546001600160a01b03811690600160a01b900461ffff16610585565b3480156107ed57600080fd5b506102b76107fc366004613453565b611920565b34801561080d57600080fd5b5061039d61081c366004613121565b611964565b34801561082d57600080fd5b506102b761083c366004613121565b611a37565b34801561084d57600080fd5b5061030361085c3660046130bf565b611b48565b34801561086d57600080fd5b5061039d61087c3660046130bf565b611c36565b34801561088d57600080fd5b50610303611c4b565b3480156108a257600080fd5b506102d96108b13660046134b2565b6001600160a01b03918216600090815260076020908152604080832093909416825291909152205460ff1690565b61039d6108ed3660046134e0565b611cd9565b3480156108fe57600080fd5b5061039d61090d366004613121565b611e14565b34801561091e57600080fd5b506105d1611e20565b61092f612020565b61097a5760405162461bcd60e51b81526020600482015260176024820152762737ba1030baba3437b934bd32b2103a379036b4b73a1760491b60448201526064015b60405180910390fd5b80600e600061098860005490565b815260200190815260200160002090816109a291906135c8565b506109be8260016040518060200160405280600081525061204d565b5050565b60006301ffc9a760e01b6001600160e01b0319831614806109f357506380ac58cd60e01b6001600160e01b03198316145b80610a0e5750635b5e139f60e01b6001600160e01b03198316145b80610a2957506001600160e01b0319821663152a902d60e11b145b92915050565b606060028054610a3e90613540565b80601f0160208091040260200160405190810160405280929190818152602001828054610a6a90613540565b8015610ab75780601f10610a8c57610100808354040283529160200191610ab7565b820191906000526020600020905b815481529060010190602001808311610a9a57829003601f168201915b5050505050905090565b6000610acc826121f0565b610ae9576040516333d1c03960e21b815260040160405180910390fd5b506000908152600660205260409020546001600160a01b031690565b6000610b10826112b4565b9050806001600160a01b0316836001600160a01b031603610b445760405163250fdee360e21b815260040160405180910390fd5b336001600160a01b03821614610b7b57610b5e81336108b1565b610b7b576040516367d9dca160e11b815260040160405180910390fd5b610b8683838361221b565b505050565b610b93612020565b610baf5760405162461bcd60e51b815260040161097190613687565b610bb881612277565b50565b6109be8282610ddc565b610bcd612ee4565b60008281526012602052604090819020815160c081019092528054829060ff166004811115610bfe57610bfe613143565b6004811115610c0f57610c0f613143565b8152600182015460208201526002820154604082015260038201546001600160a01b039081166060830152600483015416608082015260059091015460a09091015292915050565b610b868383836122c9565b6000610c6d600c5490565b8210610cab5760405162461bcd60e51b815260206004820152600d60248201526c092dcecc2d8d2c840d2dcc8caf609b1b6044820152606401610971565b600c8281548110610cbe57610cbe6136af565b90600052602060002001549050919050565b600080600080610cdf86611058565b90945084925061ffff169050612710610cf882876136db565b610d029190613710565b925050509250929050565b60008281526012602052604090206003015482906001600160a01b03163314610d785760405162461bcd60e51b815260206004820152601b60248201527f43616c6c6572206973206e6f742063757272656e74206f776e657200000000006044820152606401610971565b600083815260126020526040902060050154839083908114610dcb5760405162461bcd60e51b815260206004820152600c60248201526b155b985d5d1a1bdc9a5e995960a21b6044820152606401610971565b610dd58585611a37565b5050505050565b81816000610de983611c36565b9050818114610e315760405162461bcd60e51b815260206004820152601460248201527315dc9bdb99c81d985b1d59481dd85cc81cd95b9d60621b6044820152606401610971565b6011546040805163021fd35d60e31b815290516000926001600160a01b0316916310fe9ae89160048083019260209291908290030181865afa158015610e7b573d6000803e3d6000fd5b505050506040513d601f19601f82011682018060405250810190610e9f9190613724565b601154604051633b796d7960e01b81526001600160a01b038084166004830152336024830152604482018a905260648201899052929350911690633b796d79906084016020604051808303816000875af1158015610f01573d6000803e3d6000fd5b505050506040513d601f19601f82011682018060405250810190610f259190613741565b610f7f5760405162461bcd60e51b815260206004820152602560248201527f546f6b656e732077657265206e6f742061626c6520746f206265206465706f7360448201526434ba32b21760d91b6064820152608401610971565b505050600092835250506012602052604090206004810180546001600160a01b03191633179055805460ff19166001179055565b610b8683838360405180602001604052806000815250611920565b610bb88160016124a2565b600080610fe5836112b4565b9050806001600160a01b0316846001600160a01b0316148061102c57506001600160a01b0380821660009081526007602090815260408083209388168352929052205460ff165b806110505750836001600160a01b031661104584610ac1565b6001600160a01b0316145b949350505050565b6000818152600b60209081526040808320815180830190925280546001600160a01b03168083526001909101549282019290925282911561109f57805160208201516110b9565b600a546001600160a01b03811690600160a01b900461ffff165b9250925050915091565b600f54606090600080805b8381101561111e5760008181526012602052604081205460ff1660048111156110f9576110f9613143565b0361110c57826111088161375e565b9350505b806111168161375e565b9150506110ce565b506000826001600160401b0381111561113957611139612f30565b60405190808252806020026020018201604052801561117257816020015b61115f612ee4565b8152602001906001900390816111575790505b50905060005b8381101561127d5760008181526012602052604081205460ff1660048111156111a3576111a3613143565b0361126b576000818152601260205260408082206001015480835291819020815160c0810190925280549091908290829060ff1660048111156111e8576111e8613143565b60048111156111f9576111f9613143565b8152600182015460208201526002820154604082015260038201546001600160a01b039081166060830152600483015416608082015260059091015460a090910152845185908790811061124f5761124f6136af565b602002602001018190525084806112659061375e565b95505050505b806112758161375e565b915050611178565b50949350505050565b61128e612020565b6112aa5760405162461bcd60e51b815260040161097190613687565b6109be8282612655565b60006112bf826126fb565b5192915050565b600f54606090600080805b8381101561131c57600081815260126020526040902060030154336001600160a01b039091160361130a57826113068161375e565b9350505b806113148161375e565b9150506112d1565b506000826001600160401b0381111561133757611337612f30565b60405190808252806020026020018201604052801561137057816020015b61135d612ee4565b8152602001906001900390816113555790505b50905060005b8381101561127d57600081815260126020526040902060030154336001600160a01b0390911603611464576000818152601260205260408082206001015480835291819020815160c0810190925280549091908290829060ff1660048111156113e1576113e1613143565b60048111156113f2576113f2613143565b8152600182015460208201526002820154604082015260038201546001600160a01b039081166060830152600483015416608082015260059091015460a0909101528451859087908110611448576114486136af565b6020026020010181905250848061145e9061375e565b95505050505b8061146e8161375e565b915050611376565b60006001600160a01b03821661149f576040516323d3ad8160e21b815260040160405180910390fd5b506001600160a01b03166000908152600560205260409020546001600160401b031690565b6114cc612020565b6115125760405162461bcd60e51b81526020600482015260176024820152762737ba1030baba3437b934bd32b2103a379036b4b73a1760491b6044820152606401610971565b61152561151e60005490565b8484612815565b505061153284848361204d565b50505050565b60008061154483610bc5565b60a001519392505050565b600f54606090600080805b838110156115f557600160008281526012602052604090205460ff16600481111561158757611587613143565b1480156115d057506000818152601260205260409020600301546001600160a01b03163314806115d057506000818152601260205260409020600401546001600160a01b031633145b156115e357826115df8161375e565b9350505b806115ed8161375e565b91505061155a565b506000826001600160401b0381111561161057611610612f30565b60405190808252806020026020018201604052801561164957816020015b611636612ee4565b81526020019060019003908161162e5790505b50905060005b8381101561127d576000818152601260205260408082206001015480835291819020815160c0810190925280549091908290829060ff16600481111561169757611697613143565b60048111156116a8576116a8613143565b8152600182015460208201526002820154604082015260038201546001600160a01b039081166060830152600483015416608082015260059091015460a09091015284518590879081106116fe576116fe6136af565b602002602001018190525084806117149061375e565b955050505080806117249061375e565b91505061164f565b611734612020565b6117505760405162461bcd60e51b815260040161097190613687565b610bb881612879565b606060038054610a3e90613540565b611770612020565b61178c5760405162461bcd60e51b815260040161097190613687565b610b86838383612955565b336001600160a01b038316036117c05760405163b06307db60e01b815260040160405180910390fd5b3360008181526007602090815260408083206001600160a01b03871680855290835292819020805460ff191686151590811790915590519081529192917f17307eab39ab6107e8899845ad3d59bd9653f200f220920489ca2b5937696c31910160405180910390a35050565b6060816001600160401b0381111561184657611846612f30565b60405190808252806020026020018201604052801561187957816020015b60608152602001906001900390816118645790505b50905060005b82811015611919576118e93085858481811061189d5761189d6136af565b90506020028101906118af9190613777565b8080601f016020809104026020016040519081016040528093929190818152602001838380828437600092019190915250612a1e92505050565b8282815181106118fb576118fb6136af565b602002602001018190525080806119119061375e565b91505061187f565b5092915050565b61192b8484846122c9565b6001600160a01b0383163b156115325761194784848484612a4a565b611532576040516368d2bf6b60e11b815260040160405180910390fd5b6000828152601260205260408120600401546001600160a01b0316331461198a57600080fd5b600083815260126020526040808220805460ff191660039081178255810180546001600160a01b0319163317905560115491516307dde52760e01b815260048101879052602481018690529092916001600160a01b0316906307dde527906044016020604051808303816000875af1158015611a0a573d6000803e3d6000fd5b505050506040513d601f19601f82011682018060405250810190611a2e91906137c4565b95945050505050565b60115460405163136b736360e31b8152336004820152602481018490526001600160a01b0390911690639b5b9b18906044016020604051808303816000875af1158015611a88573d6000803e3d6000fd5b505050506040513d601f19601f82011682018060405250810190611aac9190613741565b611b025760405162461bcd60e51b815260206004820152602160248201527f4e465420776173206e6f742061626c6520746f206265206465706f73697465646044820152601760f91b6064820152608401610971565b600082815260126020526040902060038101546001600160a01b03163314611b39576003810180546001600160a01b031916331790555b805460ff191660021790555050565b6000818152600e6020526040812080546060929190611b6690613540565b80601f0160208091040260200160405190810160405280929190818152602001828054611b9290613540565b8015611bdf5780601f10611bb457610100808354040283529160200191611bdf565b820191906000526020600020905b815481529060010190602001808311611bc257829003601f168201915b50505050509050600081511115611bf65792915050565b6000611c0184612b32565b905080611c0d85612cce565b604051602001611c1e9291906137dd565b60405160208183030381529060405292505050919050565b6000611c4182610bc5565b6040015192915050565b60088054611c5890613540565b80601f0160208091040260200160405190810160405280929190818152602001828054611c8490613540565b8015611cd15780601f10611ca657610100808354040283529160200191611cd1565b820191906000526020600020905b815481529060010190602001808311611cb457829003601f168201915b505050505081565b6009546000906001600160a01b03163314611d065760405162461bcd60e51b815260040161097190613687565b600f54601054611d20906001600160a01b03166001611797565b611d2a8685610927565b6040805160c081018252600080825260208083018590528284018790526001600160a01b038a1660608401526080830182905260a08301899052848252601290529190912081518154829060ff19166001836004811115611d8d57611d8d613143565b021790555060208201516001808301919091556040830151600283015560608301516003830180546001600160a01b039283166001600160a01b031991821617909155608085015160048501805491909316911617905560a090920151600590910155600f8054600090611e0290849061380c565b9182905550600f555095945050505050565b60006119198383611964565b600f54606090600080805b83811015611ec657600260008281526012602052604090205460ff166004811115611e5857611e58613143565b148015611e7e57506000818152601260205260409020600401546001600160a01b031633145b80611ea157506000818152601260205260409020600401546001600160a01b0316155b15611eb45782611eb08161375e565b9350505b80611ebe8161375e565b915050611e2b565b506000826001600160401b03811115611ee157611ee1612f30565b604051908082528060200260200182016040528015611f1a57816020015b611f07612ee4565b815260200190600190039081611eff5790505b50905060005b8381101561127d57600081815260126020526040902060040154336001600160a01b039091160361200e576000818152601260205260408082206001015480835291819020815160c0810190925280549091908290829060ff166004811115611f8b57611f8b613143565b6004811115611f9c57611f9c613143565b8152600182015460208201526002820154604082015260038201546001600160a01b039081166060830152600483015416608082015260059091015460a0909101528451859087908110611ff257611ff26136af565b602002602001018190525084806120089061375e565b95505050505b806120188161375e565b915050611f20565b60006120346009546001600160a01b031690565b6001600160a01b0316336001600160a01b031614905090565b6000546001600160a01b03841661207657604051622e076360e81b815260040160405180910390fd5b826000036120975760405163b562e8dd60e01b815260040160405180910390fd5b6001600160a01b038416600081815260056020908152604080832080546fffffffffffffffffffffffffffffffff1981166001600160401b038083168b0181169182176801000000000000000067ffffffffffffffff1990941690921783900481168b01811690920217909155858452600490925290912080546001600160e01b0319168317600160a01b42909316929092029190911790558190818501903b156121ad575b60405182906001600160a01b03881690600090600080516020613908833981519152908290a46121766000878480600101955087612a4a565b612193576040516368d2bf6b60e11b815260040160405180910390fd5b80821061213d5782600054146121a857600080fd5b6121e0565b5b6040516001830192906001600160a01b03881690600090600080516020613908833981519152908290a48082106121ae575b5060009081556115329085838684565b6000805482108015610a29575050600090815260046020526040902054600160e01b900460ff161590565b60008281526006602052604080822080546001600160a01b0319166001600160a01b0387811691821790925591518593918516917f8c5be1e5ebec7d5bd14f71427d1e84f3dd0314c0f7b2291e5b200ac8c7c3b92591a4505050565b600980546001600160a01b038381166001600160a01b0319831681179093556040519116919082907f8292fce18fa69edf4db7b94ea2e58241df0ae57f97e0a6c9b29067028bf92d7690600090a35050565b60006122d4826126fb565b9050836001600160a01b031681600001516001600160a01b03161461230b5760405162a1148160e81b815260040160405180910390fd5b6000336001600160a01b0386161480612329575061232985336108b1565b8061234457503361233984610ac1565b6001600160a01b0316145b90508061236457604051632ce44b5f60e11b815260040160405180910390fd5b6001600160a01b03841661238b57604051633a954ecd60e21b815260040160405180910390fd5b6123976000848761221b565b6001600160a01b038581166000908152600560209081526040808320805467ffffffffffffffff198082166001600160401b0392831660001901831617909255898616808652838620805493841693831660019081018416949094179055898652600490945282852080546001600160e01b031916909417600160a01b4290921691909102178355870180845292208054919390911661246b57600054821461246b57805460208601516001600160401b0316600160a01b026001600160e01b03199091166001600160a01b038a16171781555b50505082846001600160a01b0316866001600160a01b031660008051602061390883398151915260405160405180910390a4610dd5565b60006124ad836126fb565b80519091508215612513576000336001600160a01b03831614806124d657506124d682336108b1565b806124f15750336124e686610ac1565b6001600160a01b0316145b90508061251157604051632ce44b5f60e11b815260040160405180910390fd5b505b61251f6000858361221b565b6001600160a01b0380821660008181526005602090815260408083208054600160801b6000196001600160401b0380841691909101811667ffffffffffffffff198416811783900482166001908101831690930277ffffffffffffffff0000000000000000ffffffffffffffff19909416179290921783558b86526004909452828520805460ff60e01b1942909316600160a01b026001600160e01b03199091169097179690961716600160e01b17855591890180845292208054919490911661261d57600054821461261d57805460208701516001600160401b0316600160a01b026001600160e01b03199091166001600160a01b038716171781555b5050604051869250600091506001600160a01b03841690600080516020613908833981519152908390a4505060018054810190555050565b6127108111156126995760405162461bcd60e51b815260206004820152600f60248201526e45786365656473206d61782062707360881b6044820152606401610971565b600a80546001600160a01b0384166001600160b01b03199091168117600160a01b61ffff851602179091556040518281527f90d7ec04bcb8978719414f82e52e4cb651db41d0e6f8cea6118c2191e6183adb9060200160405180910390a25050565b6040805160608101825260008082526020820181905291810191909152816000548110156127fc57600081815260046020908152604091829020825160608101845290546001600160a01b0381168252600160a01b81046001600160401b031692820192909252600160e01b90910460ff161515918101829052906127fa5780516001600160a01b031615612791579392505050565b5060001901600081815260046020908152604091829020825160608101845290546001600160a01b038116808352600160a01b82046001600160401b031693830193909352600160e01b900460ff16151592810192909252156127f5579392505050565b612791565b505b604051636f96cda160e11b815260040160405180910390fd5b600080612822848661380c565b600c8054600181019091557fdf6966c971051c3d54ec59162606531493a51404a002842f56009d7e5cf4a8c7018190556000818152600d6020526040902090925082915061287084826135c8565b50935093915050565b60006008805461288890613540565b80601f01602080910402602001604051908101604052809291908181526020018280546128b490613540565b80156129015780601f106128d657610100808354040283529160200191612901565b820191906000526020600020905b8154815290600101906020018083116128e457829003601f168201915b50505050509050816008908161291791906135c8565b507fc9c7c3fe08b88b4df9d4d47ef47d2c43d55c025a0ba88ca442580ed9e7348a168183604051612949929190613824565b60405180910390a15050565b6127108111156129995760405162461bcd60e51b815260206004820152600f60248201526e45786365656473206d61782062707360881b6044820152606401610971565b6040805180820182526001600160a01b0384811680835260208084018681526000898152600b8352869020945185546001600160a01b031916941693909317845591516001909301929092559151838152909185917f7365cf4122f072a3365c20d54eff9b38d73c096c28e1892ec8f5b0e403a0f12d910160405180910390a3505050565b6060612a4383836040518060600160405280602781526020016138e160279139612dce565b9392505050565b604051630a85bd0160e11b81526000906001600160a01b0385169063150b7a0290612a7f903390899088908890600401613849565b6020604051808303816000875af1925050508015612aba575060408051601f3d908101601f19168201909252612ab79181019061387c565b60015b612b18573d808015612ae8576040519150601f19603f3d011682016040523d82523d6000602084013e612aed565b606091505b508051600003612b10576040516368d2bf6b60e11b815260040160405180910390fd5b805181602001fd5b6001600160e01b031916630a85bd0160e11b149050611050565b60606000612b3f600c5490565b90506000600c805480602002602001604051908101604052809291908181526020018280548015612b8f57602002820191906000526020600020905b815481526020019060010190808311612b7b575b5050505050905060005b82811015612c9357818181518110612bb357612bb36136af565b6020026020010151851015612c8157600d6000838381518110612bd857612bd86136af565b602002602001015181526020019081526020016000208054612bf990613540565b80601f0160208091040260200160405190810160405280929190818152602001828054612c2590613540565b8015612c725780601f10612c4757610100808354040283529160200191612c72565b820191906000526020600020905b815481529060010190602001808311612c5557829003601f168201915b50505050509350505050919050565b612c8c60018261380c565b9050612b99565b5060405162461bcd60e51b815260206004820152600f60248201526e125b9d985b1a59081d1bdad95b9259608a1b6044820152606401610971565b606081600003612cf55750506040805180820190915260018152600360fc1b602082015290565b8160005b8115612d1f5780612d098161375e565b9150612d189050600a83613710565b9150612cf9565b6000816001600160401b03811115612d3957612d39612f30565b6040519080825280601f01601f191660200182016040528015612d63576020820181803683370190505b5090505b841561105057612d78600183613899565b9150612d85600a866138b0565b612d9090603061380c565b60f81b818381518110612da557612da56136af565b60200101906001600160f81b031916908160001a905350612dc7600a86613710565b9450612d67565b60606001600160a01b0384163b612e365760405162461bcd60e51b815260206004820152602660248201527f416464726573733a2064656c65676174652063616c6c20746f206e6f6e2d636f6044820152651b9d1c9858dd60d21b6064820152608401610971565b600080856001600160a01b031685604051612e5191906138c4565b600060405180830381855af49150503d8060008114612e8c576040519150601f19603f3d011682016040523d82523d6000602084013e612e91565b606091505b5091509150612ea1828286612eab565b9695505050505050565b60608315612eba575081612a43565b825115612eca5782518084602001fd5b8160405162461bcd60e51b815260040161097191906130ac565b6040805160c08101909152806000815260006020820181905260408201819052606082018190526080820181905260a09091015290565b6001600160a01b0381168114610bb857600080fd5b634e487b7160e01b600052604160045260246000fd5b600082601f830112612f5757600080fd5b81356001600160401b0380821115612f7157612f71612f30565b604051601f8301601f19908116603f01168101908282118183101715612f9957612f99612f30565b81604052838152866020858801011115612fb257600080fd5b836020870160208301376000602085830101528094505050505092915050565b60008060408385031215612fe557600080fd5b8235612ff081612f1b565b915060208301356001600160401b0381111561300b57600080fd5b61301785828601612f46565b9150509250929050565b6001600160e01b031981168114610bb857600080fd5b60006020828403121561304957600080fd5b8135612a4381613021565b60005b8381101561306f578181015183820152602001613057565b838111156115325750506000910152565b60008151808452613098816020860160208601613054565b601f01601f19169290920160200192915050565b602081526000612a436020830184613080565b6000602082840312156130d157600080fd5b5035919050565b600080604083850312156130eb57600080fd5b82356130f681612f1b565b946020939093013593505050565b60006020828403121561311657600080fd5b8135612a4381612f1b565b6000806040838503121561313457600080fd5b50508035926020909101359150565b634e487b7160e01b600052602160045260246000fd5b80516005811061317957634e487b7160e01b600052602160045260246000fd5b825260208181015190830152604080820151908301526060808201516001600160a01b03908116918401919091526080808301519091169083015260a090810151910152565b60c08101610a298284613159565b6000806000606084860312156131e257600080fd5b83356131ed81612f1b565b925060208401356131fd81612f1b565b929592945050506040919091013590565b6020808252825182820181905260009190848201906040850190845b818110156132505761323d838551613159565b9284019260c0929092019160010161322a565b50909695505050505050565b6000806000806080858703121561327257600080fd5b843561327d81612f1b565b93506020850135925060408501356001600160401b03808211156132a057600080fd5b6132ac88838901612f46565b935060608701359150808211156132c257600080fd5b506132cf87828801612f46565b91505092959194509250565b6000602082840312156132ed57600080fd5b81356001600160401b0381111561330357600080fd5b61105084828501612f46565b60008060006060848603121561332457600080fd5b8335925060208401356131fd81612f1b565b8015158114610bb857600080fd5b6000806040838503121561335757600080fd5b823561336281612f1b565b9150602083013561337281613336565b809150509250929050565b6000806020838503121561339057600080fd5b82356001600160401b03808211156133a757600080fd5b818501915085601f8301126133bb57600080fd5b8135818111156133ca57600080fd5b8660208260051b85010111156133df57600080fd5b60209290920196919550909350505050565b6000602080830181845280855180835260408601915060408160051b870101925083870160005b8281101561344657603f19888603018452613434858351613080565b94509285019290850190600101613418565b5092979650505050505050565b6000806000806080858703121561346957600080fd5b843561347481612f1b565b9350602085013561348481612f1b565b92506040850135915060608501356001600160401b038111156134a657600080fd5b6132cf87828801612f46565b600080604083850312156134c557600080fd5b82356134d081612f1b565b9150602083013561337281612f1b565b600080600080608085870312156134f657600080fd5b843561350181612f1b565b93506020850135925060408501356001600160401b0381111561352357600080fd5b61352f87828801612f46565b949793965093946060013593505050565b600181811c9082168061355457607f821691505b60208210810361357457634e487b7160e01b600052602260045260246000fd5b50919050565b601f821115610b8657600081815260208120601f850160051c810160208610156135a15750805b601f850160051c820191505b818110156135c0578281556001016135ad565b505050505050565b81516001600160401b038111156135e1576135e1612f30565b6135f5816135ef8454613540565b8461357a565b602080601f83116001811461362a57600084156136125750858301515b600019600386901b1c1916600185901b1785556135c0565b600085815260208120601f198616915b828110156136595788860151825594840194600190910190840161363a565b50858210156136775787850151600019600388901b60f8161c191681555b5050505050600190811b01905550565b6020808252600e908201526d139bdd08185d5d1a1bdc9a5e995960921b604082015260600190565b634e487b7160e01b600052603260045260246000fd5b634e487b7160e01b600052601160045260246000fd5b60008160001904831182151516156136f5576136f56136c5565b500290565b634e487b7160e01b600052601260045260246000fd5b60008261371f5761371f6136fa565b500490565b60006020828403121561373657600080fd5b8151612a4381612f1b565b60006020828403121561375357600080fd5b8151612a4381613336565b600060018201613770576137706136c5565b5060010190565b6000808335601e1984360301811261378e57600080fd5b8301803591506001600160401b038211156137a857600080fd5b6020019150368190038213156137bd57600080fd5b9250929050565b6000602082840312156137d657600080fd5b5051919050565b600083516137ef818460208801613054565b835190830190613803818360208801613054565b01949350505050565b6000821982111561381f5761381f6136c5565b500190565b6040815260006138376040830185613080565b8281036020840152611a2e8185613080565b6001600160a01b0385811682528416602082015260408101839052608060608201819052600090612ea190830184613080565b60006020828403121561388e57600080fd5b8151612a4381613021565b6000828210156138ab576138ab6136c5565b500390565b6000826138bf576138bf6136fa565b500690565b600082516138d6818460208701613054565b919091019291505056fe416464726573733a206c6f772d6c6576656c2064656c65676174652063616c6c206661696c6564ddf252ad1be2c89b69c2b068fc378daa952ba7f163c4a11628f55a4df523b3efa26469706673582212206fb829fca2ba8882b024c6427cff9252bdc2e97067c9241f581f3ef77749a69364736f6c634300080f0033",
    "linkReferences": {}
  },
  "methodIdentifiers": {
    "_depositNftToEscrow(uint256,bytes32)": "c79de86e",
    "_depositTokenToEscrow(uint256,uint256)": "39066889",
    "_releaseOrderToEscrow(uint256,bytes32)": "c37977ff",
    "approve(address,uint256)": "095ea7b3",
    "balanceOf(address)": "70a08231",
    "batchMintTo(address,uint256,string,bytes)": "754a81d9",
    "burn(uint256)": "42966c68",
    "contractURI()": "e8a3d485",
    "depositNftToEscrow(uint256,bytes32)": "2cb7c907",
    "depositTokenToEscrow(uint256,uint256)": "1e77607d",
    "fetchOnSale()": "5b6ee8e5",
    "fetchOwned()": "6db24850",
    "fetchPendingInitOrders()": "8f8143c0",
    "fetchPendingTether()": "fd6086cb",
    "getApproved(uint256)": "081812fc",
    "getBaseURICount()": "63b45e2d",
    "getBatchIdAtIndex(uint256)": "2419f51b",
    "getCurrentOwner(uint256)": "7ace341b",
    "getCurrentTokenId()": "56189236",
    "getDefaultRoyaltyInfo()": "b24f2d39",
    "getNFTState(uint256)": "1ece83b0",
    "getNextOwner(uint256)": "1b2ab868",
    "getPrice(uint256)": "e7572230",
    "getRoyaltyInfoForToken(uint256)": "4cc157df",
    "getSecret(uint256)": "8d17664d",
    "isApprovedForAll(address,address)": "e985e9c5",
    "isApprovedOrOwner(address,uint256)": "430c2081",
    "mintNftTo(address,bytes32,string,uint256)": "f05b3521",
    "mintTo(address,string)": "0075a317",
    "multicall(bytes[])": "ac9650d8",
    "name()": "06fdde03",
    "nextTokenIdToMint()": "3b1475a7",
    "owner()": "8da5cb5b",
    "ownerOf(uint256)": "6352211e",
    "releaseOrderToEscrow(uint256,bytes32)": "f15c3894",
    "royaltyInfo(uint256,uint256)": "2a55205a",
    "safeTransferFrom(address,address,uint256)": "42842e0e",
    "safeTransferFrom(address,address,uint256,bytes)": "b88d4fde",
    "setApprovalForAll(address,bool)": "a22cb465",
    "setContractURI(string)": "938e3d7b",
    "setDefaultRoyaltyInfo(address,uint256)": "600dd5ea",
    "setOwner(address)": "13af4035",
    "setRoyaltyInfoForToken(uint256,address,uint256)": "9bcf7a15",
    "supportsInterface(bytes4)": "01ffc9a7",
    "symbol()": "95d89b41",
    "tokenURI(uint256)": "c87b56dd",
    "totalSupply()": "18160ddd",
    "transferFrom(address,address,uint256)": "23b872dd"
  },
  "id": 0
}