{
  "abi": [
    {
      "anonymous": false,
      "inputs": [
        {
          "indexed": true,
          "internalType": "address",
          "name": "seller",
          "type": "address"
        },
        {
          "indexed": false,
          "internalType": "address",
          "name": "tokenAddress",
          "type": "address"
        }
      ],
      "name": "DepositedNFT",
      "type": "event"
    },
    {
      "anonymous": false,
      "inputs": [
        {
          "indexed": true,
          "internalType": "address",
          "name": "buyer",
          "type": "address"
        },
        {
          "indexed": false,
          "internalType": "uint256",
          "name": "amount",
          "type": "uint256"
        }
      ],
      "name": "DepositedToken",
      "type": "event"
    },
    {
      "anonymous": false,
      "inputs": [
        {
          "indexed": true,
          "internalType": "address",
          "name": "previousOwner",
          "type": "address"
        },
        {
          "indexed": true,
          "internalType": "address",
          "name": "newOwner",
          "type": "address"
        }
      ],
      "name": "OwnershipTransferred",
      "type": "event"
    },
    {
      "anonymous": false,
      "inputs": [
        {
          "indexed": false,
          "internalType": "address",
          "name": "",
          "type": "address"
        },
        {
          "indexed": false,
          "internalType": "uint256",
          "name": "",
          "type": "uint256"
        }
      ],
      "name": "Received",
      "type": "event"
    },
    {
      "inputs": [
        {
          "internalType": "address",
          "name": "from",
          "type": "address"
        },
        {
          "internalType": "uint256",
          "name": "_tokenId",
          "type": "uint256"
        }
      ],
      "name": "depositNFT",
      "outputs": [
        {
          "internalType": "bool",
          "name": "",
          "type": "bool"
        }
      ],
      "stateMutability": "nonpayable",
      "type": "function"
    },
    {
      "inputs": [
        {
          "internalType": "address",
          "name": "from",
          "type": "address"
        },
        {
          "internalType": "uint256",
          "name": "_tokenId",
          "type": "uint256"
        },
        {
          "internalType": "uint256",
          "name": "amount",
          "type": "uint256"
        }
      ],
      "name": "depositToken",
      "outputs": [
        {
          "internalType": "bool",
          "name": "",
          "type": "bool"
        }
      ],
      "stateMutability": "nonpayable",
      "type": "function"
    },
    {
      "inputs": [
        {
          "internalType": "uint256",
          "name": "",
          "type": "uint256"
        }
      ],
      "name": "escrowOrderById",
      "outputs": [
        {
          "internalType": "address payable",
          "name": "buyer",
          "type": "address"
        },
        {
          "internalType": "address payable",
          "name": "seller",
          "type": "address"
        },
        {
          "internalType": "uint256",
          "name": "value",
          "type": "uint256"
        },
        {
          "internalType": "enum Escrow.EscrowOrderState",
          "name": "status",
          "type": "uint8"
        }
      ],
      "stateMutability": "view",
      "type": "function"
    },
    {
      "inputs": [
        {
          "internalType": "uint256",
          "name": "_tokenId",
          "type": "uint256"
        }
      ],
      "name": "getEscrowOrderById",
      "outputs": [
        {
          "components": [
            {
              "internalType": "address payable",
              "name": "buyer",
              "type": "address"
            },
            {
              "internalType": "address payable",
              "name": "seller",
              "type": "address"
            },
            {
              "internalType": "uint256",
              "name": "value",
              "type": "uint256"
            },
            {
              "internalType": "enum Escrow.EscrowOrderState",
              "name": "status",
              "type": "uint8"
            }
          ],
          "internalType": "struct Escrow.EscrowOrder",
          "name": "",
          "type": "tuple"
        }
      ],
      "stateMutability": "view",
      "type": "function"
    },
    {
      "inputs": [],
      "name": "owner",
      "outputs": [
        {
          "internalType": "address",
          "name": "",
          "type": "address"
        }
      ],
      "stateMutability": "view",
      "type": "function"
    },
    {
      "inputs": [
        {
          "internalType": "uint256",
          "name": "_tokenId",
          "type": "uint256"
        },
        {
          "internalType": "bytes32",
          "name": "_secret",
          "type": "bytes32"
        }
      ],
      "name": "releaseOrder",
      "outputs": [
        {
          "internalType": "uint256",
          "name": "",
          "type": "uint256"
        }
      ],
      "stateMutability": "nonpayable",
      "type": "function"
    },
    {
      "inputs": [],
      "name": "renounceOwnership",
      "outputs": [],
      "stateMutability": "nonpayable",
      "type": "function"
    },
    {
      "inputs": [
        {
          "internalType": "address",
          "name": "_amho",
          "type": "address"
        },
        {
          "internalType": "address",
          "name": "_token",
          "type": "address"
        }
      ],
      "name": "setTokenAddresses",
      "outputs": [],
      "stateMutability": "nonpayable",
      "type": "function"
    },
    {
      "inputs": [
        {
          "internalType": "address",
          "name": "newOwner",
          "type": "address"
        }
      ],
      "name": "transferOwnership",
      "outputs": [],
      "stateMutability": "nonpayable",
      "type": "function"
    },
    {
      "stateMutability": "payable",
      "type": "receive"
    }
  ],
  "bytecode": {
    "object": "0x608060405234801561001057600080fd5b50600080546001600160a01b031916339081178255604051909182917f8be0079c531659141344cd1fd0a4f28419497f9722a3daafe3b4186f6b6457e0908290a350610da1806100616000396000f3fe60806040526004361061008a5760003560e01c80638da5cb5b116100595780638da5cb5b146101a957806399c6d2de146101d15780639b5b9b1814610201578063a89c8c5e14610221578063f2fde38b1461027757600080fd5b806307dde527146100ce5780631c93b3971461010157806364b020591461012e578063715018a61461019257600080fd5b366100c957604080513381523460208201527f88a5966d370b9919b20f3e2c13ff65706f196a4e32cc2c12bf57088f88525874910160405180910390a1005b600080fd5b3480156100da57600080fd5b506100ee6100e9366004610b51565b610297565b6040519081526020015b60405180910390f35b34801561010d57600080fd5b5061012161011c366004610b73565b61050d565b6040516100f89190610bc4565b34801561013a57600080fd5b50610182610149366004610b73565b600360208190526000918252604090912080546001820154600283015492909301546001600160a01b0391821693909116919060ff1684565b6040516100f89493929190610c08565b34801561019e57600080fd5b506101a76105b2565b005b3480156101b557600080fd5b506000546040516001600160a01b0390911681526020016100f8565b3480156101dd57600080fd5b506101f16101ec366004610c55565b610656565b60405190151581526020016100f8565b34801561020d57600080fd5b506101f161021c366004610c8a565b610883565b34801561022d57600080fd5b506101a761023c366004610cb6565b600180546001600160a01b039384166001600160a01b0319909116179055600280546001600160a81b0319169190921617600160a01b179055565b34801561028357600080fd5b506101a7610292366004610cef565b610a37565b600154604051638d17664d60e01b815260048101849052600091849184916001600160a01b03169084908290638d17664d90602401602060405180830381865afa1580156102e9573d6000803e3d6000fd5b505050506040513d601f19601f8201168201806040525081019061030d9190610d13565b90508281146103525760405162461bcd60e51b815260206004820152600c60248201526b155b985d5d1a1bdc9a5e995960a21b60448201526064015b60405180910390fd5b6000878152600360208181526040808420815160808101835281546001600160a01b0390811682526001808401549091169482019490945260028201549281019290925292830154909291606084019160ff16908111156103b5576103b5610b8c565b60018111156103c6576103c6610b8c565b9052508051602082015160408084015160015491516323b872dd60e01b81523060048201526001600160a01b038086166024830152604482018f9052959650939492939092909116906323b872dd90606401600060405180830381600087803b15801561043257600080fd5b505af1158015610446573d6000803e3d6000fd5b505060025460405163a9059cbb60e01b81526001600160a01b03868116600483015260248201869052909116925063a9059cbb91506044016020604051808303816000875af115801561049d573d6000803e3d6000fd5b505050506040513d601f19601f820116820180604052508101906104c19190610d2c565b5050506000898152600360208190526040822080546001600160a01b031990811682556001820180549091169055600281019290925501805460ff191690555096979650505050505050565b6105356040805160808101825260008082526020820181905291810182905290606082015290565b600082815260036020818152604092839020835160808101855281546001600160a01b0390811682526001808401549091169382019390935260028201549481019490945291820154606084019160ff9091169081111561059857610598610b8c565b60018111156105a9576105a9610b8c565b90525092915050565b6000546001600160a01b0316331461060c5760405162461bcd60e51b815260206004820181905260248201527f4f776e61626c653a2063616c6c6572206973206e6f7420746865206f776e65726044820152606401610349565b600080546040516001600160a01b03909116907f8be0079c531659141344cd1fd0a4f28419497f9722a3daafe3b4186f6b6457e0908390a3600080546001600160a01b0319169055565b600254600090600160a01b900460ff166106a65760405162461bcd60e51b81526020600482015260116024820152701059191c995cdcd95cc81b9bdd081cd95d607a1b6044820152606401610349565b6001546040516331a9108f60e11b8152600481018590526001600160a01b03909116906000908290636352211e90602401602060405180830381865afa1580156106f4573d6000803e3d6000fd5b505050506040513d601f19601f820116820180604052508101906107189190610d4e565b604080516080810182526001600160a01b03808a168252831660208201529081018690529091506060810160019052600086815260036020818152604092839020845181546001600160a01b039182166001600160a01b03199182161783559286015160018084018054929093169190941617905592840151600284015560608401519183018054909160ff199091169083818111156107ba576107ba610b8c565b0217905550506002546040516323b872dd60e01b81526001600160a01b0389811660048301523060248301526044820188905260009350909116906323b872dd906064016020604051808303816000875af115801561081d573d6000803e3d6000fd5b505050506040513d601f19601f820116820180604052508101906108419190610d2c565b60405186815290915033907f0a3641841709764e7fddb9e250125a825976f5b18478824f0895a64677e905619060200160405180910390a29695505050505050565b600254600090600160a01b900460ff166108d35760405162461bcd60e51b81526020600482015260116024820152701059191c995cdcd95cc81b9bdd081cd95d607a1b6044820152606401610349565b6001546040516331a9108f60e11b8152600481018490526000916001600160a01b031690636352211e90602401602060405180830381865afa15801561091d573d6000803e3d6000fd5b505050506040513d601f19601f820116820180604052508101906109419190610d4e565b600084815260036020819052604091829020600180820180546001600160a01b038b81166001600160a01b03199092168217909255938301805460ff19169055905493516323b872dd60e01b81526004810193909352306024840152604483018890529394509291909116906323b872dd90606401600060405180830381600087803b1580156109d057600080fd5b505af11580156109e4573d6000803e3d6000fd5b50506001546040516001600160a01b03918216815290851692507f08576d74ed25b3223d685b9f85e0fd9833ba0a9de166869267d5a891301085a8915060200160405180910390a2506001949350505050565b6000546001600160a01b03163314610a915760405162461bcd60e51b815260206004820181905260248201527f4f776e61626c653a2063616c6c6572206973206e6f7420746865206f776e65726044820152606401610349565b6001600160a01b038116610af65760405162461bcd60e51b815260206004820152602660248201527f4f776e61626c653a206e6577206f776e657220697320746865207a65726f206160448201526564647265737360d01b6064820152608401610349565b600080546040516001600160a01b03808516939216917f8be0079c531659141344cd1fd0a4f28419497f9722a3daafe3b4186f6b6457e091a3600080546001600160a01b0319166001600160a01b0392909216919091179055565b60008060408385031215610b6457600080fd5b50508035926020909101359150565b600060208284031215610b8557600080fd5b5035919050565b634e487b7160e01b600052602160045260246000fd5b60028110610bc057634e487b7160e01b600052602160045260246000fd5b9052565b81516001600160a01b03908116825260208084015190911690820152604080830151908201526060808301516080830191610c0190840182610ba2565b5092915050565b6001600160a01b038581168252841660208201526040810183905260808101610c346060830184610ba2565b95945050505050565b6001600160a01b0381168114610c5257600080fd5b50565b600080600060608486031215610c6a57600080fd5b8335610c7581610c3d565b95602085013595506040909401359392505050565b60008060408385031215610c9d57600080fd5b8235610ca881610c3d565b946020939093013593505050565b60008060408385031215610cc957600080fd5b8235610cd481610c3d565b91506020830135610ce481610c3d565b809150509250929050565b600060208284031215610d0157600080fd5b8135610d0c81610c3d565b9392505050565b600060208284031215610d2557600080fd5b5051919050565b600060208284031215610d3e57600080fd5b81518015158114610d0c57600080fd5b600060208284031215610d6057600080fd5b8151610d0c81610c3d56fea264697066735822122068756fa7c43c1e01805cbf48d715fcf2fbd70bdd0761b0f55e499756a81306ad64736f6c634300080d0033",
    "linkReferences": {}
  },
  "methodIdentifiers": {
    "depositNFT(address,uint256)": "9b5b9b18",
    "depositToken(address,uint256,uint256)": "99c6d2de",
    "escrowOrderById(uint256)": "64b02059",
    "getEscrowOrderById(uint256)": "1c93b397",
    "owner()": "8da5cb5b",
    "releaseOrder(uint256,bytes32)": "07dde527",
    "renounceOwnership()": "715018a6",
    "setTokenAddresses(address,address)": "a89c8c5e",
    "transferOwnership(address)": "f2fde38b"
  },
  "id": 1
}