{
  "abi": [
    {
      "inputs": [],
      "name": "mockVrf",
      "outputs": [
        {
          "internalType": "bytes32",
          "name": "",
          "type": "bytes32"
        }
      ],
      "stateMutability": "view",
      "type": "function"
    }
  ],
  "bytecode": {
    "object": "0x60ab610038600b82828239805160001a607314602b57634e487b7160e01b600052600060045260246000fd5b30600052607381538281f3fe730000000000000000000000000000000000000000301460806040526004361060335760003560e01c8063ca635fa7146038575b600080fd5b6063604080514260208201526000910160405160208183030381529060405280519060200120905090565b60405190815260200160405180910390f3fea264697066735822122001f3857c621e0913d27bfcab1ac99e70f2a79a824ab427a3bd5563837e6acf3e64736f6c634300080d0033",
    "linkReferences": {}
  },
  "methodIdentifiers": {
    "mockVrf()": "ca635fa7"
  },
  "id": 29
}