{
  "abi": [
    {
      "inputs": [
        {
          "internalType": "address",
          "name": "_logic",
          "type": "address"
        },
        {
          "internalType": "address",
          "name": "admin_",
          "type": "address"
        },
        {
          "internalType": "bytes",
          "name": "_data",
          "type": "bytes"
        }
      ],
      "stateMutability": "payable",
      "type": "constructor"
    },
    {
      "anonymous": false,
      "inputs": [
        {
          "indexed": false,
          "internalType": "address",
          "name": "previousAdmin",
          "type": "address"
        },
        {
          "indexed": false,
          "internalType": "address",
          "name": "newAdmin",
          "type": "address"
        }
      ],
      "name": "AdminChanged",
      "type": "event"
    },
    {
      "anonymous": false,
      "inputs": [
        {
          "indexed": true,
          "internalType": "address",
          "name": "beacon",
          "type": "address"
        }
      ],
      "name": "BeaconUpgraded",
      "type": "event"
    },
    {
      "anonymous": false,
      "inputs": [
        {
          "indexed": true,
          "internalType": "address",
          "name": "implementation",
          "type": "address"
        }
      ],
      "name": "Upgraded",
      "type": "event"
    },
    {
      "stateMutability": "payable",
      "type": "fallback"
    },
    {
      "inputs": [],
      "name": "admin",
      "outputs": [
        {
          "internalType": "address",
          "name": "admin_",
          "type": "address"
        }
      ],
      "stateMutability": "nonpayable",
      "type": "function"
    },
    {
      "inputs": [
        {
          "internalType": "address",
          "name": "newAdmin",
          "type": "address"
        }
      ],
      "name": "changeAdmin",
      "outputs": [],
      "stateMutability": "nonpayable",
      "type": "function"
    },
    {
      "inputs": [],
      "name": "implementation",
      "outputs": [
        {
          "internalType": "address",
          "name": "implementation_",
          "type": "address"
        }
      ],
      "stateMutability": "nonpayable",
      "type": "function"
    },
    {
      "inputs": [
        {
          "internalType": "address",
          "name": "newImplementation",
          "type": "address"
        }
      ],
      "name": "upgradeTo",
      "outputs": [],
      "stateMutability": "nonpayable",
      "type": "function"
    },
    {
      "inputs": [
        {
          "internalType": "address",
          "name": "newImplementation",
          "type": "address"
        },
        {
          "internalType": "bytes",
          "name": "data",
          "type": "bytes"
        }
      ],
      "name": "upgradeToAndCall",
      "outputs": [],
      "stateMutability": "payable",
      "type": "function"
    },
    {
      "stateMutability": "payable",
      "type": "receive"
    }
  ],
  "bytecode": {
    "object": "0x608060405260405162000e4538038062000e45833981016040819052620000269162000490565b828162000036828260006200004d565b50620000449050826200008a565b505050620005c3565b6200005883620000e5565b600082511180620000665750805b1562000085576200008383836200012760201b6200022e1760201c565b505b505050565b7f7e644d79422f17c01e4894b5f4f588d331ebfa28653d42ae832dc59e38c9798f620000b562000156565b604080516001600160a01b03928316815291841660208301520160405180910390a1620000e2816200018f565b50565b620000f08162000244565b6040516001600160a01b038216907fbc7cd75a20ee27fd9adebab32041f755214dbc6bffa90cc0225b39da2e5c2d3b90600090a250565b60606200014f838360405180606001604052806027815260200162000e1e60279139620002f8565b9392505050565b60006200018060008051602062000dfe83398151915260001b620003de60201b620001ea1760201c565b546001600160a01b0316919050565b6001600160a01b038116620001fa5760405162461bcd60e51b815260206004820152602660248201527f455243313936373a206e65772061646d696e20697320746865207a65726f206160448201526564647265737360d01b60648201526084015b60405180910390fd5b806200022360008051602062000dfe83398151915260001b620003de60201b620001ea1760201c565b80546001600160a01b0319166001600160a01b039290921691909117905550565b6200025a81620003e160201b6200025a1760201c565b620002be5760405162461bcd60e51b815260206004820152602d60248201527f455243313936373a206e657720696d706c656d656e746174696f6e206973206e60448201526c1bdd08184818dbdb9d1c9858dd609a1b6064820152608401620001f1565b80620002237f360894a13ba1a3210667c828492db98dca3e2076cc3735a920a3ca505d382bbc60001b620003de60201b620001ea1760201c565b60606001600160a01b0384163b620003625760405162461bcd60e51b815260206004820152602660248201527f416464726573733a2064656c65676174652063616c6c20746f206e6f6e2d636f6044820152651b9d1c9858dd60d21b6064820152608401620001f1565b600080856001600160a01b0316856040516200037f919062000570565b600060405180830381855af49150503d8060008114620003bc576040519150601f19603f3d011682016040523d82523d6000602084013e620003c1565b606091505b509092509050620003d4828286620003f0565b9695505050505050565b90565b6001600160a01b03163b151590565b60608315620004015750816200014f565b825115620004125782518084602001fd5b8160405162461bcd60e51b8152600401620001f191906200058e565b80516001600160a01b03811681146200044657600080fd5b919050565b634e487b7160e01b600052604160045260246000fd5b60005b838110156200047e57818101518382015260200162000464565b83811115620000835750506000910152565b600080600060608486031215620004a657600080fd5b620004b1846200042e565b9250620004c1602085016200042e565b60408501519092506001600160401b0380821115620004df57600080fd5b818601915086601f830112620004f457600080fd5b8151818111156200050957620005096200044b565b604051601f8201601f19908116603f011681019083821181831017156200053457620005346200044b565b816040528281528960208487010111156200054e57600080fd5b6200056183602083016020880162000461565b80955050505050509250925092565b600082516200058481846020870162000461565b9190910192915050565b6020815260008251806020840152620005af81604085016020870162000461565b601f01601f19169190910160400192915050565b61082b80620005d36000396000f3fe60806040526004361061004e5760003560e01c80633659cfe6146100655780634f1ef286146100855780635c60da1b146100985780638f283970146100c9578063f851a440146100e95761005d565b3661005d5761005b6100fe565b005b61005b6100fe565b34801561007157600080fd5b5061005b6100803660046106b5565b610118565b61005b6100933660046106d0565b610155565b3480156100a457600080fd5b506100ad6101bc565b6040516001600160a01b03909116815260200160405180910390f35b3480156100d557600080fd5b5061005b6100e43660046106b5565b6101ed565b3480156100f557600080fd5b506100ad61020d565b610106610269565b6101166101116102fe565b610308565b565b61012061032c565b6001600160a01b0316330361014d5761014a8160405180602001604052806000815250600061035f565b50565b61014a6100fe565b61015d61032c565b6001600160a01b031633036101b4576101af8383838080601f0160208091040260200160405190810160405280939291908181526020018383808284376000920191909152506001925061035f915050565b505050565b6101af6100fe565b60006101c661032c565b6001600160a01b031633036101e2576101dd6102fe565b905090565b6101ea6100fe565b90565b6101f561032c565b6001600160a01b0316330361014d5761014a8161038a565b600061021761032c565b6001600160a01b031633036101e2576101dd61032c565b606061025383836040518060600160405280602781526020016107cf602791396103de565b9392505050565b6001600160a01b03163b151590565b61027161032c565b6001600160a01b031633036101165760405162461bcd60e51b815260206004820152604260248201527f5472616e73706172656e745570677261646561626c6550726f78793a2061646d60448201527f696e2063616e6e6f742066616c6c6261636b20746f2070726f78792074617267606482015261195d60f21b608482015260a4015b60405180910390fd5b60006101dd6104bb565b3660008037600080366000845af43d6000803e808015610327573d6000f35b3d6000fd5b60007fb53127684a568b3173ae13b9f8a6016e243e63b6e8ee1178d6a717850b5d61035b546001600160a01b0316919050565b610368836104e3565b6000825111806103755750805b156101af57610384838361022e565b50505050565b7f7e644d79422f17c01e4894b5f4f588d331ebfa28653d42ae832dc59e38c9798f6103b361032c565b604080516001600160a01b03928316815291841660208301520160405180910390a161014a81610523565b60606001600160a01b0384163b6104465760405162461bcd60e51b815260206004820152602660248201527f416464726573733a2064656c65676174652063616c6c20746f206e6f6e2d636f6044820152651b9d1c9858dd60d21b60648201526084016102f5565b600080856001600160a01b031685604051610461919061077f565b600060405180830381855af49150503d806000811461049c576040519150601f19603f3d011682016040523d82523d6000602084013e6104a1565b606091505b50915091506104b18282866105cc565b9695505050505050565b60007f360894a13ba1a3210667c828492db98dca3e2076cc3735a920a3ca505d382bbc610350565b6104ec81610605565b6040516001600160a01b038216907fbc7cd75a20ee27fd9adebab32041f755214dbc6bffa90cc0225b39da2e5c2d3b90600090a250565b6001600160a01b0381166105885760405162461bcd60e51b815260206004820152602660248201527f455243313936373a206e65772061646d696e20697320746865207a65726f206160448201526564647265737360d01b60648201526084016102f5565b807fb53127684a568b3173ae13b9f8a6016e243e63b6e8ee1178d6a717850b5d61035b80546001600160a01b0319166001600160a01b039290921691909117905550565b606083156105db575081610253565b8251156105eb5782518084602001fd5b8160405162461bcd60e51b81526004016102f5919061079b565b6001600160a01b0381163b6106725760405162461bcd60e51b815260206004820152602d60248201527f455243313936373a206e657720696d706c656d656e746174696f6e206973206e60448201526c1bdd08184818dbdb9d1c9858dd609a1b60648201526084016102f5565b807f360894a13ba1a3210667c828492db98dca3e2076cc3735a920a3ca505d382bbc6105ab565b80356001600160a01b03811681146106b057600080fd5b919050565b6000602082840312156106c757600080fd5b61025382610699565b6000806000604084860312156106e557600080fd5b6106ee84610699565b9250602084013567ffffffffffffffff8082111561070b57600080fd5b818601915086601f83011261071f57600080fd5b81358181111561072e57600080fd5b87602082850101111561074057600080fd5b6020830194508093505050509250925092565b60005b8381101561076e578181015183820152602001610756565b838111156103845750506000910152565b60008251610791818460208701610753565b9190910192915050565b60208152600082518060208401526107ba816040850160208701610753565b601f01601f1916919091016040019291505056fe416464726573733a206c6f772d6c6576656c2064656c65676174652063616c6c206661696c6564a2646970667358221220a6fbb80150f607ee3e25aab528226e0c46f23285b103f1077d92ff6c19bb46d864736f6c634300080f0033b53127684a568b3173ae13b9f8a6016e243e63b6e8ee1178d6a717850b5d6103416464726573733a206c6f772d6c6576656c2064656c65676174652063616c6c206661696c6564",
    "linkReferences": {}
  },
  "methodIdentifiers": {
    "admin()": "f851a440",
    "changeAdmin(address)": "8f283970",
    "implementation()": "5c60da1b",
    "upgradeTo(address)": "3659cfe6",
    "upgradeToAndCall(address,bytes)": "4f1ef286"
  },
  "id": 27
}