{
  "abi": [
    {
      "inputs": [],
      "name": "getBaseURICount",
      "outputs": [
        {
          "internalType": "uint256",
          "name": "",
          "type": "uint256"
        }
      ],
      "stateMutability": "view",
      "type": "function"
    },
    {
      "inputs": [
        {
          "internalType": "uint256",
          "name": "_index",
          "type": "uint256"
        }
      ],
      "name": "getBatchIdAtIndex",
      "outputs": [
        {
          "internalType": "uint256",
          "name": "",
          "type": "uint256"
        }
      ],
      "stateMutability": "view",
      "type": "function"
    }
  ],
  "bytecode": {
    "object": "0x608060405234801561001057600080fd5b5061012a806100206000396000f3fe6080604052348015600f57600080fd5b506004361060325760003560e01c80632419f51b14603757806363b45e2d146058575b600080fd5b6046604236600460c6565b605f565b60405190815260200160405180910390f35b6000546046565b60008054821060a45760405162461bcd60e51b815260206004820152600d60248201526c092dcecc2d8d2c840d2dcc8caf609b1b604482015260640160405180910390fd5b6000828154811060b45760b460de565b90600052602060002001549050919050565b60006020828403121560d757600080fd5b5035919050565b634e487b7160e01b600052603260045260246000fdfea264697066735822122057096def99c3756f45655a02c6ef84b2b2e02c0ff17861f7df7671e413ff93d564736f6c634300080f0033",
    "linkReferences": {}
  },
  "methodIdentifiers": {
    "getBaseURICount()": "63b45e2d",
    "getBatchIdAtIndex(uint256)": "2419f51b"
  },
  "id": 22
}