{
  "abi": [
    {
      "inputs": [
        {
          "internalType": "address",
          "name": "beacon",
          "type": "address"
        },
        {
          "internalType": "bytes",
          "name": "data",
          "type": "bytes"
        }
      ],
      "stateMutability": "nonpayable",
      "type": "constructor"
    },
    {
      "anonymous": false,
      "inputs": [
        {
          "indexed": false,
          "internalType": "address",
          "name": "previousAdmin",
          "type": "address"
        },
        {
          "indexed": false,
          "internalType": "address",
          "name": "newAdmin",
          "type": "address"
        }
      ],
      "name": "AdminChanged",
      "type": "event"
    },
    {
      "anonymous": false,
      "inputs": [
        {
          "indexed": true,
          "internalType": "address",
          "name": "beacon",
          "type": "address"
        }
      ],
      "name": "BeaconUpgraded",
      "type": "event"
    },
    {
      "anonymous": false,
      "inputs": [
        {
          "indexed": true,
          "internalType": "address",
          "name": "implementation",
          "type": "address"
        }
      ],
      "name": "Upgraded",
      "type": "event"
    },
    {
      "stateMutability": "payable",
      "type": "fallback"
    },
    {
      "inputs": [
        {
          "internalType": "address",
          "name": "newBeacon",
          "type": "address"
        },
        {
          "internalType": "bytes",
          "name": "data",
          "type": "bytes"
        },
        {
          "internalType": "bool",
          "name": "forceCall",
          "type": "bool"
        }
      ],
      "name": "upgradeBeaconToAndCall",
      "outputs": [],
      "stateMutability": "nonpayable",
      "type": "function"
    },
    {
      "stateMutability": "payable",
      "type": "receive"
    }
  ],
  "bytecode": {
    "object": "0x60806040523480156200001157600080fd5b5060405162000cdf38038062000cdf83398101604081905262000034916200049c565b818162000044828260006200004e565b50505050620005db565b620000598362000123565b6040516001600160a01b038416907f1cf3b03a6cf19fa2baba4df148e9dcabedea7f8a5c07840e207e5c089be95d3e90600090a26000825111806200009b5750805b156200011e576200011c836001600160a01b0316635c60da1b6040518163ffffffff1660e01b8152600401602060405180830381865afa158015620000e4573d6000803e3d6000fd5b505050506040513d601f19601f820116820180604052508101906200010a91906200056a565b83620002d560201b6200007b1760201c565b505b505050565b62000139816200030460201b620000a71760201c565b620001995760405162461bcd60e51b815260206004820152602560248201527f455243313936373a206e657720626561636f6e206973206e6f74206120636f6e6044820152641d1c9858dd60da1b60648201526084015b60405180910390fd5b62000213816001600160a01b0316635c60da1b6040518163ffffffff1660e01b8152600401602060405180830381865afa158015620001dc573d6000803e3d6000fd5b505050506040513d601f19601f820116820180604052508101906200020291906200056a565b6200030460201b620000a71760201c565b6200027a5760405162461bcd60e51b815260206004820152603060248201527f455243313936373a20626561636f6e20696d706c656d656e746174696f6e206960448201526f1cc81b9bdd08184818dbdb9d1c9858dd60821b606482015260840162000190565b80620002b47fa3f0ad74e5423aebfd80d3ef4346578335a9a72aeaee59ff6cb3582b35133d5060001b6200031360201b620000b61760201c565b80546001600160a01b0319166001600160a01b039290921691909117905550565b6060620002fd838360405180606001604052806027815260200162000cb86027913962000316565b9392505050565b6001600160a01b03163b151590565b90565b60606001600160a01b0384163b620003805760405162461bcd60e51b815260206004820152602660248201527f416464726573733a2064656c65676174652063616c6c20746f206e6f6e2d636f6044820152651b9d1c9858dd60d21b606482015260840162000190565b600080856001600160a01b0316856040516200039d919062000588565b600060405180830381855af49150503d8060008114620003da576040519150601f19603f3d011682016040523d82523d6000602084013e620003df565b606091505b509092509050620003f2828286620003fc565b9695505050505050565b606083156200040d575081620002fd565b8251156200041e5782518084602001fd5b8160405162461bcd60e51b8152600401620001909190620005a6565b80516001600160a01b03811681146200045257600080fd5b919050565b634e487b7160e01b600052604160045260246000fd5b60005b838110156200048a57818101518382015260200162000470565b838111156200011c5750506000910152565b60008060408385031215620004b057600080fd5b620004bb836200043a565b60208401519092506001600160401b0380821115620004d957600080fd5b818501915085601f830112620004ee57600080fd5b81518181111562000503576200050362000457565b604051601f8201601f19908116603f011681019083821181831017156200052e576200052e62000457565b816040528281528860208487010111156200054857600080fd5b6200055b8360208301602088016200046d565b80955050505050509250929050565b6000602082840312156200057d57600080fd5b620002fd826200043a565b600082516200059c8184602087016200046d565b9190910192915050565b6020815260008251806020840152620005c78160408501602087016200046d565b601f01601f19169190910160400192915050565b6106cd80620005eb6000396000f3fe6080604052600436106100225760003560e01c80635aabcad51461003957610031565b366100315761002f610059565b005b61002f610059565b34801561004557600080fd5b5061002f610054366004610504565b61006b565b6100696100646100b9565b610152565b565b610076838383610176565b505050565b60606100a0838360405180606001604052806027815260200161067160279139610236565b9392505050565b6001600160a01b03163b151590565b90565b60006100ec7fa3f0ad74e5423aebfd80d3ef4346578335a9a72aeaee59ff6cb3582b35133d50546001600160a01b031690565b6001600160a01b0316635c60da1b6040518163ffffffff1660e01b8152600401602060405180830381865afa158015610129573d6000803e3d6000fd5b505050506040513d601f19601f8201168201806040525081019061014d91906105d8565b905090565b3660008037600080366000845af43d6000803e808015610171573d6000f35b3d6000fd5b61017f83610318565b6040516001600160a01b038416907f1cf3b03a6cf19fa2baba4df148e9dcabedea7f8a5c07840e207e5c089be95d3e90600090a26000825111806101c05750805b1561007657610230836001600160a01b0316635c60da1b6040518163ffffffff1660e01b8152600401602060405180830381865afa158015610206573d6000803e3d6000fd5b505050506040513d601f19601f8201168201806040525081019061022a91906105d8565b8361007b565b50505050565b60606001600160a01b0384163b6102a35760405162461bcd60e51b815260206004820152602660248201527f416464726573733a2064656c65676174652063616c6c20746f206e6f6e2d636f6044820152651b9d1c9858dd60d21b60648201526084015b60405180910390fd5b600080856001600160a01b0316856040516102be9190610621565b600060405180830381855af49150503d80600081146102f9576040519150601f19603f3d011682016040523d82523d6000602084013e6102fe565b606091505b509150915061030e828286610488565b9695505050505050565b6001600160a01b0381163b61037d5760405162461bcd60e51b815260206004820152602560248201527f455243313936373a206e657720626561636f6e206973206e6f74206120636f6e6044820152641d1c9858dd60da1b606482015260840161029a565b6103e2816001600160a01b0316635c60da1b6040518163ffffffff1660e01b8152600401602060405180830381865afa1580156103be573d6000803e3d6000fd5b505050506040513d601f19601f820116820180604052508101906100a791906105d8565b6104475760405162461bcd60e51b815260206004820152603060248201527f455243313936373a20626561636f6e20696d706c656d656e746174696f6e206960448201526f1cc81b9bdd08184818dbdb9d1c9858dd60821b606482015260840161029a565b7fa3f0ad74e5423aebfd80d3ef4346578335a9a72aeaee59ff6cb3582b35133d5080546001600160a01b0319166001600160a01b0392909216919091179055565b606083156104975750816100a0565b8251156104a75782518084602001fd5b8160405162461bcd60e51b815260040161029a919061063d565b6001600160a01b03811681146104d657600080fd5b50565b634e487b7160e01b600052604160045260246000fd5b803580151581146104ff57600080fd5b919050565b60008060006060848603121561051957600080fd5b8335610524816104c1565b9250602084013567ffffffffffffffff8082111561054157600080fd5b818601915086601f83011261055557600080fd5b813581811115610567576105676104d9565b604051601f8201601f19908116603f0116810190838211818310171561058f5761058f6104d9565b816040528281528960208487010111156105a857600080fd5b8260208601602083013760006020848301015280965050505050506105cf604085016104ef565b90509250925092565b6000602082840312156105ea57600080fd5b81516100a0816104c1565b60005b838110156106105781810151838201526020016105f8565b838111156102305750506000910152565b600082516106338184602087016105f5565b9190910192915050565b602081526000825180602084015261065c8160408501602087016105f5565b601f01601f1916919091016040019291505056fe416464726573733a206c6f772d6c6576656c2064656c65676174652063616c6c206661696c6564a264697066735822122089c344e7716510cbfba550f82c600052176897a84c042df540467c81a58a6a9c64736f6c634300080f0033416464726573733a206c6f772d6c6576656c2064656c65676174652063616c6c206661696c6564",
    "linkReferences": {}
  },
  "methodIdentifiers": {
    "upgradeBeaconToAndCall(address,bytes,bool)": "5aabcad5"
  },
  "id": 8
}