{
  "abi": [
    {
      "anonymous": false,
      "inputs": [
        {
          "indexed": true,
          "internalType": "address",
          "name": "buyer",
          "type": "address"
        },
        {
          "indexed": true,
          "internalType": "uint256",
          "name": "tokenId",
          "type": "uint256"
        }
      ],
      "name": "OrderCancelled",
      "type": "event"
    },
    {
      "anonymous": false,
      "inputs": [
        {
          "indexed": true,
          "internalType": "address",
          "name": "buyer",
          "type": "address"
        },
        {
          "indexed": true,
          "internalType": "address",
          "name": "seller",
          "type": "address"
        },
        {
          "indexed": true,
          "internalType": "uint256",
          "name": "tokenId",
          "type": "uint256"
        },
        {
          "indexed": false,
          "internalType": "string",
          "name": "reason",
          "type": "string"
        }
      ],
      "name": "OrderDispute",
      "type": "event"
    },
    {
      "anonymous": false,
      "inputs": [
        {
          "indexed": true,
          "internalType": "address",
          "name": "buyer",
          "type": "address"
        },
        {
          "indexed": true,
          "internalType": "uint256",
          "name": "tokenId",
          "type": "uint256"
        }
      ],
      "name": "OrderInitiated",
      "type": "event"
    },
    {
      "anonymous": false,
      "inputs": [
        {
          "indexed": true,
          "internalType": "uint256",
          "name": "tokenId",
          "type": "uint256"
        },
        {
          "indexed": false,
          "internalType": "string",
          "name": "reason",
          "type": "string"
        }
      ],
      "name": "OrderOverride",
      "type": "event"
    },
    {
      "inputs": [
        {
          "internalType": "address",
          "name": "disputer",
          "type": "address"
        },
        {
          "internalType": "uint256",
          "name": "tokenId",
          "type": "uint256"
        },
        {
          "internalType": "uint256",
          "name": "orderNonce",
          "type": "uint256"
        }
      ],
      "name": "disputeOrderById",
      "outputs": [],
      "stateMutability": "nonpayable",
      "type": "function"
    },
    {
      "inputs": [
        {
          "internalType": "address",
          "name": "buyer",
          "type": "address"
        },
        {
          "internalType": "address",
          "name": "seller",
          "type": "address"
        },
        {
          "internalType": "uint256",
          "name": "tokenId",
          "type": "uint256"
        },
        {
          "internalType": "uint256",
          "name": "orderNonce",
          "type": "uint256"
        }
      ],
      "name": "getOrderById",
      "outputs": [],
      "stateMutability": "nonpayable",
      "type": "function"
    },
    {
      "inputs": [
        {
          "internalType": "bytes32",
          "name": "orderHash",
          "type": "bytes32"
        }
      ],
      "name": "getOrderStatus",
      "outputs": [],
      "stateMutability": "nonpayable",
      "type": "function"
    },
    {
      "inputs": [
        {
          "internalType": "bytes32",
          "name": "orderHash",
          "type": "bytes32"
        },
        {
          "internalType": "string",
          "name": "reason",
          "type": "string"
        }
      ],
      "name": "overrideOrderDispute",
      "outputs": [],
      "stateMutability": "nonpayable",
      "type": "function"
    }
  ],
  "bytecode": {
    "object": "0x608060405234801561001057600080fd5b50610493806100206000396000f3fe608060405234801561001057600080fd5b506004361061004c5760003560e01c806346423aa71461005157806364b4a40d146100665780638657a00114610079578063acc0bce11461008c575b600080fd5b61006461005f3660046102d4565b61009f565b005b6100646100743660046102ec565b610104565b6100646100873660046102a2565b61016c565b61006461009a366004610261565b6101d7565b6000546040516346423aa760e01b81526001600160a01b03909116906346423aa7906100cf9084906004016103e3565b600060405180830381600087803b1580156100e957600080fd5b505af11580156100fd573d6000803e3d6000fd5b5050505050565b6000546040516364b4a40d60e01b81526001600160a01b03909116906364b4a40d9061013690859085906004016103ec565b600060405180830381600087803b15801561015057600080fd5b505af1158015610164573d6000803e3d6000fd5b505050505050565b600054604051638657a00160e01b81526001600160a01b0390911690638657a001906101a0908690869086906004016103c2565b600060405180830381600087803b1580156101ba57600080fd5b505af11580156101ce573d6000803e3d6000fd5b50505050505050565b60005460405163acc0bce160e01b81526001600160a01b039091169063acc0bce19061020d908790879087908790600401610399565b600060405180830381600087803b15801561022757600080fd5b505af115801561023b573d6000803e3d6000fd5b5050505050505050565b80356001600160a01b038116811461025c57600080fd5b919050565b60008060008060808587031215610276578384fd5b61027f85610245565b935061028d60208601610245565b93969395505050506040820135916060013590565b6000806000606084860312156102b6578283fd5b6102bf84610245565b95602085013595506040909401359392505050565b6000602082840312156102e5578081fd5b5035919050565b600080604083850312156102fe578182fd5b8235915060208084013567ffffffffffffffff8082111561031d578384fd5b818601915086601f830112610330578384fd5b81358181111561034257610342610447565b604051601f8201601f191681018501838111828210171561036557610365610447565b604052818152838201850189101561037b578586fd5b81858501868301378585838301015280955050505050509250929050565b6001600160a01b0394851681529290931660208301526040820152606081019190915260800190565b6001600160a01b039390931683526020830191909152604082015260600190565b90815260200190565b600083825260206040818401528351806040850152825b8181101561041f57858101830151858201606001528201610403565b818111156104305783606083870101525b50601f01601f191692909201606001949350505050565b634e487b7160e01b600052604160045260246000fdfea26469706673582212207ba12387b7acec88585738a9dbd96bab35a5a212fb04b21cf73b41a45de0b0fc64736f6c63430008000033",
    "linkReferences": {}
  },
  "methodIdentifiers": {
    "disputeOrderById(address,uint256,uint256)": "8657a001",
    "getOrderById(address,address,uint256,uint256)": "acc0bce1",
    "getOrderStatus(bytes32)": "46423aa7",
    "overrideOrderDispute(bytes32,string)": "64b4a40d"
  },
  "id": 0
}