{
  "abi": [
    {
      "inputs": [],
      "stateMutability": "nonpayable",
      "type": "constructor"
    },
    {
      "inputs": [],
      "name": "getRandomNumber",
      "outputs": [
        {
          "internalType": "bytes32",
          "name": "requestId",
          "type": "bytes32"
        }
      ],
      "stateMutability": "nonpayable",
      "type": "function"
    },
    {
      "inputs": [],
      "name": "getRandomResult",
      "outputs": [
        {
          "internalType": "uint256",
          "name": "",
          "type": "uint256"
        }
      ],
      "stateMutability": "view",
      "type": "function"
    },
    {
      "inputs": [],
      "name": "randomResult",
      "outputs": [
        {
          "internalType": "uint256",
          "name": "",
          "type": "uint256"
        }
      ],
      "stateMutability": "view",
      "type": "function"
    },
    {
      "inputs": [
        {
          "internalType": "bytes32",
          "name": "requestId",
          "type": "bytes32"
        },
        {
          "internalType": "uint256",
          "name": "randomness",
          "type": "uint256"
        }
      ],
      "name": "rawFulfillRandomness",
      "outputs": [],
      "stateMutability": "nonpayable",
      "type": "function"
    }
  ],
  "bytecode": {
    "object": "0x60c060405234801561001057600080fd5b50738c7382f9d8f56b33781fe506e897a4f1e2d1725560a05273326c977e6efc84e512bb9c30f76e30c160ed06fb6080527f6e75b569a01ef56d18cab6a8e71e6600d6ce853834d4a5748b720d06f878b3a4600155655af3107a400060025560805160a0516104be6100a160003960008181609c015261024b015260008181610138015261021c01526104be6000f3fe608060405234801561001057600080fd5b506004361061004c5760003560e01c806342619f66146100515780637390c7861461006c57806394985ddd14610074578063dbdff2c114610089575b600080fd5b61005a60035481565b60405190815260200160405180910390f35b60035461005a565b610087610082366004610392565b610091565b005b61005a610114565b336001600160a01b037f0000000000000000000000000000000000000000000000000000000000000000161461010e5760405162461bcd60e51b815260206004820152601f60248201527f4f6e6c7920565246436f6f7264696e61746f722063616e2066756c66696c6c0060448201526064015b60405180910390fd5b60035550565b6002546040516370a0823160e01b8152306004820152600091906001600160a01b037f000000000000000000000000000000000000000000000000000000000000000016906370a0823190602401602060405180830381865afa15801561017f573d6000803e3d6000fd5b505050506040513d601f19601f820116820180604052508101906101a391906103b4565b10156102055760405162461bcd60e51b815260206004820152602b60248201527f4e6f7420656e6f756768204c494e4b202d2066696c6c20636f6e74726163742060448201526a1dda5d1a0819985d58d95d60aa1b6064820152608401610105565b610213600154600254610218565b905090565b60007f00000000000000000000000000000000000000000000000000000000000000006001600160a01b0316634000aea07f000000000000000000000000000000000000000000000000000000000000000084866000604051602001610288929190918252602082015260400190565b6040516020818303038152906040526040518463ffffffff1660e01b81526004016102b5939291906103cd565b6020604051808303816000875af11580156102d4573d6000803e3d6000fd5b505050506040513d601f19601f820116820180604052508101906102f89190610439565b5060008381526020818152604080832054815180840188905280830185905230606082015260808082018390528351808303909101815260a090910190925281519183019190912086845292909152610352906001610462565b6000858152602081815260409182902092909255805180830187905280820184905281518082038301815260609091019091528051910120949350505050565b600080604083850312156103a557600080fd5b50508035926020909101359150565b6000602082840312156103c657600080fd5b5051919050565b60018060a01b038416815260006020848184015260606040840152835180606085015260005b8181101561040f578581018301518582016080015282016103f3565b81811115610421576000608083870101525b50601f01601f19169290920160800195945050505050565b60006020828403121561044b57600080fd5b8151801515811461045b57600080fd5b9392505050565b6000821982111561048357634e487b7160e01b600052601160045260246000fd5b50019056fea2646970667358221220ebd800819446bf106c90c472150510a201a9c5eea710c2784039d2db8ab6a67864736f6c634300080f0033",
    "linkReferences": {}
  },
  "methodIdentifiers": {
    "getRandomNumber()": "dbdff2c1",
    "getRandomResult()": "7390c786",
    "randomResult()": "42619f66",
    "rawFulfillRandomness(bytes32,uint256)": "94985ddd"
  },
  "id": 3
}