{
  "abi": [
    {
      "inputs": [
        {
          "internalType": "bytes[]",
          "name": "data",
          "type": "bytes[]"
        }
      ],
      "name": "multicall",
      "outputs": [
        {
          "internalType": "bytes[]",
          "name": "results",
          "type": "bytes[]"
        }
      ],
      "stateMutability": "nonpayable",
      "type": "function"
    }
  ],
  "bytecode": {
    "object": "0x608060405234801561001057600080fd5b506104f5806100206000396000f3fe608060405234801561001057600080fd5b506004361061002b5760003560e01c8063ac9650d814610030575b600080fd5b61004361003e366004610295565b610059565b6040516100509190610366565b60405180910390f35b60608167ffffffffffffffff811115610074576100746103c8565b6040519080825280602002602001820160405280156100a757816020015b60608152602001906001900390816100925790505b50905060005b8281101561014757610117308585848181106100cb576100cb6103de565b90506020028101906100dd91906103f4565b8080601f01602080910402602001604051908101604052809392919081815260200183838082843760009201919091525061014e92505050565b828281518110610129576101296103de565b6020026020010181905250808061013f90610442565b9150506100ad565b5092915050565b606061017383836040518060600160405280602781526020016104996027913961017a565b9392505050565b60606001600160a01b0384163b6101e75760405162461bcd60e51b815260206004820152602660248201527f416464726573733a2064656c65676174652063616c6c20746f206e6f6e2d636f6044820152651b9d1c9858dd60d21b60648201526084015b60405180910390fd5b600080856001600160a01b0316856040516102029190610469565b600060405180830381855af49150503d806000811461023d576040519150601f19603f3d011682016040523d82523d6000602084013e610242565b606091505b509150915061025282828661025c565b9695505050505050565b6060831561026b575081610173565b82511561027b5782518084602001fd5b8160405162461bcd60e51b81526004016101de9190610485565b600080602083850312156102a857600080fd5b823567ffffffffffffffff808211156102c057600080fd5b818501915085601f8301126102d457600080fd5b8135818111156102e357600080fd5b8660208260051b85010111156102f857600080fd5b60209290920196919550909350505050565b60005b8381101561032557818101518382015260200161030d565b83811115610334576000848401525b50505050565b6000815180845261035281602086016020860161030a565b601f01601f19169290920160200192915050565b6000602080830181845280855180835260408601915060408160051b870101925083870160005b828110156103bb57603f198886030184526103a985835161033a565b9450928501929085019060010161038d565b5092979650505050505050565b634e487b7160e01b600052604160045260246000fd5b634e487b7160e01b600052603260045260246000fd5b6000808335601e1984360301811261040b57600080fd5b83018035915067ffffffffffffffff82111561042657600080fd5b60200191503681900382131561043b57600080fd5b9250929050565b60006001820161046257634e487b7160e01b600052601160045260246000fd5b5060010190565b6000825161047b81846020870161030a565b9190910192915050565b602081526000610173602083018461033a56fe416464726573733a206c6f772d6c6576656c2064656c65676174652063616c6c206661696c6564a26469706673582212200bf9de856623826f37018017c7209260a1fe3b15567b1965b83dcb936a80544e64736f6c634300080f0033",
    "linkReferences": {}
  },
  "methodIdentifiers": {
    "multicall(bytes[])": "ac9650d8"
  },
  "id": 28
}