{
  "abi": [
    {
      "inputs": [
        {
          "internalType": "address payable",
          "name": "_escrowContractAddress",
          "type": "address"
        }
      ],
      "stateMutability": "nonpayable",
      "type": "constructor"
    },
    {
      "anonymous": false,
      "inputs": [
        {
          "indexed": true,
          "internalType": "address",
          "name": "owner",
          "type": "address"
        },
        {
          "indexed": true,
          "internalType": "address",
          "name": "approved",
          "type": "address"
        },
        {
          "indexed": true,
          "internalType": "uint256",
          "name": "tokenId",
          "type": "uint256"
        }
      ],
      "name": "Approval",
      "type": "event"
    },
    {
      "anonymous": false,
      "inputs": [
        {
          "indexed": true,
          "internalType": "address",
          "name": "owner",
          "type": "address"
        },
        {
          "indexed": true,
          "internalType": "address",
          "name": "operator",
          "type": "address"
        },
        {
          "indexed": false,
          "internalType": "bool",
          "name": "approved",
          "type": "bool"
        }
      ],
      "name": "ApprovalForAll",
      "type": "event"
    },
    {
      "anonymous": false,
      "inputs": [
        {
          "indexed": true,
          "internalType": "address",
          "name": "from",
          "type": "address"
        },
        {
          "indexed": true,
          "internalType": "address",
          "name": "to",
          "type": "address"
        },
        {
          "indexed": true,
          "internalType": "uint256",
          "name": "tokenId",
          "type": "uint256"
        }
      ],
      "name": "Transfer",
      "type": "event"
    },
    {
      "inputs": [
        {
          "internalType": "address",
          "name": "to",
          "type": "address"
        },
        {
          "internalType": "uint256",
          "name": "tokenId",
          "type": "uint256"
        }
      ],
      "name": "approve",
      "outputs": [],
      "stateMutability": "nonpayable",
      "type": "function"
    },
    {
      "inputs": [
        {
          "internalType": "address",
          "name": "owner",
          "type": "address"
        }
      ],
      "name": "balanceOf",
      "outputs": [
        {
          "internalType": "uint256",
          "name": "",
          "type": "uint256"
        }
      ],
      "stateMutability": "view",
      "type": "function"
    },
    {
      "inputs": [],
      "name": "baseURI",
      "outputs": [
        {
          "internalType": "string",
          "name": "",
          "type": "string"
        }
      ],
      "stateMutability": "view",
      "type": "function"
    },
    {
      "inputs": [
        {
          "internalType": "uint256",
          "name": "_tokenId",
          "type": "uint256"
        },
        {
          "internalType": "bytes32",
          "name": "_secret",
          "type": "bytes32"
        }
      ],
      "name": "depositNftToEscrow",
      "outputs": [],
      "stateMutability": "nonpayable",
      "type": "function"
    },
    {
      "inputs": [
        {
          "internalType": "uint256",
          "name": "_tokenId",
          "type": "uint256"
        },
        {
          "internalType": "uint256",
          "name": "_amount",
          "type": "uint256"
        }
      ],
      "name": "depositTokenToEscrow",
      "outputs": [],
      "stateMutability": "nonpayable",
      "type": "function"
    },
    {
      "inputs": [],
      "name": "fetchOnSale",
      "outputs": [
        {
          "components": [
            {
              "internalType": "enum Amho.ItemState",
              "name": "itemState",
              "type": "uint8"
            },
            {
              "internalType": "uint256",
              "name": "tokenId",
              "type": "uint256"
            },
            {
              "internalType": "uint256",
              "name": "price",
              "type": "uint256"
            },
            {
              "internalType": "address",
              "name": "currentOwner",
              "type": "address"
            },
            {
              "internalType": "address",
              "name": "nextOwner",
              "type": "address"
            },
            {
              "internalType": "bytes32",
              "name": "secret",
              "type": "bytes32"
            }
          ],
          "internalType": "struct Amho.NFTState[]",
          "name": "",
          "type": "tuple[]"
        }
      ],
      "stateMutability": "view",
      "type": "function"
    },
    {
      "inputs": [],
      "name": "fetchOwned",
      "outputs": [
        {
          "components": [
            {
              "internalType": "enum Amho.ItemState",
              "name": "itemState",
              "type": "uint8"
            },
            {
              "internalType": "uint256",
              "name": "tokenId",
              "type": "uint256"
            },
            {
              "internalType": "uint256",
              "name": "price",
              "type": "uint256"
            },
            {
              "internalType": "address",
              "name": "currentOwner",
              "type": "address"
            },
            {
              "internalType": "address",
              "name": "nextOwner",
              "type": "address"
            },
            {
              "internalType": "bytes32",
              "name": "secret",
              "type": "bytes32"
            }
          ],
          "internalType": "struct Amho.NFTState[]",
          "name": "",
          "type": "tuple[]"
        }
      ],
      "stateMutability": "view",
      "type": "function"
    },
    {
      "inputs": [],
      "name": "fetchPendingInitOrders",
      "outputs": [
        {
          "components": [
            {
              "internalType": "enum Amho.ItemState",
              "name": "itemState",
              "type": "uint8"
            },
            {
              "internalType": "uint256",
              "name": "tokenId",
              "type": "uint256"
            },
            {
              "internalType": "uint256",
              "name": "price",
              "type": "uint256"
            },
            {
              "internalType": "address",
              "name": "currentOwner",
              "type": "address"
            },
            {
              "internalType": "address",
              "name": "nextOwner",
              "type": "address"
            },
            {
              "internalType": "bytes32",
              "name": "secret",
              "type": "bytes32"
            }
          ],
          "internalType": "struct Amho.NFTState[]",
          "name": "",
          "type": "tuple[]"
        }
      ],
      "stateMutability": "view",
      "type": "function"
    },
    {
      "inputs": [],
      "name": "fetchPendingTether",
      "outputs": [
        {
          "components": [
            {
              "internalType": "enum Amho.ItemState",
              "name": "itemState",
              "type": "uint8"
            },
            {
              "internalType": "uint256",
              "name": "tokenId",
              "type": "uint256"
            },
            {
              "internalType": "uint256",
              "name": "price",
              "type": "uint256"
            },
            {
              "internalType": "address",
              "name": "currentOwner",
              "type": "address"
            },
            {
              "internalType": "address",
              "name": "nextOwner",
              "type": "address"
            },
            {
              "internalType": "bytes32",
              "name": "secret",
              "type": "bytes32"
            }
          ],
          "internalType": "struct Amho.NFTState[]",
          "name": "",
          "type": "tuple[]"
        }
      ],
      "stateMutability": "view",
      "type": "function"
    },
    {
      "inputs": [],
      "name": "gasOpOracleCheckUntethered",
      "outputs": [],
      "stateMutability": "nonpayable",
      "type": "function"
    },
    {
      "inputs": [
        {
          "internalType": "uint256",
          "name": "tokenId",
          "type": "uint256"
        }
      ],
      "name": "getApproved",
      "outputs": [
        {
          "internalType": "address",
          "name": "",
          "type": "address"
        }
      ],
      "stateMutability": "view",
      "type": "function"
    },
    {
      "inputs": [
        {
          "internalType": "uint256",
          "name": "_tokenId",
          "type": "uint256"
        }
      ],
      "name": "getCurrentOwner",
      "outputs": [
        {
          "internalType": "address",
          "name": "",
          "type": "address"
        }
      ],
      "stateMutability": "view",
      "type": "function"
    },
    {
      "inputs": [],
      "name": "getCurrentTokenId",
      "outputs": [
        {
          "internalType": "uint256",
          "name": "",
          "type": "uint256"
        }
      ],
      "stateMutability": "view",
      "type": "function"
    },
    {
      "inputs": [
        {
          "internalType": "uint256",
          "name": "_tokenId",
          "type": "uint256"
        }
      ],
      "name": "getNFTState",
      "outputs": [
        {
          "components": [
            {
              "internalType": "enum Amho.ItemState",
              "name": "itemState",
              "type": "uint8"
            },
            {
              "internalType": "uint256",
              "name": "tokenId",
              "type": "uint256"
            },
            {
              "internalType": "uint256",
              "name": "price",
              "type": "uint256"
            },
            {
              "internalType": "address",
              "name": "currentOwner",
              "type": "address"
            },
            {
              "internalType": "address",
              "name": "nextOwner",
              "type": "address"
            },
            {
              "internalType": "bytes32",
              "name": "secret",
              "type": "bytes32"
            }
          ],
          "internalType": "struct Amho.NFTState",
          "name": "",
          "type": "tuple"
        }
      ],
      "stateMutability": "view",
      "type": "function"
    },
    {
      "inputs": [
        {
          "internalType": "uint256",
          "name": "_tokenId",
          "type": "uint256"
        }
      ],
      "name": "getNextOwner",
      "outputs": [
        {
          "internalType": "address",
          "name": "",
          "type": "address"
        }
      ],
      "stateMutability": "view",
      "type": "function"
    },
    {
      "inputs": [
        {
          "internalType": "uint256",
          "name": "_tokenId",
          "type": "uint256"
        }
      ],
      "name": "getPrice",
      "outputs": [
        {
          "internalType": "uint256",
          "name": "",
          "type": "uint256"
        }
      ],
      "stateMutability": "view",
      "type": "function"
    },
    {
      "inputs": [
        {
          "internalType": "uint256",
          "name": "_tokenId",
          "type": "uint256"
        }
      ],
      "name": "getSecret",
      "outputs": [
        {
          "internalType": "bytes32",
          "name": "",
          "type": "bytes32"
        }
      ],
      "stateMutability": "view",
      "type": "function"
    },
    {
      "inputs": [
        {
          "internalType": "address",
          "name": "owner",
          "type": "address"
        },
        {
          "internalType": "address",
          "name": "operator",
          "type": "address"
        }
      ],
      "name": "isApprovedForAll",
      "outputs": [
        {
          "internalType": "bool",
          "name": "",
          "type": "bool"
        }
      ],
      "stateMutability": "view",
      "type": "function"
    },
    {
      "inputs": [
        {
          "internalType": "bytes32",
          "name": "secret",
          "type": "bytes32"
        },
        {
          "internalType": "string",
          "name": "tokenURI",
          "type": "string"
        },
        {
          "internalType": "uint256",
          "name": "_price",
          "type": "uint256"
        }
      ],
      "name": "mintToken",
      "outputs": [
        {
          "internalType": "uint256",
          "name": "",
          "type": "uint256"
        }
      ],
      "stateMutability": "payable",
      "type": "function"
    },
    {
      "inputs": [],
      "name": "name",
      "outputs": [
        {
          "internalType": "string",
          "name": "",
          "type": "string"
        }
      ],
      "stateMutability": "view",
      "type": "function"
    },
    {
      "inputs": [
        {
          "internalType": "uint256",
          "name": "tokenId",
          "type": "uint256"
        }
      ],
      "name": "ownerOf",
      "outputs": [
        {
          "internalType": "address",
          "name": "",
          "type": "address"
        }
      ],
      "stateMutability": "view",
      "type": "function"
    },
    {
      "inputs": [
        {
          "internalType": "uint256",
          "name": "_tokenId",
          "type": "uint256"
        },
        {
          "internalType": "bytes32",
          "name": "_secret",
          "type": "bytes32"
        }
      ],
      "name": "releaseOrderToEscrow",
      "outputs": [
        {
          "internalType": "uint256",
          "name": "",
          "type": "uint256"
        }
      ],
      "stateMutability": "nonpayable",
      "type": "function"
    },
    {
      "inputs": [
        {
          "internalType": "address",
          "name": "from",
          "type": "address"
        },
        {
          "internalType": "address",
          "name": "to",
          "type": "address"
        },
        {
          "internalType": "uint256",
          "name": "tokenId",
          "type": "uint256"
        }
      ],
      "name": "safeTransferFrom",
      "outputs": [],
      "stateMutability": "nonpayable",
      "type": "function"
    },
    {
      "inputs": [
        {
          "internalType": "address",
          "name": "from",
          "type": "address"
        },
        {
          "internalType": "address",
          "name": "to",
          "type": "address"
        },
        {
          "internalType": "uint256",
          "name": "tokenId",
          "type": "uint256"
        },
        {
          "internalType": "bytes",
          "name": "_data",
          "type": "bytes"
        }
      ],
      "name": "safeTransferFrom",
      "outputs": [],
      "stateMutability": "nonpayable",
      "type": "function"
    },
    {
      "inputs": [
        {
          "internalType": "address",
          "name": "operator",
          "type": "address"
        },
        {
          "internalType": "bool",
          "name": "approved",
          "type": "bool"
        }
      ],
      "name": "setApprovalForAll",
      "outputs": [],
      "stateMutability": "nonpayable",
      "type": "function"
    },
    {
      "inputs": [
        {
          "internalType": "bytes4",
          "name": "interfaceId",
          "type": "bytes4"
        }
      ],
      "name": "supportsInterface",
      "outputs": [
        {
          "internalType": "bool",
          "name": "",
          "type": "bool"
        }
      ],
      "stateMutability": "view",
      "type": "function"
    },
    {
      "inputs": [],
      "name": "symbol",
      "outputs": [
        {
          "internalType": "string",
          "name": "",
          "type": "string"
        }
      ],
      "stateMutability": "view",
      "type": "function"
    },
    {
      "inputs": [
        {
          "internalType": "uint256",
          "name": "index",
          "type": "uint256"
        }
      ],
      "name": "tokenByIndex",
      "outputs": [
        {
          "internalType": "uint256",
          "name": "",
          "type": "uint256"
        }
      ],
      "stateMutability": "view",
      "type": "function"
    },
    {
      "inputs": [
        {
          "internalType": "address",
          "name": "owner",
          "type": "address"
        },
        {
          "internalType": "uint256",
          "name": "index",
          "type": "uint256"
        }
      ],
      "name": "tokenOfOwnerByIndex",
      "outputs": [
        {
          "internalType": "uint256",
          "name": "",
          "type": "uint256"
        }
      ],
      "stateMutability": "view",
      "type": "function"
    },
    {
      "inputs": [
        {
          "internalType": "uint256",
          "name": "tokenId",
          "type": "uint256"
        }
      ],
      "name": "tokenURI",
      "outputs": [
        {
          "internalType": "string",
          "name": "",
          "type": "string"
        }
      ],
      "stateMutability": "view",
      "type": "function"
    },
    {
      "inputs": [],
      "name": "totalSupply",
      "outputs": [
        {
          "internalType": "uint256",
          "name": "",
          "type": "uint256"
        }
      ],
      "stateMutability": "view",
      "type": "function"
    },
    {
      "inputs": [
        {
          "internalType": "address",
          "name": "from",
          "type": "address"
        },
        {
          "internalType": "address",
          "name": "to",
          "type": "address"
        },
        {
          "internalType": "uint256",
          "name": "tokenId",
          "type": "uint256"
        }
      ],
      "name": "transferFrom",
      "outputs": [],
      "stateMutability": "nonpayable",
      "type": "function"
    }
  ],
  "bytecode": {
    "object": "0x60806040526000600b553480156200001657600080fd5b506040516200324538038062003245833981016040819052620000399162000237565b604080518082018252600480825263414d484f60e01b602080840182905284518086019095529184529083015290620000796301ffc9a760e01b6200010d565b81516200008e90600690602085019062000191565b508051620000a490600790602084019062000191565b50620000b76380ac58cd60e01b6200010d565b620000c9635b5e139f60e01b6200010d565b620000db63780e9d6360e01b6200010d565b5050600c80546001600160a01b039092166001600160a01b03199283168117909155600d8054909216179055620002a5565b6001600160e01b031980821690036200016c5760405162461bcd60e51b815260206004820152601c60248201527f4552433136353a20696e76616c696420696e7465726661636520696400000000604482015260640160405180910390fd5b6001600160e01b0319166000908152602081905260409020805460ff19166001179055565b8280546200019f9062000269565b90600052602060002090601f016020900481019282620001c357600085556200020e565b82601f10620001de57805160ff19168380011785556200020e565b828001600101855582156200020e579182015b828111156200020e578251825591602001919060010190620001f1565b506200021c92915062000220565b5090565b5b808211156200021c576000815560010162000221565b6000602082840312156200024a57600080fd5b81516001600160a01b03811681146200026257600080fd5b9392505050565b600181811c908216806200027e57607f821691505b6020821081036200029f57634e487b7160e01b600052602260045260246000fd5b50919050565b612f9080620002b56000396000f3fe6080604052600436106101e35760003560e01c80636352211e11610102578063a22cb46511610095578063e985e9c511610064578063e985e9c5146105b3578063f00a0a39146105fc578063f15c389414610611578063fd6086cb1461063157600080fd5b8063a22cb46514610533578063b88d4fde14610553578063c87b56dd14610573578063e75722301461059357600080fd5b80637ace341b116100d15780637ace341b146104b05780638d17664d146104e95780638f8143c01461050957806395d89b411461051e57600080fd5b80636352211e146104465780636c0360eb146104665780636db248501461047b57806370a082311461049057600080fd5b806323b872dd1161017a57806342842e0e1161014957806342842e0e146103cf5780634f6ccce7146103ef578063561892361461040f5780635b6ee8e51461042457600080fd5b806323b872dd1461035c57806329734a4f1461037c5780632cb7c9071461038f5780632f745c59146103af57600080fd5b806318160ddd116101b657806318160ddd146102b35780631b2ab868146102d65780631e77607d1461030f5780631ece83b01461032f57600080fd5b806301ffc9a7146101e857806306fdde0314610237578063081812fc14610259578063095ea7b314610291575b600080fd5b3480156101f457600080fd5b5061022261020336600461289e565b6001600160e01b03191660009081526020819052604090205460ff1690565b60405190151581526020015b60405180910390f35b34801561024357600080fd5b5061024c610646565b60405161022e9190612913565b34801561026557600080fd5b50610279610274366004612926565b6106d8565b6040516001600160a01b03909116815260200161022e565b34801561029d57600080fd5b506102b16102ac36600461295b565b610765565b005b3480156102bf57600080fd5b506102c861087a565b60405190815260200161022e565b3480156102e257600080fd5b506102796102f1366004612926565b6000908152600e60205260409020600401546001600160a01b031690565b34801561031b57600080fd5b506102b161032a366004612985565b61088b565b34801561033b57600080fd5b5061034f61034a366004612926565b6109e9565b60405161022e9190612a23565b34801561036857600080fd5b506102b1610377366004612a31565b610a7b565b6102c861038a366004612af9565b610aac565b34801561039b57600080fd5b506102b16103aa366004612985565b610bc0565b3480156103bb57600080fd5b506102c86103ca36600461295b565b610d79565b3480156103db57600080fd5b506102b16103ea366004612a31565b610da4565b3480156103fb57600080fd5b506102c861040a366004612926565b610dbf565b34801561041b57600080fd5b50600b546102c8565b34801561043057600080fd5b50610439610dd5565b60405161022e9190612b5d565b34801561045257600080fd5b50610279610461366004612926565b610f99565b34801561047257600080fd5b5061024c610fc1565b34801561048757600080fd5b50610439610fd0565b34801561049c57600080fd5b506102c86104ab366004612bab565b611181565b3480156104bc57600080fd5b506102796104cb366004612926565b6000908152600e60205260409020600301546001600160a01b031690565b3480156104f557600080fd5b506102c8610504366004612926565b61120d565b34801561051557600080fd5b50610439611224565b34801561052a57600080fd5b5061024c611402565b34801561053f57600080fd5b506102b161054e366004612bd4565b611411565b34801561055f57600080fd5b506102b161056e366004612c0b565b6114d5565b34801561057f57600080fd5b5061024c61058e366004612926565b61150d565b34801561059f57600080fd5b506102c86105ae366004612926565b611676565b3480156105bf57600080fd5b506102226105ce366004612c87565b6001600160a01b03918216600090815260056020908152604080832093909416825291909152205460ff1690565b34801561060857600080fd5b506102b161168b565b34801561061d57600080fd5b506102c861062c366004612985565b6117a2565b34801561063d57600080fd5b50610439611875565b60606006805461065590612cba565b80601f016020809104026020016040519081016040528092919081815260200182805461068190612cba565b80156106ce5780601f106106a3576101008083540402835291602001916106ce565b820191906000526020600020905b8154815290600101906020018083116106b157829003601f168201915b5050505050905090565b60006106e382611a76565b6107495760405162461bcd60e51b815260206004820152602c60248201527f4552433732313a20617070726f76656420717565727920666f72206e6f6e657860448201526b34b9ba32b73a103a37b5b2b760a11b60648201526084015b60405180910390fd5b506000908152600460205260409020546001600160a01b031690565b600061077082610f99565b9050806001600160a01b0316836001600160a01b0316036107dd5760405162461bcd60e51b815260206004820152602160248201527f4552433732313a20617070726f76616c20746f2063757272656e74206f776e656044820152603960f91b6064820152608401610740565b336001600160a01b03821614806107f957506107f981336105ce565b61086b5760405162461bcd60e51b815260206004820152603860248201527f4552433732313a20617070726f76652063616c6c6572206973206e6f74206f7760448201527f6e6572206e6f7220617070726f76656420666f7220616c6c00000000000000006064820152608401610740565b6108758383611a83565b505050565b60006108866002611af1565b905090565b8181600061089883611676565b90508181146108e05760405162461bcd60e51b815260206004820152601460248201527315dc9bdb99c81d985b1d59481dd85cc81cd95b9d60621b6044820152606401610740565b600d54604051634ce3696f60e11b815233600482015260248101879052604481018690526001600160a01b03909116906399c6d2de906064016020604051808303816000875af1158015610938573d6000803e3d6000fd5b505050506040513d601f19601f8201168201806040525081019061095c9190612cf4565b6109b65760405162461bcd60e51b815260206004820152602560248201527f546f6b656e732077657265206e6f742061626c6520746f206265206465706f7360448201526434ba32b21760d91b6064820152608401610740565b505050600091825250600e602052604090206004810180546001600160a01b03191633179055805460ff19166001179055565b6109f16127b5565b6000828152600e602052604090819020815160c081019092528054829060ff166004811115610a2257610a226129a7565b6004811115610a3357610a336129a7565b8152600182015460208201526002820154604082015260038201546001600160a01b039081166060830152600483015416608082015260059091015460a09091015292915050565b610a853382611afb565b610aa15760405162461bcd60e51b815260040161074090612d11565b610875838383611be1565b600b54600c5460009190610aca906001600160a01b03166001611411565b610ad43382611d62565b6040805160c081018252600080825260208083018590528284018790523360608401526080830182905260a08301899052848252600e90529190912081518154829060ff19166001836004811115610b2e57610b2e6129a7565b021790555060208201516001808301919091556040830151600283015560608301516003830180546001600160a01b039283166001600160a01b031991821617909155608085015160048501805491909316911617905560a090920151600590910155600b8054600090610ba3908490612d78565b9182905550600b5550610bb68185611e7a565b90505b9392505050565b600d5460405163136b736360e31b8152336004820152602481018490526001600160a01b0390911690639b5b9b18906044016020604051808303816000875af1158015610c11573d6000803e3d6000fd5b505050506040513d601f19601f82011682018060405250810190610c359190612cf4565b610c8b5760405162461bcd60e51b815260206004820152602160248201527f4e465420776173206e6f742061626c6520746f206265206465706f73697465646044820152601760f91b6064820152608401610740565b6000828152600e60205260409020600301546001600160a01b03163314610ce45760405162461bcd60e51b815260206004820152600d60248201526c2737ba103a34329037bbb732b960991b6044820152606401610740565b6000828152600e60205260409020600501548114610d335760405162461bcd60e51b815260206004820152600c60248201526b155b985d5d1a1bdc9a5e995960a21b6044820152606401610740565b6000828152600e6020526040902060038101546001600160a01b03163314610d6a576003810180546001600160a01b031916331790555b805460ff191660021790555050565b6001600160a01b0382166000908152600160205260408120610d9b9083611f05565b90505b92915050565b610875838383604051806020016040528060008152506114d5565b600080610dcd600284611f11565b509392505050565b600b54606090600080805b83811015610e30576000818152600e602052604081205460ff166004811115610e0b57610e0b6129a7565b03610e1e5782610e1a81612d90565b9350505b80610e2881612d90565b915050610de0565b5060008267ffffffffffffffff811115610e4c57610e4c612a6d565b604051908082528060200260200182016040528015610e8557816020015b610e726127b5565b815260200190600190039081610e6a5790505b50905060005b83811015610f90576000818152600e602052604081205460ff166004811115610eb657610eb66129a7565b03610f7e576000818152600e60205260408082206001015480835291819020815160c0810190925280549091908290829060ff166004811115610efb57610efb6129a7565b6004811115610f0c57610f0c6129a7565b8152600182015460208201526002820154604082015260038201546001600160a01b039081166060830152600483015416608082015260059091015460a0909101528451859087908110610f6257610f62612da9565b60200260200101819052508480610f7890612d90565b95505050505b80610f8881612d90565b915050610e8b565b50949350505050565b6000610d9e82604051806060016040528060298152602001612f326029913960029190611f2d565b60606009805461065590612cba565b600b54606090600080805b83811015611026576000818152600e6020526040902060030154336001600160a01b0390911603611014578261101081612d90565b9350505b8061101e81612d90565b915050610fdb565b5060008267ffffffffffffffff81111561104257611042612a6d565b60405190808252806020026020018201604052801561107b57816020015b6110686127b5565b8152602001906001900390816110605790505b50905060005b83811015610f90576000818152600e6020526040902060030154336001600160a01b039091160361116f576000818152600e60205260408082206001015480835291819020815160c0810190925280549091908290829060ff1660048111156110ec576110ec6129a7565b60048111156110fd576110fd6129a7565b8152600182015460208201526002820154604082015260038201546001600160a01b039081166060830152600483015416608082015260059091015460a090910152845185908790811061115357611153612da9565b6020026020010181905250848061116990612d90565b95505050505b8061117981612d90565b915050611081565b60006001600160a01b0382166111ec5760405162461bcd60e51b815260206004820152602a60248201527f4552433732313a2062616c616e636520717565727920666f7220746865207a65604482015269726f206164647265737360b01b6064820152608401610740565b6001600160a01b0382166000908152600160205260409020610d9e90611af1565b600080611219836109e9565b60a001519392505050565b600b54606090600080805b838110156112ca5760016000828152600e602052604090205460ff16600481111561125c5761125c6129a7565b1480156112a557506000818152600e60205260409020600301546001600160a01b03163314806112a557506000818152600e60205260409020600401546001600160a01b031633145b156112b857826112b481612d90565b9350505b806112c281612d90565b91505061122f565b5060008267ffffffffffffffff8111156112e6576112e6612a6d565b60405190808252806020026020018201604052801561131f57816020015b61130c6127b5565b8152602001906001900390816113045790505b50905060005b83811015610f90576000818152600e60205260408082206001015480835291819020815160c0810190925280549091908290829060ff16600481111561136d5761136d6129a7565b600481111561137e5761137e6129a7565b8152600182015460208201526002820154604082015260038201546001600160a01b039081166060830152600483015416608082015260059091015460a09091015284518590879081106113d4576113d4612da9565b602002602001018190525084806113ea90612d90565b955050505080806113fa90612d90565b915050611325565b60606007805461065590612cba565b336001600160a01b038316036114695760405162461bcd60e51b815260206004820152601960248201527f4552433732313a20617070726f766520746f2063616c6c6572000000000000006044820152606401610740565b3360008181526005602090815260408083206001600160a01b03871680855290835292819020805460ff191686151590811790915590519081529192917f17307eab39ab6107e8899845ad3d59bd9653f200f220920489ca2b5937696c31910160405180910390a35050565b6114df3383611afb565b6114fb5760405162461bcd60e51b815260040161074090612d11565b61150784848484611f3a565b50505050565b606061151882611a76565b61157e5760405162461bcd60e51b815260206004820152603160248201527f45524337323155524953746f726167653a2055524920717565727920666f72206044820152703737b732bc34b9ba32b73a103a37b5b2b760791b6064820152608401610740565b6000828152600a60205260408120805461159790612cba565b80601f01602080910402602001604051908101604052809291908181526020018280546115c390612cba565b80156116105780601f106115e557610100808354040283529160200191611610565b820191906000526020600020905b8154815290600101906020018083116115f357829003601f168201915b505050505090506000611621610fc1565b90508051600003611633575092915050565b81511561166557808260405160200161164d929190612dbf565b60405160208183030381529060405292505050919050565b61166e84611fb8565b949350505050565b6000611681826109e9565b6040015192915050565b600b5460005b8181101561179e5760006116a4826109e9565b905060006116b183610f99565b60608301516080840151919250906001600160a01b038084169083161415806116ec5750806001600160a01b0316836001600160a01b031614155b156116f657600484525b6000858152600e602052604090208451815486929190829060ff19166001836004811115611726576117266129a7565b0217905550602082015160018201556040820151600282015560608201516003820180546001600160a01b039283166001600160a01b031991821617909155608084015160048401805491909316911617905560a090910151600590910155508392506117969150829050612d90565b915050611691565b5050565b6000828152600e60205260408120600401546001600160a01b031633146117c857600080fd5b6000838152600e6020526040808220805460ff191660039081178255810180546001600160a01b03191633179055600d5491516307dde52760e01b815260048101879052602481018690529092916001600160a01b0316906307dde527906044016020604051808303816000875af1158015611848573d6000803e3d6000fd5b505050506040513d601f19601f8201168201806040525081019061186c9190612dee565b95945050505050565b600b54606090600080805b8381101561191b5760026000828152600e602052604090205460ff1660048111156118ad576118ad6129a7565b1480156118d357506000818152600e60205260409020600401546001600160a01b031633145b806118f657506000818152600e60205260409020600401546001600160a01b0316155b15611909578261190581612d90565b9350505b8061191381612d90565b915050611880565b5060008267ffffffffffffffff81111561193757611937612a6d565b60405190808252806020026020018201604052801561197057816020015b61195d6127b5565b8152602001906001900390816119555790505b50905060005b83811015610f90576000818152600e6020526040902060040154336001600160a01b0390911603611a64576000818152600e60205260408082206001015480835291819020815160c0810190925280549091908290829060ff1660048111156119e1576119e16129a7565b60048111156119f2576119f26129a7565b8152600182015460208201526002820154604082015260038201546001600160a01b039081166060830152600483015416608082015260059091015460a0909101528451859087908110611a4857611a48612da9565b60200260200101819052508480611a5e90612d90565b95505050505b80611a6e81612d90565b915050611976565b6000610d9e600283612111565b600081815260046020526040902080546001600160a01b0319166001600160a01b0384169081179091558190611ab882610f99565b6001600160a01b03167f8c5be1e5ebec7d5bd14f71427d1e84f3dd0314c0f7b2291e5b200ac8c7c3b92560405160405180910390a45050565b6000610d9e825490565b6000611b0682611a76565b611b675760405162461bcd60e51b815260206004820152602c60248201527f4552433732313a206f70657261746f7220717565727920666f72206e6f6e657860448201526b34b9ba32b73a103a37b5b2b760a11b6064820152608401610740565b6000611b7283610f99565b9050806001600160a01b0316846001600160a01b03161480611bad5750836001600160a01b0316611ba2846106d8565b6001600160a01b0316145b8061166e57506001600160a01b0380821660009081526005602090815260408083209388168352929052205460ff1661166e565b826001600160a01b0316611bf482610f99565b6001600160a01b031614611c5c5760405162461bcd60e51b815260206004820152602960248201527f4552433732313a207472616e73666572206f6620746f6b656e2074686174206960448201526839903737ba1037bbb760b91b6064820152608401610740565b6001600160a01b038216611cbe5760405162461bcd60e51b8152602060048201526024808201527f4552433732313a207472616e7366657220746f20746865207a65726f206164646044820152637265737360e01b6064820152608401610740565b611cc9600082611a83565b6001600160a01b0383166000908152600160205260409020611ceb9082612129565b506001600160a01b0382166000908152600160205260409020611d0e9082612135565b50611d1b60028284612141565b5080826001600160a01b0316846001600160a01b03167fddf252ad1be2c89b69c2b068fc378daa952ba7f163c4a11628f55a4df523b3ef60405160405180910390a4505050565b6001600160a01b038216611db85760405162461bcd60e51b815260206004820181905260248201527f4552433732313a206d696e7420746f20746865207a65726f20616464726573736044820152606401610740565b611dc181611a76565b15611e0e5760405162461bcd60e51b815260206004820152601c60248201527f4552433732313a20746f6b656e20616c7265616479206d696e746564000000006044820152606401610740565b6001600160a01b0382166000908152600160205260409020611e309082612135565b50611e3d60028284612141565b5060405181906001600160a01b038416906000907fddf252ad1be2c89b69c2b068fc378daa952ba7f163c4a11628f55a4df523b3ef908290a45050565b611e8382611a76565b611ee65760405162461bcd60e51b815260206004820152602e60248201527f45524337323155524953746f726167653a2055524920736574206f66206e6f6e60448201526d32bc34b9ba32b73a103a37b5b2b760911b6064820152608401610740565b6000828152600a602090815260409091208251610875928401906127ec565b6000610d9b8383612157565b6000808080611f2086866121dd565b9097909650945050505050565b6000610bb684848461227a565b611f45848484611be1565b611f51848484846122e3565b6115075760405162461bcd60e51b815260206004820152603260248201527f4552433732313a207472616e7366657220746f206e6f6e20455243373231526560448201527131b2b4bb32b91034b6b83632b6b2b73a32b960711b6064820152608401610740565b6060611fc382611a76565b6120275760405162461bcd60e51b815260206004820152602f60248201527f4552433732314d657461646174613a2055524920717565727920666f72206e6f60448201526e3732bc34b9ba32b73a103a37b5b2b760891b6064820152608401610740565b6000828152600860205260408120805461204090612cba565b80601f016020809104026020016040519081016040528092919081815260200182805461206c90612cba565b80156120b95780601f1061208e576101008083540402835291602001916120b9565b820191906000526020600020905b81548152906001019060200180831161209c57829003601f168201915b5050505050905060006120ca610fc1565b905080516000036120dc575092915050565b8151156120f657808260405160200161164d929190612dbf565b80612100856123b4565b60405160200161164d929190612dbf565b60008181526001830160205260408120541515610d9b565b6000610d9b83836124c5565b6000610d9b83836125b8565b6000610bb684846001600160a01b038516612607565b815460009082106121b55760405162461bcd60e51b815260206004820152602260248201527f456e756d657261626c655365743a20696e646578206f7574206f6620626f756e604482015261647360f01b6064820152608401610740565b8260000182815481106121ca576121ca612da9565b9060005260206000200154905092915050565b81546000908190831061223d5760405162461bcd60e51b815260206004820152602260248201527f456e756d657261626c654d61703a20696e646578206f7574206f6620626f756e604482015261647360f01b6064820152608401610740565b600084600001848154811061225457612254612da9565b906000526020600020906002020190508060000154816001015492509250509250929050565b600082815260018401602052604081205482816122aa5760405162461bcd60e51b81526004016107409190612913565b50846122b7600183612e07565b815481106122c7576122c7612da9565b9060005260206000209060020201600101549150509392505050565b60006001600160a01b0384163b6122fc5750600161166e565b600061237d630a85bd0160e11b338887876040516024016123209493929190612e1e565b604051602081830303815290604052906001600160e01b0319166020820180516001600160e01b038381831617835250505050604051806060016040528060328152602001612f00603291396001600160a01b03881691906126aa565b90506000818060200190518101906123959190612e5b565b6001600160e01b031916630a85bd0160e11b1492505050949350505050565b6060816000036123db5750506040805180820190915260018152600360fc1b602082015290565b8160005b811561240557806123ef81612d90565b91506123fe9050600a83612e8e565b91506123df565b60008167ffffffffffffffff81111561242057612420612a6d565b6040519080825280601f01601f19166020018201604052801561244a576020820181803683370190505b509050600061245a600184612e07565b90508593505b8315610f9057612471600a85612ea2565b61247c906030612d78565b60f81b828261248a81612eb6565b93508151811061249c5761249c612da9565b60200101906001600160f81b031916908160001a9053506124be600a85612e8e565b9350612460565b600081815260018301602052604081205480156125ae5760006124e9600183612e07565b85549091506000906124fd90600190612e07565b9050600086600001828154811061251657612516612da9565b906000526020600020015490508087600001848154811061253957612539612da9565b600091825260209091200155612550836001612d78565b6000828152600189016020526040902055865487908061257257612572612ecd565b60019003818190600052602060002001600090559055866001016000878152602001908152602001600020600090556001945050505050610d9e565b6000915050610d9e565b60008181526001830160205260408120546125ff57508154600181810184556000848152602080822090930184905584548482528286019093526040902091909155610d9e565b506000610d9e565b600082815260018401602052604081205480820361266e575050604080518082018252838152602080820184815286546001818101895560008981528481209551600290930290950191825591519082015586548684528188019092529290912055610bb9565b828561267b600184612e07565b8154811061268b5761268b612da9565b9060005260206000209060020201600101819055506000915050610bb9565b6060610bb6848460008585843b6127035760405162461bcd60e51b815260206004820152601d60248201527f416464726573733a2063616c6c20746f206e6f6e2d636f6e74726163740000006044820152606401610740565b600080866001600160a01b0316858760405161271f9190612ee3565b60006040518083038185875af1925050503d806000811461275c576040519150601f19603f3d011682016040523d82523d6000602084013e612761565b606091505b509150915061277182828661277c565b979650505050505050565b6060831561278b575081610bb9565b82511561279b5782518084602001fd5b8160405162461bcd60e51b81526004016107409190612913565b6040805160c08101909152806000815260006020820181905260408201819052606082018190526080820181905260a09091015290565b8280546127f890612cba565b90600052602060002090601f01602090048101928261281a5760008555612860565b82601f1061283357805160ff1916838001178555612860565b82800160010185558215612860579182015b82811115612860578251825591602001919060010190612845565b5061286c929150612870565b5090565b5b8082111561286c5760008155600101612871565b6001600160e01b03198116811461289b57600080fd5b50565b6000602082840312156128b057600080fd5b8135610bb981612885565b60005b838110156128d65781810151838201526020016128be565b838111156115075750506000910152565b600081518084526128ff8160208601602086016128bb565b601f01601f19169290920160200192915050565b602081526000610d9b60208301846128e7565b60006020828403121561293857600080fd5b5035919050565b80356001600160a01b038116811461295657600080fd5b919050565b6000806040838503121561296e57600080fd5b6129778361293f565b946020939093013593505050565b6000806040838503121561299857600080fd5b50508035926020909101359150565b634e487b7160e01b600052602160045260246000fd5b8051600581106129dd57634e487b7160e01b600052602160045260246000fd5b825260208181015190830152604080820151908301526060808201516001600160a01b03908116918401919091526080808301519091169083015260a090810151910152565b60c08101610d9e82846129bd565b600080600060608486031215612a4657600080fd5b612a4f8461293f565b9250612a5d6020850161293f565b9150604084013590509250925092565b634e487b7160e01b600052604160045260246000fd5b600067ffffffffffffffff80841115612a9e57612a9e612a6d565b604051601f8501601f19908116603f01168101908282118183101715612ac657612ac6612a6d565b81604052809350858152868686011115612adf57600080fd5b858560208301376000602087830101525050509392505050565b600080600060608486031215612b0e57600080fd5b83359250602084013567ffffffffffffffff811115612b2c57600080fd5b8401601f81018613612b3d57600080fd5b612b4c86823560208401612a83565b925050604084013590509250925092565b6020808252825182820181905260009190848201906040850190845b81811015612b9f57612b8c8385516129bd565b9284019260c09290920191600101612b79565b50909695505050505050565b600060208284031215612bbd57600080fd5b610d9b8261293f565b801515811461289b57600080fd5b60008060408385031215612be757600080fd5b612bf08361293f565b91506020830135612c0081612bc6565b809150509250929050565b60008060008060808587031215612c2157600080fd5b612c2a8561293f565b9350612c386020860161293f565b925060408501359150606085013567ffffffffffffffff811115612c5b57600080fd5b8501601f81018713612c6c57600080fd5b612c7b87823560208401612a83565b91505092959194509250565b60008060408385031215612c9a57600080fd5b612ca38361293f565b9150612cb16020840161293f565b90509250929050565b600181811c90821680612cce57607f821691505b602082108103612cee57634e487b7160e01b600052602260045260246000fd5b50919050565b600060208284031215612d0657600080fd5b8151610bb981612bc6565b60208082526031908201527f4552433732313a207472616e736665722063616c6c6572206973206e6f74206f6040820152701ddb995c881b9bdc88185c1c1c9bdd9959607a1b606082015260800190565b634e487b7160e01b600052601160045260246000fd5b60008219821115612d8b57612d8b612d62565b500190565b600060018201612da257612da2612d62565b5060010190565b634e487b7160e01b600052603260045260246000fd5b60008351612dd18184602088016128bb565b835190830190612de58183602088016128bb565b01949350505050565b600060208284031215612e0057600080fd5b5051919050565b600082821015612e1957612e19612d62565b500390565b6001600160a01b0385811682528416602082015260408101839052608060608201819052600090612e51908301846128e7565b9695505050505050565b600060208284031215612e6d57600080fd5b8151610bb981612885565b634e487b7160e01b600052601260045260246000fd5b600082612e9d57612e9d612e78565b500490565b600082612eb157612eb1612e78565b500690565b600081612ec557612ec5612d62565b506000190190565b634e487b7160e01b600052603160045260246000fd5b60008251612ef58184602087016128bb565b919091019291505056fe4552433732313a207472616e7366657220746f206e6f6e20455243373231526563656976657220696d706c656d656e7465724552433732313a206f776e657220717565727920666f72206e6f6e6578697374656e7420746f6b656ea2646970667358221220033993502a6908e1bbddbdaf55875ae34b7c01391dcd88e035853b7ebc23c89c64736f6c634300080d0033",
    "linkReferences": {}
  },
  "methodIdentifiers": {
    "approve(address,uint256)": "095ea7b3",
    "balanceOf(address)": "70a08231",
    "baseURI()": "6c0360eb",
    "depositNftToEscrow(uint256,bytes32)": "2cb7c907",
    "depositTokenToEscrow(uint256,uint256)": "1e77607d",
    "fetchOnSale()": "5b6ee8e5",
    "fetchOwned()": "6db24850",
    "fetchPendingInitOrders()": "8f8143c0",
    "fetchPendingTether()": "fd6086cb",
    "gasOpOracleCheckUntethered()": "f00a0a39",
    "getApproved(uint256)": "081812fc",
    "getCurrentOwner(uint256)": "7ace341b",
    "getCurrentTokenId()": "56189236",
    "getNFTState(uint256)": "1ece83b0",
    "getNextOwner(uint256)": "1b2ab868",
    "getPrice(uint256)": "e7572230",
    "getSecret(uint256)": "8d17664d",
    "isApprovedForAll(address,address)": "e985e9c5",
    "mintToken(bytes32,string,uint256)": "29734a4f",
    "name()": "06fdde03",
    "ownerOf(uint256)": "6352211e",
    "releaseOrderToEscrow(uint256,bytes32)": "f15c3894",
    "safeTransferFrom(address,address,uint256)": "42842e0e",
    "safeTransferFrom(address,address,uint256,bytes)": "b88d4fde",
    "setApprovalForAll(address,bool)": "a22cb465",
    "supportsInterface(bytes4)": "01ffc9a7",
    "symbol()": "95d89b41",
    "tokenByIndex(uint256)": "4f6ccce7",
    "tokenOfOwnerByIndex(address,uint256)": "2f745c59",
    "tokenURI(uint256)": "c87b56dd",
    "totalSupply()": "18160ddd",
    "transferFrom(address,address,uint256)": "23b872dd"
  },
  "id": 0
}