{
  "abi": [
    {
      "inputs": [
        {
          "internalType": "string",
          "name": "_name",
          "type": "string"
        },
        {
          "internalType": "string",
          "name": "_symbol",
          "type": "string"
        },
        {
          "internalType": "address",
          "name": "_royaltyRecipient",
          "type": "address"
        },
        {
          "internalType": "uint128",
          "name": "_royaltyBps",
          "type": "uint128"
        }
      ],
      "stateMutability": "nonpayable",
      "type": "constructor"
    },
    {
      "inputs": [],
      "name": "ApprovalCallerNotOwnerNorApproved",
      "type": "error"
    },
    {
      "inputs": [],
      "name": "ApprovalQueryForNonexistentToken",
      "type": "error"
    },
    {
      "inputs": [],
      "name": "ApprovalToCurrentOwner",
      "type": "error"
    },
    {
      "inputs": [],
      "name": "ApproveToCaller",
      "type": "error"
    },
    {
      "inputs": [],
      "name": "BalanceQueryForZeroAddress",
      "type": "error"
    },
    {
      "inputs": [],
      "name": "MintToZeroAddress",
      "type": "error"
    },
    {
      "inputs": [],
      "name": "MintZeroQuantity",
      "type": "error"
    },
    {
      "inputs": [],
      "name": "OwnerQueryForNonexistentToken",
      "type": "error"
    },
    {
      "inputs": [],
      "name": "TransferCallerNotOwnerNorApproved",
      "type": "error"
    },
    {
      "inputs": [],
      "name": "TransferFromIncorrectOwner",
      "type": "error"
    },
    {
      "inputs": [],
      "name": "TransferToNonERC721ReceiverImplementer",
      "type": "error"
    },
    {
      "inputs": [],
      "name": "TransferToZeroAddress",
      "type": "error"
    },
    {
      "inputs": [],
      "name": "URIQueryForNonexistentToken",
      "type": "error"
    },
    {
      "anonymous": false,
      "inputs": [
        {
          "indexed": true,
          "internalType": "address",
          "name": "owner",
          "type": "address"
        },
        {
          "indexed": true,
          "internalType": "address",
          "name": "approved",
          "type": "address"
        },
        {
          "indexed": true,
          "internalType": "uint256",
          "name": "tokenId",
          "type": "uint256"
        }
      ],
      "name": "Approval",
      "type": "event"
    },
    {
      "anonymous": false,
      "inputs": [
        {
          "indexed": true,
          "internalType": "address",
          "name": "owner",
          "type": "address"
        },
        {
          "indexed": true,
          "internalType": "address",
          "name": "operator",
          "type": "address"
        },
        {
          "indexed": false,
          "internalType": "bool",
          "name": "approved",
          "type": "bool"
        }
      ],
      "name": "ApprovalForAll",
      "type": "event"
    },
    {
      "anonymous": false,
      "inputs": [
        {
          "indexed": false,
          "internalType": "string",
          "name": "prevURI",
          "type": "string"
        },
        {
          "indexed": false,
          "internalType": "string",
          "name": "newURI",
          "type": "string"
        }
      ],
      "name": "ContractURIUpdated",
      "type": "event"
    },
    {
      "anonymous": false,
      "inputs": [
        {
          "indexed": true,
          "internalType": "address",
          "name": "newRoyaltyRecipient",
          "type": "address"
        },
        {
          "indexed": false,
          "internalType": "uint256",
          "name": "newRoyaltyBps",
          "type": "uint256"
        }
      ],
      "name": "DefaultRoyalty",
      "type": "event"
    },
    {
      "anonymous": false,
      "inputs": [
        {
          "indexed": true,
          "internalType": "address",
          "name": "prevOwner",
          "type": "address"
        },
        {
          "indexed": true,
          "internalType": "address",
          "name": "newOwner",
          "type": "address"
        }
      ],
      "name": "OwnerUpdated",
      "type": "event"
    },
    {
      "anonymous": false,
      "inputs": [
        {
          "indexed": true,
          "internalType": "uint256",
          "name": "tokenId",
          "type": "uint256"
        },
        {
          "indexed": true,
          "internalType": "address",
          "name": "royaltyRecipient",
          "type": "address"
        },
        {
          "indexed": false,
          "internalType": "uint256",
          "name": "royaltyBps",
          "type": "uint256"
        }
      ],
      "name": "RoyaltyForToken",
      "type": "event"
    },
    {
      "anonymous": false,
      "inputs": [
        {
          "indexed": true,
          "internalType": "address",
          "name": "from",
          "type": "address"
        },
        {
          "indexed": true,
          "internalType": "address",
          "name": "to",
          "type": "address"
        },
        {
          "indexed": true,
          "internalType": "uint256",
          "name": "tokenId",
          "type": "uint256"
        }
      ],
      "name": "Transfer",
      "type": "event"
    },
    {
      "inputs": [
        {
          "internalType": "address",
          "name": "to",
          "type": "address"
        },
        {
          "internalType": "uint256",
          "name": "tokenId",
          "type": "uint256"
        }
      ],
      "name": "approve",
      "outputs": [],
      "stateMutability": "nonpayable",
      "type": "function"
    },
    {
      "inputs": [
        {
          "internalType": "address",
          "name": "owner",
          "type": "address"
        }
      ],
      "name": "balanceOf",
      "outputs": [
        {
          "internalType": "uint256",
          "name": "",
          "type": "uint256"
        }
      ],
      "stateMutability": "view",
      "type": "function"
    },
    {
      "inputs": [
        {
          "internalType": "address",
          "name": "_to",
          "type": "address"
        },
        {
          "internalType": "uint256",
          "name": "_quantity",
          "type": "uint256"
        },
        {
          "internalType": "string",
          "name": "_baseURI",
          "type": "string"
        },
        {
          "internalType": "bytes",
          "name": "_data",
          "type": "bytes"
        }
      ],
      "name": "batchMintTo",
      "outputs": [],
      "stateMutability": "nonpayable",
      "type": "function"
    },
    {
      "inputs": [
        {
          "internalType": "uint256",
          "name": "_tokenId",
          "type": "uint256"
        }
      ],
      "name": "burn",
      "outputs": [],
      "stateMutability": "nonpayable",
      "type": "function"
    },
    {
      "inputs": [],
      "name": "contractURI",
      "outputs": [
        {
          "internalType": "string",
          "name": "",
          "type": "string"
        }
      ],
      "stateMutability": "view",
      "type": "function"
    },
    {
      "inputs": [
        {
          "internalType": "uint256",
          "name": "tokenId",
          "type": "uint256"
        }
      ],
      "name": "getApproved",
      "outputs": [
        {
          "internalType": "address",
          "name": "",
          "type": "address"
        }
      ],
      "stateMutability": "view",
      "type": "function"
    },
    {
      "inputs": [],
      "name": "getBaseURICount",
      "outputs": [
        {
          "internalType": "uint256",
          "name": "",
          "type": "uint256"
        }
      ],
      "stateMutability": "view",
      "type": "function"
    },
    {
      "inputs": [
        {
          "internalType": "uint256",
          "name": "_index",
          "type": "uint256"
        }
      ],
      "name": "getBatchIdAtIndex",
      "outputs": [
        {
          "internalType": "uint256",
          "name": "",
          "type": "uint256"
        }
      ],
      "stateMutability": "view",
      "type": "function"
    },
    {
      "inputs": [],
      "name": "getDefaultRoyaltyInfo",
      "outputs": [
        {
          "internalType": "address",
          "name": "",
          "type": "address"
        },
        {
          "internalType": "uint16",
          "name": "",
          "type": "uint16"
        }
      ],
      "stateMutability": "view",
      "type": "function"
    },
    {
      "inputs": [
        {
          "internalType": "uint256",
          "name": "_tokenId",
          "type": "uint256"
        }
      ],
      "name": "getRoyaltyInfoForToken",
      "outputs": [
        {
          "internalType": "address",
          "name": "",
          "type": "address"
        },
        {
          "internalType": "uint16",
          "name": "",
          "type": "uint16"
        }
      ],
      "stateMutability": "view",
      "type": "function"
    },
    {
      "inputs": [
        {
          "internalType": "address",
          "name": "owner",
          "type": "address"
        },
        {
          "internalType": "address",
          "name": "operator",
          "type": "address"
        }
      ],
      "name": "isApprovedForAll",
      "outputs": [
        {
          "internalType": "bool",
          "name": "",
          "type": "bool"
        }
      ],
      "stateMutability": "view",
      "type": "function"
    },
    {
      "inputs": [
        {
          "internalType": "address",
          "name": "_operator",
          "type": "address"
        },
        {
          "internalType": "uint256",
          "name": "_tokenId",
          "type": "uint256"
        }
      ],
      "name": "isApprovedOrOwner",
      "outputs": [
        {
          "internalType": "bool",
          "name": "isApprovedOrOwnerOf",
          "type": "bool"
        }
      ],
      "stateMutability": "view",
      "type": "function"
    },
    {
      "inputs": [
        {
          "internalType": "address",
          "name": "_to",
          "type": "address"
        },
        {
          "internalType": "string",
          "name": "_tokenURI",
          "type": "string"
        }
      ],
      "name": "mintTo",
      "outputs": [],
      "stateMutability": "nonpayable",
      "type": "function"
    },
    {
      "inputs": [
        {
          "internalType": "bytes[]",
          "name": "data",
          "type": "bytes[]"
        }
      ],
      "name": "multicall",
      "outputs": [
        {
          "internalType": "bytes[]",
          "name": "results",
          "type": "bytes[]"
        }
      ],
      "stateMutability": "nonpayable",
      "type": "function"
    },
    {
      "inputs": [],
      "name": "name",
      "outputs": [
        {
          "internalType": "string",
          "name": "",
          "type": "string"
        }
      ],
      "stateMutability": "view",
      "type": "function"
    },
    {
      "inputs": [],
      "name": "nextTokenIdToMint",
      "outputs": [
        {
          "internalType": "uint256",
          "name": "",
          "type": "uint256"
        }
      ],
      "stateMutability": "view",
      "type": "function"
    },
    {
      "inputs": [],
      "name": "owner",
      "outputs": [
        {
          "internalType": "address",
          "name": "",
          "type": "address"
        }
      ],
      "stateMutability": "view",
      "type": "function"
    },
    {
      "inputs": [
        {
          "internalType": "uint256",
          "name": "tokenId",
          "type": "uint256"
        }
      ],
      "name": "ownerOf",
      "outputs": [
        {
          "internalType": "address",
          "name": "",
          "type": "address"
        }
      ],
      "stateMutability": "view",
      "type": "function"
    },
    {
      "inputs": [
        {
          "internalType": "uint256",
          "name": "tokenId",
          "type": "uint256"
        },
        {
          "internalType": "uint256",
          "name": "salePrice",
          "type": "uint256"
        }
      ],
      "name": "royaltyInfo",
      "outputs": [
        {
          "internalType": "address",
          "name": "receiver",
          "type": "address"
        },
        {
          "internalType": "uint256",
          "name": "royaltyAmount",
          "type": "uint256"
        }
      ],
      "stateMutability": "view",
      "type": "function"
    },
    {
      "inputs": [
        {
          "internalType": "address",
          "name": "from",
          "type": "address"
        },
        {
          "internalType": "address",
          "name": "to",
          "type": "address"
        },
        {
          "internalType": "uint256",
          "name": "tokenId",
          "type": "uint256"
        }
      ],
      "name": "safeTransferFrom",
      "outputs": [],
      "stateMutability": "nonpayable",
      "type": "function"
    },
    {
      "inputs": [
        {
          "internalType": "address",
          "name": "from",
          "type": "address"
        },
        {
          "internalType": "address",
          "name": "to",
          "type": "address"
        },
        {
          "internalType": "uint256",
          "name": "tokenId",
          "type": "uint256"
        },
        {
          "internalType": "bytes",
          "name": "_data",
          "type": "bytes"
        }
      ],
      "name": "safeTransferFrom",
      "outputs": [],
      "stateMutability": "nonpayable",
      "type": "function"
    },
    {
      "inputs": [
        {
          "internalType": "address",
          "name": "operator",
          "type": "address"
        },
        {
          "internalType": "bool",
          "name": "approved",
          "type": "bool"
        }
      ],
      "name": "setApprovalForAll",
      "outputs": [],
      "stateMutability": "nonpayable",
      "type": "function"
    },
    {
      "inputs": [
        {
          "internalType": "string",
          "name": "_uri",
          "type": "string"
        }
      ],
      "name": "setContractURI",
      "outputs": [],
      "stateMutability": "nonpayable",
      "type": "function"
    },
    {
      "inputs": [
        {
          "internalType": "address",
          "name": "_royaltyRecipient",
          "type": "address"
        },
        {
          "internalType": "uint256",
          "name": "_royaltyBps",
          "type": "uint256"
        }
      ],
      "name": "setDefaultRoyaltyInfo",
      "outputs": [],
      "stateMutability": "nonpayable",
      "type": "function"
    },
    {
      "inputs": [
        {
          "internalType": "address",
          "name": "_newOwner",
          "type": "address"
        }
      ],
      "name": "setOwner",
      "outputs": [],
      "stateMutability": "nonpayable",
      "type": "function"
    },
    {
      "inputs": [
        {
          "internalType": "uint256",
          "name": "_tokenId",
          "type": "uint256"
        },
        {
          "internalType": "address",
          "name": "_recipient",
          "type": "address"
        },
        {
          "internalType": "uint256",
          "name": "_bps",
          "type": "uint256"
        }
      ],
      "name": "setRoyaltyInfoForToken",
      "outputs": [],
      "stateMutability": "nonpayable",
      "type": "function"
    },
    {
      "inputs": [
        {
          "internalType": "bytes4",
          "name": "interfaceId",
          "type": "bytes4"
        }
      ],
      "name": "supportsInterface",
      "outputs": [
        {
          "internalType": "bool",
          "name": "",
          "type": "bool"
        }
      ],
      "stateMutability": "view",
      "type": "function"
    },
    {
      "inputs": [],
      "name": "symbol",
      "outputs": [
        {
          "internalType": "string",
          "name": "",
          "type": "string"
        }
      ],
      "stateMutability": "view",
      "type": "function"
    },
    {
      "inputs": [
        {
          "internalType": "uint256",
          "name": "_tokenId",
          "type": "uint256"
        }
      ],
      "name": "tokenURI",
      "outputs": [
        {
          "internalType": "string",
          "name": "",
          "type": "string"
        }
      ],
      "stateMutability": "view",
      "type": "function"
    },
    {
      "inputs": [],
      "name": "totalSupply",
      "outputs": [
        {
          "internalType": "uint256",
          "name": "",
          "type": "uint256"
        }
      ],
      "stateMutability": "view",
      "type": "function"
    },
    {
      "inputs": [
        {
          "internalType": "address",
          "name": "from",
          "type": "address"
        },
        {
          "internalType": "address",
          "name": "to",
          "type": "address"
        },
        {
          "internalType": "uint256",
          "name": "tokenId",
          "type": "uint256"
        }
      ],
      "name": "transferFrom",
      "outputs": [],
      "stateMutability": "nonpayable",
      "type": "function"
    }
  ],
  "bytecode": {
    "object": "0x60806040523480156200001157600080fd5b50604051620029aa380380620029aa83398101604081905262000034916200024e565b8383600262000044838262000389565b50600362000053828262000389565b50506000805550620000653362000084565b6200007a826001600160801b038316620000d6565b5050505062000455565b600980546001600160a01b038381166001600160a01b0319831681179093556040519116919082907f8292fce18fa69edf4db7b94ea2e58241df0ae57f97e0a6c9b29067028bf92d7690600090a35050565b6127108111156200011f5760405162461bcd60e51b815260206004820152600f60248201526e45786365656473206d61782062707360881b604482015260640160405180910390fd5b600a80546001600160a01b0384166001600160b01b03199091168117600160a01b61ffff851602179091556040518281527f90d7ec04bcb8978719414f82e52e4cb651db41d0e6f8cea6118c2191e6183adb9060200160405180910390a25050565b634e487b7160e01b600052604160045260246000fd5b600082601f830112620001a957600080fd5b81516001600160401b0380821115620001c657620001c662000181565b604051601f8301601f19908116603f01168101908282118183101715620001f157620001f162000181565b816040528381526020925086838588010111156200020e57600080fd5b600091505b8382101562000232578582018301518183018401529082019062000213565b83821115620002445760008385830101525b9695505050505050565b600080600080608085870312156200026557600080fd5b84516001600160401b03808211156200027d57600080fd5b6200028b8883890162000197565b95506020870151915080821115620002a257600080fd5b50620002b18782880162000197565b604087015190945090506001600160a01b0381168114620002d157600080fd5b60608601519092506001600160801b0381168114620002ef57600080fd5b939692955090935050565b600181811c908216806200030f57607f821691505b6020821081036200033057634e487b7160e01b600052602260045260246000fd5b50919050565b601f8211156200038457600081815260208120601f850160051c810160208610156200035f5750805b601f850160051c820191505b8181101562000380578281556001016200036b565b5050505b505050565b81516001600160401b03811115620003a557620003a562000181565b620003bd81620003b68454620002fa565b8462000336565b602080601f831160018114620003f55760008415620003dc5750858301515b600019600386901b1c1916600185901b17855562000380565b600085815260208120601f198616915b82811015620004265788860151825594840194600190910190840162000405565b5085821015620004455787850151600019600388901b60f8161c191681555b5050505050600190811b01905550565b61254580620004656000396000f3fe608060405234801561001057600080fd5b50600436106101e45760003560e01c8063600dd5ea1161010f5780639bcf7a15116100a2578063b88d4fde11610071578063b88d4fde14610454578063c87b56dd14610467578063e8a3d4851461047a578063e985e9c51461048257600080fd5b80639bcf7a15146103f0578063a22cb46514610403578063ac9650d814610416578063b24f2d391461043657600080fd5b8063754a81d9116100de578063754a81d9146103b15780638da5cb5b146103c4578063938e3d7b146103d557806395d89b41146103e857600080fd5b8063600dd5ea146103705780636352211e1461038357806363b45e2d1461039657806370a082311461039e57600080fd5b806323b872dd1161018757806342842e0e1161015657806342842e0e1461030257806342966c6814610315578063430c2081146103285780634cc157df1461033b57600080fd5b806323b872dd146102a25780632419f51b146102b55780632a55205a146102c85780633b1475a7146102fa57600080fd5b8063081812fc116101c3578063081812fc1461023b578063095ea7b31461026657806313af40351461027957806318160ddd1461028c57600080fd5b806275a317146101e957806301ffc9a7146101fe57806306fdde0314610226575b600080fd5b6101fc6101f7366004611d55565b6104be565b005b61021161020c366004611db8565b610559565b60405190151581526020015b60405180910390f35b61022e6105c6565b60405161021d9190611e2d565b61024e610249366004611e40565b610658565b6040516001600160a01b03909116815260200161021d565b6101fc610274366004611e59565b61069c565b6101fc610287366004611e83565b610722565b600154600054035b60405190815260200161021d565b6101fc6102b0366004611e9e565b610752565b6102946102c3366004611e40565b61075d565b6102db6102d6366004611eda565b6107cb565b604080516001600160a01b03909316835260208301919091520161021d565b600054610294565b6101fc610310366004611e9e565b610808565b6101fc610323366004611e40565b610823565b610211610336366004611e59565b61082e565b61034e610349366004611e40565b6108ad565b604080516001600160a01b03909316835261ffff90911660208301520161021d565b6101fc61037e366004611e59565b610918565b61024e610391366004611e40565b610946565b600c54610294565b6102946103ac366004611e83565b610958565b6101fc6103bf366004611efc565b6109a6565b6009546001600160a01b031661024e565b6101fc6103e3366004611f79565b610a1a565b61022e610a47565b6101fc6103fe366004611fad565b610a56565b6101fc610411366004611fd2565b610a85565b61042961042436600461200e565b610b1a565b60405161021d9190612082565b600a546001600160a01b03811690600160a01b900461ffff1661034e565b6101fc6104623660046120e4565b610c0e565b61022e610475366004611e40565b610c52565b61022e610d40565b61021161049036600461213f565b6001600160a01b03918216600090815260076020908152604080832093909416825291909152205460ff1690565b6104c6610dce565b6105115760405162461bcd60e51b81526020600482015260176024820152762737ba1030baba3437b934bd32b2103a379036b4b73a1760491b60448201526064015b60405180910390fd5b80600e600061051f60005490565b8152602001908152602001600020908161053991906121fa565b5061055582600160405180602001604052806000815250610dfb565b5050565b60006301ffc9a760e01b6001600160e01b03198316148061058a57506380ac58cd60e01b6001600160e01b03198316145b806105a55750635b5e139f60e01b6001600160e01b03198316145b806105c057506001600160e01b0319821663152a902d60e11b145b92915050565b6060600280546105d590612172565b80601f016020809104026020016040519081016040528092919081815260200182805461060190612172565b801561064e5780601f106106235761010080835404028352916020019161064e565b820191906000526020600020905b81548152906001019060200180831161063157829003601f168201915b5050505050905090565b600061066382610f9e565b610680576040516333d1c03960e21b815260040160405180910390fd5b506000908152600660205260409020546001600160a01b031690565b60006106a782610946565b9050806001600160a01b0316836001600160a01b0316036106db5760405163250fdee360e21b815260040160405180910390fd5b336001600160a01b03821614610712576106f58133610490565b610712576040516367d9dca160e11b815260040160405180910390fd5b61071d838383610fc9565b505050565b61072a610dce565b6107465760405162461bcd60e51b8152600401610508906122b9565b61074f81611025565b50565b61071d838383611077565b6000610768600c5490565b82106107a65760405162461bcd60e51b815260206004820152600d60248201526c092dcecc2d8d2c840d2dcc8caf609b1b6044820152606401610508565b600c82815481106107b9576107b96122e1565b90600052602060002001549050919050565b6000806000806107da866108ad565b90945084925061ffff1690506127106107f3828761230d565b6107fd9190612342565b925050509250929050565b61071d83838360405180602001604052806000815250610c0e565b61074f816001611252565b60008061083a83610946565b9050806001600160a01b0316846001600160a01b0316148061088157506001600160a01b0380821660009081526007602090815260408083209388168352929052205460ff165b806108a55750836001600160a01b031661089a84610658565b6001600160a01b0316145b949350505050565b6000818152600b60209081526040808320815180830190925280546001600160a01b0316808352600190910154928201929092528291156108f4578051602082015161090e565b600a546001600160a01b03811690600160a01b900461ffff165b9250925050915091565b610920610dce565b61093c5760405162461bcd60e51b8152600401610508906122b9565b6105558282611405565b6000610951826114ab565b5192915050565b60006001600160a01b038216610981576040516323d3ad8160e21b815260040160405180910390fd5b506001600160a01b03166000908152600560205260409020546001600160401b031690565b6109ae610dce565b6109f45760405162461bcd60e51b81526020600482015260176024820152762737ba1030baba3437b934bd32b2103a379036b4b73a1760491b6044820152606401610508565b610a07610a0060005490565b84846115c5565b5050610a14848483610dfb565b50505050565b610a22610dce565b610a3e5760405162461bcd60e51b8152600401610508906122b9565b61074f81611629565b6060600380546105d590612172565b610a5e610dce565b610a7a5760405162461bcd60e51b8152600401610508906122b9565b61071d838383611705565b336001600160a01b03831603610aae5760405163b06307db60e01b815260040160405180910390fd5b3360008181526007602090815260408083206001600160a01b03871680855290835292819020805460ff191686151590811790915590519081529192917f17307eab39ab6107e8899845ad3d59bd9653f200f220920489ca2b5937696c31910160405180910390a35050565b6060816001600160401b03811115610b3457610b34611cb3565b604051908082528060200260200182016040528015610b6757816020015b6060815260200190600190039081610b525790505b50905060005b82811015610c0757610bd730858584818110610b8b57610b8b6122e1565b9050602002810190610b9d9190612356565b8080601f0160208091040260200160405190810160405280939291908181526020018383808284376000920191909152506117ce92505050565b828281518110610be957610be96122e1565b60200260200101819052508080610bff906123a3565b915050610b6d565b5092915050565b610c19848484611077565b6001600160a01b0383163b15610a1457610c35848484846117fa565b610a14576040516368d2bf6b60e11b815260040160405180910390fd5b6000818152600e6020526040812080546060929190610c7090612172565b80601f0160208091040260200160405190810160405280929190818152602001828054610c9c90612172565b8015610ce95780601f10610cbe57610100808354040283529160200191610ce9565b820191906000526020600020905b815481529060010190602001808311610ccc57829003601f168201915b50505050509050600081511115610d005792915050565b6000610d0b846118e5565b905080610d1785611a81565b604051602001610d289291906123bc565b60405160208183030381529060405292505050919050565b60088054610d4d90612172565b80601f0160208091040260200160405190810160405280929190818152602001828054610d7990612172565b8015610dc65780601f10610d9b57610100808354040283529160200191610dc6565b820191906000526020600020905b815481529060010190602001808311610da957829003601f168201915b505050505081565b6000610de26009546001600160a01b031690565b6001600160a01b0316336001600160a01b031614905090565b6000546001600160a01b038416610e2457604051622e076360e81b815260040160405180910390fd5b82600003610e455760405163b562e8dd60e01b815260040160405180910390fd5b6001600160a01b038416600081815260056020908152604080832080546fffffffffffffffffffffffffffffffff1981166001600160401b038083168b0181169182176801000000000000000067ffffffffffffffff1990941690921783900481168b01811690920217909155858452600490925290912080546001600160e01b0319168317600160a01b42909316929092029190911790558190818501903b15610f5b575b60405182906001600160a01b038816906000906000805160206124f0833981519152908290a4610f2460008784806001019550876117fa565b610f41576040516368d2bf6b60e11b815260040160405180910390fd5b808210610eeb578260005414610f5657600080fd5b610f8e565b5b6040516001830192906001600160a01b038816906000906000805160206124f0833981519152908290a4808210610f5c575b506000908155610a149085838684565b60008054821080156105c0575050600090815260046020526040902054600160e01b900460ff161590565b60008281526006602052604080822080546001600160a01b0319166001600160a01b0387811691821790925591518593918516917f8c5be1e5ebec7d5bd14f71427d1e84f3dd0314c0f7b2291e5b200ac8c7c3b92591a4505050565b600980546001600160a01b038381166001600160a01b0319831681179093556040519116919082907f8292fce18fa69edf4db7b94ea2e58241df0ae57f97e0a6c9b29067028bf92d7690600090a35050565b6000611082826114ab565b9050836001600160a01b031681600001516001600160a01b0316146110b95760405162a1148160e81b815260040160405180910390fd5b6000336001600160a01b03861614806110d757506110d78533610490565b806110f25750336110e784610658565b6001600160a01b0316145b90508061111257604051632ce44b5f60e11b815260040160405180910390fd5b6001600160a01b03841661113957604051633a954ecd60e21b815260040160405180910390fd5b61114560008487610fc9565b6001600160a01b038581166000908152600560209081526040808320805467ffffffffffffffff198082166001600160401b0392831660001901831617909255898616808652838620805493841693831660019081018416949094179055898652600490945282852080546001600160e01b031916909417600160a01b4290921691909102178355870180845292208054919390911661121957600054821461121957805460208601516001600160401b0316600160a01b026001600160e01b03199091166001600160a01b038a16171781555b50505082846001600160a01b0316866001600160a01b03166000805160206124f083398151915260405160405180910390a45050505050565b600061125d836114ab565b805190915082156112c3576000336001600160a01b038316148061128657506112868233610490565b806112a157503361129686610658565b6001600160a01b0316145b9050806112c157604051632ce44b5f60e11b815260040160405180910390fd5b505b6112cf60008583610fc9565b6001600160a01b0380821660008181526005602090815260408083208054600160801b6000196001600160401b0380841691909101811667ffffffffffffffff198416811783900482166001908101831690930277ffffffffffffffff0000000000000000ffffffffffffffff19909416179290921783558b86526004909452828520805460ff60e01b1942909316600160a01b026001600160e01b03199091169097179690961716600160e01b1785559189018084529220805491949091166113cd5760005482146113cd57805460208701516001600160401b0316600160a01b026001600160e01b03199091166001600160a01b038716171781555b5050604051869250600091506001600160a01b038416906000805160206124f0833981519152908390a4505060018054810190555050565b6127108111156114495760405162461bcd60e51b815260206004820152600f60248201526e45786365656473206d61782062707360881b6044820152606401610508565b600a80546001600160a01b0384166001600160b01b03199091168117600160a01b61ffff851602179091556040518281527f90d7ec04bcb8978719414f82e52e4cb651db41d0e6f8cea6118c2191e6183adb9060200160405180910390a25050565b6040805160608101825260008082526020820181905291810191909152816000548110156115ac57600081815260046020908152604091829020825160608101845290546001600160a01b0381168252600160a01b81046001600160401b031692820192909252600160e01b90910460ff161515918101829052906115aa5780516001600160a01b031615611541579392505050565b5060001901600081815260046020908152604091829020825160608101845290546001600160a01b038116808352600160a01b82046001600160401b031693830193909352600160e01b900460ff16151592810192909252156115a5579392505050565b611541565b505b604051636f96cda160e11b815260040160405180910390fd5b6000806115d284866123eb565b600c8054600181019091557fdf6966c971051c3d54ec59162606531493a51404a002842f56009d7e5cf4a8c7018190556000818152600d6020526040902090925082915061162084826121fa565b50935093915050565b60006008805461163890612172565b80601f016020809104026020016040519081016040528092919081815260200182805461166490612172565b80156116b15780601f10611686576101008083540402835291602001916116b1565b820191906000526020600020905b81548152906001019060200180831161169457829003601f168201915b5050505050905081600890816116c791906121fa565b507fc9c7c3fe08b88b4df9d4d47ef47d2c43d55c025a0ba88ca442580ed9e7348a1681836040516116f9929190612403565b60405180910390a15050565b6127108111156117495760405162461bcd60e51b815260206004820152600f60248201526e45786365656473206d61782062707360881b6044820152606401610508565b6040805180820182526001600160a01b0384811680835260208084018681526000898152600b8352869020945185546001600160a01b031916941693909317845591516001909301929092559151838152909185917f7365cf4122f072a3365c20d54eff9b38d73c096c28e1892ec8f5b0e403a0f12d910160405180910390a3505050565b60606117f383836040518060600160405280602781526020016124c960279139611b81565b9392505050565b604051630a85bd0160e11b81526000906001600160a01b0385169063150b7a029061182f903390899088908890600401612431565b6020604051808303816000875af192505050801561186a575060408051601f3d908101601f1916820190925261186791810190612464565b60015b6118c8573d808015611898576040519150601f19603f3d011682016040523d82523d6000602084013e61189d565b606091505b5080516000036118c0576040516368d2bf6b60e11b815260040160405180910390fd5b805181602001fd5b6001600160e01b031916630a85bd0160e11b149050949350505050565b606060006118f2600c5490565b90506000600c80548060200260200160405190810160405280929190818152602001828054801561194257602002820191906000526020600020905b81548152602001906001019080831161192e575b5050505050905060005b82811015611a4657818181518110611966576119666122e1565b6020026020010151851015611a3457600d600083838151811061198b5761198b6122e1565b6020026020010151815260200190815260200160002080546119ac90612172565b80601f01602080910402602001604051908101604052809291908181526020018280546119d890612172565b8015611a255780601f106119fa57610100808354040283529160200191611a25565b820191906000526020600020905b815481529060010190602001808311611a0857829003601f168201915b50505050509350505050919050565b611a3f6001826123eb565b905061194c565b5060405162461bcd60e51b815260206004820152600f60248201526e125b9d985b1a59081d1bdad95b9259608a1b6044820152606401610508565b606081600003611aa85750506040805180820190915260018152600360fc1b602082015290565b8160005b8115611ad25780611abc816123a3565b9150611acb9050600a83612342565b9150611aac565b6000816001600160401b03811115611aec57611aec611cb3565b6040519080825280601f01601f191660200182016040528015611b16576020820181803683370190505b5090505b84156108a557611b2b600183612481565b9150611b38600a86612498565b611b439060306123eb565b60f81b818381518110611b5857611b586122e1565b60200101906001600160f81b031916908160001a905350611b7a600a86612342565b9450611b1a565b60606001600160a01b0384163b611be95760405162461bcd60e51b815260206004820152602660248201527f416464726573733a2064656c65676174652063616c6c20746f206e6f6e2d636f6044820152651b9d1c9858dd60d21b6064820152608401610508565b600080856001600160a01b031685604051611c0491906124ac565b600060405180830381855af49150503d8060008114611c3f576040519150601f19603f3d011682016040523d82523d6000602084013e611c44565b606091505b5091509150611c54828286611c5e565b9695505050505050565b60608315611c6d5750816117f3565b825115611c7d5782518084602001fd5b8160405162461bcd60e51b81526004016105089190611e2d565b80356001600160a01b0381168114611cae57600080fd5b919050565b634e487b7160e01b600052604160045260246000fd5b600082601f830112611cda57600080fd5b81356001600160401b0380821115611cf457611cf4611cb3565b604051601f8301601f19908116603f01168101908282118183101715611d1c57611d1c611cb3565b81604052838152866020858801011115611d3557600080fd5b836020870160208301376000602085830101528094505050505092915050565b60008060408385031215611d6857600080fd5b611d7183611c97565b915060208301356001600160401b03811115611d8c57600080fd5b611d9885828601611cc9565b9150509250929050565b6001600160e01b03198116811461074f57600080fd5b600060208284031215611dca57600080fd5b81356117f381611da2565b60005b83811015611df0578181015183820152602001611dd8565b83811115610a145750506000910152565b60008151808452611e19816020860160208601611dd5565b601f01601f19169290920160200192915050565b6020815260006117f36020830184611e01565b600060208284031215611e5257600080fd5b5035919050565b60008060408385031215611e6c57600080fd5b611e7583611c97565b946020939093013593505050565b600060208284031215611e9557600080fd5b6117f382611c97565b600080600060608486031215611eb357600080fd5b611ebc84611c97565b9250611eca60208501611c97565b9150604084013590509250925092565b60008060408385031215611eed57600080fd5b50508035926020909101359150565b60008060008060808587031215611f1257600080fd5b611f1b85611c97565b93506020850135925060408501356001600160401b0380821115611f3e57600080fd5b611f4a88838901611cc9565b93506060870135915080821115611f6057600080fd5b50611f6d87828801611cc9565b91505092959194509250565b600060208284031215611f8b57600080fd5b81356001600160401b03811115611fa157600080fd5b6108a584828501611cc9565b600080600060608486031215611fc257600080fd5b83359250611eca60208501611c97565b60008060408385031215611fe557600080fd5b611fee83611c97565b91506020830135801515811461200357600080fd5b809150509250929050565b6000806020838503121561202157600080fd5b82356001600160401b038082111561203857600080fd5b818501915085601f83011261204c57600080fd5b81358181111561205b57600080fd5b8660208260051b850101111561207057600080fd5b60209290920196919550909350505050565b6000602080830181845280855180835260408601915060408160051b870101925083870160005b828110156120d757603f198886030184526120c5858351611e01565b945092850192908501906001016120a9565b5092979650505050505050565b600080600080608085870312156120fa57600080fd5b61210385611c97565b935061211160208601611c97565b92506040850135915060608501356001600160401b0381111561213357600080fd5b611f6d87828801611cc9565b6000806040838503121561215257600080fd5b61215b83611c97565b915061216960208401611c97565b90509250929050565b600181811c9082168061218657607f821691505b6020821081036121a657634e487b7160e01b600052602260045260246000fd5b50919050565b601f82111561071d57600081815260208120601f850160051c810160208610156121d35750805b601f850160051c820191505b818110156121f2578281556001016121df565b505050505050565b81516001600160401b0381111561221357612213611cb3565b612227816122218454612172565b846121ac565b602080601f83116001811461225c57600084156122445750858301515b600019600386901b1c1916600185901b1785556121f2565b600085815260208120601f198616915b8281101561228b5788860151825594840194600190910190840161226c565b50858210156122a95787850151600019600388901b60f8161c191681555b5050505050600190811b01905550565b6020808252600e908201526d139bdd08185d5d1a1bdc9a5e995960921b604082015260600190565b634e487b7160e01b600052603260045260246000fd5b634e487b7160e01b600052601160045260246000fd5b6000816000190483118215151615612327576123276122f7565b500290565b634e487b7160e01b600052601260045260246000fd5b6000826123515761235161232c565b500490565b6000808335601e1984360301811261236d57600080fd5b8301803591506001600160401b0382111561238757600080fd5b60200191503681900382131561239c57600080fd5b9250929050565b6000600182016123b5576123b56122f7565b5060010190565b600083516123ce818460208801611dd5565b8351908301906123e2818360208801611dd5565b01949350505050565b600082198211156123fe576123fe6122f7565b500190565b6040815260006124166040830185611e01565b82810360208401526124288185611e01565b95945050505050565b6001600160a01b0385811682528416602082015260408101839052608060608201819052600090611c5490830184611e01565b60006020828403121561247657600080fd5b81516117f381611da2565b600082821015612493576124936122f7565b500390565b6000826124a7576124a761232c565b500690565b600082516124be818460208701611dd5565b919091019291505056fe416464726573733a206c6f772d6c6576656c2064656c65676174652063616c6c206661696c6564ddf252ad1be2c89b69c2b068fc378daa952ba7f163c4a11628f55a4df523b3efa2646970667358221220468f5b52df646037a87f50c138f0e1f832c44acac36688fbad2646acf15f9d3964736f6c634300080f0033",
    "linkReferences": {}
  },
  "methodIdentifiers": {
    "approve(address,uint256)": "095ea7b3",
    "balanceOf(address)": "70a08231",
    "batchMintTo(address,uint256,string,bytes)": "754a81d9",
    "burn(uint256)": "42966c68",
    "contractURI()": "e8a3d485",
    "getApproved(uint256)": "081812fc",
    "getBaseURICount()": "63b45e2d",
    "getBatchIdAtIndex(uint256)": "2419f51b",
    "getDefaultRoyaltyInfo()": "b24f2d39",
    "getRoyaltyInfoForToken(uint256)": "4cc157df",
    "isApprovedForAll(address,address)": "e985e9c5",
    "isApprovedOrOwner(address,uint256)": "430c2081",
    "mintTo(address,string)": "0075a317",
    "multicall(bytes[])": "ac9650d8",
    "name()": "06fdde03",
    "nextTokenIdToMint()": "3b1475a7",
    "owner()": "8da5cb5b",
    "ownerOf(uint256)": "6352211e",
    "royaltyInfo(uint256,uint256)": "2a55205a",
    "safeTransferFrom(address,address,uint256)": "42842e0e",
    "safeTransferFrom(address,address,uint256,bytes)": "b88d4fde",
    "setApprovalForAll(address,bool)": "a22cb465",
    "setContractURI(string)": "938e3d7b",
    "setDefaultRoyaltyInfo(address,uint256)": "600dd5ea",
    "setOwner(address)": "13af4035",
    "setRoyaltyInfoForToken(uint256,address,uint256)": "9bcf7a15",
    "supportsInterface(bytes4)": "01ffc9a7",
    "symbol()": "95d89b41",
    "tokenURI(uint256)": "c87b56dd",
    "totalSupply()": "18160ddd",
    "transferFrom(address,address,uint256)": "23b872dd"
  },
  "id": 14
}