{
  "abi": [
    {
      "inputs": [
        {
          "internalType": "string",
          "name": "name_",
          "type": "string"
        },
        {
          "internalType": "string",
          "name": "symbol_",
          "type": "string"
        },
        {
          "internalType": "uint8",
          "name": "decimals_",
          "type": "uint8"
        },
        {
          "internalType": "address",
          "name": "childChainManager",
          "type": "address"
        }
      ],
      "stateMutability": "nonpayable",
      "type": "constructor"
    },
    {
      "anonymous": false,
      "inputs": [
        {
          "indexed": true,
          "internalType": "address",
          "name": "owner",
          "type": "address"
        },
        {
          "indexed": true,
          "internalType": "address",
          "name": "spender",
          "type": "address"
        },
        {
          "indexed": false,
          "internalType": "uint256",
          "name": "value",
          "type": "uint256"
        }
      ],
      "name": "Approval",
      "type": "event"
    },
    {
      "anonymous": false,
      "inputs": [
        {
          "indexed": false,
          "internalType": "address",
          "name": "userAddress",
          "type": "address"
        },
        {
          "indexed": false,
          "internalType": "address payable",
          "name": "relayerAddress",
          "type": "address"
        },
        {
          "indexed": false,
          "internalType": "bytes",
          "name": "functionSignature",
          "type": "bytes"
        }
      ],
      "name": "MetaTransactionExecuted",
      "type": "event"
    },
    {
      "anonymous": false,
      "inputs": [
        {
          "indexed": true,
          "internalType": "bytes32",
          "name": "role",
          "type": "bytes32"
        },
        {
          "indexed": true,
          "internalType": "bytes32",
          "name": "previousAdminRole",
          "type": "bytes32"
        },
        {
          "indexed": true,
          "internalType": "bytes32",
          "name": "newAdminRole",
          "type": "bytes32"
        }
      ],
      "name": "RoleAdminChanged",
      "type": "event"
    },
    {
      "anonymous": false,
      "inputs": [
        {
          "indexed": true,
          "internalType": "bytes32",
          "name": "role",
          "type": "bytes32"
        },
        {
          "indexed": true,
          "internalType": "address",
          "name": "account",
          "type": "address"
        },
        {
          "indexed": true,
          "internalType": "address",
          "name": "sender",
          "type": "address"
        }
      ],
      "name": "RoleGranted",
      "type": "event"
    },
    {
      "anonymous": false,
      "inputs": [
        {
          "indexed": true,
          "internalType": "bytes32",
          "name": "role",
          "type": "bytes32"
        },
        {
          "indexed": true,
          "internalType": "address",
          "name": "account",
          "type": "address"
        },
        {
          "indexed": true,
          "internalType": "address",
          "name": "sender",
          "type": "address"
        }
      ],
      "name": "RoleRevoked",
      "type": "event"
    },
    {
      "anonymous": false,
      "inputs": [
        {
          "indexed": true,
          "internalType": "address",
          "name": "from",
          "type": "address"
        },
        {
          "indexed": true,
          "internalType": "address",
          "name": "to",
          "type": "address"
        },
        {
          "indexed": false,
          "internalType": "uint256",
          "name": "value",
          "type": "uint256"
        }
      ],
      "name": "Transfer",
      "type": "event"
    },
    {
      "inputs": [],
      "name": "DEFAULT_ADMIN_ROLE",
      "outputs": [
        {
          "internalType": "bytes32",
          "name": "",
          "type": "bytes32"
        }
      ],
      "stateMutability": "view",
      "type": "function"
    },
    {
      "inputs": [],
      "name": "DEPOSITOR_ROLE",
      "outputs": [
        {
          "internalType": "bytes32",
          "name": "",
          "type": "bytes32"
        }
      ],
      "stateMutability": "view",
      "type": "function"
    },
    {
      "inputs": [],
      "name": "ERC712_VERSION",
      "outputs": [
        {
          "internalType": "string",
          "name": "",
          "type": "string"
        }
      ],
      "stateMutability": "view",
      "type": "function"
    },
    {
      "inputs": [
        {
          "internalType": "address",
          "name": "owner",
          "type": "address"
        },
        {
          "internalType": "address",
          "name": "spender",
          "type": "address"
        }
      ],
      "name": "allowance",
      "outputs": [
        {
          "internalType": "uint256",
          "name": "",
          "type": "uint256"
        }
      ],
      "stateMutability": "view",
      "type": "function"
    },
    {
      "inputs": [
        {
          "internalType": "address",
          "name": "spender",
          "type": "address"
        },
        {
          "internalType": "uint256",
          "name": "amount",
          "type": "uint256"
        }
      ],
      "name": "approve",
      "outputs": [
        {
          "internalType": "bool",
          "name": "",
          "type": "bool"
        }
      ],
      "stateMutability": "nonpayable",
      "type": "function"
    },
    {
      "inputs": [
        {
          "internalType": "address",
          "name": "account",
          "type": "address"
        }
      ],
      "name": "balanceOf",
      "outputs": [
        {
          "internalType": "uint256",
          "name": "",
          "type": "uint256"
        }
      ],
      "stateMutability": "view",
      "type": "function"
    },
    {
      "inputs": [],
      "name": "decimals",
      "outputs": [
        {
          "internalType": "uint8",
          "name": "",
          "type": "uint8"
        }
      ],
      "stateMutability": "view",
      "type": "function"
    },
    {
      "inputs": [
        {
          "internalType": "address",
          "name": "spender",
          "type": "address"
        },
        {
          "internalType": "uint256",
          "name": "subtractedValue",
          "type": "uint256"
        }
      ],
      "name": "decreaseAllowance",
      "outputs": [
        {
          "internalType": "bool",
          "name": "",
          "type": "bool"
        }
      ],
      "stateMutability": "nonpayable",
      "type": "function"
    },
    {
      "inputs": [
        {
          "internalType": "address",
          "name": "user",
          "type": "address"
        },
        {
          "internalType": "bytes",
          "name": "depositData",
          "type": "bytes"
        }
      ],
      "name": "deposit",
      "outputs": [],
      "stateMutability": "nonpayable",
      "type": "function"
    },
    {
      "inputs": [
        {
          "internalType": "address",
          "name": "userAddress",
          "type": "address"
        },
        {
          "internalType": "bytes",
          "name": "functionSignature",
          "type": "bytes"
        },
        {
          "internalType": "bytes32",
          "name": "sigR",
          "type": "bytes32"
        },
        {
          "internalType": "bytes32",
          "name": "sigS",
          "type": "bytes32"
        },
        {
          "internalType": "uint8",
          "name": "sigV",
          "type": "uint8"
        }
      ],
      "name": "executeMetaTransaction",
      "outputs": [
        {
          "internalType": "bytes",
          "name": "",
          "type": "bytes"
        }
      ],
      "stateMutability": "payable",
      "type": "function"
    },
    {
      "inputs": [],
      "name": "getChainId",
      "outputs": [
        {
          "internalType": "uint256",
          "name": "",
          "type": "uint256"
        }
      ],
      "stateMutability": "view",
      "type": "function"
    },
    {
      "inputs": [],
      "name": "getDomainSeperator",
      "outputs": [
        {
          "internalType": "bytes32",
          "name": "",
          "type": "bytes32"
        }
      ],
      "stateMutability": "view",
      "type": "function"
    },
    {
      "inputs": [
        {
          "internalType": "address",
          "name": "user",
          "type": "address"
        }
      ],
      "name": "getNonce",
      "outputs": [
        {
          "internalType": "uint256",
          "name": "nonce",
          "type": "uint256"
        }
      ],
      "stateMutability": "view",
      "type": "function"
    },
    {
      "inputs": [
        {
          "internalType": "bytes32",
          "name": "role",
          "type": "bytes32"
        }
      ],
      "name": "getRoleAdmin",
      "outputs": [
        {
          "internalType": "bytes32",
          "name": "",
          "type": "bytes32"
        }
      ],
      "stateMutability": "view",
      "type": "function"
    },
    {
      "inputs": [
        {
          "internalType": "bytes32",
          "name": "role",
          "type": "bytes32"
        },
        {
          "internalType": "uint256",
          "name": "index",
          "type": "uint256"
        }
      ],
      "name": "getRoleMember",
      "outputs": [
        {
          "internalType": "address",
          "name": "",
          "type": "address"
        }
      ],
      "stateMutability": "view",
      "type": "function"
    },
    {
      "inputs": [
        {
          "internalType": "bytes32",
          "name": "role",
          "type": "bytes32"
        }
      ],
      "name": "getRoleMemberCount",
      "outputs": [
        {
          "internalType": "uint256",
          "name": "",
          "type": "uint256"
        }
      ],
      "stateMutability": "view",
      "type": "function"
    },
    {
      "inputs": [
        {
          "internalType": "bytes32",
          "name": "role",
          "type": "bytes32"
        },
        {
          "internalType": "address",
          "name": "account",
          "type": "address"
        }
      ],
      "name": "grantRole",
      "outputs": [],
      "stateMutability": "nonpayable",
      "type": "function"
    },
    {
      "inputs": [
        {
          "internalType": "bytes32",
          "name": "role",
          "type": "bytes32"
        },
        {
          "internalType": "address",
          "name": "account",
          "type": "address"
        }
      ],
      "name": "hasRole",
      "outputs": [
        {
          "internalType": "bool",
          "name": "",
          "type": "bool"
        }
      ],
      "stateMutability": "view",
      "type": "function"
    },
    {
      "inputs": [
        {
          "internalType": "address",
          "name": "spender",
          "type": "address"
        },
        {
          "internalType": "uint256",
          "name": "addedValue",
          "type": "uint256"
        }
      ],
      "name": "increaseAllowance",
      "outputs": [
        {
          "internalType": "bool",
          "name": "",
          "type": "bool"
        }
      ],
      "stateMutability": "nonpayable",
      "type": "function"
    },
    {
      "inputs": [],
      "name": "name",
      "outputs": [
        {
          "internalType": "string",
          "name": "",
          "type": "string"
        }
      ],
      "stateMutability": "view",
      "type": "function"
    },
    {
      "inputs": [
        {
          "internalType": "bytes32",
          "name": "role",
          "type": "bytes32"
        },
        {
          "internalType": "address",
          "name": "account",
          "type": "address"
        }
      ],
      "name": "renounceRole",
      "outputs": [],
      "stateMutability": "nonpayable",
      "type": "function"
    },
    {
      "inputs": [
        {
          "internalType": "bytes32",
          "name": "role",
          "type": "bytes32"
        },
        {
          "internalType": "address",
          "name": "account",
          "type": "address"
        }
      ],
      "name": "revokeRole",
      "outputs": [],
      "stateMutability": "nonpayable",
      "type": "function"
    },
    {
      "inputs": [],
      "name": "symbol",
      "outputs": [
        {
          "internalType": "string",
          "name": "",
          "type": "string"
        }
      ],
      "stateMutability": "view",
      "type": "function"
    },
    {
      "inputs": [],
      "name": "totalSupply",
      "outputs": [
        {
          "internalType": "uint256",
          "name": "",
          "type": "uint256"
        }
      ],
      "stateMutability": "view",
      "type": "function"
    },
    {
      "inputs": [
        {
          "internalType": "address",
          "name": "recipient",
          "type": "address"
        },
        {
          "internalType": "uint256",
          "name": "amount",
          "type": "uint256"
        }
      ],
      "name": "transfer",
      "outputs": [
        {
          "internalType": "bool",
          "name": "",
          "type": "bool"
        }
      ],
      "stateMutability": "nonpayable",
      "type": "function"
    },
    {
      "inputs": [
        {
          "internalType": "address",
          "name": "sender",
          "type": "address"
        },
        {
          "internalType": "address",
          "name": "recipient",
          "type": "address"
        },
        {
          "internalType": "uint256",
          "name": "amount",
          "type": "uint256"
        }
      ],
      "name": "transferFrom",
      "outputs": [
        {
          "internalType": "bool",
          "name": "",
          "type": "bool"
        }
      ],
      "stateMutability": "nonpayable",
      "type": "function"
    },
    {
      "inputs": [
        {
          "internalType": "uint256",
          "name": "amount",
          "type": "uint256"
        }
      ],
      "name": "withdraw",
      "outputs": [],
      "stateMutability": "nonpayable",
      "type": "function"
    }
  ],
  "bytecode": {
    "object": "0x60806040526008805460ff191690553480156200001b57600080fd5b506040516200229b3803806200229b8339810160408190526200003e9162000545565b83518490849062000057906003906020850190620003c5565b5080516200006d906004906020840190620003c5565b50506005805460ff191660121790555060408051808201909152600a81526904368696c6445524332360b41b6020820152620000a9906200010f565b6005805460ff191660ff8416179055620000ce6000620000c86200014c565b62000168565b620000fa7f8f4f2da22e8ac8f11e15f9fc141cddbb5deea8800186560abb6e68c5496619a98262000168565b620001058462000174565b5050505062000668565b80604051602001620001229190620005e9565b6040516020818303038152906040526007908051906020019062000148929190620003c5565b5050565b600062000163620001d860201b62000bec1760201c565b905090565b62000148828262000236565b60085460ff1615620001bd5760405162461bcd60e51b815260206004820152600e60248201526d185b1c9958591e481a5b9a5d195960921b604482015260640160405180910390fd5b620001c881620002b1565b506008805460ff19166001179055565b60003033036200023057600080368080601f0160208091040260200160405190810160405280939291908181526020018383808284376000920191909152505050503601516001600160a01b03169150620002339050565b50335b90565b60008281526006602090815260409091206200025d91839062000c4862000353821b17901c565b1562000148576200026d6200014c565b6001600160a01b0316816001600160a01b0316837f2f8788117e7eff1d82e926ec794901d17c78024a50270940304540a733656f0d60405160405180910390a45050565b6040518060800160405280604f81526020016200224c604f9139805160209182012082519282019290922060408051808201825260018152603160f81b90840152805180840194909452838101919091527fc89efdaa54c0f20c7adf612882df0950f5a951637e0307cdcb4c672f298b8bc660608401523060808401524660a0808501919091528151808503909101815260c090930190528151910120600955565b60006200036a836001600160a01b03841662000373565b90505b92915050565b6000818152600183016020526040812054620003bc575081546001818101845560008481526020808220909301849055845484825282860190935260409020919091556200036d565b5060006200036d565b828054620003d3906200062c565b90600052602060002090601f016020900481019282620003f7576000855562000442565b82601f106200041257805160ff191683800117855562000442565b8280016001018555821562000442579182015b828111156200044257825182559160200191906001019062000425565b506200045092915062000454565b5090565b5b8082111562000450576000815560010162000455565b634e487b7160e01b600052604160045260246000fd5b60005b838110156200049e57818101518382015260200162000484565b83811115620004ae576000848401525b50505050565b600082601f830112620004c657600080fd5b81516001600160401b0380821115620004e357620004e36200046b565b604051601f8301601f19908116603f011681019082821181831017156200050e576200050e6200046b565b816040528381528660208588010111156200052857600080fd5b6200053b84602083016020890162000481565b9695505050505050565b600080600080608085870312156200055c57600080fd5b84516001600160401b03808211156200057457600080fd5b6200058288838901620004b4565b955060208701519150808211156200059957600080fd5b50620005a887828801620004b4565b935050604085015160ff81168114620005c057600080fd5b60608601519092506001600160a01b0381168114620005de57600080fd5b939692955090935050565b60008251620005fd81846020870162000481565b7f3a20494e53554646494349454e545f5045524d495353494f4e53000000000000920191825250601a01919050565b600181811c908216806200064157607f821691505b6020821081036200066257634e487b7160e01b600052602260045260246000fd5b50919050565b611bd480620006786000396000f3fe60806040526004361061019c5760003560e01c806336568abe116100ec578063a3b0b5a31161008a578063ca15c87311610064578063ca15c873146104d9578063cf2c52cb146104f9578063d547741f14610519578063dd62ed3e1461053957600080fd5b8063a3b0b5a314610465578063a457c2d714610499578063a9059cbb146104b957600080fd5b80639010d07c116100c65780639010d07c146103e357806391d148541461041b57806395d89b411461043b578063a217fddf1461045057600080fd5b806336568abe1461036d578063395093511461038d57806370a08231146103ad57600080fd5b806323b872dd116101595780632e1a7d4d116101335780632e1a7d4d146102f65780632f2ff15d14610318578063313ce567146103385780633408e4701461035a57600080fd5b806323b872dd14610270578063248a9ca3146102905780632d0335ab146102c057600080fd5b806306fdde03146101a1578063095ea7b3146101cc5780630c53c51c146101fc5780630f7e59701461020f57806318160ddd1461023c57806320379ee51461025b575b600080fd5b3480156101ad57600080fd5b506101b661057f565b6040516101c3919061161b565b60405180910390f35b3480156101d857600080fd5b506101ec6101e736600461164a565b610611565b60405190151581526020016101c3565b6101b661020a36600461169b565b61062f565b34801561021b57600080fd5b506101b6604051806040016040528060018152602001603160f81b81525081565b34801561024857600080fd5b506002545b6040519081526020016101c3565b34801561026757600080fd5b5060095461024d565b34801561027c57600080fd5b506101ec61028b366004611781565b61081e565b34801561029c57600080fd5b5061024d6102ab3660046117bd565b60009081526006602052604090206002015490565b3480156102cc57600080fd5b5061024d6102db3660046117d6565b6001600160a01b03166000908152600a602052604090205490565b34801561030257600080fd5b506103166103113660046117bd565b6108a5565b005b34801561032457600080fd5b506103166103333660046117f1565b6108b9565b34801561034457600080fd5b5060055460405160ff90911681526020016101c3565b34801561036657600080fd5b504661024d565b34801561037957600080fd5b506103166103883660046117f1565b610949565b34801561039957600080fd5b506101ec6103a836600461164a565b6109d3565b3480156103b957600080fd5b5061024d6103c83660046117d6565b6001600160a01b031660009081526020819052604090205490565b3480156103ef57600080fd5b506104036103fe36600461181d565b610a21565b6040516001600160a01b0390911681526020016101c3565b34801561042757600080fd5b506101ec6104363660046117f1565b610a40565b34801561044757600080fd5b506101b6610a58565b34801561045c57600080fd5b5061024d600081565b34801561047157600080fd5b5061024d7f8f4f2da22e8ac8f11e15f9fc141cddbb5deea8800186560abb6e68c5496619a981565b3480156104a557600080fd5b506101ec6104b436600461164a565b610a67565b3480156104c557600080fd5b506101ec6104d436600461164a565b610acf565b3480156104e557600080fd5b5061024d6104f43660046117bd565b610ae3565b34801561050557600080fd5b5061031661051436600461183f565b610afa565b34801561052557600080fd5b506103166105343660046117f1565b610b69565b34801561054557600080fd5b5061024d6105543660046118c2565b6001600160a01b03918216600090815260016020908152604080832093909416825291909152205490565b60606003805461058e906118ec565b80601f01602080910402602001604051908101604052809291908181526020018280546105ba906118ec565b80156106075780601f106105dc57610100808354040283529160200191610607565b820191906000526020600020905b8154815290600101906020018083116105ea57829003601f168201915b5050505050905090565b600061062561061e610c5d565b8484610c6c565b5060015b92915050565b60408051606081810183526001600160a01b0388166000818152600a60209081529085902054845283015291810186905261066d8782878787610d91565b6106c85760405162461bcd60e51b815260206004820152602160248201527f5369676e657220616e64207369676e617475726520646f206e6f74206d6174636044820152600d60fb1b60648201526084015b60405180910390fd5b6001600160a01b0387166000908152600a60205260409020546106ec906001610e81565b6001600160a01b0388166000908152600a60205260409081902091909155517f5845892132946850460bff5a0083f71031bc5bf9aadcd40f1de79423eac9b10b9061073c90899033908a90611926565b60405180910390a1600080306001600160a01b0316888a60405160200161076492919061195b565b60408051601f198184030181529082905261077e91611992565b6000604051808303816000865af19150503d80600081146107bb576040519150601f19603f3d011682016040523d82523d6000602084013e6107c0565b606091505b5091509150816108125760405162461bcd60e51b815260206004820152601c60248201527f46756e6374696f6e2063616c6c206e6f74207375636365737366756c0000000060448201526064016106bf565b98975050505050505050565b600061082b848484610e8d565b61089b84610837610c5d565b61089685604051806060016040528060288152602001611b52602891396001600160a01b038a16600090815260016020526040812090610875610c5d565b6001600160a01b031681526020810191909152604001600020549190611010565b610c6c565b5060019392505050565b6108b66108b0610c5d565b8261103c565b50565b6000828152600660205260409020600201546108d790610436610c5d565b61093b5760405162461bcd60e51b815260206004820152602f60248201527f416363657373436f6e74726f6c3a2073656e646572206d75737420626520616e60448201526e0818591b5a5b881d1bc819dc985b9d608a1b60648201526084016106bf565b6109458282611148565b5050565b610951610c5d565b6001600160a01b0316816001600160a01b0316146109c95760405162461bcd60e51b815260206004820152602f60248201527f416363657373436f6e74726f6c3a2063616e206f6e6c792072656e6f756e636560448201526e103937b632b9903337b91039b2b63360891b60648201526084016106bf565b61094582826111b1565b60006106256109e0610c5d565b8461089685600160006109f1610c5d565b6001600160a01b03908116825260208083019390935260409182016000908120918c168152925290205490610e81565b6000828152600660205260408120610a39908361121a565b9392505050565b6000828152600660205260408120610a399083611226565b60606004805461058e906118ec565b6000610625610a74610c5d565b8461089685604051806060016040528060258152602001611b7a6025913960016000610a9e610c5d565b6001600160a01b03908116825260208083019390935260409182016000908120918d16815292529020549190611010565b6000610625610adc610c5d565b8484610e8d565b600081815260066020526040812061062990611248565b7f8f4f2da22e8ac8f11e15f9fc141cddbb5deea8800186560abb6e68c5496619a9610b2781610436610c5d565b600790610b475760405162461bcd60e51b81526004016106bf91906119ae565b506000610b56838501856117bd565b9050610b628582611252565b5050505050565b600082815260066020526040902060020154610b8790610436610c5d565b6109c95760405162461bcd60e51b815260206004820152603060248201527f416363657373436f6e74726f6c3a2073656e646572206d75737420626520616e60448201526f2061646d696e20746f207265766f6b6560801b60648201526084016106bf565b6000303303610c4257600080368080601f0160208091040260200160405190810160405280939291908181526020018383808284376000920191909152505050503601516001600160a01b03169150610c459050565b50335b90565b6000610a39836001600160a01b038416611329565b6000610c67610bec565b905090565b6001600160a01b038316610cce5760405162461bcd60e51b8152602060048201526024808201527f45524332303a20617070726f76652066726f6d20746865207a65726f206164646044820152637265737360e01b60648201526084016106bf565b6001600160a01b038216610d2f5760405162461bcd60e51b815260206004820152602260248201527f45524332303a20617070726f766520746f20746865207a65726f206164647265604482015261737360f01b60648201526084016106bf565b6001600160a01b0383811660008181526001602090815260408083209487168084529482529182902085905590518481527f8c5be1e5ebec7d5bd14f71427d1e84f3dd0314c0f7b2291e5b200ac8c7c3b92591015b60405180910390a3505050565b60006001600160a01b038616610df75760405162461bcd60e51b815260206004820152602560248201527f4e61746976654d6574615472616e73616374696f6e3a20494e56414c49445f5360448201526424a3a722a960d91b60648201526084016106bf565b6001610e0a610e0587611378565b6113f5565b6040805160008152602081018083529290925260ff851690820152606081018690526080810185905260a0016020604051602081039080840390855afa158015610e58573d6000803e3d6000fd5b505050602060405103516001600160a01b0316866001600160a01b031614905095945050505050565b6000610a398284611a6b565b6001600160a01b038316610ef15760405162461bcd60e51b815260206004820152602560248201527f45524332303a207472616e736665722066726f6d20746865207a65726f206164604482015264647265737360d81b60648201526084016106bf565b6001600160a01b038216610f535760405162461bcd60e51b815260206004820152602360248201527f45524332303a207472616e7366657220746f20746865207a65726f206164647260448201526265737360e81b60648201526084016106bf565b610f9081604051806060016040528060268152602001611b2c602691396001600160a01b0386166000908152602081905260409020549190611010565b6001600160a01b038085166000908152602081905260408082209390935590841681522054610fbf9082610e81565b6001600160a01b038381166000818152602081815260409182902094909455518481529092918616917fddf252ad1be2c89b69c2b068fc378daa952ba7f163c4a11628f55a4df523b3ef9101610d84565b600081848411156110345760405162461bcd60e51b81526004016106bf919061161b565b505050900390565b6001600160a01b03821661109c5760405162461bcd60e51b815260206004820152602160248201527f45524332303a206275726e2066726f6d20746865207a65726f206164647265736044820152607360f81b60648201526084016106bf565b6110d981604051806060016040528060228152602001611ac7602291396001600160a01b0385166000908152602081905260409020549190611010565b6001600160a01b0383166000908152602081905260409020556002546110ff9082611425565b6002556040518181526000906001600160a01b038416907fddf252ad1be2c89b69c2b068fc378daa952ba7f163c4a11628f55a4df523b3ef906020015b60405180910390a35050565b60008281526006602052604090206111609082610c48565b156109455761116d610c5d565b6001600160a01b0316816001600160a01b0316837f2f8788117e7eff1d82e926ec794901d17c78024a50270940304540a733656f0d60405160405180910390a45050565b60008281526006602052604090206111c99082611431565b15610945576111d6610c5d565b6001600160a01b0316816001600160a01b0316837ff6391f5c32d9c69d2a47ea670b442974b53935d1edc7fd64eb21e047a839171b60405160405180910390a45050565b6000610a398383611446565b6001600160a01b03811660009081526001830160205260408120541515610a39565b6000610629825490565b6001600160a01b0382166112a85760405162461bcd60e51b815260206004820152601f60248201527f45524332303a206d696e7420746f20746865207a65726f20616464726573730060448201526064016106bf565b6002546112b59082610e81565b6002556001600160a01b0382166000908152602081905260409020546112db9082610e81565b6001600160a01b038316600081815260208181526040808320949094559251848152919290917fddf252ad1be2c89b69c2b068fc378daa952ba7f163c4a11628f55a4df523b3ef910161113c565b600081815260018301602052604081205461137057508154600181810184556000848152602080822090930184905584548482528286019093526040902091909155610629565b506000610629565b6000604051806080016040528060438152602001611ae960439139805160209182012083518483015160408087015180519086012090516113d8950193845260208401929092526001600160a01b03166040830152606082015260800190565b604051602081830303815290604052805190602001209050919050565b600061140060095490565b60405161190160f01b60208201526022810191909152604281018390526062016113d8565b6000610a398284611a83565b6000610a39836001600160a01b0384166114cc565b815460009082106114a45760405162461bcd60e51b815260206004820152602260248201527f456e756d657261626c655365743a20696e646578206f7574206f6620626f756e604482015261647360f01b60648201526084016106bf565b8260000182815481106114b9576114b9611a9a565b9060005260206000200154905092915050565b600081815260018301602052604081205480156115b55760006114f0600183611a83565b855490915060009061150490600190611a83565b9050600086600001828154811061151d5761151d611a9a565b906000526020600020015490508087600001848154811061154057611540611a9a565b600091825260209091200155611557836001611a6b565b6000828152600189016020526040902055865487908061157957611579611ab0565b60019003818190600052602060002001600090559055866001016000878152602001908152602001600020600090556001945050505050610629565b6000915050610629565b60005b838110156115da5781810151838201526020016115c2565b838111156115e9576000848401525b50505050565b600081518084526116078160208601602086016115bf565b601f01601f19169290920160200192915050565b602081526000610a3960208301846115ef565b80356001600160a01b038116811461164557600080fd5b919050565b6000806040838503121561165d57600080fd5b6116668361162e565b946020939093013593505050565b634e487b7160e01b600052604160045260246000fd5b803560ff8116811461164557600080fd5b600080600080600060a086880312156116b357600080fd5b6116bc8661162e565b9450602086013567ffffffffffffffff808211156116d957600080fd5b818801915088601f8301126116ed57600080fd5b8135818111156116ff576116ff611674565b604051601f8201601f19908116603f0116810190838211818310171561172757611727611674565b816040528281528b602084870101111561174057600080fd5b82602086016020830137600060208483010152809850505050505060408601359250606086013591506117756080870161168a565b90509295509295909350565b60008060006060848603121561179657600080fd5b61179f8461162e565b92506117ad6020850161162e565b9150604084013590509250925092565b6000602082840312156117cf57600080fd5b5035919050565b6000602082840312156117e857600080fd5b610a398261162e565b6000806040838503121561180457600080fd5b823591506118146020840161162e565b90509250929050565b6000806040838503121561183057600080fd5b50508035926020909101359150565b60008060006040848603121561185457600080fd5b61185d8461162e565b9250602084013567ffffffffffffffff8082111561187a57600080fd5b818601915086601f83011261188e57600080fd5b81358181111561189d57600080fd5b8760208285010111156118af57600080fd5b6020830194508093505050509250925092565b600080604083850312156118d557600080fd5b6118de8361162e565b91506118146020840161162e565b600181811c9082168061190057607f821691505b60208210810361192057634e487b7160e01b600052602260045260246000fd5b50919050565b6001600160a01b03848116825283166020820152606060408201819052600090611952908301846115ef565b95945050505050565b6000835161196d8184602088016115bf565b60609390931b6bffffffffffffffffffffffff19169190920190815260140192915050565b600082516119a48184602087016115bf565b9190910192915050565b600060208083526000845481600182811c9150808316806119d057607f831692505b85831081036119ed57634e487b7160e01b85526022600452602485fd5b878601838152602001818015611a0a5760018114611a1b57611a46565b60ff19861682528782019650611a46565b60008b81526020902060005b86811015611a4057815484820152908501908901611a27565b83019750505b50949998505050505050505050565b634e487b7160e01b600052601160045260246000fd5b60008219821115611a7e57611a7e611a55565b500190565b600082821015611a9557611a95611a55565b500390565b634e487b7160e01b600052603260045260246000fd5b634e487b7160e01b600052603160045260246000fdfe45524332303a206275726e20616d6f756e7420657863656564732062616c616e63654d6574615472616e73616374696f6e2875696e74323536206e6f6e63652c616464726573732066726f6d2c62797465732066756e6374696f6e5369676e61747572652945524332303a207472616e7366657220616d6f756e7420657863656564732062616c616e636545524332303a207472616e7366657220616d6f756e74206578636565647320616c6c6f77616e636545524332303a2064656372656173656420616c6c6f77616e63652062656c6f77207a65726fa2646970667358221220d6a3bb54bbbf73c9e83ff9752eda49682437fac5d021b212324867b86ca29ec964736f6c634300080d0033454950373132446f6d61696e28737472696e67206e616d652c737472696e672076657273696f6e2c6164647265737320766572696679696e67436f6e74726163742c627974657333322073616c7429",
    "linkReferences": {}
  },
  "methodIdentifiers": {
    "DEFAULT_ADMIN_ROLE()": "a217fddf",
    "DEPOSITOR_ROLE()": "a3b0b5a3",
    "ERC712_VERSION()": "0f7e5970",
    "allowance(address,address)": "dd62ed3e",
    "approve(address,uint256)": "095ea7b3",
    "balanceOf(address)": "70a08231",
    "decimals()": "313ce567",
    "decreaseAllowance(address,uint256)": "a457c2d7",
    "deposit(address,bytes)": "cf2c52cb",
    "executeMetaTransaction(address,bytes,bytes32,bytes32,uint8)": "0c53c51c",
    "getChainId()": "3408e470",
    "getDomainSeperator()": "20379ee5",
    "getNonce(address)": "2d0335ab",
    "getRoleAdmin(bytes32)": "248a9ca3",
    "getRoleMember(bytes32,uint256)": "9010d07c",
    "getRoleMemberCount(bytes32)": "ca15c873",
    "grantRole(bytes32,address)": "2f2ff15d",
    "hasRole(bytes32,address)": "91d14854",
    "increaseAllowance(address,uint256)": "39509351",
    "name()": "06fdde03",
    "renounceRole(bytes32,address)": "36568abe",
    "revokeRole(bytes32,address)": "d547741f",
    "symbol()": "95d89b41",
    "totalSupply()": "18160ddd",
    "transfer(address,uint256)": "a9059cbb",
    "transferFrom(address,address,uint256)": "23b872dd",
    "withdraw(uint256)": "2e1a7d4d"
  },
  "id": 3
}