{
  "abi": [
    {
      "inputs": [],
      "name": "beacon",
      "outputs": [
        {
          "internalType": "contract UpgradeableBeacon",
          "name": "",
          "type": "address"
        }
      ],
      "stateMutability": "view",
      "type": "function"
    },
    {
      "inputs": [],
      "name": "beaconAddress",
      "outputs": [
        {
          "internalType": "address",
          "name": "",
          "type": "address"
        }
      ],
      "stateMutability": "view",
      "type": "function"
    },
    {
      "inputs": [],
      "name": "beaconProxy",
      "outputs": [
        {
          "internalType": "contract UpgradeableBeaconProxy",
          "name": "",
          "type": "address"
        }
      ],
      "stateMutability": "view",
      "type": "function"
    },
    {
      "inputs": [
        {
          "internalType": "address",
          "name": "implementation",
          "type": "address"
        },
        {
          "internalType": "address",
          "name": "admin",
          "type": "address"
        },
        {
          "internalType": "bytes",
          "name": "data",
          "type": "bytes"
        }
      ],
      "name": "deploy",
      "outputs": [
        {
          "internalType": "address",
          "name": "",
          "type": "address"
        }
      ],
      "stateMutability": "nonpayable",
      "type": "function"
    },
    {
      "inputs": [
        {
          "internalType": "address",
          "name": "implementation",
          "type": "address"
        }
      ],
      "name": "deploy",
      "outputs": [
        {
          "internalType": "address",
          "name": "",
          "type": "address"
        }
      ],
      "stateMutability": "nonpayable",
      "type": "function"
    },
    {
      "inputs": [
        {
          "internalType": "address",
          "name": "implementation",
          "type": "address"
        },
        {
          "internalType": "address",
          "name": "admin",
          "type": "address"
        }
      ],
      "name": "deploy",
      "outputs": [
        {
          "internalType": "address",
          "name": "",
          "type": "address"
        }
      ],
      "stateMutability": "nonpayable",
      "type": "function"
    },
    {
      "inputs": [
        {
          "internalType": "address",
          "name": "implementation",
          "type": "address"
        },
        {
          "internalType": "bytes",
          "name": "data",
          "type": "bytes"
        }
      ],
      "name": "deploy",
      "outputs": [
        {
          "internalType": "address",
          "name": "",
          "type": "address"
        }
      ],
      "stateMutability": "nonpayable",
      "type": "function"
    },
    {
      "inputs": [
        {
          "internalType": "address",
          "name": "impl",
          "type": "address"
        }
      ],
      "name": "deployBeacon",
      "outputs": [
        {
          "internalType": "address",
          "name": "",
          "type": "address"
        }
      ],
      "stateMutability": "nonpayable",
      "type": "function"
    },
    {
      "inputs": [
        {
          "internalType": "address",
          "name": "_beacon",
          "type": "address"
        },
        {
          "internalType": "bytes",
          "name": "data",
          "type": "bytes"
        }
      ],
      "name": "deployBeaconProxy",
      "outputs": [
        {
          "internalType": "address",
          "name": "",
          "type": "address"
        }
      ],
      "stateMutability": "nonpayable",
      "type": "function"
    },
    {
      "inputs": [
        {
          "internalType": "address",
          "name": "implementation",
          "type": "address"
        },
        {
          "internalType": "bytes",
          "name": "data",
          "type": "bytes"
        }
      ],
      "name": "deployErc1967Proxy",
      "outputs": [
        {
          "internalType": "address",
          "name": "",
          "type": "address"
        }
      ],
      "stateMutability": "nonpayable",
      "type": "function"
    },
    {
      "inputs": [
        {
          "internalType": "address",
          "name": "implementation",
          "type": "address"
        },
        {
          "internalType": "address",
          "name": "admin",
          "type": "address"
        },
        {
          "internalType": "bytes",
          "name": "data",
          "type": "bytes"
        }
      ],
      "name": "deployUupsProxy",
      "outputs": [
        {
          "internalType": "address",
          "name": "",
          "type": "address"
        }
      ],
      "stateMutability": "nonpayable",
      "type": "function"
    },
    {
      "inputs": [],
      "name": "erc1967",
      "outputs": [
        {
          "internalType": "contract ERC1967Proxy",
          "name": "",
          "type": "address"
        }
      ],
      "stateMutability": "view",
      "type": "function"
    },
    {
      "inputs": [],
      "name": "proxyAddress",
      "outputs": [
        {
          "internalType": "address",
          "name": "",
          "type": "address"
        }
      ],
      "stateMutability": "view",
      "type": "function"
    },
    {
      "inputs": [],
      "name": "proxyType",
      "outputs": [
        {
          "internalType": "enum DeployProxy.ProxyType",
          "name": "",
          "type": "uint8"
        }
      ],
      "stateMutability": "view",
      "type": "function"
    },
    {
      "inputs": [],
      "name": "uups",
      "outputs": [
        {
          "internalType": "contract TransparentUpgradeableProxy",
          "name": "",
          "type": "address"
        }
      ],
      "stateMutability": "view",
      "type": "function"
    }
  ],
  "bytecode": {
    "object": "0x608060405234801561001057600080fd5b50613510806100206000396000f3fe60806040523480156200001157600080fd5b5060043610620001095760003560e01c80634c96a38911620000a3578063a887a3cd116200006e578063a887a3cd1462000227578063d26643c2146200023b578063e97fac051462000252578063eb272157146200026957600080fd5b80634c96a38914620001d1578063545e7c6114620001e857806359659e9014620001ff5780637e2ec6d0146200021357600080fd5b806327be631211620000e457806327be6312146200016f5780632db5b86f14620001865780634548bcb0146200019d5780634555d5c914620001b457600080fd5b80630fbab1fd146200010e5780631f6c36f9146200014257806323f5c02d1462000156575b600080fd5b620001256200011f36600462000acd565b6200027d565b6040516001600160a01b0390911681526020015b60405180910390f35b60025462000125906001600160a01b031681565b600054620001259061010090046001600160a01b031681565b620001256200018036600462000b21565b620003a0565b620001256200019736600462000b3f565b620004af565b62000125620001ae36600462000acd565b6200056f565b600054620001c29060ff1681565b60405162000139919062000bbb565b62000125620001e236600462000b21565b62000648565b62000125620001f936600462000be4565b62000723565b60045462000125906001600160a01b031681565b60015462000125906001600160a01b031681565b60035462000125906001600160a01b031681565b620001256200024c36600462000b3f565b620007d6565b620001256200026336600462000acd565b620008f6565b60055462000125906001600160a01b031681565b600082826040516200028f90620009d2565b6200029c92919062000c6c565b604051809103906000f080158015620002b9573d6000803e3d6000fd5b50600280546001600160a01b0319166001600160a01b0392831690811790915560008054610100600160a81b0319166101009283021790819055604080516318caf8e360e31b81529290910490921660048201526024810191909152600d60448201526c455243313936372050726f787960981b6064820152737109709ecfa91a80626ff3989d68f67f5b1dd12d9063c657c718906084015b600060405180830381600087803b1580156200036d57600080fd5b505af115801562000382573d6000803e3d6000fd5b505060005461010090046001600160a01b0316925050505b92915050565b600081604051620003b190620009e0565b6001600160a01b039091168152602001604051809103906000f080158015620003de573d6000803e3d6000fd5b50600480546001600160a01b03199081166001600160a01b039390931692831782556001805490911683179055604080516318caf8e360e31b815291820192909252602481019190915260126044820152712ab833b930b232b0b13632902132b0b1b7b760711b6064820152737109709ecfa91a80626ff3989d68f67f5b1dd12d9063c657c71890608401600060405180830381600087803b1580156200048457600080fd5b505af115801562000499573d6000803e3d6000fd5b50506001546001600160a01b0316949350505050565b6000600360005460ff166003811115620004cd57620004cd62000ba5565b03620004f65760405162461bcd60e51b8152600401620004ed9062000c9a565b60405180910390fd5b6000805460ff16600381111562000511576200051162000ba5565b036200052c5762000524848484620007d6565b905062000568565b600260005460ff16600381111562000548576200054862000ba5565b03620005685760405162461bcd60e51b8152600401620004ed9062000c9a565b9392505050565b600082826040516200058190620009ee565b6200058e92919062000c6c565b604051809103906000f080158015620005ab573d6000803e3d6000fd5b50600580546001600160a01b0319166001600160a01b0392831690811790915560008054610100600160a81b0319166101009283021790819055604080516318caf8e360e31b81529290910490921660048201526024810191909152600c60448201526b426561636f6e2050726f787960a01b6064820152737109709ecfa91a80626ff3989d68f67f5b1dd12d9063c657c7189060840162000352565b6000600360005460ff16600381111562000666576200066662000ba5565b03620006865760405162461bcd60e51b8152600401620004ed9062000ceb565b6000805460ff166003811115620006a157620006a162000ba5565b03620006c15760405162461bcd60e51b8152600401620004ed9062000d35565b600160005460ff166003811115620006dd57620006dd62000ba5565b03620006f15760606200056883826200056f565b600260005460ff1660038111156200070d576200070d62000ba5565b036200071e576200039a82620003a0565b919050565b6000600360005460ff16600381111562000741576200074162000ba5565b03620007615760405162461bcd60e51b8152600401620004ed9062000c9a565b6000805460ff1660038111156200077c576200077c62000ba5565b036200079a57606062000791848483620007d6565b9150506200039a565b600260005460ff166003811115620007b657620007b662000ba5565b036200039a5760405162461bcd60e51b8152600401620004ed9062000c9a565b6000838383604051620007e990620009fc565b620007f79392919062000d7a565b604051809103906000f08015801562000814573d6000803e3d6000fd5b50600380546001600160a01b0319166001600160a01b0392831690811790915560008054610100600160a81b0319166101009283021790819055604080516318caf8e360e31b81529290910490921660048201526024810191909152600a604482015269555550532050726f787960b01b6064820152737109709ecfa91a80626ff3989d68f67f5b1dd12d9063c657c71890608401600060405180830381600087803b158015620008c457600080fd5b505af1158015620008d9573d6000803e3d6000fd5b505060005461010090046001600160a01b03169695505050505050565b6000600360005460ff16600381111562000914576200091462000ba5565b03620009345760405162461bcd60e51b8152600401620004ed9062000ceb565b6000805460ff1660038111156200094f576200094f62000ba5565b036200096f5760405162461bcd60e51b8152600401620004ed9062000d35565b600160005460ff1660038111156200098b576200098b62000ba5565b03620009a5576200099d83836200056f565b90506200039a565b600260005460ff166003811115620009c157620009c162000ba5565b036200039a576200099d83620003a0565b6107218062000db283390190565b6104e480620014d383390190565b610cdf80620019b783390190565b610e45806200269683390190565b80356001600160a01b03811681146200071e57600080fd5b634e487b7160e01b600052604160045260246000fd5b600082601f83011262000a4a57600080fd5b813567ffffffffffffffff8082111562000a685762000a6862000a22565b604051601f8301601f19908116603f0116810190828211818310171562000a935762000a9362000a22565b8160405283815286602085880101111562000aad57600080fd5b836020870160208301376000602085830101528094505050505092915050565b6000806040838503121562000ae157600080fd5b62000aec8362000a0a565b9150602083013567ffffffffffffffff81111562000b0957600080fd5b62000b178582860162000a38565b9150509250929050565b60006020828403121562000b3457600080fd5b620005688262000a0a565b60008060006060848603121562000b5557600080fd5b62000b608462000a0a565b925062000b706020850162000a0a565b9150604084013567ffffffffffffffff81111562000b8d57600080fd5b62000b9b8682870162000a38565b9150509250925092565b634e487b7160e01b600052602160045260246000fd5b602081016004831062000bde57634e487b7160e01b600052602160045260246000fd5b91905290565b6000806040838503121562000bf857600080fd5b62000c038362000a0a565b915062000c136020840162000a0a565b90509250929050565b6000815180845260005b8181101562000c445760208185018101518683018201520162000c26565b8181111562000c57576000602083870101525b50601f01601f19169290920160200192915050565b6001600160a01b038316815260406020820181905260009062000c929083018462000c1c565b949350505050565b60208082526031908201527f70726f787920696d706c656d656e746174696f6e20646f6573277420696e636c6040820152707564652061646d696e206164647265737360781b606082015260800190565b6020808252602a908201527f5472616e73706172656e742070726f78792072657475726e7320612073696e676040820152696c65206164647265737360b01b606082015260800190565b60208082526025908201527f555550532070726f78696573207265717569726520616e2061646d696e206164604082015264647265737360d81b606082015260800190565b6001600160a01b0384811682528316602082015260606040820181905260009062000da89083018462000c1c565b9594505050505056fe608060405260405161072138038061072183398101604081905261002291610314565b61002e82826000610035565b5050610431565b61003e8361006b565b60008251118061004b5750805b156100665761006483836100ab60201b6100291760201c565b505b505050565b610074816100d7565b6040516001600160a01b038216907fbc7cd75a20ee27fd9adebab32041f755214dbc6bffa90cc0225b39da2e5c2d3b90600090a250565b60606100d083836040518060600160405280602781526020016106fa602791396101a9565b9392505050565b6100ea8161028760201b6100551760201c565b6101515760405162461bcd60e51b815260206004820152602d60248201527f455243313936373a206e657720696d706c656d656e746174696f6e206973206e60448201526c1bdd08184818dbdb9d1c9858dd609a1b60648201526084015b60405180910390fd5b806101887f360894a13ba1a3210667c828492db98dca3e2076cc3735a920a3ca505d382bbc60001b61029660201b6100641760201c565b80546001600160a01b0319166001600160a01b039290921691909117905550565b60606001600160a01b0384163b6102115760405162461bcd60e51b815260206004820152602660248201527f416464726573733a2064656c65676174652063616c6c20746f206e6f6e2d636f6044820152651b9d1c9858dd60d21b6064820152608401610148565b600080856001600160a01b03168560405161022c91906103e2565b600060405180830381855af49150503d8060008114610267576040519150601f19603f3d011682016040523d82523d6000602084013e61026c565b606091505b50909250905061027d828286610299565b9695505050505050565b6001600160a01b03163b151590565b90565b606083156102a85750816100d0565b8251156102b85782518084602001fd5b8160405162461bcd60e51b815260040161014891906103fe565b634e487b7160e01b600052604160045260246000fd5b60005b838110156103035781810151838201526020016102eb565b838111156100645750506000910152565b6000806040838503121561032757600080fd5b82516001600160a01b038116811461033e57600080fd5b60208401519092506001600160401b038082111561035b57600080fd5b818501915085601f83011261036f57600080fd5b815181811115610381576103816102d2565b604051601f8201601f19908116603f011681019083821181831017156103a9576103a96102d2565b816040528281528860208487010111156103c257600080fd5b6103d38360208301602088016102e8565b80955050505050509250929050565b600082516103f48184602087016102e8565b9190910192915050565b602081526000825180602084015261041d8160408501602087016102e8565b601f01601f19169190910160400192915050565b6102ba806104406000396000f3fe60806040523661001357610011610017565b005b6100115b610027610022610067565b61009f565b565b606061004e838360405180606001604052806027815260200161025e602791396100c3565b9392505050565b6001600160a01b03163b151590565b90565b600061009a7f360894a13ba1a3210667c828492db98dca3e2076cc3735a920a3ca505d382bbc546001600160a01b031690565b905090565b3660008037600080366000845af43d6000803e8080156100be573d6000f35b3d6000fd5b60606001600160a01b0384163b6101305760405162461bcd60e51b815260206004820152602660248201527f416464726573733a2064656c65676174652063616c6c20746f206e6f6e2d636f6044820152651b9d1c9858dd60d21b60648201526084015b60405180910390fd5b600080856001600160a01b03168560405161014b919061020e565b600060405180830381855af49150503d8060008114610186576040519150601f19603f3d011682016040523d82523d6000602084013e61018b565b606091505b509150915061019b8282866101a5565b9695505050505050565b606083156101b457508161004e565b8251156101c45782518084602001fd5b8160405162461bcd60e51b8152600401610127919061022a565b60005b838110156101f95781810151838201526020016101e1565b83811115610208576000848401525b50505050565b600082516102208184602087016101de565b9190910192915050565b60208152600082518060208401526102498160408501602087016101de565b601f01601f1916919091016040019291505056fe416464726573733a206c6f772d6c6576656c2064656c65676174652063616c6c206661696c6564a2646970667358221220a84fac0c1072d84edc1e7b0baadf6f6dabc35c52aef93bd36c91af8168071aed64736f6c634300080f0033416464726573733a206c6f772d6c6576656c2064656c65676174652063616c6c206661696c6564608060405234801561001057600080fd5b506040516104e43803806104e483398101604081905261002f91610151565b61003833610047565b61004181610097565b50610181565b600080546001600160a01b038381166001600160a01b0319831681178455604051919092169283917f8be0079c531659141344cd1fd0a4f28419497f9722a3daafe3b4186f6b6457e09190a35050565b6100aa8161014260201b6101a01760201c565b6101205760405162461bcd60e51b815260206004820152603360248201527f5570677261646561626c65426561636f6e3a20696d706c656d656e746174696f60448201527f6e206973206e6f74206120636f6e747261637400000000000000000000000000606482015260840160405180910390fd5b600180546001600160a01b0319166001600160a01b0392909216919091179055565b6001600160a01b03163b151590565b60006020828403121561016357600080fd5b81516001600160a01b038116811461017a57600080fd5b9392505050565b610354806101906000396000f3fe608060405234801561001057600080fd5b50600436106100575760003560e01c80633659cfe61461005c5780635c60da1b14610071578063715018a61461009a5780638da5cb5b146100a2578063f2fde38b146100b3575b600080fd5b61006f61006a3660046102ee565b6100c6565b005b6001546001600160a01b03165b6040516001600160a01b03909116815260200160405180910390f35b61006f61010e565b6000546001600160a01b031661007e565b61006f6100c13660046102ee565b610122565b6100ce6101af565b6100d781610209565b6040516001600160a01b038216907fbc7cd75a20ee27fd9adebab32041f755214dbc6bffa90cc0225b39da2e5c2d3b90600090a250565b6101166101af565b610120600061029e565b565b61012a6101af565b6001600160a01b0381166101945760405162461bcd60e51b815260206004820152602660248201527f4f776e61626c653a206e6577206f776e657220697320746865207a65726f206160448201526564647265737360d01b60648201526084015b60405180910390fd5b61019d8161029e565b50565b6001600160a01b03163b151590565b6000546001600160a01b031633146101205760405162461bcd60e51b815260206004820181905260248201527f4f776e61626c653a2063616c6c6572206973206e6f7420746865206f776e6572604482015260640161018b565b6001600160a01b0381163b61027c5760405162461bcd60e51b815260206004820152603360248201527f5570677261646561626c65426561636f6e3a20696d706c656d656e746174696f6044820152721b881a5cc81b9bdd08184818dbdb9d1c9858dd606a1b606482015260840161018b565b600180546001600160a01b0319166001600160a01b0392909216919091179055565b600080546001600160a01b038381166001600160a01b0319831681178455604051919092169283917f8be0079c531659141344cd1fd0a4f28419497f9722a3daafe3b4186f6b6457e09190a35050565b60006020828403121561030057600080fd5b81356001600160a01b038116811461031757600080fd5b939250505056fea264697066735822122014fff1e4110ee6b8e03bb3b3788f7d3331263072038d740fe87e5375038cf25e64736f6c634300080f003360806040523480156200001157600080fd5b5060405162000cdf38038062000cdf83398101604081905262000034916200049c565b818162000044828260006200004e565b50505050620005db565b620000598362000123565b6040516001600160a01b038416907f1cf3b03a6cf19fa2baba4df148e9dcabedea7f8a5c07840e207e5c089be95d3e90600090a26000825111806200009b5750805b156200011e576200011c836001600160a01b0316635c60da1b6040518163ffffffff1660e01b8152600401602060405180830381865afa158015620000e4573d6000803e3d6000fd5b505050506040513d601f19601f820116820180604052508101906200010a91906200056a565b83620002d560201b6200007b1760201c565b505b505050565b62000139816200030460201b620000a71760201c565b620001995760405162461bcd60e51b815260206004820152602560248201527f455243313936373a206e657720626561636f6e206973206e6f74206120636f6e6044820152641d1c9858dd60da1b60648201526084015b60405180910390fd5b62000213816001600160a01b0316635c60da1b6040518163ffffffff1660e01b8152600401602060405180830381865afa158015620001dc573d6000803e3d6000fd5b505050506040513d601f19601f820116820180604052508101906200020291906200056a565b6200030460201b620000a71760201c565b6200027a5760405162461bcd60e51b815260206004820152603060248201527f455243313936373a20626561636f6e20696d706c656d656e746174696f6e206960448201526f1cc81b9bdd08184818dbdb9d1c9858dd60821b606482015260840162000190565b80620002b47fa3f0ad74e5423aebfd80d3ef4346578335a9a72aeaee59ff6cb3582b35133d5060001b6200031360201b620000b61760201c565b80546001600160a01b0319166001600160a01b039290921691909117905550565b6060620002fd838360405180606001604052806027815260200162000cb86027913962000316565b9392505050565b6001600160a01b03163b151590565b90565b60606001600160a01b0384163b620003805760405162461bcd60e51b815260206004820152602660248201527f416464726573733a2064656c65676174652063616c6c20746f206e6f6e2d636f6044820152651b9d1c9858dd60d21b606482015260840162000190565b600080856001600160a01b0316856040516200039d919062000588565b600060405180830381855af49150503d8060008114620003da576040519150601f19603f3d011682016040523d82523d6000602084013e620003df565b606091505b509092509050620003f2828286620003fc565b9695505050505050565b606083156200040d575081620002fd565b8251156200041e5782518084602001fd5b8160405162461bcd60e51b8152600401620001909190620005a6565b80516001600160a01b03811681146200045257600080fd5b919050565b634e487b7160e01b600052604160045260246000fd5b60005b838110156200048a57818101518382015260200162000470565b838111156200011c5750506000910152565b60008060408385031215620004b057600080fd5b620004bb836200043a565b60208401519092506001600160401b0380821115620004d957600080fd5b818501915085601f830112620004ee57600080fd5b81518181111562000503576200050362000457565b604051601f8201601f19908116603f011681019083821181831017156200052e576200052e62000457565b816040528281528860208487010111156200054857600080fd5b6200055b8360208301602088016200046d565b80955050505050509250929050565b6000602082840312156200057d57600080fd5b620002fd826200043a565b600082516200059c8184602087016200046d565b9190910192915050565b6020815260008251806020840152620005c78160408501602087016200046d565b601f01601f19169190910160400192915050565b6106cd80620005eb6000396000f3fe6080604052600436106100225760003560e01c80635aabcad51461003957610031565b366100315761002f610059565b005b61002f610059565b34801561004557600080fd5b5061002f610054366004610504565b61006b565b6100696100646100b9565b610152565b565b610076838383610176565b505050565b60606100a0838360405180606001604052806027815260200161067160279139610236565b9392505050565b6001600160a01b03163b151590565b90565b60006100ec7fa3f0ad74e5423aebfd80d3ef4346578335a9a72aeaee59ff6cb3582b35133d50546001600160a01b031690565b6001600160a01b0316635c60da1b6040518163ffffffff1660e01b8152600401602060405180830381865afa158015610129573d6000803e3d6000fd5b505050506040513d601f19601f8201168201806040525081019061014d91906105d8565b905090565b3660008037600080366000845af43d6000803e808015610171573d6000f35b3d6000fd5b61017f83610318565b6040516001600160a01b038416907f1cf3b03a6cf19fa2baba4df148e9dcabedea7f8a5c07840e207e5c089be95d3e90600090a26000825111806101c05750805b1561007657610230836001600160a01b0316635c60da1b6040518163ffffffff1660e01b8152600401602060405180830381865afa158015610206573d6000803e3d6000fd5b505050506040513d601f19601f8201168201806040525081019061022a91906105d8565b8361007b565b50505050565b60606001600160a01b0384163b6102a35760405162461bcd60e51b815260206004820152602660248201527f416464726573733a2064656c65676174652063616c6c20746f206e6f6e2d636f6044820152651b9d1c9858dd60d21b60648201526084015b60405180910390fd5b600080856001600160a01b0316856040516102be9190610621565b600060405180830381855af49150503d80600081146102f9576040519150601f19603f3d011682016040523d82523d6000602084013e6102fe565b606091505b509150915061030e828286610488565b9695505050505050565b6001600160a01b0381163b61037d5760405162461bcd60e51b815260206004820152602560248201527f455243313936373a206e657720626561636f6e206973206e6f74206120636f6e6044820152641d1c9858dd60da1b606482015260840161029a565b6103e2816001600160a01b0316635c60da1b6040518163ffffffff1660e01b8152600401602060405180830381865afa1580156103be573d6000803e3d6000fd5b505050506040513d601f19601f820116820180604052508101906100a791906105d8565b6104475760405162461bcd60e51b815260206004820152603060248201527f455243313936373a20626561636f6e20696d706c656d656e746174696f6e206960448201526f1cc81b9bdd08184818dbdb9d1c9858dd60821b606482015260840161029a565b7fa3f0ad74e5423aebfd80d3ef4346578335a9a72aeaee59ff6cb3582b35133d5080546001600160a01b0319166001600160a01b0392909216919091179055565b606083156104975750816100a0565b8251156104a75782518084602001fd5b8160405162461bcd60e51b815260040161029a919061063d565b6001600160a01b03811681146104d657600080fd5b50565b634e487b7160e01b600052604160045260246000fd5b803580151581146104ff57600080fd5b919050565b60008060006060848603121561051957600080fd5b8335610524816104c1565b9250602084013567ffffffffffffffff8082111561054157600080fd5b818601915086601f83011261055557600080fd5b813581811115610567576105676104d9565b604051601f8201601f19908116603f0116810190838211818310171561058f5761058f6104d9565b816040528281528960208487010111156105a857600080fd5b8260208601602083013760006020848301015280965050505050506105cf604085016104ef565b90509250925092565b6000602082840312156105ea57600080fd5b81516100a0816104c1565b60005b838110156106105781810151838201526020016105f8565b838111156102305750506000910152565b600082516106338184602087016105f5565b9190910192915050565b602081526000825180602084015261065c8160408501602087016105f5565b601f01601f1916919091016040019291505056fe416464726573733a206c6f772d6c6576656c2064656c65676174652063616c6c206661696c6564a264697066735822122089c344e7716510cbfba550f82c600052176897a84c042df540467c81a58a6a9c64736f6c634300080f0033416464726573733a206c6f772d6c6576656c2064656c65676174652063616c6c206661696c6564608060405260405162000e4538038062000e45833981016040819052620000269162000490565b828162000036828260006200004d565b50620000449050826200008a565b505050620005c3565b6200005883620000e5565b600082511180620000665750805b1562000085576200008383836200012760201b6200022e1760201c565b505b505050565b7f7e644d79422f17c01e4894b5f4f588d331ebfa28653d42ae832dc59e38c9798f620000b562000156565b604080516001600160a01b03928316815291841660208301520160405180910390a1620000e2816200018f565b50565b620000f08162000244565b6040516001600160a01b038216907fbc7cd75a20ee27fd9adebab32041f755214dbc6bffa90cc0225b39da2e5c2d3b90600090a250565b60606200014f838360405180606001604052806027815260200162000e1e60279139620002f8565b9392505050565b60006200018060008051602062000dfe83398151915260001b620003de60201b620001ea1760201c565b546001600160a01b0316919050565b6001600160a01b038116620001fa5760405162461bcd60e51b815260206004820152602660248201527f455243313936373a206e65772061646d696e20697320746865207a65726f206160448201526564647265737360d01b60648201526084015b60405180910390fd5b806200022360008051602062000dfe83398151915260001b620003de60201b620001ea1760201c565b80546001600160a01b0319166001600160a01b039290921691909117905550565b6200025a81620003e160201b6200025a1760201c565b620002be5760405162461bcd60e51b815260206004820152602d60248201527f455243313936373a206e657720696d706c656d656e746174696f6e206973206e60448201526c1bdd08184818dbdb9d1c9858dd609a1b6064820152608401620001f1565b80620002237f360894a13ba1a3210667c828492db98dca3e2076cc3735a920a3ca505d382bbc60001b620003de60201b620001ea1760201c565b60606001600160a01b0384163b620003625760405162461bcd60e51b815260206004820152602660248201527f416464726573733a2064656c65676174652063616c6c20746f206e6f6e2d636f6044820152651b9d1c9858dd60d21b6064820152608401620001f1565b600080856001600160a01b0316856040516200037f919062000570565b600060405180830381855af49150503d8060008114620003bc576040519150601f19603f3d011682016040523d82523d6000602084013e620003c1565b606091505b509092509050620003d4828286620003f0565b9695505050505050565b90565b6001600160a01b03163b151590565b60608315620004015750816200014f565b825115620004125782518084602001fd5b8160405162461bcd60e51b8152600401620001f191906200058e565b80516001600160a01b03811681146200044657600080fd5b919050565b634e487b7160e01b600052604160045260246000fd5b60005b838110156200047e57818101518382015260200162000464565b83811115620000835750506000910152565b600080600060608486031215620004a657600080fd5b620004b1846200042e565b9250620004c1602085016200042e565b60408501519092506001600160401b0380821115620004df57600080fd5b818601915086601f830112620004f457600080fd5b8151818111156200050957620005096200044b565b604051601f8201601f19908116603f011681019083821181831017156200053457620005346200044b565b816040528281528960208487010111156200054e57600080fd5b6200056183602083016020880162000461565b80955050505050509250925092565b600082516200058481846020870162000461565b9190910192915050565b6020815260008251806020840152620005af81604085016020870162000461565b601f01601f19169190910160400192915050565b61082b80620005d36000396000f3fe60806040526004361061004e5760003560e01c80633659cfe6146100655780634f1ef286146100855780635c60da1b146100985780638f283970146100c9578063f851a440146100e95761005d565b3661005d5761005b6100fe565b005b61005b6100fe565b34801561007157600080fd5b5061005b6100803660046106b5565b610118565b61005b6100933660046106d0565b610155565b3480156100a457600080fd5b506100ad6101bc565b6040516001600160a01b03909116815260200160405180910390f35b3480156100d557600080fd5b5061005b6100e43660046106b5565b6101ed565b3480156100f557600080fd5b506100ad61020d565b610106610269565b6101166101116102fe565b610308565b565b61012061032c565b6001600160a01b0316330361014d5761014a8160405180602001604052806000815250600061035f565b50565b61014a6100fe565b61015d61032c565b6001600160a01b031633036101b4576101af8383838080601f0160208091040260200160405190810160405280939291908181526020018383808284376000920191909152506001925061035f915050565b505050565b6101af6100fe565b60006101c661032c565b6001600160a01b031633036101e2576101dd6102fe565b905090565b6101ea6100fe565b90565b6101f561032c565b6001600160a01b0316330361014d5761014a8161038a565b600061021761032c565b6001600160a01b031633036101e2576101dd61032c565b606061025383836040518060600160405280602781526020016107cf602791396103de565b9392505050565b6001600160a01b03163b151590565b61027161032c565b6001600160a01b031633036101165760405162461bcd60e51b815260206004820152604260248201527f5472616e73706172656e745570677261646561626c6550726f78793a2061646d60448201527f696e2063616e6e6f742066616c6c6261636b20746f2070726f78792074617267606482015261195d60f21b608482015260a4015b60405180910390fd5b60006101dd6104bb565b3660008037600080366000845af43d6000803e808015610327573d6000f35b3d6000fd5b60007fb53127684a568b3173ae13b9f8a6016e243e63b6e8ee1178d6a717850b5d61035b546001600160a01b0316919050565b610368836104e3565b6000825111806103755750805b156101af57610384838361022e565b50505050565b7f7e644d79422f17c01e4894b5f4f588d331ebfa28653d42ae832dc59e38c9798f6103b361032c565b604080516001600160a01b03928316815291841660208301520160405180910390a161014a81610523565b60606001600160a01b0384163b6104465760405162461bcd60e51b815260206004820152602660248201527f416464726573733a2064656c65676174652063616c6c20746f206e6f6e2d636f6044820152651b9d1c9858dd60d21b60648201526084016102f5565b600080856001600160a01b031685604051610461919061077f565b600060405180830381855af49150503d806000811461049c576040519150601f19603f3d011682016040523d82523d6000602084013e6104a1565b606091505b50915091506104b18282866105cc565b9695505050505050565b60007f360894a13ba1a3210667c828492db98dca3e2076cc3735a920a3ca505d382bbc610350565b6104ec81610605565b6040516001600160a01b038216907fbc7cd75a20ee27fd9adebab32041f755214dbc6bffa90cc0225b39da2e5c2d3b90600090a250565b6001600160a01b0381166105885760405162461bcd60e51b815260206004820152602660248201527f455243313936373a206e65772061646d696e20697320746865207a65726f206160448201526564647265737360d01b60648201526084016102f5565b807fb53127684a568b3173ae13b9f8a6016e243e63b6e8ee1178d6a717850b5d61035b80546001600160a01b0319166001600160a01b039290921691909117905550565b606083156105db575081610253565b8251156105eb5782518084602001fd5b8160405162461bcd60e51b81526004016102f5919061079b565b6001600160a01b0381163b6106725760405162461bcd60e51b815260206004820152602d60248201527f455243313936373a206e657720696d706c656d656e746174696f6e206973206e60448201526c1bdd08184818dbdb9d1c9858dd609a1b60648201526084016102f5565b807f360894a13ba1a3210667c828492db98dca3e2076cc3735a920a3ca505d382bbc6105ab565b80356001600160a01b03811681146106b057600080fd5b919050565b6000602082840312156106c757600080fd5b61025382610699565b6000806000604084860312156106e557600080fd5b6106ee84610699565b9250602084013567ffffffffffffffff8082111561070b57600080fd5b818601915086601f83011261071f57600080fd5b81358181111561072e57600080fd5b87602082850101111561074057600080fd5b6020830194508093505050509250925092565b60005b8381101561076e578181015183820152602001610756565b838111156103845750506000910152565b60008251610791818460208701610753565b9190910192915050565b60208152600082518060208401526107ba816040850160208701610753565b601f01601f1916919091016040019291505056fe416464726573733a206c6f772d6c6576656c2064656c65676174652063616c6c206661696c6564a2646970667358221220a6fbb80150f607ee3e25aab528226e0c46f23285b103f1077d92ff6c19bb46d864736f6c634300080f0033b53127684a568b3173ae13b9f8a6016e243e63b6e8ee1178d6a717850b5d6103416464726573733a206c6f772d6c6576656c2064656c65676174652063616c6c206661696c6564a2646970667358221220d152f116302e81182eb9ce7972eb44daf5922f1940b41829072151a3f0e3fcf764736f6c634300080f0033",
    "linkReferences": {}
  },
  "methodIdentifiers": {
    "beacon()": "59659e90",
    "beaconAddress()": "7e2ec6d0",
    "beaconProxy()": "eb272157",
    "deploy(address)": "4c96a389",
    "deploy(address,address)": "545e7c61",
    "deploy(address,address,bytes)": "2db5b86f",
    "deploy(address,bytes)": "e97fac05",
    "deployBeacon(address)": "27be6312",
    "deployBeaconProxy(address,bytes)": "4548bcb0",
    "deployErc1967Proxy(address,bytes)": "0fbab1fd",
    "deployUupsProxy(address,address,bytes)": "d26643c2",
    "erc1967()": "1f6c36f9",
    "proxyAddress()": "23f5c02d",
    "proxyType()": "4555d5c9",
    "uups()": "a887a3cd"
  },
  "id": 7
}